{
  "_format": "hh-sol-artifact-1",
  "contractName": "SVG2",
  "sourceName": "contracts/svg/SVG2.sol",
  "abi": [
    {
      "inputs": [],
      "name": "getSvgPart2",
      "outputs": [
        {
          "internalType": "string",
          "name": "",
          "type": "string"
        }
      ],
      "stateMutability": "pure",
      "type": "function"
    }
  ],
  "bytecode": "0x608060405234801561001057600080fd5b50612eb9806100206000396000f3fe608060405234801561001057600080fd5b506004361061002b5760003560e01c80632351f38b14610030575b600080fd5b61003861004e565b60405161004591906100d5565b60405180910390f35b606060405160200161005f906109c2565b604051602081830303815290604052905090565b60005b8381101561008e578181015183820152602001610076565b8381111561009d576000848401525b50505050565b60006100ad825190565b8084526020840193506100c4818560208601610073565b601f01601f19169290920192915050565b602080825281016100e681846100a3565b9392505050565b6a1e17b1b634b82830ba341f60a91b8152600b0190565b791e31b634b82830ba341034b21e9131b634b83830ba341698911f60311b815260005b50601a0190565b791e31b634b82830ba341034b21e9131b634b83830ba341699111f60311b81526000610127565b791e31b634b82830ba341034b21e9131b634b83830ba341699911f60311b81526000610127565b600080516020612e6483398151915281527f313d22313436322e38222078323d223135372e34222079323d22313436322e3860208201526211179f60e91b604082015260005b5060430190565b7f3c6c696e6520636c6173733d22636c732d38222078313d2234302e363922207981527f313d22313436362e3534222078323d223135372e34222079323d22313436362e6020820152641a9a11179f60d91b604082015260005b5060450190565b600080516020612e6483398151915281527f313d22313437302e3238222078323d223135372e34222079323d22313437302e602082015264191c11179f60d91b60408201526000610223565b7f3c6c696e6520636c6173733d22636c732d38222078313d2234302e323722207981527f313d22313437342e3032222078323d223135372e34222079323d22313437342e602082015264181911179f60d91b60408201526000610223565b7f3c6c696e6520636c6173733d22636c732d38222078313d2234302e363322207981527f313d22313437372e3736222078323d223135372e34222079323d22313437372e6020820152641b9b11179f60d91b60408201526000610223565b7f3c6c696e6520636c6173733d22636c732d38222078313d2234302e373722207981527f313d22313438312e35222078323d223135372e34222079323d22313438312e3560208201526211179f60e91b604082015260006101c2565b7f3c6c696e6520636c6173733d22636c732d38222078313d2234312e333622207981527f313d22313438352e3234222078323d223135372e34222079323d22313438352e602082015264191a11179f60d91b60408201526000610223565b7f3c6c696e6520636c6173733d22636c732d38222078313d2234322e373322207981527f313d22313438382e3938222078323d223135372e34222079323d22313438382e6020820152641c9c11179f60d91b60408201526000610223565b7f3c6c696e6520636c6173733d22636c732d38222078313d2234372e383922207981527f313d22313439322e3732222078323d223135372e34222079323d22313439322e6020820152641b9911179f60d91b60408201526000610223565b7f3c6c696e6520636c6173733d22636c732d39222078313d2236332e303722207981527f313d223132312e3133222078323d2236332e3037222079323d22313436382e386020820152631991179f60e11b604082015260005b5060440190565b7f3c7061746820636c6173733d22636c732d362220643d224d36382e37382c313481527f34352e373473322e30342c382e30312c392e38342c31302e3231222f3e000000602082015260005b50603d0190565b7f3c7061746820636c6173733d22636c732d362220643d224d3131302e30352c3181527f3431392e303263362e30342c322e34342c31372e37312c392e35342c382e353160208201527f2c32362d31322e30352c32312e35372d32322e342c32352e32342d32322e342c604082015267191a97191a11179f60c11b606082015260005b5060680190565b7f3c7061746820636c6173733d22636c732d362220643d224d39302e31352c313481527a1b99971b19b9969897189c96171b1a969997189c16171c9c91179f60291b602082015260005b50603b0190565b7f3c7061746820636c6173733d22636c732d362220643d224d3136342e33342c3181527a1a1c1b971a18b996971b9b96171b9a169b171a1916171b9c11179f60291b6020820152600061062f565b7f3c7061746820636c6173733d22636c732d362220643d224d35312e30332c313481527f34392e3232732e36312d31312e35352c392e39392d32312e3934222f3e00000060208201526000610554565b7f3c7061746820636c6173733d22636c732d362220643d224d35312e38322c313481527f35352e3039632e33342c312e34362c2e38362c332e30382c312e36322c342e376020820152631b11179f60e11b60408201526000610501565b7f3c7061746820636c6173733d22636c732d362220643d224d39372e35312c313381527f39342e3163342e34352d352e39312c31342e37322d31362e392c32302e372d3160208201527f2e39372c362e31362c31352e33392d362e36322c31352e35362d31322e32322c604082015267189a171c9b11179f60c11b606082015260006105de565b7f3c7061746820636c6173733d22636c732d362220643d224d3130332e372c313481527f30322e373863312e34332d2e35312c332e30352d312e35332c332e382d332e356020820152631a91179f60e11b60408201526000610501565b7f3c7061746820636c6173733d22636c732d362220643d224d3131312e34392c3181527a199c99171b1cb99997191c16971c98961b171b191617189a91179f60291b6020820152600061062f565b7f3c7061746820636c6173733d22636c732d362220643d224d3136312e38342c3181527f3436372e323363312e31342c322e34392c2e342c342e36392d342e32312c352e6020820152641b9b11179f60d91b60408201526000610223565b7f3c7061746820636c6173733d22636c732d362220643d224d3134382e39342c3181527f3434302e3234632e33312c322e36352d2e30382c352e38382d322e38392c382e602082015264189c11179f60d91b60408201526000610223565b7f3c7061746820636c6173733d22636c732d362220643d224d3133392e30392c3181527f3433362e3835732d342e34352c312e34362d382e32342c322e3133222f3e0000602082015260005b50603e0190565b7f3c7061746820636c6173733d22636c732d362220643d224d3132382e34362c3181527f3430342e3033732d332e372c31302e32352d2e33332c31382e3835222f3e00006020820152600061096b565b771e31b634b82830ba341034b21e9131b634b83830ba34111f60411b81527f3c7061746820636c6173733d22636c732d312220643d224d313430352e33362c60188201527f33322e3433762d2e3036682d36342e39316c31392e34312c2e3036682d31392e60388201527f37632e31332c2e34332c2e32362c2e38362c2e33382c312e32392c2e34372c3160588201527f2e35352c2e392c332e312c312e332c342e36362c2e34332c312e36362c2e382c60788201527f332e33312c312e31352c342e39382c2e35372c322e37362c312e30332c352e3560988201527f322c312e33372c382e32396830632e332c322e35312c2e352c352c2e35382c3760b88201527f2e352c2e30382c322e32392c2e30372c342e35382d2e30352c362e38362d2e3160d88201527f312c322e31312d2e332c342e32322d2e35392c362e33322d2e32352c312e383160f88201527f2d2e35382c332e36312d2e39372c352e33392d2e33352c312e35372d2e37362c6101188201527f332e31352d312e32332c342e372d2e34352c312e34392d2e39352c322e39362d6101388201527f312e35312c342e34322d2e35332c312e342d312e31312c322e37382d312e37366101588201527f2c342e31362d2e33332c2e37332d2e372c312e34372d312e30362c322e31392d6101788201527f2e332c2e35382d2e36322c312e31362d2e39332c312e37342d2e372c312e32356101988201527f2d312e34342c322e34382d322e32322c332e36392d2e37382c312e31382d312e6101b88201527f362c322e33342d322e34372c332e34372d2e38342c312e31322d312e37342c326101d88201527f2e322d322e36372c332e32352d2e39332c312e30352d312e392c322e30362d326101f88201527f2e39312c332e30322d312e30312c2e39382d322e30362c312e39322d332e31336102188201527f2c322e37392d312e312c2e392d322e32342c312e37352d332e342c322e35342d6102388201527f312e31392c2e382d322e34312c312e35362d332e36382c322e32352d312e32396102588201527f2c2e37322d322e36332c312e33372d332e39392c312e39336c372e35372c372e6102788201527f3537632e35372d312e33362c312e32322d322e372c312e39332d332e39392c2e6102988201527f36392d312e32352c312e34342d322e34382c322e32362d332e36372c2e37382d6102b88201527f312e31362c312e36332d322e32392c322e35342d332e342c2e38382d312e30396102d88201527f2c312e38312d322e31332c322e37382d332e31352c2e39372d312e30312c312e6102f88201527f39382d312e39382c332e30332d322e392c312e30342d2e39352c322e31322d316103188201527f2e38332c332e32342d322e36392c312e31322d2e38362c322e32382d312e36396103388201527f2c332e34372d322e34362c312e32312d2e37392c322e34342d312e35342c332e6103588201527f36392d322e32342c2e35372d2e33322c312e31352d2e36332c312e37332d2e396103788201527f322c2e37332d2e33382c312e34372d2e37332c322e322d312e30382c312e33386103988201527f2d2e36342c322e37382d312e32332c342e31382d312e3735682e303163312e346103b88201527f372d2e35372c322e39322d312e30382c342e34312d312e35312c312e35362d2e6103d88201527f34372c332e31322d2e38382c342e37312d312e32322c312e37392d2e342c332e6103f88201527f35382d2e37332c352e33392d2e3937682e303163322e31312d2e332c342e322d6104188201527f2e352c362e33322d2e35392c322e32382d2e31332c342e35372d2e31342c362e6104388201527f38362d2e30352c322e352c2e30382c352c2e32382c372e352c2e35392c322e376104588201527f372c2e33332c352e35322c2e37392c382e32382c312e33372c312e36362c2e336104788201527f332c332e332c2e37322c342e39342c312e31342c312e35392c2e342c332e31356104988201527f2c2e38342c342e37312c312e33312c2e34312c2e31322c2e38332c2e32342c316104b88201527f2e32342c2e3337762d31392e37326c2e30392c31392e37385633322e3433682d6104d88201526617181cad11179f60c91b6104f88201526104ff016000610fe9826100ed565b9150610ff482610104565b7f3c7061746820636c6173733d22636c732d312220643d224d33322e30312c333281527f2e3433762d2e303668352e3573342e37342c302c342e37342c3068342e37337360208201527f342e37332c302c342e37332c3068342e373473342e37332c302c342e37332c3060408201527f68342e373473352e33382c302c352e33382c3068362e323573352e37312c302c60608201527f352e37312c3068372e343573362e31392c302c362e31392c306c2d31392e343160808201527f2c2e303668352e373173372e34352c302c372e34352c3068362e3533632d2e3160a08201527f332c2e34332d2e32362c2e38362d2e33382c312e32392d2e34372c312e35352d60c08201527f2e392c332e312d312e332c342e36362d2e34332c312e36362d2e382c332e333160e08201527f2d312e31352c342e39382d2e35372c322e37362d312e30332c352e35322d312e6101008201527f33372c382e32396830632d2e332c322e35312d2e352c352d2e35382c372e352d6101208201527f2e30382c322e32392d2e30372c342e35382c2e30352c362e38362c2e31312c326101408201527f2e31312c2e332c342e32322c2e35392c362e33322c2e32352c312e38312c2e356101608201527f382c332e36312c2e39372c352e33392c2e33352c312e35372c2e37362c332e316101808201527f352c312e32332c342e372c2e34352c312e34392c2e39352c322e39362c312e356101a08201527f312c342e34322c2e35332c312e342c312e31312c322e37382c312e37362c342e6101c08201527f31362c2e33332c2e37332c2e372c312e34372c312e30362c322e31392c2e332c6101e08201527f2e35382c2e36322c312e31362c2e39332c312e37342c2e372c312e32352c312e6102008201527f34342c322e34382c322e32322c332e36392c2e37382c312e31382c312e362c326102208201527f2e33342c322e34372c332e34372c2e38342c312e31322c312e37342c322e322c6102408201527f322e36372c332e32352c2e39332c312e30352c312e392c322e30362c322e39316102608201527f2c332e30322c312e30312c2e39382c322e30362c312e39322c332e31332c322e6102808201527f37392c312e312c2e392c322e32342c312e37352c332e342c322e35342c312e316102a08201527f392c2e382c322e34312c312e35362c332e36382c322e32352c312e32392c2e376102c08201527f322c322e36332c312e33372c332e39392c312e39336c2d372e35372c372e35376102e08201527f632d2e35372d312e33362d312e32322d322e372d312e39332d332e39392d2e366103008201527f392d312e32352d312e34342d322e34382d322e32362d332e36372d2e37382d316103208201527f2e31362d312e36332d322e32392d322e35342d332e342d2e38382d312e30392d6103408201527f312e38312d322e31332d322e37382d332e31352d2e39372d312e30312d312e396103608201527f382d312e39382d332e30332d322e392d312e30342d2e39352d322e31322d312e6103808201527f38332d332e32342d322e36392d312e31322d2e38362d322e32382d312e36392d6103a08201527f332e34372d322e34362d312e32312d2e37392d322e34342d312e35342d332e366103c08201527f392d322e32342d2e35372d2e33322d312e31352d2e36332d312e37332d2e39326103e08201527f2d2e37332d2e33382d312e34372d2e37332d322e322d312e30382d312e33382d6104008201527f2e36342d322e37382d312e32332d342e31382d312e3735682d2e3031632d312e6104208201527f34372d2e35372d322e39322d312e30382d342e34312d312e35312d312e35362d6104408201527f2e34372d332e31322d2e38382d342e37312d312e32322d312e37392d2e342d336104608201527f2e35382d2e37332d352e33392d2e3937682d2e3031632d322e31312d2e332d346104808201527f2e322d2e352d362e33322d2e35392d322e32382d2e31332d342e35372d2e31346104a08201527f2d362e38362d2e30352d322e352c2e30382d352c2e32382d372e352c2e35392d6104c08201527f322e37372c2e33332d352e35322c2e37392d382e32382c312e33372d312e36366104e08201527f2c2e33332d332e332c2e37322d342e39342c312e31342d312e35392c2e342d336105008201527f2e31352c2e38342d342e37312c312e33312d2e34312c2e31322d2e38332c2e326105208201527f342d312e32342c2e3337762d362e353873302d372e34342c302d372e3434762d6105408201527f352e37732d2e30392c31392e37382d2e30392c31392e3738762d362e353473306105608201527f2d372e34342c302d372e3434762d352e3773302d362e32362c302d362e3236766105808201527f2d352e333873302d342e37332c302d342e3733762d342e373673302d342e37336105a08201527f2c302d342e3733762d342e373373302d342e37332c302d342e3733762d342e376105c08201527619b998169a971a9a9618169a971a9ab417181cad11179f60491b6105e08201526105f7019150611742826100ed565b915061174d8261012e565b7f3c7061746820636c6173733d22636c732d312220643d224d313337392e35322c81527f313531392e3638762d31362e303768312e33396331332e30342c302c32332e3660208201527f322d31302e35372c32332e36322d32332e3632762d322e35396831362e30377660408201527f32312e363263302c31312e34312d392e32352c32302e36362d32302e36362c3260608201526e18171b1b34169918171a192d11179f60891b6080820152608f019150611808826100ed565b915061181382610155565b7f3c7061746820636c6173733d22636c732d312220643d224d35372e36342c313581527f31392e3638762d31362e3037732d312e33392c302d312e33392c30632d31332e60208201527f30342c302d32332e36322d31302e35372d32332e36322d32332e3632762d322e60408201527f3539732d31362e30372c302d31362e30372c307632312e363263302c31312e3460608201527f312c392e32352c32302e36362c32302e36362c32302e36366832302e34325a22608082015261179f60f11b60a082015260a20191506118e7826100ed565b661e17b232b3399f60c91b81527f3c7061746820636c6173733d22636c732d32392220643d224d313430362e353760078201527f2c336331352e32322c302c32372e362c31322e33382c32372e362c32372e365660278201527f313530352e373863302c31352e32322d31322e33382c32372e362d32372e362c60478201527f32372e364833302e36632d31352e32322c302d32372e362d31322e33382d323760678201527f2e362d32372e365633302e3643332c31352e33382c31352e33382c332c33302e60878201527f362c3348313430362e35374d313430362e35372c304833302e364331332e372c60a78201527f302c302c31332e372c302c33302e3656313530352e373863302c31362e392c3160c78201527f332e372c33302e362c33302e362c33302e3648313430362e35376331362e392c60e78201527f302c33302e362d31332e372c33302e362d33302e365633302e3643313433372e6101078201527f31372c31332e372c313432332e34372c302c313430362e35372c3068305a222f610127820152601f60f91b610147820152610148019150611a8c8261017c565b9150611a97826101c9565b9150611aa28261022a565b9150611aad82610276565b9150611ab8826102d4565b9150611ac382610332565b9150611ace8261038e565b9150611ad9826103ec565b9150611ae48261044a565b9150611aef826104a8565b7f3c7061746820636c6173733d22636c732d31392220643d224d3138312e36312c81527f313437312e3537632d342e30332d392e34342d31392e35392d31372e37352d3360208201527f332e34312d32332e35312c312e36382d322e30362c322e33392d342e37372c3260408201527f2e30322d372e39342d2e30332d2e322d2e31312d2e33382d2e32312d2e35342c60608201527f312e31362d322e34352c312e30342d342e39372c312e30342d352e31312c302d60808201527f2e30372d2e30322d2e31352d2e30342d2e32332d2e39382d332e39342d322e3960a08201527f362d362e35362d352e38382d372e37382d2e35392d2e32352d312e32312d2e3460c08201527f322d312e38342d2e35342d2e30342d2e32312d2e31312d2e34312d2e32352d2e60e08201527f35382d2e37382d2e39312d312e36342d312e36352d322e35392d322e32342d316101008201527f2e34362d322e352d322e34392d342e38362d332e31342d372e30382c322e32346101208201527f2c2e372c342e33332c312e30362c362e32352c312e30362c332e35342c302c366101408201527f2e35312d312e31382c382e38382d332e35342c332e31352d332e31342c342e346101608201527f382d382e38322c332e332d31342e31342d312e30322d342e36342d332e36392d6101808201527f382e30372d372e33332d392e33392d312e30392d2e342d322e31392d2e35362d6101a08201527f332e332d2e35342d362e32362d342e362d31322e38392d342e30352d31392e326101c08201527f322c312e36332d312e35382c312e34332d332e34312c332e35382d342e38362c6101e08201527f362e36392d2e31392d312e38322d2e37332d332e38352d312e36332d362e312d6102008201527f322d352e30312d342e37322d372e37372d382e30382d382e32322d352e30362d6102208201527f2e36372d31302e31372c342e312d31332e38342c382e372d2e38322d2e38342d6102408201527f312e362d312e35352d322e33312d322e31322d322e37312d322e31342d342e376102608201527f322d362e39342d362e30392d31312e34382c2e30312d2e30342c2e30332d2e306102808201527f372c2e30342d2e312c2e332d312e30372c2e36382d322e32382c312e30382d336102a08201527f2e35362c312e32332d332e38392c322e36352d382e34312c322e36372d31322e6102c08201527f33312c2e32392c2e30322c2e35372c2e30342c2e38352c2e30342c322e31342c6102e08201527f302c342d2e35342c352e34352d312e35392c312e38382d312e33372c332e30376103008201527f2d332e35342c332e35312d362e34312c312e30312d342e38382d312e38312d316103208201527f312e34392d31302e33352d31342e34372d362e33312d322e322d31342e32372d6103408201527f312e31382d31382e32332c352e38342d312e32342c2e32392d322e34332c2e376103608201527f312d332e35362c312e32382d352e342c322e37372d382e39352c382e36332d316103808201527f302e30312c31362e35312d312e34382c31312e30312c362e34312c31392e34356103a08201527f2c31312e34352c32332e36332c322e34342c342e37332c362e30352c392e362c6103c08201527f31312e33392c31332e39382c332e31352c322e35382c352e36312c342e38332c6103e08201527f372e35352c362e37382d352e34342d322e38362d31322e30362d332e342d31376104008201527f2e392c2e34342d372e36392d2e31352d31372e36352c322e37392d32352e35396104208201527f2c31352e37312d382e31382c31332e32392d372e33352c32352e37372d352e326104408201527f2c33332e392c322e39342c31312e31372c31302e332c32312e31362c31392e326104608201527f312c32362e30372c342e34322c322e34342c392e39352c332e36382c31352e386104808201527f382c332e36382c342e33352c302c382e39332d2e36362c31332e34352d322e306104a08201527f322c31342e33312d342e32372c32362e36372d31342e36362c33352e30332d326104c08201527f392e33352c362e31362c322e39372c31382e36312c392e33362c32332e34312c6104e08201527f31342e37322d2e342c2e37332d2e38392c312e34382d312e34382c322e32382d6105008201527f312e31362c312e35372d312e36332c322e39382d312e34332c342e33332c2e336105208201527f362c322e35352c322e36342c342e30362c352e33392c342e38322d312e37312c6105408201527f2e392d322e39352c322e33332d332e35372c342e322d312e30322c332e30392d6105608201527f2e31362c362e36332c312e32322c382e31342c312e31322c312e32332c342e396105808201527f322c322e35322c392e33372c322e35322c312e30342c302c322e31332d2e30376105a08201527f2c332e32322d2e32332c352e37392d2e38352c31332e38382d342e33322c31396105c08201527f2e35332d31362e30382c312e35322d332e31352c312e35372d362e34332c2e316105e08201527f352d392e37355a6d2d36302e36362d34352e3639632d322e36322d342e30392d6106008201527f362e392d362e352d392e38312d372e37352d2e372d332e33342d312e37392d366106208201527f2e35382d332e312d392e36322c2e33332c2e30312c2e36372c2e30322c312e306106408201527f322c2e30322c332e33342c302c372e33352d2e36352c392e38312d332e322d2e6106608201527f37342c352e32312d2e33382c31312e39342c322e30382c32302e35355a222f3e610680820152621e339f60e91b6106a08201527f3c7061746820636c6173733d22636c732d362220643d224d37352e30342c31336106a38201527f36382e3736732d312e30352d31362e32332c31312e31342d31332e353763392e6106c38201527f37342c322e31332c332e37362c31352e34322c312e36392c32322e3933222f3e6106e38201527f3c7061746820636c6173733d22636c732d362220643d224d38352e34352c31336107038201527f36382e343873322e36312c31372e35352c382e39312c32322e35342c32322e366107238201527f372c32372e37372c31332e38352c34372e3233632d362e30392c31392e38322d6107438201527f32362e36392c32382e38392d34322e34392c31372e35312d382e31382d352e386107638201527f392d392e39312d31362e37362d362e30322d32352e38312c342e31332d392e366107838201527f322c31332e392d31372e38342c32342e30352d31302e38332c392e31312c362e6107a38201527f332c372e342c31352e392d322e36392c32302e30322d31302e30392c342e31326107c38201527f2d31372e35322d352e32312d31322e36382d392e36372c342e38352d342e34366107e382015276161c171c98969997189a961898971a9896971c9a91179f60491b6108038201527f3c7061746820636c6173733d22636c732d362220643d224d37342e34362c313461081a8201527f34302e3034632e34322c322e35392c312e36322c352e38312c342e382c372e3761083a8201527f352c362c332e36362c31342e32352c2e36362c31382e38352d372e39332c342e61085a8201527f362d382e35392d2e32322d31392e36332d342e38372d32322e3431222f3e000061087a82015261089801915061257d82610508565b7f3c7061746820636c6173733d22636c732d362220643d224d35372e37332c313481527f36352e363263352e33312c372e32382c31332e34312c31302e35352c32322e326020820152691a961898171a1a91179f60b11b60408201527f3c7061746820636c6173733d22636c732d362220643d224d38342e35362c3134604a8201527f31322e3532732d32312e34322d31312e34332d33362e31312c31322e3435632d606a8201527f31342e36382c32332e38382d312e382c34392e37352c31332e35352c35382e32608a8201527f322c31352e33352c382e34372c34362e38342c322e38362c36332e38342d323960aa8201527f2e33312c31302e33362d31392e362c322e372d32352e30372d342e38372d323660ca8201526517199b11179f60d11b60ea82015260f00191506126b48261055b565b91506126bf826105e5565b7f3c7061746820636c6173733d22636c732d362220643d224d3133302e32392c3181527f3434322e37376331342e37342c342e37392c35382e33362c32302e36342c353060208201527f2e30312c33372e39382d31302e30312c32302e382d32382e32322c31352e353260408201527f2d33302e30372c31332e34392d312e38352d322e30332d322e37382d392e373860608201527f2c342e31332d31312e31352c362e39312d312e33372c31372e31312d392e343560808201527f2c372e312d31362e35392d382e35372d362e31322d32322e36352d31332e373560a08201526c169999971a16989b971911179f60991b60c08201527f3c7061746820636c6173733d22636c732d362220643d224d3137302e38352c3160cd8201527f3438322e38397331382e30382d31302e37322d31362e38392d33302e3636222f60ed820152601f60f91b61010d82015261010e01915061281c82610636565b915061282782610684565b9150612832826106d4565b7f3c7061746820636c6173733d22636c732d362220643d224d39392e34382c313481527f33362e363663332e37332d372e33352c322e33362d31362e32332d322e39372d60208201527f32322e34332d352e37332d362e36362d31352e342d392e36382d32332e30392d6040820152661a171a1991179f60c91b60608201527f3c7061746820636c6173733d22636c732d362220643d224d36382e33322c313360678201527f36342e3835732d322e31372c32302e38352c31352e382c33352e35376331372e60878201527f39382c31342e37322c31342e36382c31392e35362c31342e36382c31392e353660a78201526211179f60e91b60c78201527f3c7061746820636c6173733d22636c732d362220643d224d37322e39392c313360ca8201527f38362e3635632d342e37362d332e38392d31322e36392d31322e30392d31312e60ea8201527f32362d32322e37312c322e30322d31352e30312c31332e32372d32312e36362c61010a8201526d191b971c19169899971c1c91179f60911b61012a8201527f3c7061746820636c6173733d22636c732d362220643d224d39312e35342c31336101388201527f36312e313863332e34382c2e35362c382e37392c2e322c392e38382d362e38326101588201527f2c322e34332d31312e38332d31392e37342d32302e37362d32362e35382d372e61017882015264191911179f60d91b61019882015261019d019150612a4d82610731565b9150612a58826107b8565b9150612a6382610815565b7f3c7061746820636c6173733d22636c732d362220643d224d3132352e32362c3181527f3435342e393763362e33352c332e30312c31392e392c392e38352c32342e393860208201526816189a971b1b11179f60b91b60408201527f3c7061746820636c6173733d22636c732d362220643d224d3135312e39322c3160498201527f3436372e3239632d2e34342c322e37322d312e36322c342e38372d332e32322c60698201527f372e30352d2e37342c312d312e33382c322e31392d312e322c332e34322c2e3560898201527f312c332e35372c362e32362c342e33372c392e30372c342e3337222f3e00000060a982015260c6019150612b6482610863565b7f3c7061746820636c6173733d22636c732d362220643d224d3132312e35342c3181527f3432372e353563342e36312d332e31312c31342e35362d382e34372c32302e356020820152671698971a1991179f60c11b60408201527f3c7061746820636c6173733d22636c732d362220643d224d3132382e34372c3160488201527f3433312e313663342e39382d322e39352c31382e31332d392e33342c32312e3260688201527f392c332e33362c302c302c2e34392c382e35382d372e39322c382e34222f3e00608882015260a7019150612c3e826108c1565b9150612c498261091f565b7f3c7061746820636c6173733d22636c732d362220643d224d3132322e35372c3181527f3432372e3036632d322e35322d382e31382d362e32362d32352e37322c342e3160208201527f322d33352e30352c362e39322d362e32322c31332e30312d352e31372c31382e604082015269181a169897191b91179f60b11b60608201527f3c7061746820636c6173733d22636c732d362220643d224d3133332e35362c31606a8201527f3339362e353863332e35372d332e32352c392e33332d372e32362c31342e3338608a8201527f2d352e34322c372e37362c322e38332c392e30392c31352e39372c332e35382c60aa8201527f32312e34372d342e31382c342e31372d392e38332c332e36342d31342e39322c60ca8201526618971c1a91179f60c91b60ea8201527f3c7061746820636c6173733d22636c732d362220643d224d3134302e36322c3160f18201527f3430302e3432732d31312e332c362e33362d312e31362c32332e3531222f3e006101118201527f3c7061746820636c6173733d22636c732d362220643d224d3134372e37312c316101308201527f3430312e3532632d2e33332c322e39382d312e38362c362e38312d352e34322c6101508201527f362e372d312e36362d2e30352d342e32352d2e37352d362e32362d312e39352261017082015261179f60f11b610190820152610192019150612e5082610972565b631e17b39f60e11b81526004019291505056fe3c6c696e6520636c6173733d22636c732d38222078313d2234312e3131222079a26469706673582212208706c957cdbbe635a3f7ad33d999cfe3cdf30fbf79966db85ba96724ffc1334b64736f6c63430008090033",
  "linkReferences": {},
  "deployedLinkReferences": {}
}