{
  "_format": "hh-sol-artifact-1",
  "contractName": "GeneralNFT",
  "sourceName": "contracts/dao/GeneralNFT.sol",
  "abi": [
    {
      "inputs": [
        {
          "internalType": "uint256",
          "name": "_nftPrice",
          "type": "uint256"
        },
        {
          "internalType": "uint96",
          "name": "_royaltyFeeNumerator",
          "type": "uint96"
        },
        {
          "internalType": "address",
          "name": "_treasury",
          "type": "address"
        }
      ],
      "stateMutability": "nonpayable",
      "type": "constructor"
    },
    {
      "anonymous": false,
      "inputs": [
        {
          "indexed": true,
          "internalType": "address",
          "name": "owner",
          "type": "address"
        },
        {
          "indexed": true,
          "internalType": "address",
          "name": "approved",
          "type": "address"
        },
        {
          "indexed": true,
          "internalType": "uint256",
          "name": "tokenId",
          "type": "uint256"
        }
      ],
      "name": "Approval",
      "type": "event"
    },
    {
      "anonymous": false,
      "inputs": [
        {
          "indexed": true,
          "internalType": "address",
          "name": "owner",
          "type": "address"
        },
        {
          "indexed": true,
          "internalType": "address",
          "name": "operator",
          "type": "address"
        },
        {
          "indexed": false,
          "internalType": "bool",
          "name": "approved",
          "type": "bool"
        }
      ],
      "name": "ApprovalForAll",
      "type": "event"
    },
    {
      "anonymous": false,
      "inputs": [
        {
          "indexed": true,
          "internalType": "address",
          "name": "previousOwner",
          "type": "address"
        },
        {
          "indexed": true,
          "internalType": "address",
          "name": "newOwner",
          "type": "address"
        }
      ],
      "name": "OwnershipTransferred",
      "type": "event"
    },
    {
      "anonymous": false,
      "inputs": [
        {
          "indexed": true,
          "internalType": "address",
          "name": "from",
          "type": "address"
        },
        {
          "indexed": true,
          "internalType": "address",
          "name": "to",
          "type": "address"
        },
        {
          "indexed": true,
          "internalType": "uint256",
          "name": "tokenId",
          "type": "uint256"
        }
      ],
      "name": "Transfer",
      "type": "event"
    },
    {
      "inputs": [
        {
          "internalType": "address",
          "name": "to",
          "type": "address"
        },
        {
          "internalType": "uint256",
          "name": "tokenId",
          "type": "uint256"
        }
      ],
      "name": "approve",
      "outputs": [],
      "stateMutability": "nonpayable",
      "type": "function"
    },
    {
      "inputs": [
        {
          "internalType": "address",
          "name": "owner",
          "type": "address"
        }
      ],
      "name": "balanceOf",
      "outputs": [
        {
          "internalType": "uint256",
          "name": "",
          "type": "uint256"
        }
      ],
      "stateMutability": "view",
      "type": "function"
    },
    {
      "inputs": [],
      "name": "buy",
      "outputs": [],
      "stateMutability": "nonpayable",
      "type": "function"
    },
    {
      "inputs": [],
      "name": "contractURI",
      "outputs": [
        {
          "internalType": "string",
          "name": "",
          "type": "string"
        }
      ],
      "stateMutability": "view",
      "type": "function"
    },
    {
      "inputs": [
        {
          "internalType": "uint256",
          "name": "tokenId",
          "type": "uint256"
        }
      ],
      "name": "getApproved",
      "outputs": [
        {
          "internalType": "address",
          "name": "",
          "type": "address"
        }
      ],
      "stateMutability": "view",
      "type": "function"
    },
    {
      "inputs": [
        {
          "internalType": "uint256",
          "name": "_salePrice",
          "type": "uint256"
        }
      ],
      "name": "getRoyaltyInfo",
      "outputs": [
        {
          "internalType": "address",
          "name": "",
          "type": "address"
        },
        {
          "internalType": "uint256",
          "name": "",
          "type": "uint256"
        }
      ],
      "stateMutability": "view",
      "type": "function"
    },
    {
      "inputs": [
        {
          "internalType": "address",
          "name": "addr",
          "type": "address"
        }
      ],
      "name": "hasRole",
      "outputs": [
        {
          "internalType": "bool",
          "name": "",
          "type": "bool"
        }
      ],
      "stateMutability": "view",
      "type": "function"
    },
    {
      "inputs": [
        {
          "internalType": "address",
          "name": "owner",
          "type": "address"
        },
        {
          "internalType": "address",
          "name": "operator",
          "type": "address"
        }
      ],
      "name": "isApprovedForAll",
      "outputs": [
        {
          "internalType": "bool",
          "name": "",
          "type": "bool"
        }
      ],
      "stateMutability": "view",
      "type": "function"
    },
    {
      "inputs": [],
      "name": "name",
      "outputs": [
        {
          "internalType": "string",
          "name": "",
          "type": "string"
        }
      ],
      "stateMutability": "view",
      "type": "function"
    },
    {
      "inputs": [],
      "name": "nftPrice",
      "outputs": [
        {
          "internalType": "uint256",
          "name": "",
          "type": "uint256"
        }
      ],
      "stateMutability": "view",
      "type": "function"
    },
    {
      "inputs": [],
      "name": "owner",
      "outputs": [
        {
          "internalType": "address",
          "name": "",
          "type": "address"
        }
      ],
      "stateMutability": "view",
      "type": "function"
    },
    {
      "inputs": [
        {
          "internalType": "uint256",
          "name": "tokenId",
          "type": "uint256"
        }
      ],
      "name": "ownerOf",
      "outputs": [
        {
          "internalType": "address",
          "name": "",
          "type": "address"
        }
      ],
      "stateMutability": "view",
      "type": "function"
    },
    {
      "inputs": [],
      "name": "qui",
      "outputs": [
        {
          "internalType": "address",
          "name": "",
          "type": "address"
        }
      ],
      "stateMutability": "view",
      "type": "function"
    },
    {
      "inputs": [],
      "name": "renounceOwnership",
      "outputs": [],
      "stateMutability": "nonpayable",
      "type": "function"
    },
    {
      "inputs": [
        {
          "internalType": "uint256",
          "name": "_tokenId",
          "type": "uint256"
        },
        {
          "internalType": "uint256",
          "name": "_salePrice",
          "type": "uint256"
        }
      ],
      "name": "royaltyInfo",
      "outputs": [
        {
          "internalType": "address",
          "name": "",
          "type": "address"
        },
        {
          "internalType": "uint256",
          "name": "",
          "type": "uint256"
        }
      ],
      "stateMutability": "view",
      "type": "function"
    },
    {
      "inputs": [
        {
          "internalType": "address",
          "name": "from",
          "type": "address"
        },
        {
          "internalType": "address",
          "name": "to",
          "type": "address"
        },
        {
          "internalType": "uint256",
          "name": "tokenId",
          "type": "uint256"
        }
      ],
      "name": "safeTransferFrom",
      "outputs": [],
      "stateMutability": "nonpayable",
      "type": "function"
    },
    {
      "inputs": [
        {
          "internalType": "address",
          "name": "from",
          "type": "address"
        },
        {
          "internalType": "address",
          "name": "to",
          "type": "address"
        },
        {
          "internalType": "uint256",
          "name": "tokenId",
          "type": "uint256"
        },
        {
          "internalType": "bytes",
          "name": "data",
          "type": "bytes"
        }
      ],
      "name": "safeTransferFrom",
      "outputs": [],
      "stateMutability": "nonpayable",
      "type": "function"
    },
    {
      "inputs": [
        {
          "internalType": "address",
          "name": "operator",
          "type": "address"
        },
        {
          "internalType": "bool",
          "name": "approved",
          "type": "bool"
        }
      ],
      "name": "setApprovalForAll",
      "outputs": [],
      "stateMutability": "nonpayable",
      "type": "function"
    },
    {
      "inputs": [
        {
          "internalType": "string",
          "name": "_contractURI",
          "type": "string"
        }
      ],
      "name": "setContractURI",
      "outputs": [],
      "stateMutability": "nonpayable",
      "type": "function"
    },
    {
      "inputs": [
        {
          "internalType": "address",
          "name": "_qui",
          "type": "address"
        }
      ],
      "name": "setQUiAddress",
      "outputs": [],
      "stateMutability": "nonpayable",
      "type": "function"
    },
    {
      "inputs": [
        {
          "internalType": "address",
          "name": "_receiver",
          "type": "address"
        },
        {
          "internalType": "uint96",
          "name": "_royaltyFees",
          "type": "uint96"
        }
      ],
      "name": "setRoyaltyInfo",
      "outputs": [],
      "stateMutability": "nonpayable",
      "type": "function"
    },
    {
      "inputs": [
        {
          "internalType": "address",
          "name": "_treasury",
          "type": "address"
        }
      ],
      "name": "setTreasuryAddress",
      "outputs": [],
      "stateMutability": "nonpayable",
      "type": "function"
    },
    {
      "inputs": [
        {
          "internalType": "bytes4",
          "name": "interfaceId",
          "type": "bytes4"
        }
      ],
      "name": "supportsInterface",
      "outputs": [
        {
          "internalType": "bool",
          "name": "",
          "type": "bool"
        }
      ],
      "stateMutability": "view",
      "type": "function"
    },
    {
      "inputs": [],
      "name": "symbol",
      "outputs": [
        {
          "internalType": "string",
          "name": "",
          "type": "string"
        }
      ],
      "stateMutability": "view",
      "type": "function"
    },
    {
      "inputs": [
        {
          "internalType": "uint256",
          "name": "index",
          "type": "uint256"
        }
      ],
      "name": "tokenByIndex",
      "outputs": [
        {
          "internalType": "uint256",
          "name": "",
          "type": "uint256"
        }
      ],
      "stateMutability": "view",
      "type": "function"
    },
    {
      "inputs": [
        {
          "internalType": "address",
          "name": "owner",
          "type": "address"
        },
        {
          "internalType": "uint256",
          "name": "index",
          "type": "uint256"
        }
      ],
      "name": "tokenOfOwnerByIndex",
      "outputs": [
        {
          "internalType": "uint256",
          "name": "",
          "type": "uint256"
        }
      ],
      "stateMutability": "view",
      "type": "function"
    },
    {
      "inputs": [
        {
          "internalType": "uint256",
          "name": "tokenId",
          "type": "uint256"
        }
      ],
      "name": "tokenURI",
      "outputs": [
        {
          "internalType": "string",
          "name": "",
          "type": "string"
        }
      ],
      "stateMutability": "view",
      "type": "function"
    },
    {
      "inputs": [],
      "name": "totalSupply",
      "outputs": [
        {
          "internalType": "uint256",
          "name": "",
          "type": "uint256"
        }
      ],
      "stateMutability": "view",
      "type": "function"
    },
    {
      "inputs": [
        {
          "internalType": "address",
          "name": "from",
          "type": "address"
        },
        {
          "internalType": "address",
          "name": "to",
          "type": "address"
        },
        {
          "internalType": "uint256",
          "name": "tokenId",
          "type": "uint256"
        }
      ],
      "name": "transferFrom",
      "outputs": [],
      "stateMutability": "nonpayable",
      "type": "function"
    },
    {
      "inputs": [
        {
          "internalType": "address",
          "name": "newOwner",
          "type": "address"
        }
      ],
      "name": "transferOwnership",
      "outputs": [],
      "stateMutability": "nonpayable",
      "type": "function"
    },
    {
      "inputs": [],
      "name": "treasury",
      "outputs": [
        {
          "internalType": "address",
          "name": "",
          "type": "address"
        }
      ],
      "stateMutability": "view",
      "type": "function"
    }
  ],
  "bytecode": "0x60806040523480156200001157600080fd5b50604051620028573803806200285783398101604081905262000034916200033d565b604080518082018252600e81526d145d5a5b9bd84b51d95b995c985b60921b60208083019182528351808501909452600784526611d1539154905360ca1b90840152815191929162000089916000916200022c565b5080516200009f9060019060208401906200022c565b505050620000bc620000b6620000f460201b60201c565b620000f8565b600e839055601080546001600160a01b0319166001600160a01b038316908117909155620000eb90836200014a565b505050620004b9565b3390565b600d80546001600160a01b038381166001600160a01b0319831681179093556040519116919082907f8be0079c531659141344cd1fd0a4f28419497f9722a3daafe3b4186f6b6457e090600090a35050565b6200015462000164565b6200016082826200019c565b5050565b600d546001600160a01b031633146200019a5760405162461bcd60e51b81526004016200019190620003ca565b60405180910390fd5b565b6127106001600160601b0382161115620001ca5760405162461bcd60e51b81526004016200019190620003dc565b6001600160a01b038216620001f35760405162461bcd60e51b8152600401620001919062000460565b604080518082019091526001600160a01b039092168083526001600160601b039091166020909201829052600160a01b90910217600b55565b8280546200023a9062000488565b90600052602060002090601f0160209004810192826200025e5760008555620002a9565b82601f106200027957805160ff1916838001178555620002a9565b82800160010185558215620002a9579182015b82811115620002a95782518255916020019190600101906200028c565b50620002b7929150620002bb565b5090565b5b80821115620002b75760008155600101620002bc565b805b8114620002e057600080fd5b50565b8051620002f081620002d2565b92915050565b6001600160601b038116620002d4565b8051620002f081620002f6565b60006001600160a01b038216620002f0565b620002d48162000313565b8051620002f08162000325565b600080600060608486031215620003575762000357600080fd5b6000620003658686620002e3565b9350506020620003788682870162000306565b92505060406200038b8682870162000330565b9150509250925092565b60208082527f4f776e61626c653a2063616c6c6572206973206e6f7420746865206f776e6572910190815260005b5060200190565b60208082528101620002f08162000395565b60208082528101620002f081602a81527f455243323938313a20726f79616c7479206665652077696c6c206578636565646020820152692073616c65507269636560b01b604082015260600190565b601981526000602082017f455243323938313a20696e76616c69642072656365697665720000000000000081529150620003c3565b60208082528101620002f0816200042b565b634e487b7160e01b600052602260045260246000fd5b6002810460018216806200049d57607f821691505b60208210811415620004b357620004b362000472565b50919050565b61238e80620004c96000396000f3fe608060405234801561001057600080fd5b50600436106101755760003560e01c806301ffc9a71461017a57806302fa7c47146101a357806306fdde03146101b8578063081812fc146101cd578063095ea7b3146101ed5780630d39fc811461020057806318160ddd1461021657806323b872dd1461021e5780632a55205a146102315780632f745c591461025257806342842e0e146102655780634f6ccce71461027857806361d027b31461028b5780636352211e1461029e5780636605bfda146102b157806370a08231146102c4578063715018a6146102d75780637ef09bca146102df5780638da5cb5b146102f2578063938e3d7b146102fa57806395d89b411461030d578063a22cb46514610315578063a6f2ae3a14610328578063ad71520d14610330578063b76c632b14610343578063b88d4fde14610356578063c87b56dd14610369578063d4c9fccf1461037c578063e8a3d4851461038f578063e985e9c514610397578063f2fde38b146103aa575b600080fd5b61018d61018836600461160c565b6103bd565b60405161019a9190611637565b60405180910390f35b6101b66101b1366004611684565b6103ce565b005b6101c06103e4565b60405161019a919061172b565b6101e06101db36600461174d565b610476565b60405161019a9190611777565b6101b66101fb366004611785565b61049d565b610209600e5481565b60405161019a91906117be565b600854610209565b6101b661022c3660046117cc565b61052c565b61024461023f36600461181c565b61055d565b60405161019a92919061183e565b610209610260366004611785565b61060b565b6101b66102733660046117cc565b61065d565b61020961028636600461174d565b610678565b6010546101e0906001600160a01b031681565b6101e06102ac36600461174d565b6106c6565b6101b66102bf366004611859565b6106fb565b6102096102d2366004611859565b610767565b6101b66107ab565b61018d6102ed366004611859565b6107bf565b6101e061083e565b6101b66103083660046118c4565b61084d565b6101c0610861565b6101b661032336600461191e565b610870565b6101b661087b565b600f546101e0906001600160a01b031681565b61024461035136600461174d565b6108eb565b6101b6610364366004611a4c565b610921565b6101c061037736600461174d565b610959565b6101b661038a366004611859565b6109cd565b6101c0610a1d565b61018d6103a5366004611aca565b610aab565b6101b66103b8366004611859565b610ad9565b60006103c882610b10565b92915050565b6103d6610b35565b6103e08282610b64565b5050565b6060600080546103f390611b13565b80601f016020809104026020016040519081016040528092919081815260200182805461041f90611b13565b801561046c5780601f106104415761010080835404028352916020019161046c565b820191906000526020600020905b81548152906001019060200180831161044f57829003601f168201915b5050505050905090565b600061048182610bee565b506000908152600460205260409020546001600160a01b031690565b60006104a8826106c6565b9050806001600160a01b0316836001600160a01b031614156104e55760405162461bcd60e51b81526004016104dc90611b81565b60405180910390fd5b336001600160a01b038216148061050157506105018133610aab565b61051d5760405162461bcd60e51b81526004016104dc90611beb565b6105278383610c13565b505050565b6105363382610c81565b6105525760405162461bcd60e51b81526004016104dc90611c46565b610527838383610ce0565b6000828152600c602090815260408083208151808301909252546001600160a01b038116808352600160a01b9091046001600160601b03169282019290925282916105d2575060408051808201909152600b546001600160a01b0381168252600160a01b90046001600160601b031660208201525b6020810151600090612710906105f1906001600160601b031687611c6c565b6105fb9190611ca1565b91519350909150505b9250929050565b600061061683610767565b82106106345760405162461bcd60e51b81526004016104dc90611cfd565b506001600160a01b03919091166000908152600660209081526040808320938352929052205490565b61052783838360405180602001604052806000815250610921565b600061068360085490565b82106106a15760405162461bcd60e51b81526004016104dc90611d56565b600882815481106106b4576106b4611d66565b90600052602060002001549050919050565b6000818152600260205260408120546001600160a01b0316806103c85760405162461bcd60e51b81526004016104dc90611dae565b610703610b35565b6001600160a01b0381166107295760405162461bcd60e51b81526004016104dc90611e10565b601080546001600160a01b0319166001600160a01b0383169081179091556012546107649190600160a01b90046001600160601b03166103ce565b50565b60006001600160a01b03821661078f5760405162461bcd60e51b81526004016104dc90611e66565b506001600160a01b031660009081526003602052604090205490565b6107b3610b35565b6107bd6000610dfb565b565b6040516370a0823160e01b8152600090819030906370a08231906107e7908690600401611777565b60206040518083038186803b1580156107ff57600080fd5b505afa158015610813573d6000803e3d6000fd5b505050506040513d601f19601f820116820180604052508101906108379190611e81565b1192915050565b600d546001600160a01b031690565b610855610b35565b61052760118383611551565b6060600180546103f390611b13565b6103e0338383610e4d565b600f54600e54604051637ed3259560e11b81526001600160a01b039092169163fda64b2a916108b09133913091600401611ea2565b600060405180830381600087803b1580156108ca57600080fd5b505af11580156108de573d6000803e3d6000fd5b505050506107bd33610ef0565b60125460009081906001600160a01b0381169061091890600160a01b90046001600160601b031685611c6c565b91509150915091565b61092b3383610c81565b6109475760405162461bcd60e51b81526004016104dc90611c46565b61095384848484610f15565b50505050565b606061096482610bee565b600061097b60408051602081019091526000815290565b9050600081511161099b57604051806020016040528060008152506109c6565b806109a584610f48565b6040516020016109b6929190611eec565b6040516020818303038152906040525b9392505050565b6109d5610b35565b6001600160a01b0381166109fb5760405162461bcd60e51b81526004016104dc90611f51565b600f80546001600160a01b0319166001600160a01b0392909216919091179055565b60118054610a2a90611b13565b80601f0160208091040260200160405190810160405280929190818152602001828054610a5690611b13565b8015610aa35780601f10610a7857610100808354040283529160200191610aa3565b820191906000526020600020905b815481529060010190602001808311610a8657829003601f168201915b505050505081565b6001600160a01b03918216600090815260056020908152604080832093909416825291909152205460ff1690565b610ae1610b35565b6001600160a01b038116610b075760405162461bcd60e51b81526004016104dc90611fa4565b61076481610dfb565b60006001600160e01b0319821663152a902d60e11b14806103c857506103c882611045565b33610b3e61083e565b6001600160a01b0316146107bd5760405162461bcd60e51b81526004016104dc90611fe6565b6127106001600160601b0382161115610b8f5760405162461bcd60e51b81526004016104dc9061203d565b6001600160a01b038216610bb55760405162461bcd60e51b81526004016104dc9061207d565b604080518082019091526001600160a01b039092168083526001600160601b039091166020909201829052600160a01b90910217600b55565b610bf78161106a565b6107645760405162461bcd60e51b81526004016104dc90611dae565b600081815260046020526040902080546001600160a01b0319166001600160a01b0384169081179091558190610c48826106c6565b6001600160a01b03167f8c5be1e5ebec7d5bd14f71427d1e84f3dd0314c0f7b2291e5b200ac8c7c3b92560405160405180910390a45050565b600080610c8d836106c6565b9050806001600160a01b0316846001600160a01b03161480610cb45750610cb48185610aab565b80610cd85750836001600160a01b0316610ccd84610476565b6001600160a01b0316145b949350505050565b826001600160a01b0316610cf3826106c6565b6001600160a01b031614610d195760405162461bcd60e51b81526004016104dc906120cf565b6001600160a01b038216610d3f5760405162461bcd60e51b81526004016104dc90612120565b610d4a838383611087565b610d55600082610c13565b6001600160a01b0383166000908152600360205260408120805460019290610d7e908490612130565b90915550506001600160a01b0382166000908152600360205260408120805460019290610dac908490612147565b909155505060008181526002602052604080822080546001600160a01b0319166001600160a01b03868116918217909255915184939187169160008051602061233983398151915291a4505050565b600d80546001600160a01b038381166001600160a01b0319831681179093556040519116919082907f8be0079c531659141344cd1fd0a4f28419497f9722a3daafe3b4186f6b6457e090600090a35050565b816001600160a01b0316836001600160a01b03161415610e7f5760405162461bcd60e51b81526004016104dc9061218f565b6001600160a01b0383811660008181526005602090815260408083209487168084529490915290819020805460ff1916851515179055517f17307eab39ab6107e8899845ad3d59bd9653f200f220920489ca2b5937696c3190610ee3908590611637565b60405180910390a3505050565b6000610efb600a5490565b9050610f0b600a80546001019055565b6103e08282611092565b610f20848484610ce0565b610f2c848484846110ac565b6109535760405162461bcd60e51b81526004016104dc906121ee565b606081610f6c5750506040805180820190915260018152600360fc1b602082015290565b8160005b8115610f965780610f80816121fe565b9150610f8f9050600a83611ca1565b9150610f70565b6000816001600160401b03811115610fb057610fb0611951565b6040519080825280601f01601f191660200182016040528015610fda576020820181803683370190505b5090505b8415610cd857610fef600183612130565b9150610ffc600a86612219565b611007906030612147565b60f81b81838151811061101c5761101c611d66565b60200101906001600160f81b031916908160001a90535061103e600a86611ca1565b9450610fde565b60006001600160e01b0319821663780e9d6360e01b14806103c857506103c8826111b9565b6000908152600260205260409020546001600160a01b0316151590565b610527838383611209565b6103e08282604051806020016040528060008152506112c1565b60006001600160a01b0384163b156111ae57604051630a85bd0160e11b81526001600160a01b0385169063150b7a02906110f090339089908890889060040161222d565b602060405180830381600087803b15801561110a57600080fd5b505af192505050801561113a575060408051601f3d908101601f191682019092526111379181019061227c565b60015b611194573d808015611168576040519150601f19603f3d011682016040523d82523d6000602084013e61116d565b606091505b50805161118c5760405162461bcd60e51b81526004016104dc906121ee565b805181602001fd5b6001600160e01b031916630a85bd0160e11b149050610cd8565b506001949350505050565b60006001600160e01b031982166380ac58cd60e01b14806111ea57506001600160e01b03198216635b5e139f60e01b145b806103c857506301ffc9a760e01b6001600160e01b03198316146103c8565b6001600160a01b0383166112645761125f81600880546000838152600960205260408120829055600182018355919091527ff3f7a9fe364faab93b216da50a3214154f22a0a2b415b23a84c8169e8b636ee30155565b611287565b816001600160a01b0316836001600160a01b0316146112875761128783826112f4565b6001600160a01b03821661129e5761052781611391565b826001600160a01b0316826001600160a01b031614610527576105278282611440565b6112cb8383611484565b6112d860008484846110ac565b6105275760405162461bcd60e51b81526004016104dc906121ee565b6000600161130184610767565b61130b9190612130565b60008381526007602052604090205490915080821461135e576001600160a01b03841660009081526006602090815260408083208584528252808320548484528184208190558352600790915290208190555b5060009182526007602090815260408084208490556001600160a01b039094168352600681528383209183525290812055565b6008546000906113a390600190612130565b600083815260096020526040812054600880549394509092849081106113cb576113cb611d66565b9060005260206000200154905080600883815481106113ec576113ec611d66565b60009182526020808320909101929092558281526009909152604080822084905585825281205560088054806114245761142461229d565b6001900381819060005260206000200160009055905550505050565b600061144b83610767565b6001600160a01b039093166000908152600660209081526040808320868452825280832085905593825260079052919091209190915550565b6001600160a01b0382166114aa5760405162461bcd60e51b81526004016104dc906122e5565b6114b38161106a565b156114d05760405162461bcd60e51b81526004016104dc90612328565b6114dc60008383611087565b6001600160a01b0382166000908152600360205260408120805460019290611505908490612147565b909155505060008181526002602052604080822080546001600160a01b0319166001600160a01b0386169081179091559051839290600080516020612339833981519152908290a45050565b82805461155d90611b13565b90600052602060002090601f01602090048101928261157f57600085556115c5565b82601f106115985782800160ff198235161785556115c5565b828001600101855582156115c5579182015b828111156115c55782358255916020019190600101906115aa565b506115d19291506115d5565b5090565b5b808211156115d157600081556001016115d6565b6001600160e01b031981165b811461076457600080fd5b80356103c8816115ea565b60006020828403121561162157611621600080fd5b6000610cd88484611601565b8015155b82525050565b602081016103c8828461162d565b60006001600160a01b0382166103c8565b6115f681611645565b80356103c881611656565b6001600160601b0381166115f6565b80356103c88161166a565b6000806040838503121561169a5761169a600080fd5b60006116a6858561165f565b92505060206116b785828601611679565b9150509250929050565b60005b838110156116dc5781810151838201526020016116c4565b838111156109535750506000910152565b601f01601f191690565b6000611701825190565b8084526020840193506117188185602086016116c1565b611721816116ed565b9093019392505050565b602080825281016109c681846116f7565b806115f6565b80356103c88161173c565b60006020828403121561176257611762600080fd5b6000610cd88484611742565b61163181611645565b602081016103c8828461176e565b6000806040838503121561179b5761179b600080fd5b60006117a7858561165f565b92505060206116b785828601611742565b80611631565b602081016103c882846117b8565b6000806000606084860312156117e4576117e4600080fd5b60006117f0868661165f565b93505060206118018682870161165f565b925050604061181286828701611742565b9150509250925092565b6000806040838503121561183257611832600080fd5b60006117a78585611742565b6040810161184c828561176e565b6109c660208301846117b8565b60006020828403121561186e5761186e600080fd5b6000610cd8848461165f565b60008083601f84011261188f5761188f600080fd5b5081356001600160401b038111156118a9576118a9600080fd5b60208301915083600182028301111561060457610604600080fd5b600080602083850312156118da576118da600080fd5b82356001600160401b038111156118f3576118f3600080fd5b6118ff8582860161187a565b92509250509250929050565b8015156115f6565b80356103c88161190b565b6000806040838503121561193457611934600080fd5b6000611940858561165f565b92505060206116b785828601611913565b634e487b7160e01b600052604160045260246000fd5b611970826116ed565b81018181106001600160401b038211171561198d5761198d611951565b6040525050565b600061199f60405190565b90506119ab8282611967565b919050565b60006001600160401b038211156119c9576119c9611951565b6119d2826116ed565b60200192915050565b82818337506000910152565b60006119fa6119f5846119b0565b611994565b905082815260208101848484011115611a1557611a15600080fd5b611a208482856119db565b509392505050565b600082601f830112611a3c57611a3c600080fd5b8135610cd88482602086016119e7565b60008060008060808587031215611a6557611a65600080fd5b6000611a71878761165f565b9450506020611a828782880161165f565b9350506040611a9387828801611742565b92505060608501356001600160401b03811115611ab257611ab2600080fd5b611abe87828801611a28565b91505092959194509250565b60008060408385031215611ae057611ae0600080fd5b6000611aec858561165f565b92505060206116b78582860161165f565b634e487b7160e01b600052602260045260246000fd5b600281046001821680611b2757607f821691505b60208210811415611b3a57611b3a611afd565b50919050565b602181526000602082017f4552433732313a20617070726f76616c20746f2063757272656e74206f776e658152603960f91b602082015291505b5060400190565b602080825281016103c881611b40565b603e81526000602082017f4552433732313a20617070726f76652063616c6c6572206973206e6f7420746f81527f6b656e206f776e6572206e6f7220617070726f76656420666f7220616c6c000060208201529150611b7a565b602080825281016103c881611b91565b602e81526000602082017f4552433732313a2063616c6c6572206973206e6f7420746f6b656e206f776e6581526d1c881b9bdc88185c1c1c9bdd995960921b60208201529150611b7a565b602080825281016103c881611bfb565b634e487b7160e01b600052601160045260246000fd5b6000816000190483118215151615611c8657611c86611c56565b500290565b634e487b7160e01b600052601260045260246000fd5b600082611cb057611cb0611c8b565b500490565b602b81526000602082017f455243373231456e756d657261626c653a206f776e657220696e646578206f7581526a74206f6620626f756e647360a81b60208201529150611b7a565b602080825281016103c881611cb5565b602c81526000602082017f455243373231456e756d657261626c653a20676c6f62616c20696e646578206f81526b7574206f6620626f756e647360a01b60208201529150611b7a565b602080825281016103c881611d0d565b634e487b7160e01b600052603260045260246000fd5b6018815260006020820177115490cdcc8c4e881a5b9d985b1a59081d1bdad95b88125160421b815291505b5060200190565b602080825281016103c881611d7c565b603581526000602082017f47656e6572616c4e46543a20547265617375727920636f6e74726163742061648152746472657373206973207a65726f206164647265737360581b60208201529150611b7a565b602080825281016103c881611dbe565b602981526000602082017f4552433732313a2061646472657373207a65726f206973206e6f7420612076618152683634b21037bbb732b960b91b60208201529150611b7a565b602080825281016103c881611e20565b80516103c88161173c565b600060208284031215611e9657611e96600080fd5b6000610cd88484611e76565b60608101611eb0828661176e565b611ebd602083018561176e565b610cd860408301846117b8565b6000611ed4825190565b611ee28185602086016116c1565b9290920192915050565b6000611ef88285611eca565b9150610cd88284611eca565b603081526000602082017f47656e6572616c4e46543a2051756920636f6e7472616374206164647265737381526f206973207a65726f206164647265737360801b60208201529150611b7a565b602080825281016103c881611f04565b602681526000602082017f4f776e61626c653a206e6577206f776e657220697320746865207a65726f206181526564647265737360d01b60208201529150611b7a565b602080825281016103c881611f61565b60208082527f4f776e61626c653a2063616c6c6572206973206e6f7420746865206f776e657291019081526000611da7565b602080825281016103c881611fb4565b602a81526000602082017f455243323938313a20726f79616c7479206665652077696c6c206578636565648152692073616c65507269636560b01b60208201529150611b7a565b602080825281016103c881611ff6565b601981526000602082017822a921991c9c189d1034b73b30b634b2103932b1b2b4bb32b960391b81529150611da7565b602080825281016103c88161204d565b602581526000602082017f4552433732313a207472616e736665722066726f6d20696e636f72726563742081526437bbb732b960d91b60208201529150611b7a565b602080825281016103c88161208d565b602481526000602082017f4552433732313a207472616e7366657220746f20746865207a65726f206164648152637265737360e01b60208201529150611b7a565b602080825281016103c8816120df565b60008282101561214257612142611c56565b500390565b6000821982111561215a5761215a611c56565b500190565b601981526000602082017822a9219b99189d1030b8383937bb32903a379031b0b63632b960391b81529150611da7565b602080825281016103c88161215f565b603281526000602082017f4552433732313a207472616e7366657220746f206e6f6e20455243373231526581527131b2b4bb32b91034b6b83632b6b2b73a32b960711b60208201529150611b7a565b602080825281016103c88161219f565b600060001982141561221257612212611c56565b5060010190565b60008261222857612228611c8b565b500690565b6080810161223b828761176e565b612248602083018661176e565b61225560408301856117b8565b818103606083015261226781846116f7565b9695505050505050565b80516103c8816115ea565b60006020828403121561229157612291600080fd5b6000610cd88484612271565b634e487b7160e01b600052603160045260246000fd5b60208082527f4552433732313a206d696e7420746f20746865207a65726f206164647265737391019081526000611da7565b602080825281016103c8816122b3565b601c81526000602082017b115490cdcc8c4e881d1bdad95b88185b1c9958591e481b5a5b9d195960221b81529150611da7565b602080825281016103c8816122f556feddf252ad1be2c89b69c2b068fc378daa952ba7f163c4a11628f55a4df523b3efa26469706673582212203311991343829be84613c49d54f4d6d71dc1332c38f3d986289a1495239e409664736f6c63430008090033",
  "linkReferences": {},
  "deployedLinkReferences": {}
}