{
  "_format": "hh-sol-artifact-1",
  "contractName": "SVG8",
  "sourceName": "contracts/svg/SVG8.sol",
  "abi": [
    {
      "inputs": [],
      "name": "getSvgPart8",
      "outputs": [
        {
          "internalType": "string",
          "name": "",
          "type": "string"
        }
      ],
      "stateMutability": "pure",
      "type": "function"
    }
  ],
  "bytecode": "0x608060405234801561001057600080fd5b506155b380620000216000396000f3fe608060405234801561001057600080fd5b506004361061002b5760003560e01c8063096b03c914610030575b600080fd5b61003861004e565b60405161004591906100d5565b60405180910390f35b606060405160200161005f906100fc565b604051602081830303815290604052905090565b60005b8381101561008e578181015183820152602001610076565b8381111561009d576000848401525b50505050565b60006100ad825190565b8084526020840193506100c4818560208601610073565b601f01601f19169290920192915050565b602080825281016100e681846100a3565b9392505050565b621e339f60e91b815260030190565b7f3c696d6167652077696474683d22323322206865696768743d223532333422208082527f7472616e73666f726d3d227472616e736c6174652831392e3636203138352e3760208301527f3729207363616c65282e3234292220786c696e6b3a687265663d22646174613a60408301527f696d6167652f706e673b6261736536342c6956424f5277304b47676f4141414160608301527f4e53556845556741414142594141425277434159414141434a6944696841414160808301527f414358424957584d414143346a41414175497746347054393241414155636b6c60a08301527f45515652346e4f33647758486954684f4738586549674241674134686763515360c08301527f4c4d38415a3242483837516a57475541476c694e416a73444b414756674d756a60e08301527f764d417749397275706d3671706658366e5058573557422b6d7a534e4e4d6a4f6101008301527f547635644a7746424a6d6b594e626965536473354464796d6c4e6b6d536d61306101208301527f6b7252794774696d6c316d454f414141413769695a3256545352744a7668336d6101408301527f667971664e6f387a73323378396c353834596c5634696a72527a3649473936476101608301527f6638565453663549574c6a2b70394a4a534f6a724d41674141774a325576782f6101808301527f504a4b306c5455664d3670582f66747a724e50545a2b526a374b7357744373756101a08301527f6f452f3036617641786d646d507876326e2f54565570342f6951666c2f31454d6101c08301527f7636656e386d7745414149422f6e4a6b747a4f7a67744359637a4777683556556101e08301527f6837487a734f56536e65574772776a523061396f354439326c6c4c71796d53366102008301527f554e394f786d705253357a414841414141643151616c6d644a76787a6d66556c6102208301527f36703277617172687338762b7441414141514458692f6e35735a712f4f7839676102408301527f2f456d58545256316c30774e6c4577414141444b6a624b71366248707a48766f6102608301527f324c4a746d47762f4d7a5648356d52764b4a674141674d70347635326e557a356102808301527f74556a6164685a564e33555435413363646d6c4a713474376b425141416747706102a08301527f34762f502f716d7a614f71384b57796c75565869494f744776716975623571566102c08301527f73617032476473706c453673434141424152564c35682b5677614652716370576102e08301527f5a6d4e6e617a483663316f51664d31744c6c4532443461466c3035507a304b666103008301527f62736d6e6d4d4c546e79516f41414944366c49626c6a35774f685372336a6c6c6103208301527f413257526d595166765373756d316e6c6f6d314a717971705133746b30646a586103408301527f3754436d396a2f375241414141634666655a564f62556d7031477270315868556103608301527f6f6d363755557a61316f6d77434141436f7a724273576f3065567461453038436103808301527f4e2b5a5a4e47796c75565a68486e65673355594e6a5034714973716b766d2b6c6103a08301527f55506f2f6e557a594241414455794d786d6c72395a474c73754845357a5a6c496103c08301527f2b48782f6b6b3073567661516c5a5650525256786333517a4c706f3338486f4c6103e08301527f594f63774241414441486355644371327973756b78366b532f434c75344f72526104008301527f73576b70716e4959326f6d77434141436f6a6e6471307030506845625a6c46566104208301527f634e6e6b643759384b4b707336396738414149414b57533662507078576851386104408301527f4c76726836486e587766676c377657765534446169624e716c6c46724b4a67416104608301527f41414e52564e6e31496c4530582f555435775244586f5a4b6134614d786835486104808301527f2f615438326544514741414141395969374873787932655270493145325852776104a08301527f724c5a756b67466545415141416f42356d746a437a76644f617344664b7068736104c08301527f566c303072655638384167414167476f4d72796a2b50584c5755644c582b59706104e08301527f69782f326a2b4a596f6d7937366961544f6557676e71596d377a6877414141446105008301527f566f4777716c6c456e2b6e56314631637653396e554f77373971327861614e786105208301527f50666b77706553394b414141417541664c5a644f3330357277625a524e4e796f6105408301527f756d786153316735444b5a734141414171564271576a636158545a4c3071587a6105608301527f61504d70782f7a6a764965556e35754a7153657044502b4f7070502f6b63784e6105808301527f454c386f6d4141434136677a4c70725647706961536d6d485a394f70386a48326105a08301527f564b4a73755973756d422f6d56546233797864566538774141414641317932586105c08301527f5477576c4e4f466877326253634f412f5661563759716a414e335a72656e59656105e08301527f2b7035513637374b7034554549414143412b70534735566e534c3464355838716106008301527f6e5463716d7334724c4a762f66436741414146516a37752f48356e39783956616106208301527f4b577855656f6b3730712b724b706e6c553263537141414141414957555457756106408301527f4a736d6b77504c5273656e45652b6a59736d32624b7439484e526779386675596106608301527f4741414141315969376438776f6d374b7773716b4c755930757064544576636b6106808301527f4c414141413153682f503134702f2f3134724d73372f3432794b6175346247716106a08301527f646872616962414941414b6a4f384362683163685a317a634a6d396e617a48366106c08301527f63316f516643797962704e50353248756f5647335a394f5138394f6d32624a6f6106e08301527f35444f30706d774141414f705456396c6b5a6d45483730724c70745a35614a746107008301527f5361737171734645756d385a6550504b5655764a2b44793041414143436c55506107208301527f68576a3558464863707055616e6f56766e5659477936556f66586a5931546b4e6107408301527f62555459424141425578374e7330766b42694e50416a666d5754527370626c576107608301527f595235336f4e314744597a2b4b694c4b704c357670564836624b6673484141426107808301527f41626378735a766d6268624872777339707a6b7a4b352b4f4466484b706f70656107a08301527f3070477771756f6d6b6e6650513357335a4e484d59327165556467357a4141416107c08301527f416345647868304b72724778366a4472524c304c4c4a753931374b2b797965506107e08301527f62674562536b6d38574141414136684b586d68686c55315a783265523174442b6108008301527f4b73676b414141426e6c692b752f6e42614654374d62434846585677396a7a706108208301527f3476345339336a5671634274564e72575554514141414a446e697a78373552646108408301527f35376e51613672562f4648754a73756d696a37693475706655524c7a303934336108608301527f6249414141414f6f53647a325935624c4a3030614b5778575755536636734e766108808301527f6f6a70575754564c414b384941414142514438746c30393570546467625a644f6108a08301527f4e6973756d6c6153567739435764514541414b412b35564434724677326a66566108c08301527f3576714c596366386f7669584b706f755173716c54554e6e30776a50544141416108e08301527f41646146734b696f746d794b2b75566d5773716c334850705832625451754a2f6109008301527f386d464c7958705141414142774435624c706d2b6e4e6548624b4a747554454f6109208301527f337070337a3046314b7153756236554c53326d466f77376f41414142516e394b6109408301527f775045763635544476552f6d30655a546a2f6e4865513870507a4d58566b74536109608301527f486673616576785764386a75624b4a7341414141714d767a3738556f6a5578506109808301527f6c4a32507a33342f4e374e58354750737155545a64784a5a4e442f49726d33706109a08301527f4a44377a6546514141414a6e6c73756e67744359634c4c6873576b3663682b6f6109c08301527f304c327856694332623370794876742b575453754e2f3777706d7741414143726109e08301527f6b336242384b5a38324b5a764f4b4a7347767855414141436f52747954735761610a008301527f32645437476271573456654568366b532f717135736d70657979657562674636610a208301527f3562474a564141414171496a6e2b7a623771387a647a4e626d577a61744a6371610a408301527f6d7766445173756e4a65656a4c734779617966747477674141414b6847334c31610a608301527f6a466c44646d466e597762752b73716b4c75593075706453343331476f386959610a808301527f7641414141564b4d63436c664b5438614f316161555770324762703158426371610aa08301527f6d4b2f466c552b73307442566c45774141514857475a644e71394c43794a7077610ac08301527f477273337378326c4e2b4c48676936766e555366365464546732492f43753279610ae08301527f36584678746c4530414141442f744c43794b566c2b2f382f43596568772b4a4b610b008301527f797165676d387674476f5769485a644e472b5a314e737845446a35492b553071610b208301527f37305438614141414137716f63437466794f6456334b61564770364662703638610b408301527f714373716d4b333134326451344457314532515141414643647369704d356263610b608301527f7135414f686d57324d73716e7173736e7a614839564e766e2f75674541414b41610b808301527f655a6a597a73772b6e4e654844636a71765a4759482b655253785648536e4c4b610ba08301527f7036436153647335446437646c3038786861452f5a42414141554a2b34513646610bc08301527f56566a59395270336f4632466c30305435775244586f5a4b6134514c70385833610be08301527f54655945454141424150634c4c4a6b386269624a706f4a717936616868325354610c008301527f3576434a4d6c453041414142314d724f462b5a524e6470717a6b4f4975726734610c208301527f726d3137434c71364f477478476c553274392b50356c4530414141415647705a610c408301527f4e767a58755a482f39496b387a327a7674483856656f6d793636454d75727062610c608301527f557846316e44674141674772455851396d6c5a564e793667542f547230347571610c808301527f7773756c52766d58546f33765a6448583549514141414f706875577a614f3630610ca08301527f4a65364e73756c467832625353744849593272497541414141314b63304c4276610cc08301527f6c736d6d73542b5854356c466d39753230667854663553666d39613653314964610ce08301527f2b7870524e414141412f37697179715a5869624c7034686a317a6332796c4532610d008301527f39303942652f2b656454544f4e2b355537707053384877454241414441505667610d208301527f756d77354f61384c424b4a747554454f337070337a3046314b7153756236554c610d408301527f53326d466f77376f41414142516e394b775045763635544476533949375a644e610d608301527f51785757542f3238464141414171754835392b4f6a38704f782b652f485a7662610d808301527f7166497a39493145325863535754512f794c5a73657a733062414141412f6e46610da08301527f5757646d306e44675031576c65324b6f51577a61394f51393947355a4e4d2b58610dc08301527f4e644f7a464979316c457741415148314b772f4b66664b346f377052506d3552610de08301527f4e5a32466c557864794731314b7166462b6b78646c45774141514958696e6f77610e008301527f317336337a71724356346c6146683667542f617136736d6c6579696176506152610e208301527f544c7074594651414141436f79664e2f6d51694e546b36764d784d7a57356c73610e408301527f327253584b70734877304c4c7079586e6f3032335a4e484d5932764e6b425141610e608301527f41514833693768327a674c4c4a7a4d494f3370575754613333304a5253553161610e808301527f465a7a6e64555a6853656e6559417741416744737168384b56704a5844764461610ea08301527f6c314f6f30644f75384b6c413258596b766d31716e6f61306f6d774141414b6f610ec08301527f7a4c4a74576f3465564e65453063474e6d50303572776f2b5a62615334565745610ee08301527f6564614c665241324f2f5367697971616573676b41414143536d55307466374d610f008301527f77646c30346e4f624d7048772b50736a6e70466e306b70615554555558635846610f208301527f314f7979624e764a624658594f6377414141484248635964436f327a4b777371610f408301527f6d50727873617079474e714a73416741417145355a46615a7975676e69664341610f608301527f307971617334724c4a3632682f3145335a35502f72426741416748715932637a610f808301527f4d507078576851384c4c4a754f6b756155545556493262536a62414941414941610fa08301527f6b7971614c783667542f534b73624a6f6f50786a694f6c525355786249725933610fc08301527f2f76756e484267736b41414141366846654e6e6e61534a524e4638644b797959610fe08301527f7034425668414141417149655a4c6378733737516d6646692b575476733475716110008301527f7773756b6c374f4c71714d4674564e6e55656c383830715755764237714267416110208301527f41774a304d72796a2b7058456e2b364f6b722f4d5678593737523747584b4a736110408301527f752b6f6d6b7a6e6c6f4a366d4a753834634141414131596937487377714b35756110608301527f575553663664565558563074425a64506a62646d30304d69666e4c494a4141436110808301527f6755755a624e75324e73756b475a5a4e6131675541414944366c495a6c492b6d6110a08301527f33773778503564506d555762323762522f464e2f6c4a2b623172704c556833376110c08301527f4755306e2f796566782f46365554514141414e555a6c6b31726a6673536f46666110e08301527f2b2b33477630394258353250737130545a644246534e6831312b6967653550666111008301527f753246366e73736c7048674141414b706d755777364f4b304a427773756d35596111208301527f54353645367a5174624661616857394f373839426453716b726d2b6c4365544d6111408301527f6471306b7065543878446741416747436c59536e7662427272533949375a644e6111608301527f51785757542f323846414141417168483339324d7a2b2b4e386a50306a7861306111808301527f4b4431456e2b68566c55792f706762494a414141416d666d585453754a736d6b6111a08301527f77504c5273656e4d652b6a59736d32624b373279616a526834564e354d2b37456111c08301527f2f47514141414f374c2b2b30386e664a706b374c704c4b7873366b4a756f30736111e08301527f704e58467638674941414541313474373562325a62353156684b3145325859536112008301527f5654664e534e72564f517a766c736f6c56415141416f434c446d3452584932636112208301527f647231366759325a724d2f747857684e2b7a477774785a524e30756c383744316112408301527f5571725a73656e49652b6e52624e7330636876615554514141415055704463736112608301527f664f52304b566534647334437979637a43447436566c6b3274383941327064536112808301527f555661473873326e736176615a55764a2b4479304141414343555459566c45316112a08301527f3571414c4b706c615554514141414e58784c4a743058684e4f417a666d577a5a6112c08301527f74704c6856595235316f743945445937394b434c4b70723573706c5035504a356112e08301527f50325151414146416a4d35745a2f6d5a68374c727763356f7a6b2f4c352b43436113008301527f66584b726f4a5330706d347075496d6e6e504851334c4a7332386e73495975636113208301527f774277414141486355647969307973716d783667542f534c7334757251736d6b6113408301527f7071584561326f6979435141416f44726571556c33506841615a564e5763646e6113608301527f6b6462512f4b7168733674672f414141414b6d543534756f50703158687738776113808301527f5755747a4631664f6f672f644c324f74646f7761335557565453396b454141436113a08301527f417573716d44346d7936614b664b443859346a7055556a4e384e4f5977386a2f6113c08301527f74367445594141414131435075656a444c5a5a4f6e6a55545a644847737447796113e08301527f53416c345242674141674870594c707632546d764333696962626c52634e71336114008301527f6b6666454941414141716a47386f766a3379466c4853562f6e4b346f6439342f6114208301527f6957364a737575676e6b6a726e6f5a326b4a753436637741414146534473716c6114408301527f595270336f31395664584c30735a5650764f505376736d6d6863542f354d61586114608301527f6b7653674241414467486979585464394f61384b33555462646d495a755454766114808301527f6e6f627555556c63323034576b74634e51796959414149414b6c595a6c6f2f466114a08301527f6c6b7952394b7038326a334c635038353753506d4a756268616b7672517a33676114c08301527f71365438353351516836593279435141416f433744736d6d746b616d4a70475a6114e08301527f594e72303648324e664a63716d693969793655462b5a564f7666484731317a776115008301527f41414142557a584c5a6448426145773457584459744a383544645a6f587469726115208301527f456c6b31767a6b50664938716d6867636841414141366c4d616c6d644a76787a6115408301527f6d66536d664e696d627a696f756d2f782f4b7741414146434e754c38666d2f2f6115608301527f4631567370626c56346944725272366f726d2b5a525a524f72416741414142526115808301527f534e71306c79716242384e437936635635364e7577624a6f7050346739356d486115a08301527f733632647541414141554932346538654d73696b4c4b3575366b4e766f556b706115c08301527f4e334a75384141414155493379392b4f56704a5844764d73372f3432794b61756115e08301527f34624771646872616962414941414b6a4f3843626831656868773676427a47786116008301527f745a6a394f61384b50425a5a4e30756c383744315571725a73656e49652b6e526116208301527f624e73306368766155545141414150577071327779733743446436566c552b736116408301527f38744530704e5756563243695854574d7648766c4b4b6230372f4841414141436116608301527f346f33496f584d767069754b5555715054304b337a716b445a644b55504c35736116808301527f61703647744b4a73414141437155316146715278576864757961574f2b5a644e6116a08301527f47696c7356356c456e2b6b3355344e695049714a73366c312f335a5133552f596116c08301527f504141434132706a5a7a4d772b484e61466e394f636d5a54507877663535464a6116e08301527f464c326c4a3256523045306b373536473732374a70356a433054796e74484f596117008301527f41414144676a75494f68565a5a3266515964614a66684a5a4e337576595832576117208301527f54783763426a61516c33797741414144554a5334314d63716d724f4b797965746117408301527f6f6678526c45774141414d347358317a3934625171664a6a5a516f713775486f6117608301527f656466422b43587539613954674e717073617230667a36647341674141714a446117808301527f6e697a783735526435376e5161756e666150347139524e6c3030556463584e316117a08301527f4c61754a652b67734141494271784630505a726c7338725352346c61465a64536117c08301527f4a50757732756d4f6c5a5a4d5563506b6841414141366d4735624e6f3772516c6117e08301527f376f3279365558485a744a4b3063686a6173693441414144557078774b6e35586118008301527f4c7072452b7a3163555738444631564c63317858317664343170477a71524e6b6118208301527f454141414169624c706f744b794b654b626d3255706d33716e6f62332b54396d6118408301527f30304c69662f4a6853386c36554141414163412b57797961766278612b6a624c6118608301527f70786a523061396f354439326c6c4c71796d53346b725232474e71774c4141416118808301527f4139536b4e79374f6b5877377a766953397035534f6c453146584e6b552b686c6118a08301527f372f6c5a306b74346f6d774141414f6f792f50767853694e54452b556e592f506118c08301527f666a38337331666b592b7970524e6c33456c6b3050386932624873374e4777416118e08301527f41415035786c73756d67394f61634c4467736d6b3563523671303779775653476119008301527f326248707a48767032577a61744e50377a706d77434141436f4547565451646c6119208301527f302f526e482f46594141414367476e46507870725a31766b5975355869566f576119408301527f4871425039717271796156374b4a713976416e726c736f6c56415141416f434a6119608301527f7837397330733758356c6b317269624a704d4479306248707948766f794c4a746119808301527f6d386e36624d414141414b6f52642b2b59425651335a685a32384b3676624f706119a08301527f4362714e4c4b54587564785171767a65577279734141414171556736464b2b556119c08301527f6e5938647155307174546b4f337a7173435a644f562b4c4b70645272616972496119e08301527f4a414143674f734f796154563657466b5454674d335a76626a74436238575044611a008301527f4631664f6f452f306d616e4473522b46644e6c3075726a624b4a674141674839611a208301527f61574e6d554c4c2f2f5a2b45776444683853646c556442503566614e51744d4f611a408301527f79616150387a71625a69494648535a38707064336f48773041414142334e5477611a608301527f557a687a6d396564446f5645325a57466c557839654e6a564f517874524e6745611a808301527f414146536e724170542b587742304a30506845625a6c4656634e6e6b6437592b611aa08301527f364b5a76386639304141414251447a4f626d646d483035727759546d64567a4b611ac08301527f7a6733792b41796d4f6b756155545555336b62527a487271374c5a746d446b4e611ae08301527f377969594141494436554459566a31456e2b6b565932545252666a4445646169611b008301527f6b706979515778762f6664505641676b4141494236684a644e6e6a59535a6450611b208301527f4673644b7953664a35525a676f6d774141414f706b5a67767a4b5a76734e4763611b408301527f6878563163485659327659526458423031754930716d3971796d61376c74356c611b608301527f365064514e414143414f786d5754623831376d522f2f534a504d39733737522f611b808301527f4658714a73757568444c713657314d52645a77344141494271784630505a7057611ba08301527f565463756f452f3236716f75727061437936644739624c71362f424141414144611bc08301527f3173467732375a3357684c31524e74326f7547786153566f354447334c757641611be08301527f2f5a6f70534135395368745541414141415355564f524b35435949493d222f3e611c00830152611c208201527f7472616e73666f726d3d227472616e736c61746528313431312e363620313835611c408201527f2e373729207363616c65282e3234292220786c696e6b3a687265663d22646174611c608201527f613a696d6167652f706e673b6261736536342c6956424f5277304b47676f4141611c808201527f41414e53556845556741414142594141425277434159414141434a6944696841611ca08201527f4141414358424957584d414143346a4141417549774634705439324141415744611cc08201527f6b6c45515652346e4f336477584562535a4f473453385a4d67416d6942597361611ce08201527f494641437762794150534174454353426151487846704179674b324c42445741611d008201527f70594862413979443955464e44687a36307845564d54376e48597639534d3050611d208201527f4852327631566c3775364b392f30715956464a2b6d704a762f6a365374492b65611d408201527f4e46665a6c5a4d6b7478394b326b64734f68675a6b50414f674141414c676763611d608201527f2f65567048744a33774c572b32316d5435496b642f2f72735637614c38353438611d808201527f4c374a476857325751735056354a4b384b49484d7876615838576a704b384269611da08201527f2f36523947526d5938426141414141754a44322f6e677461534e707457437467611dc08201527f2b71545a74473036475077714c4354386b6146362b3547685a4c78547a46712b611de08201527f7166345076302f4559716b5730594641414141564f362b636666336f4448687a611e008201527f6573384933503344793062616a34624a56316e7a534355545a4b6b75336e5a74611e208201527f4a613044566a303163774f4165734141414467676c7244386b4d787566747653611e408201527f58737a477a504b70726632697a4d6576472b7a526f564e61746b552f51512b7a611e608201527f4d756d714c384b796959414149414f5262342f486c58664878644e697a34486a611e808201527f776f3769624c704a4c39734b6b474c466c453241514141344d6a64747835584e611ea08201527f7233377247784b657a364f746c4c69714a41374e653244462f31583262545273611ec08201527f6a7a7466444946414142414e2f4a4f35776d635035712f375266335654616c6e611ee08201527f6a4b5655545964386b377941674141514466612b2b4f4e3676766a7055343759611f008201527f7a322b62506f70555461646c4376464861743058465454376f7062785a564e67611f208201527f3654766c4530414141423973665a2f544f50434575505a41547275766e50336a611f408201527f364178346430706d7a354c6e5a716976774b636c55316646664d527131413241611f608201527f514141394d656d42384966436e6f6f6c5052675a6d5047386134484d37766865611f808201527f4e636d70577a617a38756d6e57725a744851547847387a327766384f41414141611fa08201527f46785165332b385538796f4d4a6a5a6f476e52353642504663326a314f484631611fc08201527f576e487535614d63617959325855726d34616752562b6e39514141414e43524e611fe08201527f6971734648446d2f33464d6d42614e4c4a732b334830725554624e704a5a4e446120008201527f34454c6a6b6f716d77377372414141414f695175362f642f53566758486a332b6120208201527f6f56694a6556635845335a64436178624a4a4350324956796959414149442b706120408201527f4a5a4e6277746e6a382b654a63716d6b3050476d5530484d7a756532665161746120608201527f43686c45774141514964437979624e55784f765a564f5544302b3875487055306120808201527f71697755754b6f6b50745063526538364d4f386249722f63774d414145412f2f6120a08201527f4651325259774a7a30375a39456c75325451454c3570534e67316e2b323441416120c08201527f41445168665a51654b2b59702f7054377537756677506d6a376b2b793661306a6120e08201527f646a445263716d706638446f3653394b4a7341414143366b3365496a727666426121008201527f34344a715757546c4868786458396c303355726d364c6d6b464854786457526c6121208201527f782b4b5478554141414364386c6f327651574e4369396535356d5573716c496f6121408201527f6d773675726c532f52495136576c654e6d305673776d4373676b41414b4244386121608201527f79754b2f316d3431766b567855375a564856594e6e3252644b506736387744316121808201527f674541414d4146525a644e7863794b706b5566673065466e645268325a51324b6121a08201527f7052757971596936665a7a32625457736d394f6f356c4633344d4241414341536121c08201527f2f42614e7230486a516c7630384d6c5a644e5257746c306e5645322f5a6f66376121e08201527f37715274416c59394a5678415141416f442b74624c7158394331677664396d396122008201527f6951707057783661372b59736b6d6179715953764f6a427a496232562f476f6d6122208201527f493959663152335633416242414141514566612b2b4f313676766a4a523842696122408201527f75724f324b4a70306566675557456e55546164354a5a4e337855336878524e5a6122608201527f56505165674141414f696175323839726d7a3636374f794b6533354f467271786122808201527f6457727273716d75336e5a744a6130445668306635784d4151414130493357736122a08201527f5078517a454765703462464f79756262727537596d4b346b685339743243596c6122c08201527f303378667855414141446f527654373439504f574b6473716e4c4c70756739366122e08201527f536c6c3079444b4a674141414278354c5a732b67736145642b2b3162456f62466123008201527f584b6e70716667526639564e71323162444e3230587a5044514141414c7152646123208201527f7a7150782b32736150363258397858325a5236796c5230326652715a6f66494f6123408201527f77716c2b556c654141414136455a3766377856544f3665576a62396c446f38336123608201527f6a56744530544a754c6936614e7064636175344f575351394a3279435141416f6123808201527f432f7a6d3451334339633676306e593358644f3255545a4e446b726d3734712b6123a08201527f70353041414141644d4f6d42384966436e6f6f6c5052675a6d50474a7547446d6123c08201527f5846783956464b3262542f58445a3930374c2f694b4e71326251502b484541416123e08201527f4143346f50622b654b655955574577733048546f6939426e7971615a346d79366124008201527f53546c7a4b5a695a74657462427143466e326431674d414145424832716977556124208201527f73416d694f4f594d43306157545a39654e327051646c306b6c6f32335155754f6124408201527f4371706244717773774941414b4244377237322b6d566836626a77376e5876396124608201527f5571717a38655554564b665a5a4d552b68477255445942414144304a2b2b68306124808201527f4f4d767275367a624572375844466b6e4e6c304d4c506a6d5532764151754f6b6124a08201527f76616962414941414f684f614e6d6b655772697457794b3875474a46316550536124c08201527f686f56566b7263424a456265575755545750656e78734141414436346165794b6124e08201527f634b4c557a5a396b6c7332525878526d4573706d34617a665463414141446f516125008201527f6e736f764e6679677a77506b76365073756d7a4473756d4c354a75564b387a6a6125208201527f356a3169715348674855414141427751586d48364c6a37666543596b466f32536125408201527f556c6e4e6b6c646c3031526338676f36665a594e6b6b686c782b4b54785541416125608201527f414364386c6f325258315a6550485a78645868317839496f6d773675726c53336125808201527f654d6336576c654e6d305673776d4373676b41414b42443879754b2f316d34316125a08201527f766b567859487a5230505a6443612f624171397a6a78674851414141467851646125c08201527f4e6c557a4b786f57765178654654595352325754576d6a51756d6d624372366a6125e08201527f374a70725758666e45597a6937344841774141414a6667376875764e386c46656126008201527f505045736d6d556445335a3146786e6c45322f356864586279527441685a395a6126208201527f5677414141446f5479756232706c4e532f30327379644a4b575854572f76466c6126408201527f45335356445a46503445505a6a61307634704878587a452b714f3675344c62496126608201527f4141414144725333682b764a573058726a5771766a38756d685a3944683456646126808201527f684a6c30306c75326652647455694b5544535654554872415141416f477675766126a08201527f76573473756e645a32565432764e78744a55535234586371576b66764f6a64766126c08201527f47794b6e307742414144516a627947785473726d3237547270684962624579796126e08201527f715a445875384741414341627554746a50583473756c656f6d77364b576c37306127008201527f71504c706b475554514141414e324a50472b7a6e47556d3772377a65754630686127208201527f48656e62506f736457714b2f677077566a5a395666527077674141414f6947546127408201527f512b455566654f6e5a564e3730487a522f4f332f654b7579715a3156325854666127608201527f6c3432376254386a6b4b4a73676b41414b424c3766337856744936594c33427a6127808201527f415a4e697a34486a777150556f6648753237537971614d6936754c706e4e6a626127a08201527f78553368777953766c4d3241514141394756654e6d3057726e562b6b3742544e6127c08201527f6c45325455596c6c553048356738414149442b744c4c70555448376559756b426127e08201527f7a4d624d7a594a48387a73686f75726d38755554642b3037442f6971466f32376128008201527f514e2b484141414143366f76542f654b65623938566e5a39424c3071614a356c6128208201527f696962546c4c4f6243706d6474334b7074656752562b6e39514141414e43524e6128408201527f697173464c414a346a676d544974476c6b3066586e6471704a564e4b615043536128608201527f6f6d6a5175342f785633776f672f7a73696e6b7a3032555451414141483179396128808201527f37584866466e34384c7233656958563532504b4a716e50736b6b4b2f5968564b6128a08201527f4a7341414144366b2f645136504558562f645a4e715674784234797a6d77366d6128c08201527f4e6b774c3575572f672b4d6b76616962414941414f684f336945365873756d4b6128e08201527f42396535786e4b70705055343676754644654874444f627872795144674141416129008201527f503377576a61394259304b4c31376e6d5a5379715a6a5a4e57565463334f6c756129208201527f4c33535455725a4e4441754141414139436679494d38693651396c303263646c6129408201527f6b31664a4e306f376a727a49756b6859423041414142635547725a394267384b6129608201527f75796b354376594d71535654574d335a564f52644873736d365351797738706d6129808201527f7741414148726c7457794b2b724c7735724f4c7138504c4a6b6d6332585230636129a08201527f365736787a6e53303778733269726d6546664b4a6741416741374e79365a2f466129c08201527f713531666b567834507a52554461644761355578366449427a4d62326e586d556129e08201527f5758544839555a684e7367414141414f744c6548363856387747676d466e5274612a008201527f43686c6b3551344b70545573756d376b73756d72316f3268357a2b3141414141612a208201527f4e415864392b342b3376516d50446d695758544b496b7a6d3436754d38716d73612a408201527f34757231354b324159752b6d6c6e3074586b41414142493173716d4834724a33612a608201527f582b62325a4f6b6c4c4c70726633696a416676322b34325967385a4631635072612a808201527f57794b2f4b756762414941414f68513550766a55665839636447303648507771612aa08201527f4c43544b4a744f3873756d4572526f30565132426130484141434172726e3731612ac08201527f75504b706e65666c5531707a386652566b6f6346584b6e706e33776f6e656679612ae08201527f36614e6c75567035354d7041414141757445616c6b64466e38376a3857585433612b008201527f2f614c2b797162556b2b5a7969696244753276346c37316a734b6c5472306241612b208201527f41414175744865483239553378387664646f5a362f466c30302b4a73756d6b70612b408201527f4f314a76354a30713769796152426c457741415148666d3532307550654c312f612b608201527f4c784e64392b352b3066516d5044756c4532667055354e305638427a73716d72612b808201527f347235694d5552727741414142324b766e6673494f6d586d59305a723949505a612ba08201527f705a326358566132625475716d7a617a38756d6e614c764b4151414145413332612bc08201527f76766a7257494f38687a4d624e4330364850517034726d556572773475713034612be08201527f31315479715a695a7365794b576f4f4761623141414141304a46353262525a76612c008201527f466762453659464938756d443664732b69793162486f495848425555746c3059612c208201527f4763464141424168397a397137752f4249774c6637312b6f56684a4f52645870612c408201527f355a4e2f5631636e566732535a4b373379766d5032436862414941414f685065612c608201527f796a634b65623938566e5a394c4a7739766a7357614a734f6b6b706d77356d64612c808201527f74504b707465675256394632515141414e43644e697173464c414a34722f4b70612ca08201527f696766586e6471704a564e4b615043536f6d6a5175342f785633776f672f7a73612cc08201527f696e6b7a30325554514141414831793937584866466e34634d716d2f39427832612ce08201527f625254335047752b344231414141416345463544345565663346316e32565432612d008201527f6b6273345572315330436b67356b4e38374a7036662f414b476b767969594141612d208201527f49447535423269342b3733675750436839643570722b4c712f73726d36356232612d408201527f5251316837517a6d3861386b4134414141443938466f327651574e4369396535612d608201527f356d5573716d593254566c55334e7a70666f6c494e4a5452746b304d43344141612d808201527f4144304a2b2b4b59716473716a6f736d373549756c486364655a467356645741612da08201527f41414134414b6979365a695a6b58546f6f2f426f384a4f367242735368735653612dc08201527f6a646c5535463065797962704a444c4430637a69393474446741416745767757612de08201527f6a61394234304a627a363775447138624a4c456d55314831786c6c30362f3538612e008201527f613462535a75415256385a467741414150725479715a3753643843317674745a612e208201527f6b2b535573716d6c2f614c4b5a756b71577771775973657a47786f6678575069612e408201527f766d493955643164775733515141414148536b765439657137342f587649526f612e608201527f4b6a756a433261466e304f48685632456d58545357375a3946317863306a5256612e808201527f4459467251634141494375756676574f796d62526b6e396e646d303671707375612ea08201527f7075585457744a323442464b5a7341414141363142715748776f3438312f7a68612ec08201527f73586a79366133396f737a487278767537746959736934754871596c30337866612ee08201527f7855414141446f52755437343148312f584852744f687a384b69776b79696254612f008201527f69696241414141304357765a644e48304a6a7737724f794b6533354f4e704b69612f208201527f614e43377453304431373058325854527376797450504a46414141414e33494f612f408201527f35334834335a574e482f624c2b367262456f395a53716a62447045336c456f7a612f608201527f552f7941674141514466797a767a332b4c4c707030545a644649794c7134756d612f808201527f6e5a583343707544686b6b66616473416741413645766554634c75766e504b70612fa08201527f6d374c707569764147646c3031644633354d4f4141434162746a305150684451612fc08201527f512b466b68374d624d7734337656675a6c7863665a52534e75302f6c30336674612fe08201527f4877547847387a327766384f4141414146785165332b385538796f4d4a6a5a6f6130008201527f476e52353642504663326a314f484631576e487535614d63617959325855726d6130208201527f34616752562b6e39514141414e43524e6971734648446d2f33464d6d42614e4c6130408201527f4a732b334830725554624e704a5a4e4434454c6a6b6f716d77377372414141416130608201527f4f695175362f642f53566758486a332b6f56694a6556635845335a64436178626130808201527f4a4a4350324956796959414149442b704a5a4e3052645850307555545365486a6130a08201527f444f62446d5a32504c50704e576a52765369624141414175684e614e6d6d656d6130c08201527f6e67746d364a38654f4c4631614f53526f5756456b654633482b4b752b4246486130e08201527f2b5a6c552f7966477741414150726870374970596b78346473716d54334c4c706131008201527f694634305a537961546a6264774d41414941757449664365385538315a3979646131208201527f36647371744932596738584b5a764b7767564855545942414142304b653851486131408201527f58652f447877545573736d4b6648693676374b707574574e6b584e49614f6d696131608201527f36736a4c7a38556e796f41414141363562567369767179384f4a316e6b6b706d6131808201527f346f6b7971616a6d7976564c7747526e755a6c303159786d79416f6d774141416131a08201527f446f3076364c346e3456726e5639524844682f4e4a524e5a2f4c4b70692b53626131c08201527f6852386e586e414f674141414c6967364c4b706d466e52744f686a384b69776b6131e08201527f7a6f736d394a4768644a4e3256516b335834756d395a61397331704e4c506f656132008201527f7a4141414142774356374c707665674d6546746572684d4b5a744753646555546132208201527f63313152746e3061333638363062534a6d445256385946414143412f725379366132408201527f563753743444316670765a6b36535573756d742f574c4b4a6d6b716d3072776f6132608201527f67637a4739706678614e69506d4c3955643164775730514141414148576e766a6132808201527f39657137342b586641516f716a746a69365a466e344e48685a314532585353576132a08201527f7a5a3956397763556a535654554872415141416f4776757676573473756d767a6132c08201527f38716d744f666a614b6b5856362b364b707675356d585457744a3234594b6a616132e08201527f746c556c7634794141414158465a725748346f35694450553850696e5a564e746133008201527f326c58544b5332574e46374377597a4f34542f565a6a5a7a34423141414141636133208201527f45475237342b6c2b633559703279716373756d6c44337030575854494d6f6d416133408201527f41414148486b746d7a3643786f523337375673536873566371656d702b42462f6133608201527f315532726256734d336252664d384e41414141757046334f6f2f483761786f2f6133808201527f725a66544e6b6b4a5a564e2b336e5a744e50794f77716c2b556c6541414141366133a08201527f455a3766377856544f3665576a62396c446f38336a56744933624a754c6936616133c08201527f446f33396c5a78633867673654746c4577414151462f6d4e776c7646713531666133e08201527f704f77752b2b63736f6d7961584a574e6e3156394433704141414136495a4e446134008201527f34512f465052514b4f6e427a4d614d546349484d3776683475726d4d6d58544e6134208201527f7933376a7a69716c6b33376742384841414341433272766a33654b475255474d6134408201527f7873304c666f53394b6d69655a596f6d3035537a6d77715a6e626479715968616134608201527f4e485861543041414142307049304b4b775673676a694f43644f696b575854686134808201527f3965644770524e4a316e2f464464586b753643463333494b4a734f374b7741416134a08201527f41446f6b4c75765065624c776f66587664637271543466557a5a4a665a5a4e556134c08201527f75684872454c5a42414141304a2b3868304b50763769367a374970375850466b6134e08201527f48466d3038484d6a6d6332765159734f4572616937494a414143674f36466c6b6135008201527f2b6170696465794b6371484a313563666378356f71325575416b694e2f4b36556135208201527f3977634d7171653254546d685851414141446f683965793653316f56486a786d6135408201527f7335544e68336c6c6b30525878546d5573716d675845424141436750354548656135608201527f525a4a667969625075757762506f69365562314f764f495761394965676859426135808201527f774141414265556434694f753938486a676d705a5a4f5564476154524e6b30726135a08201527f584e374c4a756b6b4d73504b5a7341414142363562567369767179384f617a696135c08201527f367644727a2b51524e6c3064484f6c7573633530744f38624e6f715a73384e5a6135e08201527f524d4141454348356d5854507776584f722b694f48442b614369627a755358546136008201527f6148586d516573417741416741754b4c70754b6d52564e697a34476a776f37716136208201527f634f794b5731554b4e32555455582f55546174746579623032686d30666467416136408201527f41414134424c63666550753730466a7770736e6c6b326a7047764b707559366f6136608201527f327a364e622b34656931704737446f4b2b4d43414142416631725a644b39365a6136808201527f744e537638337353564a4b32665457666a466c6b7a53565464465034494f5a446136a08201527f653276346f64694e6b483855643164455a3168415141414946486b2b2b4e52396136c08201527f6631783062546f632f436f734a4d6f6d30357979366276716b5653684b4b70626136e08201527f417061447741414146317a393633486c55337650697562307036506f3632554f6137008201527f43726b546b3337344558765070644e47793363424b48355a416f4141494275746137208201527f49626c555445627355384e693364574e74326d58544752326d4a6c6c453248766137408201527f4e344e4141414133576a766a7a657137342b584f75324d3966697936616445326137608201527f5852533076616b5235644e677969624141414175684e35336d593579307a63666137808201527f65663177756b493730375a39466e71314254394665437362507171364e4f45416137a08201527f514141304132624867696a376830376c6b305a723949505a705a3263585661326137c08201527f625475716d7a617a38756d6e5a62665553684a2f3375386f78414141414464616137e08201527f4f2b5074346f3579484d77733048546f7339426e79716152366e4434313033616138008201527f5756547873585652644f357362654b6d304d47536438706d77414141506f794c6138208201527f3573324339633676306e594b5a75364c70742b425334344b716c734f6a422f416138408201527f414141394b655654592b4b695a434b704963757936622b4c71362b544e6e30506138608201527f316f324c6f79715a7a62746c2f38324141414158464a37663778547a50766a736138808201527f374c704a65685452664d7355546164704a7a5a6444437a6d315932765159742b6138a08201527f7170364268514141414136306b61466c51493251527a4868476e5258654359386138c08201527f4f463170305a61325a51794b7179554f43726b2f6c506342532f364d432b62516138e08201527f763763524e6b45414144514a3364666538795868512b7665363958556e302b706139008201527f6d79532b697962704e435057495779435141416f44393544345565663346316e6139208201527f325654326b62734965504d706f4f5a44664f7961656e2f7743687050363048416139408201527f4143416a7551646f7550785a644e4f6f6d79615354322b366b357863306737736139608201527f326e4d432b6b41414144514436396c3031765171504469645a354a4b5a754b6d6139808201527f5631544e6a5533563472624b39326b6c453044347749414145422f35676435666139a08201527f744f794a2f73693651396c303263646c6b31664a4e306f376a727a49756b68596139c08201527f423041414142635547725a394267384b75796b354376594d71535654574d335a6139e08201527f564f52644873736d365351797738706d7741414148726c7457794b2b724c7735613a008201527f724f4c7138504c4a6b6d633258523066615736787a6e53302f7834313631696a613a208201527f6e63396c6b332f443031567a713847526379634141414141456c46546b537551613a408201526536a1a191179f60d11b613a608201527f3c696d6167652077696474683d223438373422206865696768743d2232332220613a668201527f7472616e73666f726d3d227472616e736c617465283133362e332037362e3333613a868201527f29207363616c65282e3234292220786c696e6b3a687265663d22646174613a69613aa68201527f6d6167652f706e673b6261736536342c6956424f5277304b47676f414141414e613ac68201527f5355684555674141457767414141415543415941414143484439366841414141613ae68201527f4358424957584d414143346a414141754977463470543932414141476e6b6c45613b068201527f515652346e4f33635156627a4e674346556447565a576e70796c42586c6b3743613b268201527f5432736b4f7a614a39417a33447545633945362b474749474c7265767275554a613b468201527f476a2f336a326638664f5a625358774e326a4c382f58613733613470572b3537613b668201527f6447707669656d30746b556e6e5662324a47335271622f6e444674304f736357613b868201527f6e6336784a617254364333335054713174385230577475696b30347265335461613ba68201527f75535773303477744f7658336e47474c547566596f744d35746b52314772336c613bc68201527f766b656e39706159546d7462644e4a705a552f534670333665354b32364e5466613be68201527f633459744f70316a5331536e3056767565335271623946702f355a6633576c74613c068201527f693034367265784a32714a5466302f5346703336653836775261647a62496e71613c268201527f4e48724c6659394f375330786e646132364b545479683664646d344a367a526a613c468201527f69303739505766596f744d35747568306a6931526e555a7675652f527162306c613c668201527f707450614670313057746d6a30383474595a316d624e4770762b634d57335136613c868201527f7835616f54714f333350666f314e366945303831366a3031366a72614f756576613ca68201527f5a78344741414141414141414141414141414141414141414141414166493848613cc68201527f6841454141414141414141414141414141414141414141414145415144776744613ce68201527f4141414141414141414141414141414141414141414143414942345142674141613d068201527f4141414141414141414141414141414141414141414545384941774141414141613d268201527f4141414141414141414141414141414141414343654541594141414141414141613d468201527f41414141414141414141414141414141425047414d4141414141414141414141613d668201527f41414141414141414141414141416a6941574541414141414141414141414141613d868201527f4141414141414141414141517841504341414141414141414141414141414141613da68201527f4141414141414141494967486841454141414141414141414141414141414141613dc68201527f4141414141454151447767444141414141414141414141414141414141414141613de68201527f4141434149423451426741414141414141414141414141414141414141414141613e068201527f4145453849417741414141414141414141414141414141414141414141414343613e268201527f6545415941414141414141414141414141414141414141414141414142504741613e468201527f4d41416556576350414c366c7a6837416a314a6e4477414f71374d48384b5055613e668201527f32514f4162366d7a422f436a314e6b44674d50713741455071724d4841507743613e868201527f646661414239585a4177434955476350414342476e5430414f4b7a4f48734350613ea68201527f556d6350414c366c7a6837416a314a6e4477414f71374d48384b505532514f41613ec68201527f62366d7a427742416d693850434874376537732b3657662f766650722f427831613ee68201527f77706c4a373763363463776a6174435a535a313658332b5a6a642b376464434d613f068201527f523837385a2b534944585830675775646e766933633438363463793936756744613f268201527f6456725675346272794246625a345a31366e33396c58702f452b76494556746e613f468201527f7672323964623833515a317770732b652b39554a5a2b725573484839726e3376613f668201527f5658706e4a6e58716666316c33434d63556b6366364c506e4958583067547174613f868201527f636f2b7758353177706e75452f6571454d333332334b394f4f464f6e68685064613fa68201527f492f6a73325663487a5a6839356c35313949452b657835536b38375536545433613fc68201527f434e33765456416e6e486d4b6534517764634b5a506e76755634504f2f4e5764613fe68201527f5476545a307a334367652b39554a3177356c35313949453648564b547a7454706140068201527f484a38393353503437486c416e58436d5467306e2b7639305571666531312f476140268201527f5063496864665342506e7365556b6366714e4f71732f782f2b6a7075786839316140468201527f3539646679543343666e58436d543537376c636e6e4b6c54673375455658586e6140668201527f31312f475063496864665342506e7365556b6366714e4d7139776a3731516c6e6140868201527f6e75496549557964634b62506e767656325150347476726b6e7a6671393933366140a68201527f395872377638737a5437376462752b4c6e2f2f2b7a4a2f50584c666237584c376140c68201527f616c726a705064625938765472363864573352366645746170356c62644770766140e68201527f536575556647326e76545a4a57354936765965394e6b6c626f6a704e33484c566141068201527f7162736e71644e79693036666533527162326c317573375963742b6a5533744c6141268201527f3274394b6e647062306a6f743656523032746a7a35646f4f65323253746b52316141468201527f6d726a4650554a2f54314b6e355261645076666f314e3769487548784c576d646141668201527f6b72626f56485461324b5054343175534f72324876545a4a57364936425733526141868201527f36584f50547530744f6a322b4a6133547a4330367462656b6455712b74744e656141a68201527f6d3651744f6857644e7659734f2f6e2f644e4670357861645076666f314e37696141c68201527f2f394f5062306e724e484f4c54753074615a325764436f3662657a35636d32486141e68201527f76545a4a5736493654647a694871472f4a366e54636f744f6e337430616d39786142068201527f6a2f44346c72524f4d37666f314e3653316d6c4a70364c5478703476313362596142268201527f61354f304a61725478433375456670376b6a6f74742b6a4574347836543432366142468201527f6a74624f65627664623435653959544b2b7774334b61585573436577387953336142668201527f7a78767336593254336d2f2f32524c78424669644e7264456451725a63696b366142868201527f4e5956312b74696730344a4f6254723168586161767155556e5871534f7156656142a68201527f3279587274556e616f744f43546e316876344d765261656d73453466473352616142c68201527f304b6b7436646f75526163656e6670303274796930344a4f665748583971586f6142e68201527f314b545435706155312b5a61537461576f744d584f72556c5864756c364e53546143068201527f31436e313269355a7230335346703057644f6f4c2b7831384b546f31685858366143268201527f324b4454676b35744f7657466470712b7052536465704936705637624a6575316143468201527f5364716930344a4f6657472f677939467036617754683862644672517155326e6143668201527f7674424f303765556f6c4e50557166556137746b76545a4a57335261304b6b766143868201527f3748667770656a55464e627059344e4f437a71314a56336270656a556f314f666143a68201527f54707462644f49705272326e526c3148536463724141414141414141414141416143c68201527f414141414141414141414141305045763770474c70333939656f3441414141416143e68201526e29aaab27a9259aa1aca4a49e91179f60891b6144068201526144150160006153e9826100ed565b7f3c7061746820636c6173733d22636c732d382220643d224d313432382e362c3181527f3436382e38337633332e383263302c31332e35312d31302e39352c32342e343760208201527f2d32342e34372c32342e3437682d33322e3632762d33322e30377331302e373160408201527f2c302c31302e37312c3063372e392c302c31342e332d362e342c31342e332d316060820152731a1719bb169898971c98b4199917181bad11179f60611b60808201527f3c7061746820636c6173733d22636c732d382220643d224d313337392e35322c60948201527f313531392e3132762d31362e303768312e33396331332e30342c302c32332e3660b48201527f322d31302e35372c32332e36322d32332e3632762d322e35396831362e30377660d48201527f32312e363263302c31312e34312d392e32352c32302e36362d32302e36362c3260f48201526e18171b1b34169918171a192d11179f60891b610114820152711e339031b630b9b99e9131b639969a18111f60711b610123820152610135019150615577826100ed565b9291505056fea26469706673582212204ce13737a50af92e14af18d478a28a3fd5302e1f2b7534aa13b01947d28884ed64736f6c63430008090033",
  "linkReferences": {},
  "deployedLinkReferences": {}
}