{
  "_format": "hh-sol-artifact-1",
  "contractName": "StakingPool",
  "sourceName": "contracts/token/StakingPool.sol",
  "abi": [
    {
      "inputs": [
        {
          "internalType": "contract IERC20Metadata",
          "name": "qui_",
          "type": "address"
        }
      ],
      "stateMutability": "nonpayable",
      "type": "constructor"
    },
    {
      "anonymous": false,
      "inputs": [
        {
          "indexed": true,
          "internalType": "address",
          "name": "owner",
          "type": "address"
        },
        {
          "indexed": true,
          "internalType": "address",
          "name": "spender",
          "type": "address"
        },
        {
          "indexed": false,
          "internalType": "uint256",
          "name": "value",
          "type": "uint256"
        }
      ],
      "name": "Approval",
      "type": "event"
    },
    {
      "anonymous": false,
      "inputs": [
        {
          "indexed": false,
          "internalType": "address",
          "name": "user",
          "type": "address"
        },
        {
          "indexed": false,
          "internalType": "uint256",
          "name": "quinoa",
          "type": "uint256"
        },
        {
          "indexed": false,
          "internalType": "uint256",
          "name": "sQuinoa",
          "type": "uint256"
        }
      ],
      "name": "Deposit",
      "type": "event"
    },
    {
      "anonymous": false,
      "inputs": [
        {
          "indexed": false,
          "internalType": "address",
          "name": "user",
          "type": "address"
        },
        {
          "indexed": false,
          "internalType": "uint256",
          "name": "quinoa",
          "type": "uint256"
        },
        {
          "indexed": false,
          "internalType": "uint256",
          "name": "sQuinoa",
          "type": "uint256"
        }
      ],
      "name": "Redeem",
      "type": "event"
    },
    {
      "anonymous": false,
      "inputs": [
        {
          "indexed": true,
          "internalType": "address",
          "name": "from",
          "type": "address"
        },
        {
          "indexed": true,
          "internalType": "address",
          "name": "to",
          "type": "address"
        },
        {
          "indexed": false,
          "internalType": "uint256",
          "name": "value",
          "type": "uint256"
        }
      ],
      "name": "Transfer",
      "type": "event"
    },
    {
      "anonymous": false,
      "inputs": [
        {
          "indexed": false,
          "internalType": "address",
          "name": "user",
          "type": "address"
        },
        {
          "indexed": false,
          "internalType": "uint256",
          "name": "quinoa",
          "type": "uint256"
        },
        {
          "indexed": false,
          "internalType": "uint256",
          "name": "sQuinoa",
          "type": "uint256"
        }
      ],
      "name": "Withdraw",
      "type": "event"
    },
    {
      "inputs": [
        {
          "internalType": "address",
          "name": "owner",
          "type": "address"
        },
        {
          "internalType": "address",
          "name": "spender",
          "type": "address"
        }
      ],
      "name": "allowance",
      "outputs": [
        {
          "internalType": "uint256",
          "name": "",
          "type": "uint256"
        }
      ],
      "stateMutability": "view",
      "type": "function"
    },
    {
      "inputs": [
        {
          "internalType": "address",
          "name": "spender",
          "type": "address"
        },
        {
          "internalType": "uint256",
          "name": "amount",
          "type": "uint256"
        }
      ],
      "name": "approve",
      "outputs": [
        {
          "internalType": "bool",
          "name": "",
          "type": "bool"
        }
      ],
      "stateMutability": "nonpayable",
      "type": "function"
    },
    {
      "inputs": [
        {
          "internalType": "address",
          "name": "account",
          "type": "address"
        }
      ],
      "name": "balanceOf",
      "outputs": [
        {
          "internalType": "uint256",
          "name": "",
          "type": "uint256"
        }
      ],
      "stateMutability": "view",
      "type": "function"
    },
    {
      "inputs": [
        {
          "internalType": "uint256",
          "name": "sQui",
          "type": "uint256"
        }
      ],
      "name": "convertToQui",
      "outputs": [
        {
          "internalType": "uint256",
          "name": "",
          "type": "uint256"
        }
      ],
      "stateMutability": "view",
      "type": "function"
    },
    {
      "inputs": [
        {
          "internalType": "uint256",
          "name": "qui",
          "type": "uint256"
        }
      ],
      "name": "convertToSQui",
      "outputs": [
        {
          "internalType": "uint256",
          "name": "",
          "type": "uint256"
        }
      ],
      "stateMutability": "view",
      "type": "function"
    },
    {
      "inputs": [],
      "name": "decimals",
      "outputs": [
        {
          "internalType": "uint8",
          "name": "",
          "type": "uint8"
        }
      ],
      "stateMutability": "view",
      "type": "function"
    },
    {
      "inputs": [
        {
          "internalType": "address",
          "name": "spender",
          "type": "address"
        },
        {
          "internalType": "uint256",
          "name": "subtractedValue",
          "type": "uint256"
        }
      ],
      "name": "decreaseAllowance",
      "outputs": [
        {
          "internalType": "bool",
          "name": "",
          "type": "bool"
        }
      ],
      "stateMutability": "nonpayable",
      "type": "function"
    },
    {
      "inputs": [
        {
          "internalType": "uint256",
          "name": "qui",
          "type": "uint256"
        }
      ],
      "name": "deposit",
      "outputs": [],
      "stateMutability": "nonpayable",
      "type": "function"
    },
    {
      "inputs": [],
      "name": "getQuiAddress",
      "outputs": [
        {
          "internalType": "address",
          "name": "",
          "type": "address"
        }
      ],
      "stateMutability": "view",
      "type": "function"
    },
    {
      "inputs": [],
      "name": "getQuiBalance",
      "outputs": [
        {
          "internalType": "uint256",
          "name": "",
          "type": "uint256"
        }
      ],
      "stateMutability": "view",
      "type": "function"
    },
    {
      "inputs": [
        {
          "internalType": "address",
          "name": "spender",
          "type": "address"
        },
        {
          "internalType": "uint256",
          "name": "addedValue",
          "type": "uint256"
        }
      ],
      "name": "increaseAllowance",
      "outputs": [
        {
          "internalType": "bool",
          "name": "",
          "type": "bool"
        }
      ],
      "stateMutability": "nonpayable",
      "type": "function"
    },
    {
      "inputs": [],
      "name": "name",
      "outputs": [
        {
          "internalType": "string",
          "name": "",
          "type": "string"
        }
      ],
      "stateMutability": "view",
      "type": "function"
    },
    {
      "inputs": [
        {
          "internalType": "uint256",
          "name": "sQui",
          "type": "uint256"
        }
      ],
      "name": "redeem",
      "outputs": [],
      "stateMutability": "nonpayable",
      "type": "function"
    },
    {
      "inputs": [],
      "name": "symbol",
      "outputs": [
        {
          "internalType": "string",
          "name": "",
          "type": "string"
        }
      ],
      "stateMutability": "view",
      "type": "function"
    },
    {
      "inputs": [],
      "name": "totalSupply",
      "outputs": [
        {
          "internalType": "uint256",
          "name": "",
          "type": "uint256"
        }
      ],
      "stateMutability": "view",
      "type": "function"
    },
    {
      "inputs": [
        {
          "internalType": "address",
          "name": "to",
          "type": "address"
        },
        {
          "internalType": "uint256",
          "name": "amount",
          "type": "uint256"
        }
      ],
      "name": "transfer",
      "outputs": [
        {
          "internalType": "bool",
          "name": "",
          "type": "bool"
        }
      ],
      "stateMutability": "nonpayable",
      "type": "function"
    },
    {
      "inputs": [
        {
          "internalType": "address",
          "name": "from",
          "type": "address"
        },
        {
          "internalType": "address",
          "name": "to",
          "type": "address"
        },
        {
          "internalType": "uint256",
          "name": "amount",
          "type": "uint256"
        }
      ],
      "name": "transferFrom",
      "outputs": [
        {
          "internalType": "bool",
          "name": "",
          "type": "bool"
        }
      ],
      "stateMutability": "nonpayable",
      "type": "function"
    },
    {
      "inputs": [
        {
          "internalType": "uint256",
          "name": "qui",
          "type": "uint256"
        }
      ],
      "name": "withdraw",
      "outputs": [],
      "stateMutability": "nonpayable",
      "type": "function"
    }
  ],
  "bytecode": "0x60a06040523480156200001157600080fd5b5060405162001acf38038062001acf8339810160408190526200003491620001ad565b604080518082018252601381527f5374616b65642d5175696e616f20546f6b656e000000000000000000000000006020808301918252835180850190945260048452637351756960e01b9084015281519192916200009591600391620000c0565b508051620000ab906004906020840190620000c0565b5050506001600160a01b031660805262000221565b828054620000ce90620001f0565b90600052602060002090601f016020900481019282620000f257600085556200013d565b82601f106200010d57805160ff19168380011785556200013d565b828001600101855582156200013d579182015b828111156200013d57825182559160200191906001019062000120565b506200014b9291506200014f565b5090565b5b808211156200014b576000815560010162000150565b60006001600160a01b0382165b92915050565b6000620001738262000166565b620001918162000179565b81146200019d57600080fd5b50565b8051620001738162000186565b600060208284031215620001c457620001c4600080fd5b6000620001d28484620001a0565b949350505050565b634e487b7160e01b600052602260045260246000fd5b6002810460018216806200020557607f821691505b602082108114156200021b576200021b620001da565b50919050565b6080516118686200026760003960008181610216015281816103ec0152818161058e015281816106d7015281816107e1015281816109670152610c4001526118686000f3fe608060405234801561001057600080fd5b50600436106100e65760003560e01c806306fdde03146100eb578063095ea7b31461010957806318160ddd146101295780631aac712e1461013a57806323b872dd1461014d5780632e1a7d4d14610160578063313ce56714610175578063395093511461018457806365f4f0d61461019757806370a08231146101aa57806395d89b41146101d3578063a457c2d7146101db578063a9059cbb146101ee578063b6b55f2514610201578063c07cc5c814610214578063db006a7514610242578063dd62ed3e14610255578063e798e7a514610268575b600080fd5b6100f3610270565b6040516101009190610eee565b60405180910390f35b61011c610117366004610f43565b610302565b6040516101009190610f8a565b6002545b6040516101009190610f9e565b61012d610148366004610fac565b61031c565b61011c61015b366004610fcd565b610329565b61017361016e366004610fac565b61034f565b005b60126040516101009190611026565b61011c610192366004610f43565b6104be565b61012d6101a5366004610fac565b6104e0565b61012d6101b8366004611034565b6001600160a01b031660009081526020819052604090205490565b6100f36104ed565b61011c6101e9366004610f43565b6104fc565b61011c6101fc366004610f43565b610544565b61017361020f366004610fac565b610552565b7f0000000000000000000000000000000000000000000000000000000000000000604051610100919061105e565b610173610250366004610fac565b610653565b61012d61026336600461106c565b61079c565b61012d6107c7565b60606003805461027f906110b5565b80601f01602080910402602001604051908101604052809291908181526020018280546102ab906110b5565b80156102f85780601f106102cd576101008083540402835291602001916102f8565b820191906000526020600020905b8154815290600101906020018083116102db57829003601f168201915b5050505050905090565b60003361031081858561086b565b60019150505b92915050565b600061031682600061091f565b600033610337858285610a09565b610342858585610a53565b60019150505b9392505050565b600060001982141561037657610364336101b8565b905061036f816104e0565b9150610382565b61037f8261031c565b90505b600081116103ab5760405162461bcd60e51b81526004016103a290611129565b60405180910390fd5b6103b4336101b8565b8111156103d35760405162461bcd60e51b81526004016103a290611179565b6103dd3382610b54565b60405163a9059cbb60e01b81527f00000000000000000000000000000000000000000000000000000000000000006001600160a01b03169063a9059cbb9061042b9033908690600401611189565b602060405180830381600087803b15801561044557600080fd5b505af1158015610459573d6000803e3d6000fd5b505050506040513d601f19601f8201168201806040525081019061047d91906111b7565b507ff279e6a1f5e320cca91135676d9cb6e44ca8a08c0b88342bcdb1144f6511b568335b83836040516104b2939291906111d8565b60405180910390a15050565b6000336103108185856104d1838361079c565b6104db9190611216565b61086b565b6000610316826000610c13565b60606004805461027f906110b5565b6000338161050a828661079c565b90508381101561052c5760405162461bcd60e51b81526004016103a290611270565b610539828686840361086b565b506001949350505050565b600033610310818585610a53565b600061055d8261031c565b90506000811161057f5760405162461bcd60e51b81526004016103a2906112c3565b6040516323b872dd60e01b81527f00000000000000000000000000000000000000000000000000000000000000006001600160a01b0316906323b872dd906105cf903390309087906004016112d3565b602060405180830381600087803b1580156105e957600080fd5b505af11580156105fd573d6000803e3d6000fd5b505050506040513d601f19601f8201168201806040525081019061062191906111b7565b5061062c3382610ce1565b7f90890809c654f11d6e72a28fa60149770a0d11ec6c92319d6ceb2bb0a4ea1a15336104a1565b600060001982141561066b57610668336101b8565b91505b610674826104e0565b9050600081116106965760405162461bcd60e51b81526004016103a290611330565b61069f336101b8565b8211156106be5760405162461bcd60e51b81526004016103a29061137e565b6106c83383610b54565b60405163a9059cbb60e01b81527f00000000000000000000000000000000000000000000000000000000000000006001600160a01b03169063a9059cbb906107169033908590600401611189565b602060405180830381600087803b15801561073057600080fd5b505af1158015610744573d6000803e3d6000fd5b505050506040513d601f19601f8201168201806040525081019061076891906111b7565b507fe5b754fb1abb7f01b499791d0b820ae3b6af3424ac1c59768edb53f4ec31a9293382846040516104b2939291906111d8565b6001600160a01b03918216600090815260016020908152604080832093909416825291909152205490565b6040516370a0823160e01b81526000906001600160a01b037f000000000000000000000000000000000000000000000000000000000000000016906370a082319061081690309060040161105e565b60206040518083038186803b15801561082e57600080fd5b505afa158015610842573d6000803e3d6000fd5b505050506040513d601f19601f820116820180604052508101906108669190611399565b905090565b6001600160a01b0383166108915760405162461bcd60e51b81526004016103a2906113fb565b6001600160a01b0382166108b75760405162461bcd60e51b81526004016103a29061144a565b6001600160a01b0380841660008181526001602090815260408083209487168084529490915290819020849055517f8c5be1e5ebec7d5bd14f71427d1e84f3dd0314c0f7b2291e5b200ac8c7c3b92590610912908590610f9e565b60405180910390a3505050565b60008061092b60025490565b9050831580610938575080155b61095657610951816109486107c7565b86919086610d83565b610a01565b610a016109656012600a611568565b7f00000000000000000000000000000000000000000000000000000000000000006001600160a01b031663313ce5676040518163ffffffff1660e01b815260040160206040518083038186803b1580156109be57600080fd5b505afa1580156109d2573d6000803e3d6000fd5b505050506040513d601f19601f820116820180604052508101906109f69190611591565b61094890600a611568565b949350505050565b6000610a15848461079c565b90506000198114610a4d5781811015610a405760405162461bcd60e51b81526004016103a2906115e9565b610a4d848484840361086b565b50505050565b6001600160a01b038316610a795760405162461bcd60e51b81526004016103a29061163b565b6001600160a01b038216610a9f5760405162461bcd60e51b81526004016103a29061168b565b6001600160a01b03831660009081526020819052604090205481811015610ad85760405162461bcd60e51b81526004016103a2906116de565b6001600160a01b03808516600090815260208190526040808220858503905591851681529081208054849290610b0f908490611216565b92505081905550826001600160a01b0316846001600160a01b031660008051602061181383398151915284604051610b479190610f9e565b60405180910390a3610a4d565b6001600160a01b038216610b7a5760405162461bcd60e51b81526004016103a29061172c565b6001600160a01b03821660009081526020819052604090205481811015610bb35760405162461bcd60e51b81526004016103a29061177b565b6001600160a01b0383166000908152602081905260408120838303905560028054849290610be290849061178b565b90915550506040516000906001600160a01b0385169060008051602061181383398151915290610912908690610f9e565b600080610c1f60025490565b90508015610c3b57610951610c326107c7565b85908386610d83565b610a017f00000000000000000000000000000000000000000000000000000000000000006001600160a01b031663313ce5676040518163ffffffff1660e01b815260040160206040518083038186803b158015610c9757600080fd5b505afa158015610cab573d6000803e3d6000fd5b505050506040513d601f19601f82011682018060405250810190610ccf9190611591565b610cda90600a611568565b60126109f6565b6001600160a01b038216610d075760405162461bcd60e51b81526004016103a2906117d6565b8060026000828254610d199190611216565b90915550506001600160a01b03821660009081526020819052604081208054839290610d46908490611216565b90915550506040516001600160a01b0383169060009060008051602061181383398151915290610d77908590610f9e565b60405180910390a35050565b600080610d91868686610de0565b90506001836002811115610da757610da76117e6565b148015610dc4575060008480610dbf57610dbf6117fc565b868809115b15610dd757610dd4600182611216565b90505b95945050505050565b600080806000198587098587029250828110838203039150508060001415610e1b57838281610e1157610e116117fc565b0492505050610348565b808411610e2757600080fd5b60008486880960026001871981018816978890046003810283188082028403028082028403028082028403028082028403028082028403029081029092039091026000889003889004909101858311909403939093029303949094049190911702949350505050565b60005b83811015610eab578181015183820152602001610e93565b83811115610a4d5750506000910152565b6000610ec6825190565b808452602084019350610edd818560208601610e90565b601f01601f19169290920192915050565b602080825281016103488184610ebc565b60006001600160a01b038216610316565b610f1981610eff565b8114610f2457600080fd5b50565b803561031681610f10565b80610f19565b803561031681610f32565b60008060408385031215610f5957610f59600080fd5b6000610f658585610f27565b9250506020610f7685828601610f38565b9150509250929050565b8015155b82525050565b602081016103168284610f80565b80610f84565b602081016103168284610f98565b600060208284031215610fc157610fc1600080fd5b6000610a018484610f38565b600080600060608486031215610fe557610fe5600080fd5b6000610ff18686610f27565b935050602061100286828701610f27565b925050604061101386828701610f38565b9150509250925092565b60ff8116610f84565b60208101610316828461101d565b60006020828403121561104957611049600080fd5b6000610a018484610f27565b610f8481610eff565b602081016103168284611055565b6000806040838503121561108257611082600080fd5b600061108e8585610f27565b9250506020610f7685828601610f27565b634e487b7160e01b600052602260045260246000fd5b6002810460018216806110c957607f821691505b602082108114156110dc576110dc61109f565b50919050565b602781526000602082017f5374616b696e67506f6f6c3a207769746864726177206c657373207468616e208152666d696e696d756d60c81b602082015291505b5060400190565b60208082528101610316816110e2565b602381526000602082017f5374616b696e67506f6f6c3a207769746864726177206d6f7265207468616e208152620dac2f60eb1b60208201529150611122565b6020808252810161031681611139565b604081016111978285611055565b6103486020830184610f98565b801515610f19565b8051610316816111a4565b6000602082840312156111cc576111cc600080fd5b6000610a0184846111ac565b606081016111e68286611055565b6111f36020830185610f98565b610a016040830184610f98565b634e487b7160e01b600052601160045260246000fd5b6000821982111561122957611229611200565b500190565b602581526000602082017f45524332303a2064656372656173656420616c6c6f77616e63652062656c6f77815264207a65726f60d81b60208201529150611122565b602080825281016103168161122e565b602681526000602082017f5374616b696e67506f6f6c3a206465706f736974206c657373207468616e206d815265696e696d756d60d01b60208201529150611122565b6020808252810161031681611280565b606081016112e18286611055565b6111f36020830185611055565b602581526000602082017f5374616b696e67506f6f6c3a2072656465656d206c657373207468616e206d698152646e696d756d60d81b60208201529150611122565b60208082528101610316816112ee565b602181526000602082017f5374616b696e67506f6f6c3a2072656465656d206d6f7265207468616e206d618152600f60fb1b60208201529150611122565b6020808252810161031681611340565b805161031681610f32565b6000602082840312156113ae576113ae600080fd5b6000610a01848461138e565b602481526000602082017f45524332303a20617070726f76652066726f6d20746865207a65726f206164648152637265737360e01b60208201529150611122565b60208082528101610316816113ba565b602281526000602082017f45524332303a20617070726f766520746f20746865207a65726f206164647265815261737360f01b60208201529150611122565b602080825281016103168161140b565b80825b60018511156114995780860481111561147857611478611200565b600185161561148657908102905b80026114928560011c90565b945061145d565b94509492505050565b6000826114b157506001610348565b816114be57506000610348565b81600181146114d457600281146114de5761150b565b6001915050610348565b60ff8411156114ef576114ef611200565b8360020a91508482111561150557611505611200565b50610348565b5060208310610133831016604e8410600b841016171561153e575081810a8381111561153957611539611200565b610348565b61154b848484600161145a565b9250905081840481111561156157611561611200565b0292915050565b600060ff8316925061034860001984846114a2565b60ff8116610f19565b80516103168161157d565b6000602082840312156115a6576115a6600080fd5b6000610a018484611586565b601d81526000602082017f45524332303a20696e73756666696369656e7420616c6c6f77616e6365000000815291505b5060200190565b60208082528101610316816115b2565b602581526000602082017f45524332303a207472616e736665722066726f6d20746865207a65726f206164815264647265737360d81b60208201529150611122565b60208082528101610316816115f9565b602381526000602082017f45524332303a207472616e7366657220746f20746865207a65726f206164647281526265737360e81b60208201529150611122565b602080825281016103168161164b565b602681526000602082017f45524332303a207472616e7366657220616d6f756e7420657863656564732062815265616c616e636560d01b60208201529150611122565b602080825281016103168161169b565b602181526000602082017f45524332303a206275726e2066726f6d20746865207a65726f206164647265738152607360f81b60208201529150611122565b60208082528101610316816116ee565b602281526000602082017f45524332303a206275726e20616d6f756e7420657863656564732062616c616e815261636560f01b60208201529150611122565b602080825281016103168161173c565b60008282101561179d5761179d611200565b500390565b601f81526000602082017f45524332303a206d696e7420746f20746865207a65726f206164647265737300815291506115e2565b60208082528101610316816117a2565b634e487b7160e01b600052602160045260246000fd5b634e487b7160e01b600052601260045260246000fdfeddf252ad1be2c89b69c2b068fc378daa952ba7f163c4a11628f55a4df523b3efa26469706673582212201c427ddb5c92a2e09c72a80470c7458a9475d275b9db57d536c29378b57474d964736f6c63430008090033",
  "linkReferences": {},
  "deployedLinkReferences": {}
}