{
  "_format": "hh-sol-artifact-1",
  "contractName": "SVG9",
  "sourceName": "contracts/svg/SVG9.sol",
  "abi": [
    {
      "inputs": [],
      "name": "getSvgPart9",
      "outputs": [
        {
          "internalType": "string",
          "name": "",
          "type": "string"
        }
      ],
      "stateMutability": "pure",
      "type": "function"
    }
  ],
  "bytecode": "0x608060405234801561001057600080fd5b50613f40806100206000396000f3fe608060405234801561001057600080fd5b506004361061002b5760003560e01c8063c33c6f6814610030575b600080fd5b61003861004e565b60405161004591906100d5565b60405180910390f35b606060405160200161005f90612454565b604051602081830303815290604052905090565b60005b8381101561008e578181015183820152602001610076565b8381111561009d576000848401525b50505050565b60006100ad825190565b8084526020840193506100c4818560208601610073565b601f01601f19169290920192915050565b602080825281016100e681846100a3565b9392505050565b600080516020613ecb83398151915281527f2079313d22313437392e3735222078323d22313432342e3339222079323d22316020820152681a1b9c971b9a91179f60b91b604082015260005b5060490190565b600080516020613ecb83398151915281527f2079313d22313438322e3736222078323d22313432342e3339222079323d22316020820152681a1c19171b9b11179f60b91b60408201526000610139565b600080516020613ecb83398151915281527f2079313d22313438352e3737222078323d22313432342e3339222079323d22316020820152681a1c1a971b9b91179f60b91b60408201526000610139565b600080516020613ecb83398151915281527f2079313d22313438382e3738222078323d22313432342e3339222079323d22316020820152681a1c1c171b9c11179f60b91b60408201526000610139565b600080516020613ecb83398151915281527f2079313d22313439312e38222078323d22313432342e3339222079323d2231346020820152661c98971c11179f60c91b604082015260005b5060470190565b600080516020613ecb83398151915281527f2079313d22313439342e3831222078323d22313432342e3339222079323d22316020820152681a1c9a171c1891179f60b91b60408201526000610139565b600080516020613ecb83398151915281527f2079313d22313439372e3832222078323d22313432342e3339222079323d22316020820152681a1c9b971c1911179f60b91b60408201526000610139565b600080516020613ecb83398151915281527f2079313d22313530302e3833222078323d22313432342e3339222079323d22316020820152681a9818171c1991179f60b91b60408201526000610139565b600080516020613ecb83398151915281527f2079313d22313530332e3834222078323d22313432342e3339222079323d22316020820152681a9819971c1a11179f60b91b60408201526000610139565b600080516020613ecb83398151915281527f2079313d22313530362e3836222078323d22313432342e3339222079323d22316020820152681a981b171c1b11179f60b91b60408201526000610139565b600080516020613ecb83398151915281527f2079313d22313530392e3837222078323d22313432342e3339222079323d22316020820152681a981c971c1b91179f60b91b60408201526000610139565b600080516020613ecb83398151915281527f2079313d22313531322e3838222078323d22313432342e3339222079323d22316020820152681a9899171c1c11179f60b91b60408201526000610139565b600080516020613ecb83398151915281527f2079313d22313531352e3839222078323d22313432342e3339222079323d22316020820152681a989a971c1c91179f60b91b60408201526000610139565b631e17b39f60e11b815260040190565b7f3c656c6c6970736520636c6173733d22636c732d3138222063783d223134313381527f2e3732222063793d22313435362e3734222072783d2231332e3635222072793d60208201526811189897189b91179f60b91b60408201526000610139565b7f3c7061746820636c6173733d22636c732d31362220643d224d313430302e352c81527f313435332e393363342e37392d332e31382c31302e38382d342e32352c31362e6020820152691a98969997191a91179f60b11b604082015260005b50604a0190565b7f3c7061746820636c6173733d22636c732d31362220643d224d313430302e303681527f2c313435362e313663342e38392d312e37332c31302e392d332e34342c31362e60208201526918189698971b1a11179f60b11b604082015260006105d2565b7f3c7061746820636c6173733d22636c732d31362220643d224d313430302e363581527f2c313435382e383863342e38312d2e39382c392e38312d312e38382c31342e366020820152671c96971c9991179f60c11b604082015260005b5060480190565b7f3c7061746820636c6173733d22636c732d31362220643d224d313430322e373781527f2c313436312e373863332e30372d2e382c362e32312d312e33312c392e33352d602082015265171b1891179f60d11b604082015260005b5060460190565b7f3c7061746820636c6173733d22636c732d31362220643d224d313432312e353181527f2c313435312e303473322e31362c2e30392c342e38392c322e3136222f3e0000602082015260005b50603e0190565b7f3c7061746820636c6173733d22636c732d31362220643d224d313432332e313381527f2c313435342e373373322e38342c2e32352c342e32342c322e3031222f3e00006020820152600061074e565b7f3c7061746820636c6173733d22636c732d31362220643d224d313432312e333481527f2c313436322e303773322e31372d2e31322c332e39312c2e3635222f3e000000602082015260005b50603d0190565b7f3c7061746820636c6173733d22636c732d31362220643d224d313432332e373981527a16189a1a9c971818b998971b1c96181619171a1c96171b9891179f60291b602082015260005b50603b0190565b621e339f60e91b815260030190565b600080516020613eeb83398151915281527f313d22313437392e3735222078323d2231322e3737222079323d22313437392e6020820152641b9a91179f60d91b604082015260005b5060450190565b600080516020613eeb83398151915281527f313d22313438322e3736222078323d2231322e3737222079323d22313438322e6020820152641b9b11179f60d91b604082015260006108a0565b600080516020613eeb83398151915281527f313d22313438352e3737222078323d2231322e3737222079323d22313438352e6020820152641b9b91179f60d91b604082015260006108a0565b600080516020613eeb83398151915281527f313d22313438382e3738222078323d2231322e3737222079323d22313438382e6020820152641b9c11179f60d91b604082015260006108a0565b600080516020613eeb83398151915281527f313d22313439312e38222078323d2231322e3737222079323d22313439312e3860208201526211179f60e91b604082015260005b5060430190565b600080516020613eeb83398151915281527f313d22313439342e3831222078323d2231322e3737222079323d22313439342e6020820152641c1891179f60d91b604082015260006108a0565b600080516020613eeb83398151915281527f313d22313439372e3832222078323d2231322e3737222079323d22313439372e6020820152641c1911179f60d91b604082015260006108a0565b600080516020613eeb83398151915281527f313d22313530302e3833222078323d2231322e3737222079323d22313530302e6020820152641c1991179f60d91b604082015260006108a0565b600080516020613eeb83398151915281527f313d22313530332e3834222078323d2231322e3737222079323d22313530332e6020820152641c1a11179f60d91b604082015260006108a0565b600080516020613eeb83398151915281527f313d22313530362e3836222078323d2231322e3737222079323d22313530362e6020820152641c1b11179f60d91b604082015260006108a0565b600080516020613eeb83398151915281527f313d22313530392e3837222078323d2231322e3737222079323d22313530392e6020820152641c1b91179f60d91b604082015260006108a0565b600080516020613eeb83398151915281527f313d22313531322e3838222078323d2231322e3737222079323d22313531322e6020820152641c1c11179f60d91b604082015260006108a0565b600080516020613eeb83398151915281527f313d22313531352e3839222078323d2231322e3737222079323d22313531352e6020820152641c1c91179f60d91b604082015260006108a0565b7f3c656c6c6970736520636c6173733d22636c732d3138222063783d2232332e3481527f35222063793d22313435362e3734222072783d2231332e3635222072793d22316020820152661897189b91179f60c91b6040820152600061027a565b7f3c7061746820636c6173733d22636c732d31362220643d224d33362e36372c3181527f3435332e3933632d342e37392d332e31382d31302e38382d342e32352d31362e6020820152691a98969997191a91179f60b11b604082015260006105d2565b7f3c7061746820636c6173733d22636c732d31362220643d224d33372e312c313481527f35362e3136632d342e38392d312e37332d31302e392d332e34342d31362e30316020820152671698971b1a11179f60c11b60408201526000610699565b7f3c7061746820636c6173733d22636c732d31362220643d224d33362e35312c3181527f3435382e3838632d342e38312d2e39382d392e38312d312e38382d31342e363960208201526616971c9991179f60c91b6040820152600061027a565b7f3c7061746820636c6173733d22636c732d31362220643d224d33342e33392c3181527f3436312e3738632d332e30372d2e382d362e32312d312e33312d392e33352d2e6020820152641b1891179f60d91b604082015260006108a0565b7f3c656c6c6970736520636c6173733d22636c732d3138222063783d2237372e3181527f222063793d22313531322e3139222072783d2231312e3137222072793d223133602082015265171b1a91179f60d11b604082015260006106fb565b7f3c7061746820636c6173733d22636c732d31362220643d224d37392e392c313581527f32352e343163332e31382d342e37392c342e32352d31302e38382c332e32352d602082015267189b171a9891179f60c11b60408201526000610699565b7f3c7061746820636c6173733d22636c732d31362220643d224d37372e36372c3181527f3532352e383463312e37332d342e38392c332e34342d31302e392c312e36342d602082015267189b17181891179f60c11b60408201526000610699565b7f3c7061746820636c6173733d22636c732d31362220643d224d37342e39362c3181527f3532352e3235632e39382d342e38312c312e38382d392e38312c2e39332d3134602082015265171b1c91179f60d11b604082015260006106fb565b7f3c7061746820636c6173733d22636c732d31362220643d224d38322e37392c3181527b1a981a171a399697181c969917189b169917189b169a171c1c91179f60211b602082015260005b50603c0190565b7f3c7061746820636c6173733d22636c732d31362220643d224d37392e312c313581527b1819171b9c399697191a9699171c1a1699171818969a17191a11179f60211b60208201526000610fe5565b7f3c7061746820636c6173733d22636c732d31362220643d224d37312e37362c3181527a1a981a171a9bb9971899169917189b96971b1a9699971c9891179f60291b60208201526000610842565b7f3c6c696e6520636c6173733d22636c732d38222078313d2238342e362220793181527f3d22313530302e3933222078323d2239322e3838222079323d22313530302e396020820152631991179f60e11b604082015260005b5060440190565b7f3c6c696e6520636c6173733d22636c732d38222078313d2238372e323322207981527f313d22313530352e3336222078323d2239352e3531222079323d22313530352e602082015264199b11179f60d91b604082015260006108a0565b600080516020613eab83398151915281527f313d22313530392e3833222078323d2239382e3036222079323d22313530392e6020820152641c1991179f60d91b604082015260006108a0565b600080516020613eab83398151915281527f313d22313531342e3236222078323d2239362e3933222079323d22313531342e602082015264191b11179f60d91b604082015260006108a0565b7f3c6c696e6520636c6173733d22636c732d38222078313d2238372e382220793181527f3d22313531382e3638222078323d2239352e3333222079323d22313531382e366020820152631c11179f60e11b604082015260006110e2565b7f3c6c696e6520636c6173733d22636c732d38222078313d2238332e383422207981527f313d22313532332e3139222078323d2239322e3933222079323d22313532332e602082015264189c91179f60d91b604082015260006108a0565b7f3c6c696e6520636c6173733d22636c732d38222078313d22313335332e39312281527f2079313d22313530312e3037222078323d22313334352e3633222079323d22316020820152681a981897181b91179f60b91b60408201526000610139565b7f3c6c696e6520636c6173733d22636c732d38222078313d22313335312e32382281527f2079313d22313530352e3439222078323d22313334322e3939222079323d22316020820152681a981a971a1c91179f60b91b60408201526000610139565b600080516020613e8b83398151915281527f2079313d22313530392e3936222078323d22313334302e3435222079323d22316020820152681a981c971c9b11179f60b91b60408201526000610139565b600080516020613e8b83398151915281527f2079313d22313531342e3339222078323d22313334312e3538222079323d22316020820152681a989a17199c91179f60b91b60408201526000610139565b7f3c6c696e6520636c6173733d22636c732d38222078313d22313335302e37312281527f2079313d22313531382e3831222078323d22313334332e3138222079323d22316020820152681a989c171c1891179f60b91b60408201526000610139565b7f3c6c696e6520636c6173733d22636c732d38222078313d22313335342e36362281527f2079313d22313532332e3332222078323d22313334352e3538222079323d22316020820152681a991997199911179f60b91b60408201526000610139565b7f3c656c6c6970736520636c6173733d22636c732d3138222063783d223133363081527f2e3037222063793d22313531322e3139222072783d2231312e3137222072793d602082015268111899971b1a91179f60b91b60408201526000610139565b7f3c7061746820636c6173733d22636c732d31362220643d224d313335392e352c81527f313532352e3834632d312e37332d342e38392d332e34342d31302e392d312e366020820152691a16989b17181891179f60b11b604082015260006105d2565b7f3c7061746820636c6173733d22636c732d31362220643d224d313336322e323181527f2c313532352e3235632d2e39382d342e38312d312e38382d392e38312d2e393360208201526816989a171b1c91179f60b91b60408201526000610139565b7f3c7061746820636c6173733d22636c732d31362220643d224d313336352e313181527f2c313532332e3134632d2e382d332e30372d312e33312d362e32312d2e36312d6020820152661c97199a91179f60c91b6040820152600061027a565b7f3c7061746820636c6173733d22636c732d31362220643d224d313335342e333781527f2c313530342e34732e30392d322e31362c322e31362d342e3839222f3e000000602082015260006107f1565b7f3c7061746820636c6173733d22636c732d31362220643d224d313335382e303681527f2c313530322e3738732e32352d322e38342c322e30312d342e3234222f3e00006020820152600061074e565b7f3c7061746820636c6173733d22636c732d31362220643d224d313336352e342c81527f313530342e3537732d2e31322d322e31372c2e36352d332e3931222f3e000000602082015260006107f1565b7f3c7061746820636c6173733d22636c732d31362220643d224d313336322e333481527a16189a981917189939981698971b1c96171b989699171a1c91179f60291b60208201526000610842565b7f3c7265637420636c6173733d22636c732d32302220783d223634342e3336222081527f793d22313438322e3532222077696474683d223134372e3935222068656967686020820152693a1e91191b971c91179f60b11b604082015260006105d2565b7f3c7265637420636c6173733d22636c732d32392220783d223634332e3734222081527f793d22313439392e3133222077696474683d22312e373222206865696768743d60208201526811189a171a9911179f60b91b60408201526000610139565b7f3c7265637420636c6173733d22636c732d32392220783d223739312e3722207981527f3d22313439392e3133222077696474683d22312e373222206865696768743d22602082015267189a171a9911179f60c11b60408201526000610699565b7f3c7465787420636c6173733d22636c732d333622207472616e73666f726d3d2281527f7472616e736c617465283530332e3638203234352e353829223e3c747370616e60208201527f20783d22302220793d2230223e5175696e6f612066756e64733c2f747370616e6040820152671f1e17ba32bc3a1f60c11b606082015260005b5060680190565b600080516020613e6b83398151915281527f2079313d22313436322e38222078323d22313237392e3536222079323d2231346020820152661b19171c11179f60c91b6040820152600061027a565b7f3c6c696e6520636c6173733d22636c732d38222078313d22313339362e32362281527f2079313d22313436362e3534222078323d22313237392e3536222079323d22316020820152681a1b1b171a9a11179f60b91b60408201526000610139565b600080516020613e6b83398151915281527f2079313d22313437302e3238222078323d22313237392e3536222079323d22316020820152681a1b9817191c11179f60b91b60408201526000610139565b7f3c6c696e6520636c6173733d22636c732d38222078313d22313339362e36392281527f2079313d22313437342e3032222078323d22313237392e3536222079323d22316020820152681a1b9a17181911179f60b91b60408201526000610139565b7f3c6c696e6520636c6173733d22636c732d38222078313d22313339362e33322281527f2079313d22313437372e3736222078323d22313237392e3536222079323d22316020820152681a1b9b971b9b11179f60b91b60408201526000610139565b7f3c6c696e6520636c6173733d22636c732d38222078313d22313339362e31392281527f2079313d22313438312e35222078323d22313237392e3536222079323d2231346020820152661c18971a91179f60c91b6040820152600061027a565b7f3c6c696e6520636c6173733d22636c732d38222078313d22313339352e36222081527f79313d22313438352e3234222078323d22313237392e3536222079323d2231346020820152671c1a97191a11179f60c11b60408201526000610699565b7f3c6c696e6520636c6173733d22636c732d38222078313d22313339342e32332281527f2079313d22313438382e3938222078323d22313237392e3536222079323d22316020820152681a1c1c171c9c11179f60b91b60408201526000610139565b7f3c6c696e6520636c6173733d22636c732d38222078313d22313338392e30362281527f2079313d22313439322e3732222078323d22313237392e3536222079323d22316020820152681a1c99171b9911179f60b91b60408201526000610139565b7f3c7061746820636c6173733d22636c732d362220643d224d313336312e39312c81527f313336382e373673312e30352d31362e32332d31312e31342d31332e3537632d60208201527f392e37342c322e31332d332e37362c31352e34322d312e36392c32322e393322604082015261179f60f11b606082015260005b5060620190565b7f3c7061746820636c6173733d22636c732d362220643d224d313336382e31382c81527f313434352e3734732d322e30342c382e30312d392e38342c31302e3231222f3e602082015260005b5060400190565b7f3c7061746820636c6173733d22636c732d362220643d224d313334362e382c3181527a1a1b99971b19b99897189c96171b1a961997189c16171c9c91179f60291b60208201526000610842565b7f3c7061746820636c6173733d22636c732d362220643d224d313236362e31312c81527f313438322e3839732d31382e30382d31302e37322c31362e38392d33302e363660208201526211179f60e91b604082015260006109d1565b7f3c7061746820636c6173733d22636c732d362220643d224d313237322e36312c81527a189a1c1b971a18b9971b9b96171b9a161b171a1916171b9c11179f60291b60208201526000610842565b7f3c7061746820636c6173733d22636c732d362220643d224d313338352e39332c81527f313434392e3232732d2e36312d31312e35352d392e39392d32312e3934222f3e60208201526000611d50565b7f3c7061746820636c6173733d22636c732d362220643d224d313338352e31342c81527f313435352e3039632d2e33342c312e34362d2e38362c332e30382d312e36322c6020820152661a171b9b11179f60c91b6040820152600061027a565b7f3c7061746820636c6173733d22636c732d362220643d224d313333372e34382c81527f313433362e3636632d332e37332d372e33352d322e33362d31362e32332c322e60208201527f39372d32322e34332c352e37332d362e36362c31352e342d392e36382c32332e604082015269181c969a171a1991179f60b11b606082015260005b50606a0190565b7f3c7061746820636c6173733d22636c732d362220643d224d313334352e34322c81527f313336312e3138632d332e34382c2e35362d382e37392c2e322d392e38382d3660208201527f2e38322d322e34332d31312e38332c31392e37342d32302e37362c32362e3538604082015267169b97191911179f60c11b60608201526000611930565b7f3c7061746820636c6173733d22636c732d362220643d224d313333332e32362c81527f313430322e3738632d312e34332d2e35312d332e30352d312e35332d332e382d60208201526619971a9a91179f60c91b6040820152600061027a565b7f3c7061746820636c6173733d22636c732d362220643d224d313332352e34362c81527f313339322e3639732d332e32382d2e39312d362e36322c2e3135222f3e000000602082015260006107f1565b7f3c7061746820636c6173733d22636c732d362220643d224d313331312e372c3181527f3435342e3937632d362e33352c332e30312d31392e392c392e38352d32342e396020820152691c16189a971b1b11179f60b11b604082015260006105d2565b7f3c7061746820636c6173733d22636c732d362220643d224d313237352e31322c81527f313436372e3233632d312e31342c322e34392d2e342c342e36392c342e32312c6020820152661a971b9b11179f60c91b6040820152600061027a565b7f3c7061746820636c6173733d22636c732d362220643d224d313331352e34322c81527f313432372e3535632d342e36312d332e31312d31342e35362d382e34372d3230602082015269171a9698971a1991179f60b11b604082015260006105d2565b7f3c7061746820636c6173733d22636c732d362220643d224d313238382e30322c81527f313434302e3234632d2e33312c322e36352c2e30382c352e38382c322e38392c6020820152661c17189c11179f60c91b6040820152600061027a565b7f3c7061746820636c6173733d22636c732d362220643d224d313239372e38372c81527f313433362e383573342e34352c312e34362c382e32342c322e3133222f3e00006020820152600061074e565b7f3c7061746820636c6173733d22636c732d362220643d224d313331342e33392c81527f313432372e303663322e35322d382e31382c362e32362d32352e37322d342e3160208201527f322d33352e30352d362e39322d362e32322d31332e30312d352e31372d31382e604082015269181a169897191b91179f60b11b60608201526000611f84565b7f3c7061746820636c6173733d22636c732d362220643d224d313238392e32352c81527f313430312e3532632e33332c322e39382c312e38362c362e38312c352e34322c60208201527f362e372c312e36362d2e30352c342e32352d2e37352c362e32362d312e393522604082015261179f60f11b60608201526000611cfd565b7f3c7061746820636c6173733d22636c732d362220643d224d313330382e352c3181527f3430342e303373332e372c31302e32352c2e33332c31382e3835222f3e000000602082015260006107f1565b7f3c6c696e6520636c6173733d22636c732d38222078313d22313337312e35362281527f2079313d22313439362e3436222078323d22313237392e3536222079323d22316020820152681a1c9b171a1b11179f60b91b60408201526000610139565b600061245f826100ed565b915061246a82610140565b915061247582610190565b9150612480826101e0565b915061248b82610230565b915061249682610281565b91506124a1826102d1565b91506124ac82610321565b91506124b782610371565b91506124c2826103c1565b91506124cd82610411565b91506124d882610461565b91506124e3826104b1565b91506124ee82610501565b91506124f982610501565b915061250482610501565b915061250f82610511565b915061251a82610573565b9150612525826105d9565b91506125308261063c565b915061253b826106a0565b915061254682610702565b915061255182610755565b915061255c826107a5565b9150612567826107f8565b915061257282610849565b7f3c7061746820636c6173733d22636c732d382220643d224d382e35362c31343681527f382e38337633332e383263302c31332e35312c31302e39352c32342e34372c3260208201527f342e34372c32342e34376833322e363273302d33322e30372c302d33322e303760408201527f682d31302e3731632d372e392c302d31342e332d362e342d31342e332d31342e60608201527f33762d31312e3931732d33322e30372c302d33322e30372c305a222f3e00000060808201527f3c7061746820636c6173733d22636c732d382220643d224d35372e36342c3135609d8201527f31392e3132762d31362e3037732d312e33392c302d312e33392c30632d31332e60bd8201527f30342c302d32332e36322d31302e35372d32332e36322d32332e3632762d322e60dd8201527f3539732d31362e30372c302d31362e30372c307632312e363263302c31312e3460fd8201527f312c392e32352c32302e36362c32302e36362c32302e36366832302e34325a2261011d82015261179f60f11b61013d820152711e339031b630b9b99e9131b63996999c911f60711b61013f82015261015101915061272382610849565b915061272e82610858565b9150612739826108a7565b9150612744826108f3565b915061274f8261093f565b915061275a8261098b565b9150612765826109d8565b915061277082610a24565b915061277b82610a70565b915061278682610abc565b915061279182610b08565b915061279c82610b54565b91506127a782610ba0565b91506127b282610bec565b91506127bd82610501565b91506127c882610501565b91506127d382610501565b91506127de82610c38565b91506127e982610c98565b91506127f482610cfb565b91506127ff82610d5c565b915061280a82610dbc565b915061281582610e1a565b915061282082610e79565b915061282b82610eda565b915061283682610f3b565b915061284182610f9a565b915061284c82610fec565b91506128578261103b565b7f3c7061746820636c6173733d22636c732d31362220643d224d37342e38322c318152781a981917189939981698971b1c96971b989699171a1c91179f60391b602082015260390191506128aa82611089565b91506128b5826110e9565b91506128c082611147565b91506128cb82611193565b91506128d6826111df565b91506128e18261123c565b91506128ec8261129a565b91506128f7826112fc565b91506129028261135e565b915061290d826113ae565b9150612918826113fe565b915061292382611460565b915061292e826114c2565b7f3c7061746820636c6173733d22636c732d31362220643d224d313335372e323681527f2c313532352e3431632d332e31382d342e37392d342e32352d31302e38382d3360208201526b17191a96989b171a9891179f60a11b6040820152604c01915061299a82611524565b91506129a582611587565b91506129b0826115e9565b91506129bb82611649565b91506129c682611699565b91506129d1826116e9565b91506129dc82611739565b91506129e782610849565b91506129f282611787565b7f3c7465787420636c6173733d22636c732d333022207472616e73666f726d3d2281527f7472616e736c617465283635352e393220313530332e303729223e3c7473706160208201527f6e20783d22302220793d2230223e5175696e6f612044653c2f747370616e3e3c60408201527f747370616e20636c6173733d22636c732d33342220783d2236352e333222207960608201527f3d2230223e663c2f747370616e3e3c747370616e20783d2236392e343522207960808201527f3d2230223e6920503c2f747370616e3e3c747370616e20636c6173733d22636c60a08201527f732d32382220783d2238332e37322220793d2230223e723c2f747370616e3e3c60c08201527f747370616e20636c6173733d22636c732d34392220783d2238382e343722207960e08201527f3d2230223e6f3c2f747370616e3e3c747370616e20636c6173733d22636c732d6101008201527f34312220783d2239362e33362220793d2230223e743c2f747370616e3e3c74736101208201527f70616e20783d223130302220793d2230223e6f636f6c3c2f747370616e3e3c2f610140820152643a32bc3a1f60d91b610160820152610165019150612bb2826117ea565b9150612bbd8261184c565b9150612bc882610501565b9150612bd3826118ad565b7f3c7265637420636c6173733d22636c732d33312220783d223738312e3132222081527f793d223636352e3433222077696474683d2234373122206865696768743d22316020820152721110393c1e91171a9110393c9e91171a91179f60691b60408201526053019150612c4682611937565b9150612c5182611985565b9150612c5c826119e7565b9150612c6782611a37565b9150612c7282611a99565b9150612c7d82611afb565b9150612c8882611b5b565b9150612c9382611bbc565b9150612c9e82611c1e565b7f3c7061746820636c6173733d22636c732d31392220643d224d313235352e352c81527f313438312e333263352e36352c31312e37362c31332e37342c31352e32332c3160208201527f392e35332c31362e30382c312e30392c2e31362c322e31382c2e32332c332e3260408201527f322c2e32332c342e34352c302c382e32352d312e32392c392e33372d322e353260608201527f2c312e33382d312e35312c322e32342d352e30352c312e32322d382e31342d2e60808201527f36322d312e38372d312e38362d332e332d332e35372d342e322c322e37352d2e60a08201527f37362c352e30332d322e32372c352e33392d342e38322c2e322d312e33352d2e60c08201527f32372d322e37362d312e34332d342e33332d2e35392d2e382d312e30382d312e60e08201527f35352d312e34382d322e32382c342e382d352e33362c31372e32352d31312e376101008201527f352c32332e34312d31342e37322c382e33362c31342e36392c32302e37322c326101208201527f352e30382c33352e30332c32392e33352c342e35322c312e33362c392e312c326101408201527f2e30322c31332e34352c322e30322c352e39332c302c31312e34362d312e32346101608201527f2c31352e38382d332e36382c382e39312d342e39312c31362e32372d31342e396101808201527f2c31392e32312d32362e30372c322e31352d382e31332c322e39382d32302e366101a08201527f312d352e322d33332e392d372e39342d31322e39322d31372e392d31352e38366101c08201527f2d32352e35392d31352e37312d352e38342d332e38342d31322e34362d332e336101e08201527f2d31372e392d2e34342c312e39342d312e39352c342e342d342e322c372e35356102008201527f2d362e37382c352e33342d342e33382c382e39352d392e32352c31312e33392d6102208201527f31332e39382c352e30342d342e31382c31322e39332d31322e36322c31312e346102408201527f352d32332e36332d312e30362d372e38382d342e36312d31332e37342d31302e6102608201527f30312d31362e35312d312e31332d2e35372d322e33322d2e39392d332e35362d6102808201527f312e32382d332e39362d372e30322d31312e39322d382e30342d31382e32332d6102a08201527f352e38342d382e35342c322e39382d31312e33362c392e35392d31302e33352c6102c08201527f31342e34372c2e34342c322e38372c312e36332c352e30342c332e35312c362e6102e08201527f34312c312e34352c312e30352c332e33312c312e35392c352e34352c312e35396103008201527f2c2e32382c302c2e35362d2e30322c2e38352d2e30342c2e30322c332e392c316103208201527f2e34342c382e34322c322e36372c31322e33312c2e342c312e32382c2e37382c6103408201527f322e34392c312e30382c332e35362c2e30312c2e30332c2e30332c2e30362c2e6103608201527f30342c2e312d312e33372c342e35342d332e33382c392e33342d362e30392c316103808201527f312e34382d2e37312c2e35372d312e34392c312e32382d322e33312c322e31326103a08201527f2d332e36372d342e362d382e37382d392e33372d31332e38342d382e372d332e6103c08201527f33362c2e34352d362e30382c332e32312d382e30382c382e32322d2e392c322e6103e08201527f32352d312e34342c342e32382d312e36332c362e312d312e34352d332e31312d6104008201527f332e32382d352e32362d342e38362d362e36392d362e33332d352e36382d31326104208201527f2e39362d362e32332d31392e32322d312e36332d312e31312d2e30322d322e326104408201527f312c2e31342d332e332c2e35342d332e36342c312e33322d362e33312c342e376104608201527f352d372e33332c392e33392d312e31382c352e33322c2e31352c31312c332e336104808201527f2c31342e31342c322e33372c322e33362c352e33342c332e35342c382e38382c6104a08201527f332e35342c312e39322c302c342e30312d2e33362c362e32352d312e30362d2e6104c08201527f36352c322e32322d312e36382c342e35382d332e31342c372e30382d2e39352c6104e08201527f2e35392d312e38312c312e33332d322e35392c322e32342d2e31342c2e31372d6105008201527f2e32312c2e33372d2e32352c2e35382d2e36332c2e31322d312e32352c2e32396105208201527f2d312e38342c2e35342d322e39322c312e32322d342e392c332e38342d352e386105408201527f382c372e37382d2e30322c2e30382d2e30332c2e31362d2e30342c2e32332c306105608201527f2c2e31342d2e31322c322e36362c312e30342c352e31312d2e312c2e31362d2e6105808201527f31382c2e33342d2e32312c2e35342d2e33372c332e31372c2e33342c352e38386105a08201527f2c322e30322c372e39342d31332e38322c352e37362d32392e33382c31342e306105c08201527f372d33332e34312c32332e35312d312e34322c332e33322d312e33372c362e366105e08201527f2c2e31352c392e37355a6d36322e35392d37352e393963322e34362c322e35356106008201527f2c362e34372c332e322c392e38312c332e322c2e33352c302c2e36392c302c316106208201527f2e30322d2e30322d312e33312c332e30342d322e342c362e32382d332e312c396106408201527f2e36322d322e39312c312e32352d372e31392c332e36362d392e38312c372e376106608201527f352c322e34362d382e36312c322e38322d31352e33342c322e30382d32302e35610680820152641aad11179f60d91b6106a08201526106a50191506134c482610849565b91506134cf82611c80565b7f3c7061746820636c6173733d22636c732d362220643d224d313335312e35312c81527f313336382e3438732d322e36312c31372e35352d382e39312c32322e3534632d60208201527f362e332c342e39382d32322e36372c32372e37372d31332e38352c34372e323360408201527f2c362e30392c31392e38322c32362e36392c32382e38392c34322e34392c313760608201527f2e35312c382e31382d352e38392c392e39312d31362e37362c362e30322d323560808201527f2e38312d342e31332d392e36322d31332e392d31372e38342d32342e30352d3160a08201527f302e38332d392e31312c362e332d372e342c31352e392c322e36392c32302e3060c08201527f322c31302e30392c342e31322c31372e35322d352e32312c31322e36382d392e60e08201527f36372d342e38352d342e34362d382e39312d332e31352d31312e35312d2e39356101008201526211179f60e91b6101208201527f3c7061746820636c6173733d22636c732d362220643d224d313336322e352c316101238201527f3434302e3034632d2e34322c322e35392d312e36322c352e38312d342e382c376101438201527f2e37352d362c332e36362d31342e32352c2e36362d31382e38352d372e39332d6101638201527f342e362d382e35392c2e32322d31392e36332c342e38372d32322e3431222f3e6101838201526101a30191506136db82611d04565b7f3c7061746820636c6173733d22636c732d362220643d224d313337392e32332c81527f313436352e3632632d352e33312c372e32382d31332e34312c31302e35352d3260208201526c1917191a961898171a1a91179f60991b60408201527f3c7061746820636c6173733d22636c732d362220643d224d313335322e342c31604d8201527f3431322e35327332312e34322d31312e34332c33362e31312c31322e34356331606d8201527f342e36382c32332e38382c312e382c34392e37352d31332e35352c35382e3232608d8201527f2d31352e33352c382e34372d34362e38342c322e38362d36332e38342d32392e60ad8201527f33312d31302e33362d31392e362d322e372d32352e30372c342e38372d32362e60cd82015264199b11179f60d91b60ed8201527f3c7061746820636c6173733d22636c732d362220643d224d313332362e392c3160f28201527f3431392e3032632d362e30342c322e34342d31372e37312c392e35342d382e356101128201527f312c32362c31322e30352c32312e35372c32322e342c32352e32342c32322e346101328201526816191a97191a11179f60b91b61015282015261015b01915061389c82611d57565b7f3c7061746820636c6173733d22636c732d362220643d224d313330362e36372c81527f313434322e3737632d31342e37342c342e37392d35382e33362c32302e36342d60208201527f35302e30312c33372e39382c31302e30312c32302e382c32382e32322c31352e60408201527f35322c33302e30372c31332e34392c312e38352d322e30332c322e37382d392e60608201527f37382d342e31332d31312e31352d362e39312d312e33372d31372e31312d392e60808201527f34352d372e312d31362e35392c382e35372d362e31322c32322e36352d31332e60a08201526e1b9a961999971a16989b971911179f60891b60c082015260cf0191506139a382611da5565b91506139ae82611e01565b91506139b982611e4f565b91506139c482611e9f565b91506139cf82611eff565b7f3c7061746820636c6173733d22636c732d362220643d224d313336382e36342c81527f313336342e383573322e31372c32302e38352d31352e382c33352e3537632d3160208201527f372e39382c31342e37322d31342e36382c31392e35362d31342e36382c31392e6040820152641a9b11179f60d91b60608201527f3c7061746820636c6173733d22636c732d362220643d224d313336332e39372c60658201527f313338362e363563342e37362d332e38392c31322e36392d31322e30392c313160858201527f2e32362d32322e37312d322e30322d31352e30312d31332e32372d32312e363660a58201526e16991b971c19169899971c1c91179f60891b60c582015260d4019150613ae482611f8b565b7f3c7061746820636c6173733d22636c732d362220643d224d313333392e34352c81527f313339342e31632d342e34352d352e39312d31342e37322d31362e392d32302e60208201527f372d312e39372d362e31362c31352e33392c362e36322c31352e35362c31322e60408201526a191916189a171c9b11179f60a91b6060820152606b019150613b7582612012565b9150613b8082612072565b9150613b8b826120c2565b7f3c7061746820636c6173733d22636c732d362220643d224d313238352e30332c81527f313436372e3239632e34342c322e37322c312e36322c342e38372c332e32322c60208201527f372e30352c2e37342c312c312e33382c322e31392c312e322c332e34322d2e3560408201527f312c332e35372d362e32362c342e33372d392e30372c342e3337222f3e0000006060820152607d019150613c2e82612125565b9150613c3982612185565b7f3c7061746820636c6173733d22636c732d362220643d224d313330382e34382c81527f313433312e3136632d342e39382d322e39352d31382e31332d392e33342d323160208201527f2e32392c332e33362c302c302d2e34392c382e35382c372e39322c382e34222f6040820152601f60f91b60608201526061019150613cc0826121e8565b9150613ccb82612248565b9150613cd682612298565b7f3c7061746820636c6173733d22636c732d362220643d224d313330332e33392c81527f313339362e3538632d332e35372d332e32352d392e33332d372e32362d31342e60208201527f33382d352e34322d372e37362c322e38332d392e30392c31352e39372d332e3560408201527f382c32312e34372c342e31382c342e31372c392e38332c332e36342c31342e39606082015268191618971c1a91179f60b91b60808201527f3c7061746820636c6173733d22636c732d362220643d224d313239362e33342c60898201527f313430302e34327331312e332c362e33362c312e31362c32332e3531222f3e0060a982015260c8019150613dd782612321565b9150613de2826123a2565b9150613ded82610501565b9150613df8826123f2565b7f3c7265637420636c6173733d22636c732d33312220783d223138362e3538222081527f793d223431322e3031222077696474683d22313036332e3634222068656967686020820152763a1e91189110393c1e91171a9110393c9e91171a91179f60491b60408201526057019291505056fe3c6c696e6520636c6173733d22636c732d38222078313d22313339352e3834223c6c696e6520636c6173733d22636c732d38222078313d22313334392e3737223c6c696e6520636c6173733d22636c732d38222078313d2238382e37342220793c6c696e6520636c6173733d22636c732d33222078313d22313337382e3039223c6c696e6520636c6173733d22636c732d33222078313d2235392e3038222079a26469706673582212207c4a016554cd2d1032f330aabb89d427e7645494996a9a91c031762348df7b1364736f6c63430008090033",
  "linkReferences": {},
  "deployedLinkReferences": {}
}