{
  "_format": "hh-sol-artifact-1",
  "contractName": "SVG6",
  "sourceName": "contracts/svg/SVG6.sol",
  "abi": [
    {
      "inputs": [],
      "name": "getSvgPart6",
      "outputs": [
        {
          "internalType": "string",
          "name": "",
          "type": "string"
        }
      ],
      "stateMutability": "pure",
      "type": "function"
    }
  ],
  "bytecode": "0x608060405234801561001057600080fd5b5061306b806100206000396000f3fe608060405234801561001057600080fd5b506004361061002b5760003560e01c8063d26c1c1414610030575b600080fd5b61003861004e565b60405161004591906100d5565b60405180910390f35b606060405160200161005f90611bcb565b604051602081830303815290604052905090565b60005b8381101561008e578181015183820152602001610076565b8381111561009d576000848401525b50505050565b60006100ad825190565b8084526020840193506100c4818560208601610073565b601f01601f19169290920192915050565b602080825281016100e681846100a3565b9392505050565b7f3c6c696e6520636c6173733d22636c732d3136222078313d22313331362e313581527f222079313d2235352e3537222078323d22313338332e3031222079323d22313260208201526619171a1991179f60c91b604082015260005b5060470190565b7f3c6c696e6520636c6173733d22636c732d3136222078313d22313331332e383181527f222079313d2235372e3931222078323d22313338302e3637222079323d2231326020820152661a171b9b91179f60c91b60408201526000610149565b7f3c6c696e6520636c6173733d22636c732d3136222078313d22313331312e343881527f222079313d2236302e3234222078323d22313337382e3334222079323d2231326020820152651b971891179f60d11b604082015260005b5060460190565b7f3c6c696e6520636c6173733d22636c732d3136222078313d22313330392e313581527f222079313d2236322e3537222078323d22313337362e3031222079323d2231326020820152661c971a1991179f60c91b60408201526000610149565b7f3c6c696e6520636c6173733d22636c732d3136222078313d22313330362e383181527f222079313d2236342e3931222078323d22313337332e3637222079323d22313360208201526618971b9b91179f60c91b60408201526000610149565b7f3c6c696e6520636c6173733d22636c732d3136222078313d22313330342e343881527f222079313d2236372e3234222078323d22313337312e3334222079323d2231336020820152651a171891179f60d11b6040820152600061020b565b7f3c6c696e6520636c6173733d22636c732d3136222078313d22313330322e313581527f222079313d2236392e3537222078323d22313336392e3031222079323d2231336020820152661b171a1a11179f60c91b60408201526000610149565b7f3c6c696e6520636c6173733d22636c732d3136222078313d22313239392e383181527f222079313d2237312e3931222078323d22313336362e3637222079323d2231336020820152661c171b9b91179f60c91b60408201526000610149565b7f3c6c696e6520636c6173733d22636c732d3136222078313d22313239372e343881527f222079313d2237342e3234222078323d22313336342e3334222079323d22313460208201526518971891179f60d11b6040820152600061020b565b7f3c6c696e6520636c6173733d22636c732d3136222078313d22313239352e313581527f222079313d2237362e3537222078323d22313336322e3031222079323d22313460208201526619971a1a11179f60c91b60408201526000610149565b7f3c6c696e6520636c6173733d22636c732d3136222078313d22313239322e383181527f222079313d2237382e3931222078323d22313335392e3637222079323d2231346020820152661a971b9b91179f60c91b60408201526000610149565b7f3c6c696e6520636c6173733d22636c732d3136222078313d22313239302e343881527f222079313d2238312e3234222078323d22313335372e3334222079323d2231346020820152651c171891179f60d11b6040820152600061020b565b7f3c6c696e6520636c6173733d22636c732d3136222078313d22313238382e313581527f222079313d2238332e3537222078323d22313335352e3031222079323d22313560208201526618171a1a11179f60c91b60408201526000610149565b7f3c6c696e6520636c6173733d22636c732d3136222078313d22313238352e383181527f222079313d2238352e3931222078323d22313335322e3637222079323d22313560208201526619171b9b91179f60c91b60408201526000610149565b7f3c6c696e6520636c6173733d22636c732d3136222078313d22313238332e343881527f222079313d2238382e3234222078323d22313335302e3334222079323d2231356020820152651a971891179f60d11b6040820152600061020b565b7f3c6c696e6520636c6173733d22636c732d3136222078313d22313238312e313481527f222079313d2239302e3537222078323d22313334382e3031222079323d2231356020820152661b971a1a11179f60c91b60408201526000610149565b7f3c6c696e6520636c6173733d22636c732d3136222078313d22313237382e383181527f222079313d2239322e3931222078323d22313334352e3637222079323d2231356020820152661c971b9b91179f60c91b60408201526000610149565b7f3c6c696e6520636c6173733d22636c732d3136222078313d22313237362e343881527f222079313d2239352e3234222078323d22313334332e3334222079323d22313660208201526519171891179f60d11b6040820152600061020b565b7f3c6c696e6520636c6173733d22636c732d3136222078313d22313237342e313481527f222079313d2239372e3537222078323d22313334312e3031222079323d2231366020820152661a171a1a11179f60c91b60408201526000610149565b7f3c6c696e6520636c6173733d22636c732d3136222078313d22313237312e383181527f222079313d2239392e3931222078323d22313333382e3637222079323d2231366020820152661b171b9b91179f60c91b60408201526000610149565b631e17b39f60e11b815260040190565b621e339f60e91b815260030190565b600080516020612ff683398151915281527f2232312e3935222078323d223136302e3336222079323d2232312e3935222f3e602082015260005b5060400190565b7f3c6c696e6520636c6173733d22636c732d33222078313d223139302e3337222081527f79313d2232322e3634222078323d223137302e3631222079323d2232322e363460208201526211179f60e91b604082015260005b5060430190565b7f3c6c696e6520636c6173733d22636c732d33222078313d223139332e3333222081527f79313d2232382e3332222078323d223137332e3537222079323d2232382e333260208201526211179f60e91b60408201526000610925565b7f3c6c696e6520636c6173733d22636c732d33222078313d223139322e3233222081527f79313d2233332e3837222078323d223137322e3437222079323d2233332e383760208201526211179f60e91b60408201526000610925565b7f3c6c696e6520636c6173733d22636c732d3132222078313d223139302e34392281527f2079313d2233392e3632222078323d223137302e3733222079323d2233392e366020820152631911179f60e11b604082015260005b5060440190565b7f3c6c696e6520636c6173733d22636c732d37222078313d223139342e3136222081527f79313d2234352e3036222078323d223137342e34222079323d2234352e303622602082015261179f60f11b604082015260005b5060420190565b7f3c6c696e6520636c6173733d22636c732d3131222078313d223139352e39342281527f2079313d2235302e3634222078323d223137362e3139222079323d2235302e366020820152631a11179f60e11b60408201526000610a3d565b7f3c6c696e6520636c6173733d22636c732d3131222078313d223139322e38342281527f2079313d2235372e3038222078323d223137332e3038222079323d2235372e306020820152631c11179f60e11b60408201526000610a3d565b600080516020612ff683398151915281527f2232372e36222078323d223136302e3336222079323d2232372e36222f3e0000602082015260005b50603e0190565b7f3c6c696e6520636c6173733d22636c732d3133222078313d223534312220793181527f3d2233332e3235222078323d223136302e3336222079323d2233332e3235222f6020820152601f60f91b604082015260005b5060410190565b7f3c6c696e6520636c6173733d22636c732d3134222078313d223534312220793181527f3d2233382e3839222078323d223136302e3336222079323d2233382e3839222f6020820152601f60f91b60408201526000610bf3565b7f3c6c696e6520636c6173733d22636c732d3132222078313d223534312220793181527f3d2234342e3534222078323d223136302e3336222079323d2234342e3534222f6020820152601f60f91b60408201526000610bf3565b7f3c6c696e6520636c6173733d22636c732d3135222078313d223534312220793181527f3d2235302e3139222078323d223136302e3336222079323d2235302e3139222f6020820152601f60f91b60408201526000610bf3565b7f3c6c696e6520636c6173733d22636c732d3130222078313d223135312e32322281527f2079313d223131302e3039222078323d223134322e3635222079323d2231323160208201526517181a91179f60d11b6040820152600061020b565b7f3c6c696e6520636c6173733d22636c732d3130222078313d223134322e31342281527f2079313d223130392e3931222078323d223133332e38222079323d223132302e6020820152641b1891179f60d91b604082015260005b5060450190565b7f3c6c696e6520636c6173733d22636c732d3130222078313d223133332e37362281527f2079313d223130372e3834222078323d223132352e3032222079323d2231313860208201526211179f60e91b60408201526000610925565b7f3c6c696e6520636c6173733d22636c732d3130222078313d223132372e31222081527f79313d223130342e35222078323d223131372e3933222079323d223131342e326020820152631891179f60e11b60408201526000610a3d565b7f3c6c696e6520636c6173733d22636c732d3130222078313d223132312e33372281527f2079313d2239392e3937222078323d223131312e3537222079323d223130392e602082015264191991179f60d91b60408201526000610dc1565b7f3c6c696e6520636c6173733d22636c732d3130222078313d223131352e35382281527f2079313d2239332e3437222078323d223130352e3637222079323d223130322e6020820152641c1a11179f60d91b60408201526000610dc1565b7f3c6c696e6520636c6173733d22636c732d3130222078313d223131312e38392281527f2079313d2238372e3238222078323d223130312e3631222079323d2239362e396020820152631c91179f60e11b60408201526000610a3d565b7f3c6c696e6520636c6173733d22636c732d3130222078313d223130382e39382281527f2079313d2237382e3931222078323d2239372e3736222079323d2238392e353160208201526211179f60e91b60408201526000610925565b7f3c6c696e6520636c6173733d22636c732d3130222078313d223130372e30382281527f2079313d2237302e3537222078323d2239352e3033222079323d2238312e393560208201526211179f60e91b60408201526000610925565b7f3c6c696e6520636c6173733d22636c732d3130222078313d223130362e33322281527f2079313d2236302e3939222078323d2239332e3136222079323d2237332e353360208201526211179f60e91b60408201526000610925565b7f3c6c696e6520636c6173733d22636c732d3130222078313d223130362e37322281527f2079313d2234392e3634222078323d2239322e3332222079323d2236332e383860208201526211179f60e91b60408201526000610925565b7f3c6c696e6520636c6173733d22636c732d3130222078313d223131312e33352281527f2079313d2233362e3432222078323d2239322e3631222079323d2235342e393760208201526211179f60e91b60408201526000610925565b7f3c6c696e6520636c6173733d22636c732d3130222078313d223132382e30322281527f2079313d22382e3033222078323d223131372e3937222079323d2231372e393860208201526211179f60e91b60408201526000610925565b7f3c6c696e6520636c6173733d22636c732d3130222078313d223131302e32332281527f2079313d2231382e3637222078323d2239362e3433222079323d2233322e333360208201526211179f60e91b60408201526000610925565b7f3c6c696e6520636c6173733d22636c732d3130222078313d223132302e32382281527f2079313d22382e3434222078323d223131342e3134222079323d2231342e353160208201526211179f60e91b60408201526000610925565b7f3c6c696e6520636c6173733d22636c732d3130222078313d223130332e31322281527f2079313d2231362e3333222078323d2239312e3838222079323d2232372e333260208201526211179f60e91b60408201526000610925565b7f3c6c696e6520636c6173733d22636c732d3130222078313d223131312e35352281527f2079313d22372e3737222078323d223130352e3934222079323d2231332e323660208201526211179f60e91b60408201526000610925565b7f3c6c696e6520636c6173733d22636c732d3130222078313d2239372e3633222081527f79313d2231312e3935222078323d2237372e3635222079323d2233322e343622602082015261179f60f11b60408201526000610a9b565b7f3c6c696e6520636c6173733d22636c732d3130222078313d2238382e3439222081527f79313d2231312e3935222078323d2236382e3433222079323d2233322e343922602082015261179f60f11b60408201526000610a9b565b7f3c6c696e6520636c6173733d22636c732d3130222078313d2237392e3335222081527f79313d2231312e3935222078323d2235392e3334222079323d2233322e343322602082015261179f60f11b60408201526000610a9b565b7f3c6c696e6520636c6173733d22636c732d3130222078313d2236302e3422207981527f313d2232302e3131222078323d2234382e33222079323d2233322e3531222f3e602082015260006108c6565b7f3c6c696e6520636c6173733d22636c732d3130222078313d2235312e3431222081527f79313d22372e3835222078323d2233342e3636222079323d2232352e3034222f6020820152601f60f91b60408201526000610bf3565b7f3c6c696e6520636c6173733d22636c732d3130222078313d2233362e3239222081527f79313d2231322e3138222078323d2233302e3137222079323d2231382e373822602082015261179f60f11b60408201526000610a9b565b7f3c6c696e6520636c6173733d22636c732d3130222078313d2234302e3822207981527f313d22382e3034222078323d2233392e38222079323d22392e3135222f3e000060208201526000610b96565b7f3c6c696e6520636c6173733d22636c732d3130222078313d2232362e3735222081527f79313d2232322e3933222078323d22372e3932222079323d2234322e3136222f6020820152601f60f91b60408201526000610bf3565b7f3c6c696e6520636c6173733d22636c732d3130222078313d2232382e3435222081527f79313d2233322e3635222078323d22382e3334222079323d2235332e3138222f6020820152601f60f91b60408201526000610bf3565b7f3c6c696e6520636c6173733d22636c732d3130222078313d2233302e3137222081527f79313d2234302e3735222078323d22382e3339222079323d2236322e3932222f6020820152601f60f91b60408201526000610bf3565b7f3c6c696e6520636c6173733d22636c732d3130222078313d2233302e3939222081527f79313d2234392e3931222078323d22372e3932222079323d2237332e3339222f6020820152601f60f91b60408201526000610bf3565b60008051602061301683398151915281527f79313d2235382e3339222078323d2232342e32222079323d2236362e3139222f6020820152601f60f91b60408201526000610bf3565b7f3c6c696e6520636c6173733d22636c732d3130222078313d2232312e3834222081527f79313d2237302e3132222078323d22382e3033222079323d2238342e3138222f6020820152601f60f91b60408201526000610bf3565b7f3c6c696e6520636c6173733d22636c732d3130222078313d2235312e3236222081527f79313d2231382e3637222078323d2233372e3736222079323d2233322e353122602082015261179f60f11b60408201526000610a9b565b7f3c6c696e6520636c6173733d22636c732d3130222078313d2236372e3736222081527f79313d2231312e3935222078323d2236342e3533222079323d2231352e363622602082015261179f60f11b60408201526000610a9b565b7f3c6c696e6520636c6173733d22636c732d3130222078313d2236312e3236222081527f79313d22372e3739222078323d2235342e3234222079323d2231352e3131222f6020820152601f60f91b60408201526000610bf3565b60008051602061301683398151915281527f79313d2237302e3634222078323d22382e3236222079323d2239342e3234222f6020820152601f60f91b60408201526000610bf3565b7f3c6c696e6520636c6173733d22636c732d3130222078313d2233312e3739222081527f79313d2238302e3036222078323d2232322e3135222079323d2238392e363922602082015261179f60f11b60408201526000610a9b565b7f3c6c696e6520636c6173733d22636c732d3130222078313d2231362e3435222081527f79313d2239352e3339222078323d22372e3932222079323d223130332e393222602082015261179f60f11b60408201526000610a9b565b60008051602061301683398151915281527f79313d2238392e3435222078323d2232322e3432222079323d2239382e383922602082015261179f60f11b60408201526000610a9b565b7f3c6c696e6520636c6173733d22636c732d3130222078313d2231382e3139222081527f79313d223130342e32222078323d22372e3932222079323d223131342e343622602082015261179f60f11b60408201526000610a9b565b7f3c6c696e6520636c6173733d22636c732d3130222078313d2232382e3736222081527f79313d223130312e3631222078323d2232332e3333222079323d223130372e386020820152631a11179f60e11b60408201526000610a3d565b7f3c6c696e6520636c6173733d22636c732d3130222078313d2231392e3133222081527f79313d223131322e3932222078323d22372e3931222079323d223132362e363760208201526211179f60e91b60408201526000610925565b7f3c7061746820636c6173733d22636c732d31372220643d224d33362e34382c3181527f38302e3031632d312e36372d322e34372d322e392d352e33392d332e36382d3860208201526517199991179f60d11b6040820152600061020b565b7f3c7061746820636c6173733d22636c732d31372220643d224d31352e38322c3181527f36322e333363322e39362d2e36352c352e39372d332e38362c342e39392d313360208201526517199b91179f60d11b6040820152600061020b565b6000611bd6826100ed565b9150611be182610150565b9150611bec826101b0565b9150611bf782610212565b9150611c0282610272565b9150611c0d826102d2565b9150611c1882610331565b9150611c2382610391565b9150611c2e826103f1565b9150611c3982610450565b9150611c44826104b0565b9150611c4f82610510565b9150611c5a8261056f565b9150611c65826105cf565b9150611c708261062f565b9150611c7b8261068e565b9150611c86826106ee565b9150611c918261074e565b9150611c9c826107ad565b9150611ca78261080d565b9150611cb28261086d565b9150611cbd8261086d565b9150611cc88261086d565b9150611cd38261087d565b7f3c7061746820636c6173733d22636c732d32392220643d224d3534302e32322c81527f31372e375635352e3333483133332e38325631372e37683430362e33396d322d60208201527f32483133312e38325635372e3333683431302e33395631352e3768305a222f3e60408201527f3c7061746820636c6173733d22636c732d32392220643d224d3534352e39342c60608201527f31322e31355636302e3838483132362e35335631322e3135683431392e34316d60808201527f332d33483132332e35335636332e3838683432352e343156392e313568305a2260a082015261179f60f11b60c082015260c2019150611dcd8261088c565b9150611dd8826108cd565b9150611de38261092c565b9150611dee82610988565b9150611df9826109e4565b9150611e0482610a44565b9150611e0f82610aa2565b9150611e1a82610aff565b9150611e2582610b5c565b9150611e3082610b9d565b9150611e3b82610bfa565b9150611e4682610c54565b9150611e5182610cae565b9150611e5c8261086d565b9150611e678261087d565b7f3c7061746820636c6173733d22636c732d32312220643d224d31362e38322c3181527f36312e3637632e36332c31362c31302e39392c32322e35382c32302e33362c3160208201527f372e342c312e36382c322e35322c332e38312c342e35352c362e33342c352e3660408201527f342c332e36392c312e38382c372e35322c2e39352c31302e37372d312e312c3160608201527f2e37382d312e30372c332e37342d322e37372c352e32332d342e37352c312e3660808201527f362d322e30362c312e36352d322e36352c312e38372d342e30342c2e37312d3460a08201527f2e34382d332e39382d362e32352d332e39382d362e32356c2d2e31322c2e313460c08201527f632d2e322d2e30372d312e32342d312e34312d312e34352d312e34352c2e343860e08201527f2d2e31312c322e31392d2e35342c322e36332d2e37342c322e37372d312e32316101008201527f2c332e33372d332e30382c332e39352d352e39342c2e32362d312e33322c2e336101208201527f322d312e32362c2e32352d322e36312c302d2e31332c2e30342d2e32382c2e306101408201527f342d2e34312c302d2e30372d2e30362d2e33312d2e30362d2e3339762d2e33376101608201527f63302d2e32392c302d2e38352c302d312e3135762d2e3335632d2e30322d2e316101808201527f362c2e30312d312e35352c302d312e36392d2e30322d2e32312d332e31332d326101a08201527f2e39392d322e39332d322e39342c322e31342c2e33352c322e39352d342e34386101c08201527f2c322e39332d342e366c2d312e362d382e3332632d2e32382d312d2e31392d336101e08201527f2e36382c2e33352d342e35366c322e35392d332e37382c382e32312d322e35316102008201527f2c342e39392c2e32352c352e34362c312c342e39332c312e37392c372e35392c6102208201527f352e39382c342e31332c372e352c2e34322c372e35352d312e31392c342e322d6102408201527f362e37332c2e34332c312e39352d342e35372d312e30352d322e30322d322e356102608201527f392d322e31322d332e31372d2e362d342e30312c322e36372d322e36332c322e6102808201527f3739632d312e30372c322d312e33382c342e32342d2e35362c362e38382c312e6102a08201527f31392c332e38332c342e32322c362e38352c372e39312c382e33352c322e34386102c08201527f2c312e30312c352e322c312e33342c372e38352c312e31382c342e36312d2e326102e08201527f382c372e39392d322e332c31302e33392d352e33316c2d2e30382c2e322c31336103008201527f2e31392d31332e313963312e39332d322e37322c2e33342d352e36362c2e33396103208201527f2d372e352d2e39342d332e34312d322e33352d31362e36312d332e33332d31396103408201527f2e39316c372e34392d352e303963332e32392c2e39382c31322e37392c332e316103608201527f382c31362e33372c332e32342c312e38352d2e30342c372e35332c302c31302e6103808201527f32342d312e39322c302d2e30312c31322e36342d31322e36342c31332e31372d6103a08201527f31332e31372c332e34362d322e34322c352e38342d362c362e31352d31312e306103c08201527f332c2e31362d322e36362d312e30372d352e332d322e30382d372e37382d312e6103e08201527f34392d332e36392d332e36322d352e332d372e34352d362e34392d322e36332d6104008201527f2e38312d342e39372d2e36352d362e39372c2e34326c2d332e37372c322e35346104208201527f2d312e38312c322e36372c2e39382c342e39392c322e33392c322e32332c352e6104408201527f30332d2e31312c2e31312c322e37392d312e35342c322e30312d332e35312c2e6104608201527f39312d392e32362d312e31342d352e38382d342e33382d352e33322d322e38326104808201527f2d312e37392d352e372d312e34312d34762d31312e38366c352e35332d382e376104a08201527f382c31382e31342c312e31312c312e34372d2e38392c312e34332c312e37632e6104c08201527f34382c2e31322c312e33322c2e37342c312e38342c2e37352c2e33312c302c2e6104e08201527f36322c2e30312c2e39322c2e30322c312e34352c2e31312c322e39332c2e30356105008201527f2c342e33352d2e32352c322e38382d2e35382c352e35322d322e31372c362e376105208201527f342d342e39342c2e33332d2e37362c2e35342d312e35372c2e36312d322e34316105408201527f2c302c2e35342c2e31312c312e30382c2e32392c312e35396c2d2e31342c2e316105608201527f3273312e38362c352e342c362e33342c342e3763312e33382d2e32322c332e346105808201527f362d312e332c352e35312d322e39372c312e39372d312e34392c332e36382d336105a08201527f2e34362c342e37352d352e32332c322e30362d332e32342c332d372e30382c316105c08201527f2e31312d31302e37372d312e30392d322e35322d332e31322d342e36352d352e6105e08201527f36342d362e33342c352e31352d392e332d312e35332d31392e34322d31372e326106008201527f382d32302e31382c2e30392d2e34372c2e312d312e31312c2e30392d312e36366106208201527f2d2e31342d312e35392d2e37332d322e34352d312e352d332e33362d2e31322d6106408201527f2e31362d2e32362d2e33312d2e342d2e34362d2e30362d2e30352d2e31312d2e6106608201527f31312d2e31362d2e31362d2e31382d2e31352d2e33362d2e33312d2e35352d2e6106808201527f34342d332e31362d322e332d372e37332d312e39372d372e37332d312e3937486106a08201527f33322e3435632d31322e39382c302d32332e352c31302e35322d32332e352c326106c08201527f332e35763132302e3337732e30312c302c2e30312c30632d2e31382c332e38366106e08201527f2c2e34352c31312e32312c372e38352c392e38365a4d3136382e31332c35332e6107008201527f36346c2e32382d2e3138632d2e31322c2e33322d2e322c2e36372d2e32342c316107208201527f2e30322c302c302c2e30342d2e33322d2e30352d2e38355a4d35342e34362c316107408201527f36372e31316c2e30322d2e3032732e30312c302c2e30322c2e3031632d2e30316107608201527316181697181916181697181a96171818ad11179f60611b6107808201527f3c7061746820636c6173733d22636c732d31302220643d224d3132392e33322c6107948201527f3131392e353363332e33312c2e39382c362e37372c312e35352c31302e33362c6107b48201527f312e36312c312e38362d2e30342c372e35382c302c31302e332d312e39332c306107d48201527f2d2e30312c31332e32372d31332e32382c31332e32372d31332e3238222f3e006107f48201527f3c7061746820636c6173733d22636c732d31302220643d224d3130352e33362c6108138201527f3136332e38366c31332e32372d31332e323763312e39342d322e37332c312e386108338201527f392d382e34352c312e39342d31302e332d2e30362d332e36312d2e36332d372e6108538201526e181c9698971b19169898171a11179f60891b6108738201527f3c7061746820636c6173733d22636c732d31302220643d224d372e39322c31356108828201527f322e35375633332e393163302d31342e34332c31312e372d32362e31322c32366108a28201527f2e31322d32362e3132683131382e36367331302d312e33362c31302e372c362e6108c28201527f3433632e32322c362e39362d31302e30322c362e36362d31302e30322c362e366108e2820152631b11179f60e11b61090282015261090601915061298182610d08565b915061298c82610d67565b915061299782610dc8565b91506129a282610e24565b91506129ad82610e81565b91506129b882610edf565b91506129c382610f3d565b91506129ce82610f9a565b91506129d982610ff6565b91506129e482611052565b91506129ef826110ae565b91506129fa8261110a565b9150612a0582611166565b9150612a10826111c2565b9150612a1b8261121e565b9150612a268261127a565b9150612a31826112d6565b9150612a3c82611332565b9150612a478261138d565b9150612a52826113e8565b9150612a5d82611443565b9150612a6882611493565b9150612a73826114ed565b9150612a7e82611548565b9150612a8982611598565b9150612a94826115f2565b9150612a9f8261164c565b9150612aaa826116a6565b9150612ab582611700565b9150612ac082611748565b9150612acb826117a2565b9150612ad6826117fd565b9150612ae182611858565b9150612aec826118b2565b9150612af7826118fa565b9150612b0282611955565b9150612b0d826119b0565b9150612b18826119f9565b9150612b2382611a54565b9150612b2e82611ab1565b7f3c7061746820636c6173733d22636c732d31372220643d224d33322e38342c3181527f31322e3934632d31332e31382c372e38322d32332e33352c32312e38362d323460208201527f2e372c33372e33352c302c302d322e33332c31342e30332c372e36392c31322e60408201527f322c2e36342c31362e312c31312e30362c32322e37322c32302e34392c31372e60608201527f35312c332e36312c352e33392c392e32322c382e36312c31362e33362c352e3060808201527f342c352e32342d322e36332c31332e322d31312e38362c352e31312d31362e3660a08201527f362d2e37332d2e34342d312e362d2e36372d322e34352d2e3637682d2e30346360c08201527f2d2e31392c2e30322d2e33382c2e30322d2e35362c2e30322d2e37312c2e303760e08201527f2d312e33382c2e33312d312e39352c2e37332d2e35312c2e33382d2e38392c2e6101008201527f38382d312e31392c312e34332d2e35372c312e30322d2e38382c322e32352d316101208201527f2e32332c332e342d2e36372c322e31382d312e35332c342d342e36382c332e336101408201527f352d342e36332d2e39362d382e36322d362e31352d31312e30352d392e38382d6101608201527f312e36362d322e35372d322e37392d352e34392d332e35362d382e34352d312e6101808201527f38322d362e39362d312e35332d31342e35362c312e32352d32312e32332c382e6101a08201527f38362d32312e32332c33382e30342d32352e37312c35362e38382d31362e30396101c08201527f2c31312e35322c352e38372c31382e31372c31372e35342c31362e34312c33306101e08201527f2e34382d2e36352c342e37342d352e30342c31322e37322d31312e30382c31316102008201527f2e31372d322e30392d2e35332d332e38342d322e36342d342e312d342e38332d6102208201527f2e30352d2e33342d2e30352d2e36372d2e30312d312e30322c2e31322d312e316102408201527f372c312e30342d312e38322c312e39332d322e35312c2e36342d2e352c312e326102608201527f372d312e30312c312e35352d312e37352c2e33372d2e39362c2e31352d322e306102808201527f382d2e33382d322e39362d312e312d312e382d332e33392d332e31312d352e346102a08201527f392d332e32312d312e362d2e30372d332e31352c2e36342d342e342c312e36366102c08201527f2d332e37392c332e30382d352e39392c362e35392d342e35312c31312e33382c6102e08201527f312e322c332e38362c342e32352c362e392c372e39362c382e342c322e352c316103008201527f2e30322c352e32332c312e33352c372e392c312e31382c31352e31312d2e39316103208201527f2c31372e31362d32302e34322c31342e31392d33312e38362d2e32352d2e39386103408201527f2d2e35342d312e39332d2e38372d322e38362d392e38372d32382e33362d353161036082015278171b1a96999a971a1b169b9a971a1b969918971999ad11179f60391b610380820152610399019150612f9982611b0d565b9150612fa482611b6c565b7f3c7061746820636c6173733d22636c732d31302220643d224d35312e38392c3181527b199b971c9a3996971a9618971c1896971b19961a17189a341811179f60211b6020820152603c019291505056fe3c6c696e6520636c6173733d22636c732d33222078313d22353431222079313d3c6c696e6520636c6173733d22636c732d3130222078313d2233312e38362220a26469706673582212204eb0c6363d762526820efe5fa492470f9b795bfb2ee200d5ee09c4d377aec8ec64736f6c63430008090033",
  "linkReferences": {},
  "deployedLinkReferences": {}
}