{
  "_format": "hh-sol-artifact-1",
  "contractName": "SVG5",
  "sourceName": "contracts/svg/SVG5.sol",
  "abi": [
    {
      "inputs": [],
      "name": "getSvgPart5",
      "outputs": [
        {
          "internalType": "string",
          "name": "",
          "type": "string"
        }
      ],
      "stateMutability": "pure",
      "type": "function"
    }
  ],
  "bytecode": "0x608060405234801561001057600080fd5b506137ca806100206000396000f3fe608060405234801561001057600080fd5b506004361061002b5760003560e01c8063596d830414610030575b600080fd5b61003861004e565b60405161004591906100d5565b60405180910390f35b606060405160200161005f90611bc6565b604051602081830303815290604052905090565b60005b8381101561008e578181015183820152602001610076565b8381111561009d576000848401525b50505050565b60006100ad825190565b8084526020840193506100c4818560208601610073565b601f01601f19169290920192915050565b602080825281016100e681846100a3565b9392505050565b7f3c7061746820636c6173733d22636c732d31302220643d224d313339332e383181527f2c3135322e303363302c352e39392d312e36372c392e32342d342e39332c313260208201527f2e32372d312e39312c312e35352d342e35362c322e36372d372e30352c322e3660408201527f332d322e33322d2e30342d342e35332d312e35322d352e36382d332e352d312e60608201527f32362d322e31352d312e37362d342e382d312e37352d372e32382c302d2e303860808201526e16181697189a96181697191991179f60891b60a082015260005b5060af0190565b7f3c7061746820636c6173733d22636c732d31302220643d224d313431382e323481527f2c3133352e3038632d2e36352d312e31382d312e34312d322e33352d322e33326020820152671699971a1c91179f60c11b604082015260005b5060480190565b7f3c7061746820636c6173733d22636c732d31302220643d224d313432302e323481527f2c3133392e3735632d2e32362d2e38322d2e35382d312e36362d2e39342d322e6020820152641a9891179f60d91b604082015260005b5060450190565b7f3c7061746820636c6173733d22636c732d31302220643d224d313432312e333981527f2c3134342e39632d2e31312d2e38312d2e32352d312e36372d2e34352d322e356020820152631b91179f60e11b604082015260005b5060440190565b7f3c7061746820636c6173733d22636c732d31302220643d224d313432312e353581527816189a98971818b997189a969897189a9617181c969991179f60391b602082015260005b5060390190565b7f3c7061746820636c6173733d22636c732d31302220643d224d313235362e323381527f2c33362e353563322e34372d312e36372c352e33392d322e392c382e33332d33602082015265171b1c11179f60d11b604082015260005b5060460190565b7f3c7061746820636c6173733d22636c732d31302220643d224d313237342e343681527f2c31352e3731632e36352c322e39362c342e30322c352e39362c31332e35332c6020820152661a171c9c11179f60c91b604082015260005b5060470190565b7f3c7061746820636c6173733d22636c732d31302220643d224d313239392e303181527f2c35312e3737732d312e38312d2e352d342e31342d2e3633682d2e3031222f3e602082015260005b5060400190565b7f3c7061746820636c6173733d22636c732d31302220643d224d313331322e323181527f2c38342e3933732d322e36372c372e37342d31322e30392c31332e3437222f3e6020820152600061044f565b7f3c7061746820636c6173733d22636c732d31302220643d224d313236392e323181527f2c32322e3863312e33312d2e34382c332e332d2e38372c362e31332d2e363322602082015261179f60f11b604082015260005b5060420190565b7f3c7061746820636c6173733d22636c732d31362220643d224d313330392e343781527f2c32302e383863312e32342c2e39342c322e35312c312e39382c332e37392c3360208201526517189991179f60d11b60408201526000610399565b7f3c7061746820636c6173733d22636c732d31362220643d224d313330342e393781527f2c31372e3833632e36312c2e33372c312e32342c2e37362c312e38372c312e316020820152631c11179f60e11b604082015260006102e8565b7f3c7061746820636c6173733d22636c732d31362220643d224d313239392e373681527f2c31352e3137632e36362c2e32382c312e33332c2e35382c322e30312c2e393260208201526211179f60e91b604082015260005b5060430190565b7f3c7061746820636c6173733d22636c732d31362220643d224d313239332e383681527f2c31332e3236632e36362c2e31352c312e33342c2e33322c322e30342c2e353260208201526211179f60e91b60408201526000610618565b7f3c7061746820636c6173733d22636c732d31362220643d224d313238372e303181527f2c31322e3538632e36362d2e30322c312e33392d2e30322c322e31382c2e303260208201526211179f60e91b60408201526000610618565b7f3c7061746820636c6173733d22636c732d31362220643d224d313238322e3236815278161899971999b9971b9b9697191c161917189c16971a91179f60391b60208201526000610337565b60008051602061377583398151915281527f2c35372e3431632e32332c332e30312c312e32372c332e39392c322e30352c3460208201526517199911179f60d11b60408201526000610399565b60008051602061377583398151915281527f2c34332e3434632d352e39392c302d392e32342c312e36372d31322e32372c3460208201527f2e39332d312e35352c312e39312d322e36372c342e35362d322e36332c372e3060408201527f352c2e30342c322e33322c312e35322c342e35332c332e352c352e36382c322e60608201527f31352c312e32362c342e382c312e37362c372e32382c312e37352c2e30382c3060808201526e1617189a961816171919961811179f60891b60a082015260006101c3565b7f3c7061746820636c6173733d22636c732d31302220643d224d313236302e393581527f2c34342e3131732d312e36382c342e37362c312e33312c352e3633222f3e0000602082015260005b50603e0190565b7f3c7061746820636c6173733d22636c732d31362220643d224d313330312e383781527f2c31392e303163312e31382c2e36352c322e33352c312e34312c332e34392c3260208201526517199911179f60d11b60408201526000610399565b7f3c7061746820636c6173733d22636c732d31362220643d224d313239372e322c81527f31372e3031632e38322c2e32362c312e36362c2e35382c322e35312c2e393422602082015261179f60f11b604082015260006104fd565b7f3c7061746820636c6173733d22636c732d31362220643d224d313239322e303581527f2c31352e3836632e38312c2e31312c312e36372c2e32352c322e35372c2e343560208201526211179f60e91b60408201526000610618565b7f3c6c696e6520636c6173733d22636c732d3130222078313d22313331362e383781527f222079313d223134302e3732222078323d22313332372e3535222079323d22316020820152671a99171c9c91179f60c11b60408201526000610227565b7f3c6c696e6520636c6173733d22636c732d3130222078313d22313331382e303181527f222079313d223133322e3536222078323d22313332372e3139222079323d22316020820152671a1997189b11179f60c11b60408201526000610227565b7f3c6c696e6520636c6173733d22636c732d3130222078313d22313332392e303781527f222079313d223133342e3237222078323d22313332302e36222079323d2231326020820152661a171a9911179f60c91b604082015260006103fc565b7f3c6c696e6520636c6173733d22636c732d3130222078313d22313332342e313581527f222079313d223131382e3439222078323d22313333322e3132222079323d2231602082015266191b971b91179f60c91b604082015260006103fc565b7f3c6c696e6520636c6173733d22636c732d3130222078313d22313332382e353181527f222079313d223131322e3737222078323d22313333362e3431222079323d22316020820152671918971c1c91179f60c11b60408201526000610227565b7f3c6c696e6520636c6173733d22636c732d3130222078313d22313333332e362281527f2079313d223130372e3439222078323d22313334312e3738222079323d2231316020820152651b171c91179f60d11b60408201526000610399565b7f3c6c696e6520636c6173733d22636c732d3130222078313d22313334302e303581527f222079313d223130322e3736222078323d22313334382e3536222079323d22316020820152671899171a9a91179f60c11b60408201526000610227565b7f3c6c696e6520636c6173733d22636c732d3130222078313d22313334372e323981527f222079313d2239382e3939222078323d22313335362e3139222079323d2231306020820152661c97191991179f60c91b604082015260006103fc565b7f3c6c696e6520636c6173733d22636c732d3130222078313d22313335342e363381527f222079313d2239352e3938222078323d22313336342e3239222079323d2231306020820152661b97181c11179f60c91b604082015260006103fc565b7f3c6c696e6520636c6173733d22636c732d3130222078313d22313336322e393981527f222079313d223934222078323d22313337332e34222079323d223130352e393860208201526211179f60e91b60408201526000610618565b7f3c6c696e6520636c6173733d22636c732d3130222078313d22313337312e393681527f222079313d223933222078323d22313338332e35222079323d223130362e323760208201526211179f60e91b60408201526000610618565b7f3c6c696e6520636c6173733d22636c732d3130222078313d22313338322e353281527f222079313d2239332e3138222078323d22313339362e3433222079323d2231306020820152661c97189c11179f60c91b604082015260006103fc565b7f3c6c696e6520636c6173733d22636c732d3130222078313d22313339342e303481527f222079313d2239342e3832222078323d22313431332e3131222079323d2231316020820152661c97189c91179f60c91b604082015260006103fc565b7f3c7061746820636c6173733d22636c732d31302220643d224d313431362e333781527f2c3136382e3135732d2e352c342e37372d352e34342c392e3133222f3e000000602082015260005b50603d0190565b7f3c7061746820636c6173733d22636c732d31302220643d224d313431312e393381527f2c3137322e353773332e32342d312e312c342e37312d31362e31222f3e00000060208201526000610ec8565b7f3c7061746820636c6173733d22636c732d31302220643d224d313334362e393681527f2c3135362e38732d312e35372c372e36312d392e38312c342e3438222f3e000060208201526000610884565b7f3c7061746820636c6173733d22636c732d31362220643d224d313333352e393281527f2c3133382e3336732e38362d352e33312c392e32392d31312e3535222f3e000060208201526000610884565b7f3c7061746820636c6173733d22636c732d31362220643d224d313334382e353681527f2c3132332e38367331352e31332d382e37362c33322e38372d332e3538222f3e6020820152600061044f565b7f3c7061746820636c6173733d22636c732d31302220643d224d313339332e373981527f2c3135322e3939732e332c31312e36382d392e32322c31352e3437222f3e000060208201526000610884565b60008051602061375583398151915281527f2c3131372e3936632d312e34322c2e36312d322e38372c312e31352d342e33376020820152671618971a9b91179f60c11b60408201526000610227565b7f3c7061746820636c6173733d22636c732d31302220643d224d313331382e343281527f2c3132392e3838632e34332d312e34392c2e39362d322e39332c312e35372d3460208201526517199a91179f60d11b60408201526000610399565b7f3c6c696e6520636c6173733d22636c732d3130222078313d22313334332e303681527f222079313d2234332e3434222078323d22313333372e3537222079323d223337602082015265171c9a91179f60d11b60408201526000610399565b7f3c7061746820636c6173733d22636c732d31362220643d224d313332362e342c81527f34392e3634632e32392c312e37312c2e34322c332e34392c2e33352c352e333360208201526211179f60e91b60408201526000610618565b7f3c7061746820636c6173733d22636c732d31362220643d224d313332332e373481527f2c34312e3436632e39362c312e39392c312e37362c342e31322c322e32392c3660208201526517199b91179f60d11b60408201526000610399565b7f3c7061746820636c6173733d22636c732d31362220643d224d313331322e333681527f2c32372e313563312e33372c312e31392c322e39392c322e372c342e36332c34602082015265171a9891179f60d11b60408201526000610399565b7f3c6c696e6520636c6173733d22636c732d3136222078313d22313337342e343881527f222079313d222d322e3736222078323d22313434312e3334222079323d223634602082015264171891179f60d91b60408201526000610288565b7f3c6c696e6520636c6173733d22636c732d3136222078313d22313337322e313581527f222079313d222d2e3433222078323d22313433392e3031222079323d2236362e6020820152641a1991179f60d91b60408201526000610288565b7f3c6c696e6520636c6173733d22636c732d3136222078313d22313336392e383181527f222079313d22312e39222078323d22313433362e3638222079323d2236382e376020820152631b91179f60e11b604082015260006102e8565b7f3c6c696e6520636c6173733d22636c732d3136222078313d22313336372e343881527f222079313d22342e3234222078323d22313433342e3334222079323d2237312e6020820152631891179f60e11b604082015260006102e8565b7f3c6c696e6520636c6173733d22636c732d3136222078313d22313336352e313581527f222079313d22362e3537222078323d22313433322e3031222079323d2237332e6020820152641a1991179f60d91b60408201526000610288565b7f3c6c696e6520636c6173733d22636c732d3136222078313d22313336322e383181527f222079313d22382e39222078323d22313432392e3638222079323d2237352e376020820152631b91179f60e11b604082015260006102e8565b7f3c6c696e6520636c6173733d22636c732d3136222078313d22313336302e343881527f222079313d2231312e3234222078323d22313432372e3334222079323d223738602082015264171891179f60d91b60408201526000610288565b7f3c6c696e6520636c6173733d22636c732d3136222078313d22313335382e313581527f222079313d2231332e3537222078323d22313432352e3031222079323d223830602082015265171a1991179f60d11b60408201526000610399565b7f3c6c696e6520636c6173733d22636c732d3136222078313d22313335352e383181527f222079313d2231352e3931222078323d22313432322e3638222079323d223832602082015265171b9b91179f60d11b60408201526000610399565b7f3c6c696e6520636c6173733d22636c732d3136222078313d22313335332e343881527f222079313d2231382e3234222078323d22313432302e3334222079323d223835602082015264171891179f60d91b60408201526000610288565b7f3c6c696e6520636c6173733d22636c732d3136222078313d22313335312e313581527f222079313d2232302e3537222078323d22313431382e3031222079323d223837602082015265171a1991179f60d11b60408201526000610399565b7f3c6c696e6520636c6173733d22636c732d3136222078313d22313334382e383181527f222079313d2232322e3931222078323d22313431352e3638222079323d223839602082015265171b9b91179f60d11b60408201526000610399565b7f3c6c696e6520636c6173733d22636c732d3136222078313d22313334362e343881527f222079313d2232352e3234222078323d22313431332e3334222079323d223932602082015264171891179f60d91b60408201526000610288565b7f3c6c696e6520636c6173733d22636c732d3136222078313d22313334342e313581527f222079313d2232372e3537222078323d22313431312e3031222079323d223934602082015265171a1991179f60d11b60408201526000610399565b7f3c6c696e6520636c6173733d22636c732d3136222078313d22313334312e383181527f222079313d2232392e3931222078323d22313430382e3638222079323d223936602082015265171b9b91179f60d11b60408201526000610399565b7f3c6c696e6520636c6173733d22636c732d3136222078313d22313333392e343881527f222079313d2233322e3234222078323d22313430362e3334222079323d223939602082015264171891179f60d91b60408201526000610288565b7f3c6c696e6520636c6173733d22636c732d3136222078313d22313333372e313581527f222079313d2233342e3537222078323d22313430342e3031222079323d22313060208201526618971a1991179f60c91b604082015260006103fc565b7f3c6c696e6520636c6173733d22636c732d3136222078313d22313333342e383181527f222079313d2233362e3931222078323d22313430312e3637222079323d22313060208201526619971b9b91179f60c91b604082015260006103fc565b7f3c6c696e6520636c6173733d22636c732d3136222078313d22313333322e343881527f222079313d2233392e3234222078323d22313339392e3334222079323d2231306020820152651b171891179f60d11b60408201526000610399565b7f3c6c696e6520636c6173733d22636c732d3136222078313d22313333302e313581527f222079313d2234312e3537222078323d22313339372e3031222079323d2231306020820152661c171a1991179f60c91b604082015260006103fc565b7f3c6c696e6520636c6173733d22636c732d3136222078313d22313332372e383181527f222079313d2234332e3931222078323d22313339342e3637222079323d22313160208201526618171b9b91179f60c91b604082015260006103fc565b7f3c6c696e6520636c6173733d22636c732d3136222078313d22313332352e343881527f222079313d2234362e3234222078323d22313339322e3334222079323d22313160208201526519971891179f60d11b60408201526000610399565b7f3c6c696e6520636c6173733d22636c732d3136222078313d22313332332e313581527f222079313d2234382e3537222078323d22313339302e3031222079323d2231316020820152661a971a1991179f60c91b604082015260006103fc565b7f3c6c696e6520636c6173733d22636c732d3136222078313d22313332302e383181527f222079313d2235302e3931222078323d22313338372e3637222079323d2231316020820152661b971b9b91179f60c91b604082015260006103fc565b7f3c6c696e6520636c6173733d22636c732d3136222078313d22313331382e343881527f222079313d2235332e3234222078323d22313338352e3334222079323d22313260208201526518171891179f60d11b60408201526000610399565b6000611bd1826100ed565b9150611bdc826101ca565b9150611be78261022e565b9150611bf28261028f565b9150611bfd826102ef565b7f3c7061746820636c6173733d22636c732d31302220643d224d313332342c333281527f2e3732632d372e38322d31332e31382d32312e38362d32332e33352d33372e3360208201527f352d32342e372c302c302d31342e30332d322e33332d31322e322c372e36392d60408201527f31362e312c2e36342d32322e37322c31312e30362d31372e35312c32302e343960608201527f2d352e33392c332e36312d382e36312c392e32322d352e30342c31362e33362c60808201527f322e36332c352e32342c31312e38362c31332e322c31362e36362c352e31312c60a08201527f2e34342d2e37332c2e36372d312e362c2e36372d322e3435762d2e3034632d2e60c08201527f30322d2e31392d2e30322d2e33382d2e30322d2e35362d2e30372d2e37312d2e60e08201527f33312d312e33382d2e37332d312e39352d2e33382d2e35312d2e38382d2e38396101008201527f2d312e34332d312e31392d312e30322d2e35372d322e32352d2e38382d332e346101208201527f2d312e32332d322e31382d2e36372d342d312e35332d332e33352d342e36382c6101408201527f2e39362d342e36332c362e31352d382e36322c392e38382d31312e30352c322e6101608201527f35372d312e36362c352e34392d322e37392c382e34352d332e35362c362e39366101808201527f2d312e38322c31342e35362d312e35332c32312e32332c312e32352c32312e326101a08201527f332c382e38362c32352e37312c33382e30342c31362e30392c35362e38382d356101c08201527f2e38372c31312e35322d31372e35342c31382e31372d33302e34382c31362e346101e08201527f312d342e37342d2e36352d31322e37322d352e30342d31312e31372d31312e306102008201527f382c2e35332d322e30392c322e36342d332e38342c342e38332d342e312c2e336102208201527f342d2e30352c2e36372d2e30352c312e30322d2e30312c312e31372c2e31322c6102408201527f312e38322c312e30342c322e35312c312e39332c2e352c2e36342c312e30312c6102608201527f312e32372c312e37352c312e35352c2e39362c2e33372c322e30382c2e31352c6102808201527f322e39362d2e33382c312e382d312e312c332e31312d332e33392c332e32312d6102a08201527f352e34392c2e30372d312e362d2e36342d332e31352d312e36362d342e342d336102c08201527f2e30382d332e37392d362e35392d352e39392d31312e33382d342e35312d332e6102e08201527f38362c312e322d362e392c342e32352d382e342c372e39362d312e30322c322e6103008201527f352d312e33352c352e32332d312e31382c372e392c2e39312c31352e31312c326103208201527f302e34322c31372e31362c33312e38362c31342e31392c2e39382d2e32352c316103408201527f2e39332d2e35342c322e38362d2e38372c32382e33362d392e38372c33352e34610360820152761b169a98971b1a961918971999969b9a971a1bad11179f60491b6103808201526103970191506120668261033e565b9150612071826103a0565b915061207c82610403565b7f3c7061746820636c6173733d22636c732d31302220643d224d313238362e393881527f2c36312e373363352e372c322e36322c31312e39342d322e34372c31372e352c60208201527f2e34382c332e36362c312e39342c342e38372c362e36312c342e39372c31302e60408201527f37362c2e31362c362e35332d312e35372c31332e32352d352e36342c31382e3360608201527f362d342e30372c352e31312d31302e36342c382e33392d31372e31342c372e3760808201527f2d312e30332d2e31312d322e30382d2e33332d322e39312d2e39352d312e343160a08201527f2d312e30362d312e38312d332e30372d312e34332d342e382c2e30382d2e333660c0820152731617189c96971b9896171999169897181b11179f60611b60e08201527f3c7061746820636c6173733d22636c732d31302220643d224d313238372e303560f48201527f2c35332e32632d2e39352c2e38342d312e36392c322d322e30372c332e35382d6101148201527f2e31342c2e35342c2e30332c312e35362d2e31312c322e30392c302d2e30372d6101348201527f2e32322d2e35362d2e32392d2e36342c302c302d2e33372d2e33382d2e33382d6101548201527f2e33382d2e33372d2e34342d312e31312d2e362d312e34312d2e36382d2e37356101748201527f2d2e31382d312e35332d2e30352d322e32382d2e30392d2e35362d2e30322d316101948201527f2e30392d2e31332d312e35362d2e35322d2e36372d2e35342d312e30312d312e6101b48201527f35352d2e36322d322e33322c2e38322d312e35372c332e36382d312e36312c356101d48201527f2e31362d312e33362c2e37332c2e31322c322e39322c2e38392c332e35362c2e6101f48201526519992d11179f60d11b6102148201527f3c7061746820636c6173733d22636c732d31302220643d224d313236372e303561021a8201527f2c35312e343863342e36312d392e35342c31362e30372d31332e37382c32352e61023a8201527f36332d31302e38342c31332e35312c342e31362c32312e38372c31382e33382c61025a8201526d191817189c96199917199c91179f60911b61027a8201527f3c7061746820636c6173733d22636c732d31302220643d224d313236332e36366102888201527f2c35302e323563352e37322d31312e37332c31392e38352d31362e35362c33316102a88201527f2e39362d31322e36352c31312e37312c332e37372c31392e37342c31362e30336102c88201527f2c32302e31392c32382e30322c2e322c352e34312d2e37392c31302e382d322e6102e88201526a189a96189b17181a11179f60a91b6103088201527f3c7061746820636c6173733d22636c732d31302220643d224d313237392e31346103138201527f2c39302e3331632d312e32322c352e36352d2e38312c31342e38312c31362e376103338201526816189817199b91179f60b91b61035382015261035c0191506124bc82610456565b7f3c7061746820636c6173733d22636c732d31302220643d224d313236322e323781527a161919171c19b99a1699971c1b96189997181c1699971c1a91179f60291b6020820152603b019150612511826104a6565b7f3c7061746820636c6173733d22636c732d31302220643d224d313239312e352c81527f32342e313363362e31332c312e32372c31312e39372c332e39352c31362e363660208201527f2c382e31342c352e312c342e35362c392e33322c31302e30382c31322e34352c604082015267189b17189b11179f60c11b60608201527f3c7061746820636c6173733d22636c732d31302220643d224d313238302e343760688201527f2c32342e3563322e32372d2e31312c342e35372d2e30312c362e37372c2e323160888201527b1617199c9617181a16171b9b9617181c161897189b1617189a11179f60211b60a88201527f3c7061746820636c6173733d22636c732d31302220643d224d313236362e343560c48201527f2c32392e3963312e34352d312e39322c332e37312d332e30352c362e30342d3360e48201527f2e38312c2e39362d2e33312c312e39332d2e35362c322e38362d2e3738222f3e61010482015261012401915061268482610504565b915061268f82610563565b915061269a826105c0565b91506126a58261061f565b91506126b08261067b565b91506126bb826106d7565b7f3c7061746820636c6173733d22636c732d31302220643d224d313239342e383581527f2c35312e3134632d322e35332d2e31342d352e36392c2e31382d372e38312c3260208201527f2e30362d2e36342c2e35372d322e38332d2e322d332e35362d2e33322d312e3660408201527f2d2e32372d352e35322d2e32342d352e33312c322e32352c2e31372c322e303660608201527f2c322e33392c312e38392c332e38372c312e39382c312e36382c2e31312c322e60808201527f39392c312e32342c332e31372c322e39362c2e30382c2e382d2e322c312e363760a08201527f2d2e38332c322e31372d2e39332c2e37342d322e32352c2e35342d332e33362c60c08201527f2e36332d312e34362c2e31312d322e39352c2e30342d342e33392d2e32352d3260e08201527f2e38392d2e35392d352e35362d322e31392d362e37382d342e39372d2e33332d6101008201527f2e37372d2e35342d312e35392d2e36322d322e3433762d2e3034632d2e30322d6101208201527f2e31392d2e30322d2e33382d2e30322d2e35362c302c302d2e35342d332e39326101408201527f2c362e31322d382e35392c372e37392d352e32362c31392e35312d312e37352c6101608201526c191a171b9c9619971a9c91179f60991b61018082015261018d0191506128aa82610723565b7f3c7061746820636c6173733d22636c732d32392220643d224d313238372e333281527f2c33332e3537632d372e38372c2e33332d31362e30332c332d32312e32332c3960208201527f2e31372d312e372c312e39392d332e31312c342e32342d342e30362c362e363560408201527f2d2e322c2e35322d2e37382c2e37382d312e332c2e35372d2e35322d2e322d2e60608201527f37372d2e382d2e35362d312e33312c332e32342d372e39312c31302e36342d3160808201527f332e35372c31382e38372d31352e34322c322e372d2e37322c352e34382d2e3960a08201527f312c382e32332d312e30362c2e33392d2e30322c2e37312c2e32372c2e37342c60c08201527f2e36362c2e30322c2e342d2e32392c2e37332d2e36392c2e373468305a222f3e60e08201527f3c7061746820636c6173733d22636c732d31302220643d224d313236302e35316101008201527f2c34382e3235632d2e38342d332e38392c322e38342d31302e37332c31352e31610120820152691b96989b17199c11179f60b11b6101408201527f3c7061746820636c6173733d22636c732d31302220643d224d313239302e383961014a8201527f2c36322e3531632d332e33372c2e31342d362e322d312e33332d362e33382d3461016a8201527f2e30322d2e312d312e342d2e30352d322e39312c2e35392d342e31382c2e363961018a8201527f2d312e33392c312e37362d322e31362c332e32312d322e36322c322e31332d2e6101aa820152751b1b161a17199a16971c161b171a9a96971a9a11179f60511b6101ca8201527f3c7061746820636c6173733d22636c732d31302220643d224d313238312e31396101e08201527f2c35372e3037632e34342d2e30332c312e31382c2e30362c312e36312c2e31376102008201527f732e38332c2e33332c312e31342c2e3634632e33352c2e33362c2e35342c2e386102208201527f352c2e36352c312e33342c2e31342c2e35392c2e32312c312e32312c2e31372c6102408201527f312e38322d2e30312c2e32342d2e30352c2e34392d2e31342c2e37312d2e332c61026082015276171b1c16971b16171c1c1699171b1b961897181c91179f60491b6102808201527f3c7061746820636c6173733d22636c732d31302220643d224d313236392e30396102978201527f2c35362e3934732d312e38372c352e34332d362e33372c342e37322d31362e346102b78201527518969898171b1996989897189c16989c971a9c91179f60511b6102d78201527f3c7061746820636c6173733d22636c732d31302220643d224d313238322e32326102ed82015279161c9a17189ab9971a1b9699971c169a9718199699971891179f60311b61030d820152610327019150612ca182610770565b9150612cac82610838565b9150612cb78261088b565b9150612cc2826108ea565b9150612ccd82610945565b7f3c7061746820636c6173733d22636c732d31362220643d224d313238352e393481527616189a971bb99897189a9697189a96199697181c91179f60491b60208201527f3c7061746820636c6173733d22636c732d31302220643d224d313236392e333760378201527f2c35322e3836632d2e33382d2e35312d2e38382d2e38392d312e34332d312e3160578201527f392d312e30322d2e35372d322e32352d2e38382d332e342d312e32332d322e3160778201527b1c16971b1b969a97199a9699171b1c9699171c19169c17189c91179f60211b60978201527f3c7061746820636c6173733d22636c732d31302220643d224d313238302e373360b38201527f2c35322e3836632d2e37372c2e33362d312e36392c2e34332d322e30382c312e60d38201527f39342d2e31382c312e38362c312e31322c312e37312c312e38352c322e32382260f382015261179f60f11b610113820152610115019150612e34826109a1565b9150612e3f82610a02565b9150612e4a82610a63565b9150612e5582610ac3565b9150612e6082610b23565b9150612e6b82610b84565b9150612e7682610be3565b9150612e8182610c44565b9150612e8c82610ca4565b9150612e9782610d04565b9150612ea282610d60565b9150612ead82610dbc565b9150612eb882610e1c565b9150612ec382610e7c565b9150612ece82610ecf565b9150612ed982610f1f565b9150612ee482610f6f565b9150612eef82610fbf565b9150612efa8261100f565b9150612f058261105f565b9150612f10826110ae565b9150612f1b8261110d565b60008051602061375583398151915281527f2c3131372e393663312e33362d2e35362c322e372d312e32312c332e39392d3160208201527f2e39332c312e32372d2e36392c322e34382d312e34342c332e36382d322e323560408201527f2c312e31362d2e37392c322e32392d312e36342c332e342d322e35342c312e3060608201527f382d2e38382c322e31332d312e38312c332e31332d322e37392c312e30312d2e60808201527f39362c312e39382d312e39362c322e39312d332e30322c2e39332d312e30352c60a08201527f312e38332d322e31332c322e36372d332e32352c2e38382d312e31322c312e3660c08201527f392d322e32382c322e34372d332e34372c2e37382d312e32312c312e35332d3260e08201527f2e34342c322e32322d332e36392c2e33322d2e35382c2e36342d312e31362c2e6101008201527f39332d312e37342c2e33372d2e37322c2e37332d312e34362c312e30362d322e6101208201527f31392c2e36352d312e33382c312e32332d322e37372c312e37362d342e31362c6101408201527f2e35372d312e34372c312e30362d322e39332c312e35312d342e34322c2e34376101608201527f2d312e35352c2e38382d332e31322c312e32332d342e372c2e33392d312e37396101808201527f2c2e37322d332e35382c2e39372d352e33392c2e332d322e30392c2e34392d346101a08201527f2e32312c2e35392d362e33322c2e31322d322e32382c2e31332d342e35372c2e6101c08201527f30352d362e38362d2e30382d322e352d2e32382d342e39392d2e35382d372e346101e08201527f396830632d2e33342d322e37382d2e382d352e35352d312e33372d382e332d2e6102008201527f33342d312e36372d2e37322d332e33322d312e31352d342e39382d2e342d312e6102208201527f35362d2e38332d332e31312d312e332d342e36362d2e31322d2e34332d2e32356102408201527f2d2e38362d2e33382d312e32396831392e376c2d31392e34312d2e303668362e6102608201527f313973372e34352c302c372e34352c306831372e333473342e37342c302c342e6102808201527f37342c306831342e323173342e37332c302c342e37332c306831302e3234762e6102a08201527f3036682e303973302c352e35352c302c352e353576342e373373302c342e37336102c08201527f2c302c342e373376342e373373302c342e37332c302c342e373376392e3439736102e08201527f302c352e33382c302c352e333876362e323673302c352e372c302c352e37763761030082015273171a1a3998161b171a9a1618161b171a9a11179f60611b6103208201527f3c7061746820636c6173733d22636c732d31302220643d224d313430352e34326103348201527f2c37382e30327631392e3732632d2e34312d2e31332d2e38332d2e32352d312e6103548201527f32342d2e33372d312e35362d2e34372d332e31322d2e39312d342e37312d312e6103748201527f33312d312e36342d2e34312d332e32392d2e382d342e39342d312e31342d322e6103948201527f37362d2e35382d352e35312d312e30342d382e32382d312e33372d322e352d2e6103b48201527f33312d352d2e35312d372e352d2e35392d322e32392d2e30392d342e35382d2e6103d48201527f30382d362e38362c2e30352d322e31322c2e30392d342e32312c2e332d362e336103f48201527f322c2e3539682d2e3031632d312e38312c2e32342d332e36312c2e35372d352e6104148201527f33392c2e39372d312e35392c2e33342d332e31352c2e37352d342e37312c312e6104348201527f32322d312e34392c2e34342d322e39352c2e39352d342e34312c312e3531682d6104548201527f2e3031632d312e342c2e35322d322e37392c312e31312d342e31382c312e37356104748201527f2d2e37332c2e33342d312e34372c2e372d322e322c312e30382d2e35382c2e336104948201527f2d312e31362c2e362d312e37332c2e39322d312e32352c2e372d322e34382c316104b48201527f2e34342d332e36392c322e32342d312e31382c2e37372d322e33342c312e362d6104d48201527f332e34372c322e34362d312e31322c2e38352d322e322c312e37342d332e32346104f48201527f2c322e36392d312e30352c2e39322d322e30362c312e38392d332e30332c322e6105148201527f392d2e39372c312e30322d312e392c322e30362d322e37382c332e31352d2e396105348201527f312c312e312d312e37362c322e32342d322e35342c332e342d2e38322c312e316105548201527f382d312e35372c322e34312d322e32362c332e36372d2e37312c312e32392d316105748201527417199b1619171b199698971c999619971c9c91179f60591b6105948201526105a90191506135fe8261116c565b9150613609826111c8565b915061361482611227565b711e339031b630b9b99e9131b63996991a911f60711b8152621e339f60e91b6012820152601501915061364682611286565b9150613651826112e4565b915061365c82611342565b91506136678261139f565b9150613672826113fc565b915061367d8261145a565b9150613688826114b7565b915061369382611515565b915061369e82611574565b91506136a9826115d3565b91506136b482611631565b91506136bf82611690565b91506136ca826116ef565b91506136d58261174d565b91506136e0826117ac565b91506136eb8261180b565b91506136f682611869565b9150613701826118c9565b915061370c82611929565b915061371782611988565b9150613722826119e8565b915061372d82611a48565b915061373882611aa7565b915061374382611b07565b915061374e82611b67565b9291505056fe3c7061746820636c6173733d22636c732d31302220643d224d313331322e34323c7061746820636c6173733d22636c732d31302220643d224d313238342e3932a264697066735822122040db0f7138a4786ed72d1bc46a08d0acf6584fd75910a3c730309378d992745864736f6c63430008090033",
  "linkReferences": {},
  "deployedLinkReferences": {}
}