{
  "_format": "hh-sol-artifact-1",
  "contractName": "SVG7",
  "sourceName": "contracts/svg/SVG7.sol",
  "abi": [
    {
      "inputs": [],
      "name": "getSvgPart7",
      "outputs": [
        {
          "internalType": "string",
          "name": "",
          "type": "string"
        }
      ],
      "stateMutability": "pure",
      "type": "function"
    }
  ],
  "bytecode": "0x608060405234801561001057600080fd5b50614ec7806100206000396000f3fe608060405234801561001057600080fd5b506004361061002b5760003560e01c806389a75abb14610030575b600080fd5b61003861004e565b60405161004591906100d5565b60405180910390f35b606060405160200161005f90612d16565b604051602081830303815290604052905090565b60005b8381101561008e578181015183820152602001610076565b8381111561009d576000848401525b50505050565b60006100ad825190565b8084526020840193506100c4818560208601610073565b601f01601f19169290920192915050565b602080825281016100e681846100a3565b9392505050565b7f3c7061746820636c6173733d22636c732d31302220643d224d35332e33322c3181527f34392e39632e38342c2e39352c322c312e36392c332e35382c322e30372c2e3560208201527f342c2e31342c312e35362d2e30332c322e30392c2e31312d2e30372c302d2e3560408201527f362c2e32322d2e36342c2e32392c302c302d2e33382c2e33372d2e33382c2e3360608201527f382d2e34342c2e33372d2e362c312e31312d2e36382c312e34312d2e31382c2e60808201527f37352d2e30352c312e35332d2e30392c322e32382d2e30322c2e35362d2e313360a08201527f2c312e30392d2e35322c312e35362d2e35342c2e36372d312e35352c312e303160c08201527f2d322e33322c2e36322d312e35372d2e38322d312e36312d332e36382d312e3360e08201527f362d352e31362c2e31322d2e37332c2e38392d322e39322c2e33322d332e3536610100820152632d11179f60e11b61012082015260005b506101240190565b7f3c7061746820636c6173733d22636c732d31302220643d224d39302e34332c3181527f35372e383163352e36352c312e32322c31342e38312c2e38312c31302e33372d602082015266189b171b91179f60c91b604082015260005b5060470190565b7f3c7061746820636c6173733d22636c732d342220643d224d38352e30342c313281527f342e373473372e37342c322e36372c31332e34372c31322e3039222f3e000000602082015260005b50603d0190565b7f3c7061746820636c6173733d22636c732d31302220643d224d32312e36332c3181527a1b9a171b1cb99699971c1b969a1699971c1a96989997181c11179f60291b602082015260005b50603b0190565b7f3c7061746820636c6173733d22636c732d31362220643d224d31392e39392c3181527f36352e3931632d2e34362d312e33322d2e38322d332e33312d2e35342d362e316020820152631a11179f60e11b604082015260005b5060440190565b7f3c7061746820636c6173733d22636c732d31302220643d224d32382e37342c3181527f37312e31632d312e39322d312e34352d332e30352d332e37312d332e38312d3660208201527f2e30342d2e33312d2e39362d2e35362d312e39332d2e37382d322e3836222f3e604082015260005b5060600190565b7f3c7061746820636c6173733d22636c732d31302220643d224d32312c3132372e81527f3438632e39342d312e32342c312e39382d322e35312c332e31332d332e373922602082015261179f60f11b604082015260005b5060420190565b7f3c7061746820636c6173733d22636c732d31302220643d224d31372e39352c3181527f33312e3938632e33372d2e36312c2e37362d312e32342c312e31382d312e383760208201526211179f60e91b604082015260005b5060430190565b7f3c7061746820636c6173733d22636c732d31302220643d224d31352e32392c3181527f33372e3138632e32382d2e36362c2e35382d312e33332c2e39322d322e303122602082015261179f60f11b60408201526000610491565b7f3c7061746820636c6173733d22636c732d31302220643d224d31332e33382c3181527f34332e3039632e31352d2e36362c2e33322d312e33342c2e35322d322e303422602082015261179f60f11b60408201526000610491565b7f3c7061746820636c6173733d22636c732d31302220643d224d31322e372c313481527f392e3933632d2e30322d2e36362d2e30322d312e33392c2e30322d322e313822602082015261179f60f11b60408201526000610491565b7f3c7061746820636c6173733d22636c732d31302220643d224d31332e34352c318152781a9a171b1cb99697191c16971b9b96971a969917189c11179f60391b602082015260005b5060390190565b7f3c7061746820636c6173733d22636c732d31302220643d224d35372e35332c3181527f35322e303363332e30312d2e32332c332e39392d312e32372c342e33322d322e602082015264181a91179f60d91b604082015260005b5060450190565b7f3c7061746820636c6173733d22636c732d31302220643d224d34382e33372c3181527f37362e3434632d332e38392c2e38342d31302e37332d322e38342d31362e333860208201526816989a97189b91179f60b91b604082015260005b5060490190565b7f3c7061746820636c6173733d22636c732d31302220643d224d36322e36332c3181527f34362e3036632e31342c332e33372d312e33332c362e322d342e30322c362e3360208201527f382d312e342c2e312d322e39312c2e30352d342e31382d2e35392d312e33392d60408201527f2e36392d322e31362d312e37362d322e36322d332e32312d2e36362d322e313360608201527316971c169a17199a16971a9a169b171a9a91179f60611b608082015260005b5060940190565b7f3c7061746820636c6173733d22636c732d31302220643d224d39342e32372c318152791a9a171b99b99699971c16971a1b96999718961a97181991179f60311b602082015260005b50603a0190565b7f3c7061746820636c6173733d22636c732d31302220643d224d34332e35362c3181527f35322e303363302c352e39392c312e36372c392e32342c342e39332c31322e3260208201527f372c312e39312c312e35352c342e35362c322e36372c372e30352c322e36332c60408201527f322e33322d2e30342c342e35332d312e35322c352e36382d332e352c312e323660608201527f2d322e31352c312e37362d342e382c312e37352d372e32382c302d2e30382c3060808201526c1697189a96181697191991179f60991b60a082015260005b5060ad0190565b7f3c7061746820636c6173733d22636c732d31302220643d224d31392e31332c3181527f33352e3038632e36352d312e31382c312e34312d322e33352c322e33322d332e6020820152641a1c91179f60d91b604082015260006106b1565b7f3c7061746820636c6173733d22636c732d31302220643d224d31372e31332c3181527f33392e3735632e32362d2e38322c2e35382d312e36362c2e39342d322e353122602082015261179f60f11b60408201526000610491565b7f3c7061746820636c6173733d22636c732d31302220643d224d31352e39382c3181527f34342e39632e31312d2e38312c2e32352d312e36372c2e34352d322e3537222f6020820152601f60f91b604082015260005b5060410190565b7f3c7061746820636c6173733d22636c732d31372220643d224d3137322e312c3381527f322e363963322e39332c2e37382c352e38362c322e30312c382e33332c332e366020820152631c11179f60e11b604082015260006103ba565b7f3c7061746820636c6173733d22636c732d31372220643d224d3136322e39312c81527f31352e3731632d2e36352c322e39362d342e30322c352e39362d31332e35332c6020820152661a171c9c11179f60c91b604082015260006102b6565b600080516020614e7283398151915281527f35312e3134682d2e3031632d322e33332c2e31332d342e31342c2e36332d342e602082015268189a16171b1991179f60b91b60408201526000610716565b7f3c7061746820636c6173733d22636c732d31302220643d224d3135302e33322c81527f35332e32632e39352c2e38342c312e36392c322c322e30372c332e35382c2e3160208201527f342c2e35342d2e30332c312e35362c2e31312c322e30392c302d2e30372c2e3260408201527f322d2e35362c2e32392d2e36342c302c302c2e33372d2e33382c2e33382d2e3360608201527f382c2e33372d2e34342c312e31312d2e362c312e34312d2e36382c2e37352d2e60808201527f31382c312e35332d2e30352c322e32382d2e30392c2e35362d2e30322c312e3060a08201527f392d2e31332c312e35362d2e35322c2e36372d2e35342c312e30312d312e353560c08201527f2c2e36322d322e33322d2e38322d312e35372d332e36382d312e36312d352e3160e08201527f362d312e33362d2e37332c2e31322d322e39322c2e38392d332e35362c2e3332610100820152632d11179f60e11b6101208201526000610252565b7f3c7061746820636c6173733d22636c732d31302220643d224d3135382e32332c81527f39302e333163312e32322c352e36352c2e38312c31342e38312d31362e372c316020820152661817199b91179f60c91b604082015260006102b6565b7f3c7061746820636c6173733d22636c732d31302220643d224d3132352e31362c81527f38342e393373322e36372c372e37342c31322e30392c31332e3437222f3e0000602082015260005b50603e0190565b7f3c7061746820636c6173733d22636c732d31302220643d224d3137362e32382c81527f32342e3436732d332e36322d342e32322d31322e36372d352e3034222f3e000060208201526000610d3c565b7f3c7061746820636c6173733d22636c732d31302220643d224d3136362e34372c81527f32322e3634632d312e33312d2e34382d332e332d2e38372d362e31332d2e363360208201526211179f60e91b604082015260006104f0565b7f3c7061746820636c6173733d22636c732d31362220643d224d3132372e392c3281527f302e3838632d312e32342c2e39342d322e35312c312e39382d332e37392c332e602082015264189991179f60d91b604082015260006106b1565b7f3c7061746820636c6173733d22636c732d31362220643d224d3133322e342c3181527f372e3833632d2e36312c2e33372d312e32342c2e37362d312e38372c312e313860208201526211179f60e91b604082015260006104f0565b7f3c7061746820636c6173733d22636c732d31362220643d224d3133372e36312c81527f31352e3137632d2e36362c2e32382d312e33332c2e35382d322e30312c2e393260208201526211179f60e91b604082015260006104f0565b7f3c7061746820636c6173733d22636c732d31362220643d224d3134332e35312c81527f31332e3236632d2e36362c2e31352d312e33342c2e33322d322e30342c2e353260208201526211179f60e91b604082015260006104f0565b7f3c7061746820636c6173733d22636c732d31362220643d224d3135302e33362c81527f31322e3538632d2e36362d2e30322d312e33392d2e30322d322e31382c2e303260208201526211179f60e91b604082015260006104f0565b7f3c7061746820636c6173733d22636c732d31362220643d224d3135352e31312c8152781899971999b996971b9b9697191c169917189c16971a91179f60391b60208201526000610650565b7f3c7061746820636c6173733d22636c732d31302220643d224d3135302e34312c81527f36312e3733632e37382d2e33332c312e38322d312e33312c322e30352d342e336020820152631911179f60e11b604082015260006103ba565b7f3c7061746820636c6173733d22636c732d31302220643d224d3134362e34382c81527f36322e353163332e33372c2e31342c362e322d312e33332c362e33382d342e3060208201527f322c2e312d312e342c2e30352d322e39312d2e35392d342e31382d2e36392d3160408201527f2e33392d312e37362d322e31362d332e32312d322e36322d322e31332d2e3636606082015273169a17199a16971c169b171a9a96971a9a11179f60611b608082015260006107d2565b7f3c7061746820636c6173733d22636c732d31302220643d224d3135352e31352c8152791c9a17189ab996971a1b9699971c161a9718199699971891179f60311b60208201526000610822565b7f3c7061746820636c6173733d22636c732d31302220643d224d3135322e34352c81527f34332e343463352e39392c302c392e32342c312e36372c31322e32372c342e3960208201527f332c312e35352c312e39312c322e36372c342e35362c322e36332c372e30352d60408201527f2e30342c322e33322d312e35322c342e35332d332e352c352e36382d322e313560608201527f2c312e32362d342e382c312e37362d372e32382c312e37352d2e30382c302d2e60808201526c189a961816971919961811179f60991b60a082015260006108fd565b7f3c7061746820636c6173733d22636c732d31302220643d224d3137362e34322c81527b1a1a171898b998971b1c161a171b9b1698971998961a971b1991179f60211b602082015260005b50603c0190565b7f3c7061746820636c6173733d22636c732d31362220643d224d3133352e352c3181527f392e3031632d312e31382c2e36352d322e33352c312e34312d332e34392c322e602082015264199911179f60d91b604082015260006106b1565b7f3c7061746820636c6173733d22636c732d31362220643d224d3134302e31372c81527f31372e3031632d2e38322c2e32362d312e36362c2e35382d322e35312c2e393460208201526211179f60e91b604082015260006104f0565b7f3c7061746820636c6173733d22636c732d31362220643d224d3134352e33322c81527f31352e3836632d2e38312c2e31312d312e36372c2e32352d322e35372c2e343560208201526211179f60e91b604082015260006104f0565b7f3c7061746820636c6173733d22636c732d31362220643d224d3135312e34332c815276189a971bb9969897189a9697189a96999697181c91179f60491b602082015260005b5060370190565b7f3c7061746820636c6173733d22636c732d31302220643d224d3135362e36342c81527f35322e3836632e37372c2e33362c312e36392c2e34332c322e30382c312e393460208201527f2c2e31382c312e38362d312e31322c312e37312d312e38352c322e3238222f3e60408201526000610433565b7f3c6c696e6520636c6173733d22636c732d3130222078313d223132302e35222081527f79313d223134302e3732222078323d223130392e3832222079323d223135322e6020820152641c9c91179f60d91b604082015260006106b1565b7f3c6c696e6520636c6173733d22636c732d3130222078313d223131392e33362281527f2079313d223133322e3536222078323d223131302e3138222079323d2231343360208201526517189b11179f60d11b604082015260005b5060460190565b7f3c6c696e6520636c6173733d22636c732d3130222078313d223130382e33222081527f79313d223133342e3237222078323d223131362e3737222079323d223132342e6020820152641a9911179f60d91b604082015260006106b1565b7f3c6c696e6520636c6173733d22636c732d3130222078313d223131332e32322281527f2079313d223131382e3439222078323d223130352e3235222079323d22313237602082015264171b91179f60d91b604082015260006106b1565b7f3c6c696e6520636c6173733d22636c732d3130222078313d223130382e38362281527f2079313d223131322e3737222078323d223130302e3936222079323d22313231602082015265171c1c91179f60d11b60408201526000611528565b7f3c6c696e6520636c6173733d22636c732d3130222078313d223130332e37372281527f2079313d223130372e3439222078323d2239352e3539222079323d223131362e6020820152631c91179f60e11b604082015260006103ba565b7f3c6c696e6520636c6173733d22636c732d3130222078313d2239372e3332222081527f79313d223130322e3736222078323d2238382e3831222079323d223131322e356020820152631a91179f60e11b604082015260006103ba565b7f3c6c696e6520636c6173733d22636c732d3130222078313d2239302e3038222081527f79313d2239382e3939222078323d2238312e3138222079323d223130392e323360208201526211179f60e91b604082015260006104f0565b7f3c6c696e6520636c6173733d22636c732d3130222078313d2238322e3734222081527f79313d2239352e3938222078323d2237332e3038222079323d223130372e303860208201526211179f60e91b604082015260006104f0565b7f3c6c696e6520636c6173733d22636c732d3130222078313d2237342e3338222081527f79313d223934222078323d2236332e3937222079323d223130352e3938222f3e602082015260005b5060400190565b7f3c6c696e6520636c6173733d22636c732d3130222078313d2236352e3431222081527f79313d223933222078323d2235332e3837222079323d223130362e3237222f3e60208201526000611808565b7f3c6c696e6520636c6173733d22636c732d3130222078313d2235342e3835222081527f79313d2239332e3138222078323d2234302e3934222079323d223130392e313860208201526211179f60e91b604082015260006104f0565b7f3c6c696e6520636c6173733d22636c732d3130222078313d2234332e3333222081527f79313d2239342e3832222078323d2232342e3236222079323d223131392e313960208201526211179f60e91b604082015260006104f0565b7f3c7061746820636c6173733d22636c732d31362220643d224d32312c3136382e815276189ab9971a961a171b9b961a971a1a161c97189991179f60491b602082015260006113f2565b7f3c7061746820636c6173733d22636c732d31362220643d224d32352e34342c3181527b1b99171a9bb9969997191a16989718969a171b9896989b171891179f60211b6020820152600061128f565b7f3c7061746820636c6173733d22636c732d31302220643d224d39302e34312c3181527a1a9b171c3998971a9b961b971b18961c971c18961a171a1c11179f60291b6020820152600061035a565b7f3c7061746820636c6173733d22636c732d342220643d224d3130312e35362c3181527f33382e3931732d2e36352d352e33342d382e38322d31312e3931222f3e00000060208201526000610309565b7f3c7061746820636c6173733d22636c732d342220643d224d38382e38312c313281527f332e3836732d31332e38392d382e34342d33312e36332d332e3236222f3e000060208201526000610d3c565b7f3c7061746820636c6173733d22636c732d31302220643d224d34332e35382c3181527f35322e3939732d2e332c31312e36382c392e32322c31352e3437222f3e00000060208201526000610309565b600080516020614e5283398151915281527f3131372e393663312e34322c2e36312c322e38372c312e31352c342e33372c31602082015265171a9b91179f60d11b60408201526000611528565b7f3c7061746820636c6173733d22636c732d31302220643d224d3131382e39352c81527f3132392e3838632d2e34332d312e34392d2e39362d322e39332d312e35372d3460208201526517199a91179f60d11b60408201526000611528565b7f3c6c696e6520636c6173733d22636c732d3130222078313d2239392e3822207981527f313d2233372e3935222078323d2239342e3331222079323d2234332e3434222f6020820152601f60f91b60408201526000610a13565b7f3c7061746820636c6173733d22636c732d31362220643d224d3131302e39372c81527f34392e3634632d2e32392c312e37312d2e34322c332e34392d2e33352c352e336020820152631991179f60e11b604082015260006103ba565b7f3c7061746820636c6173733d22636c732d31362220643d224d3131332e36322c81527f34312e3436632d2e39362c312e39392d312e37362c342e31322d322e32392c3660208201526517199b91179f60d11b60408201526000611528565b7f3c7061746820636c6173733d22636c732d31362220643d224d3132352e30312c81527f32372e3135632d312e33372c312e31392d322e39392c322e372d342e36332c34602082015265171a9891179f60d11b60408201526000611528565b7f3c6c696e6520636c6173733d22636c732d3136222078313d2236322e3839222081527f79313d222d322e3736222078323d222d332e3937222079323d2236342e31222f6020820152601f60f91b60408201526000610a13565b7f3c6c696e6520636c6173733d22636c732d3136222078313d2236352e3232222081527f79313d222d2e3433222078323d222d312e3634222079323d2236362e3433222f6020820152601f60f91b60408201526000610a13565b7f3c6c696e6520636c6173733d22636c732d3136222078313d2236372e3536222081527f79313d22312e39222078323d222e3639222079323d2236382e3737222f3e000060208201526000610d3c565b7f3c6c696e6520636c6173733d22636c732d3136222078313d2236392e3839222081527f79313d22342e3234222078323d22332e3033222079323d2237312e31222f3e00602082015260005b50603f0190565b7f3c6c696e6520636c6173733d22636c732d3136222078313d2237322e3232222081527f79313d22362e3537222078323d22352e3336222079323d2237332e3433222f3e60208201526000611808565b7f3c6c696e6520636c6173733d22636c732d3136222078313d2237342e3536222081527f79313d22382e39222078323d22372e3639222079323d2237352e3737222f3e0060208201526000611e5f565b7f3c6c696e6520636c6173733d22636c732d3136222078313d2237362e3839222081527f79313d2231312e3234222078323d2231302e3033222079323d2237382e31222f6020820152601f60f91b60408201526000610a13565b7f3c6c696e6520636c6173733d22636c732d3136222078313d2237392e3232222081527f79313d2231332e3537222078323d2231322e3336222079323d2238302e343322602082015261179f60f11b60408201526000610491565b7f3c6c696e6520636c6173733d22636c732d3136222078313d2238312e3536222081527f79313d2231352e3931222078323d2231342e3639222079323d2238322e373722602082015261179f60f11b60408201526000610491565b7f3c6c696e6520636c6173733d22636c732d3136222078313d2238332e3839222081527f79313d2231382e3234222078323d2231372e3033222079323d2238352e31222f6020820152601f60f91b60408201526000610a13565b7f3c6c696e6520636c6173733d22636c732d3136222078313d2238362e3232222081527f79313d2232302e3537222078323d2231392e3336222079323d2238372e343322602082015261179f60f11b60408201526000610491565b7f3c6c696e6520636c6173733d22636c732d3136222078313d2238382e3536222081527f79313d2232322e3931222078323d2232312e3639222079323d2238392e373722602082015261179f60f11b60408201526000610491565b7f3c6c696e6520636c6173733d22636c732d3136222078313d2239302e3839222081527f79313d2232352e3234222078323d2232342e3033222079323d2239322e31222f6020820152601f60f91b60408201526000610a13565b7f3c6c696e6520636c6173733d22636c732d3136222078313d2239332e3232222081527f79313d2232372e3537222078323d2232362e3336222079323d2239342e343322602082015261179f60f11b60408201526000610491565b7f3c6c696e6520636c6173733d22636c732d3136222078313d2239352e3536222081527f79313d2232392e3931222078323d2232382e3639222079323d2239362e373722602082015261179f60f11b60408201526000610491565b7f3c6c696e6520636c6173733d22636c732d3136222078313d2239372e3839222081527f79313d2233322e3234222078323d2233312e3033222079323d2239392e31222f6020820152601f60f91b60408201526000610a13565b7f3c6c696e6520636c6173733d22636c732d3136222078313d223130302e32322281527f2079313d2233342e3537222078323d2233332e3336222079323d223130312e346020820152631991179f60e11b604082015260006103ba565b7f3c6c696e6520636c6173733d22636c732d3136222078313d223130322e35362281527f2079313d2233362e3931222078323d2233352e37222079323d223130332e373760208201526211179f60e91b604082015260006104f0565b7f3c6c696e6520636c6173733d22636c732d3136222078313d223130342e38392281527f2079313d2233392e3234222078323d2233382e3033222079323d223130362e3160208201526211179f60e91b604082015260006104f0565b7f3c6c696e6520636c6173733d22636c732d3136222078313d223130372e32322281527f2079313d2234312e3537222078323d2234302e3336222079323d223130382e346020820152631991179f60e11b604082015260006103ba565b7f3c6c696e6520636c6173733d22636c732d3136222078313d223130392e35362281527f2079313d2234332e3931222078323d2234322e37222079323d223131302e373760208201526211179f60e91b604082015260006104f0565b7f3c6c696e6520636c6173733d22636c732d3136222078313d223131312e38392281527f2079313d2234362e3234222078323d2234352e3033222079323d223131332e3160208201526211179f60e91b604082015260006104f0565b7f3c6c696e6520636c6173733d22636c732d3136222078313d223131342e32322281527f2079313d2234382e3537222078323d2234372e3336222079323d223131352e346020820152631991179f60e11b604082015260006103ba565b7f3c6c696e6520636c6173733d22636c732d3136222078313d223131362e35362281527f2079313d2235302e3931222078323d2234392e37222079323d223131372e373760208201526211179f60e91b604082015260006104f0565b7f3c6c696e6520636c6173733d22636c732d3136222078313d223131382e38392281527f2079313d2235332e3234222078323d2235322e3033222079323d223132302e3160208201526211179f60e91b604082015260006104f0565b7f3c6c696e6520636c6173733d22636c732d3136222078313d223132312e32322281527f2079313d2235352e3537222078323d2235342e3336222079323d223132322e346020820152631991179f60e11b604082015260006103ba565b7f3c6c696e6520636c6173733d22636c732d3136222078313d223132332e35362281527f2079313d2235372e3931222078323d2235362e37222079323d223132342e373760208201526211179f60e91b604082015260006104f0565b7f3c6c696e6520636c6173733d22636c732d3136222078313d223132352e38392281527f2079313d2236302e3234222078323d2235392e3033222079323d223132372e3160208201526211179f60e91b604082015260006104f0565b7f3c6c696e6520636c6173733d22636c732d3136222078313d223132382e32322281527f2079313d2236322e3537222078323d2236312e3336222079323d223132392e346020820152631991179f60e11b604082015260006103ba565b7f3c6c696e6520636c6173733d22636c732d3136222078313d223133302e35362281527f2079313d2236342e3931222078323d2236332e37222079323d223133312e373760208201526211179f60e91b604082015260006104f0565b7f3c6c696e6520636c6173733d22636c732d3136222078313d223133322e38392281527f2079313d2236372e3234222078323d2236362e3033222079323d223133342e3160208201526211179f60e91b604082015260006104f0565b7f3c6c696e6520636c6173733d22636c732d3136222078313d223133352e32322281527f2079313d2236392e3537222078323d2236382e3336222079323d223133362e346020820152631a11179f60e11b604082015260006103ba565b7f3c6c696e6520636c6173733d22636c732d3136222078313d223133372e35362281527f2079313d2237312e3931222078323d2237302e37222079323d223133382e373760208201526211179f60e91b604082015260006104f0565b7f3c6c696e6520636c6173733d22636c732d3136222078313d223133392e38392281527f2079313d2237342e3234222078323d2237332e3033222079323d223134312e3160208201526211179f60e91b604082015260006104f0565b7f3c6c696e6520636c6173733d22636c732d3136222078313d223134322e32322281527f2079313d2237362e3537222078323d2237352e3336222079323d223134332e346020820152631a11179f60e11b604082015260006103ba565b7f3c6c696e6520636c6173733d22636c732d3136222078313d223134342e35362281527f2079313d2237382e3931222078323d2237372e37222079323d223134352e373760208201526211179f60e91b604082015260006104f0565b7f3c6c696e6520636c6173733d22636c732d3136222078313d223134362e38392281527f2079313d2238312e3234222078323d2238302e3033222079323d223134382e3160208201526211179f60e91b604082015260006104f0565b7f3c6c696e6520636c6173733d22636c732d3136222078313d223134392e32322281527f2079313d2238332e3537222078323d2238322e3336222079323d223135302e346020820152631a11179f60e11b604082015260006103ba565b7f3c6c696e6520636c6173733d22636c732d3136222078313d223135312e35362281527f2079313d2238352e3931222078323d2238342e37222079323d223135322e373760208201526211179f60e91b604082015260006104f0565b7f3c6c696e6520636c6173733d22636c732d3136222078313d223135332e38392281527f2079313d2238382e3234222078323d2238372e3033222079323d223135352e3160208201526211179f60e91b604082015260006104f0565b7f3c6c696e6520636c6173733d22636c732d3136222078313d223135362e32332281527f2079313d2239302e3537222078323d2238392e3336222079323d223135372e346020820152631a11179f60e11b604082015260006103ba565b7f3c6c696e6520636c6173733d22636c732d3136222078313d223135382e35362281527f2079313d2239322e3931222078323d2239312e37222079323d223135392e373760208201526211179f60e91b604082015260006104f0565b7f3c6c696e6520636c6173733d22636c732d3136222078313d223136302e38392281527f2079313d2239352e3234222078323d2239342e3033222079323d223136322e3160208201526211179f60e91b604082015260006104f0565b7f3c6c696e6520636c6173733d22636c732d3136222078313d223136332e32332281527f2079313d2239372e3537222078323d2239362e3336222079323d223136342e346020820152631a11179f60e11b604082015260006103ba565b7f3c6c696e6520636c6173733d22636c732d3136222078313d223136352e35362281527f2079313d2239392e3931222078323d2239382e37222079323d223136362e373760208201526211179f60e91b604082015260006104f0565b631e17b39f60e11b815260040190565b7f3c7061746820636c6173733d22636c732d31302220643d224d36312e38352c3181527f34392e393763322e36322d352e372d322e34372d31312e39342c2e34382d313760208201527f2e352c312e39342d332e36362c362e36312d342e38372c31302e37362d342e3960408201527f372c362e35332d2e31362c31332e32352c312e35372c31382e33362c352e363460608201527f73382e33392c31302e36342c372e372c31372e3134632d2e31312c312e30332d60808201527f2e33332c322e30382d2e39352c322e39312d312e30362c312e34312d332e303760a08201527f2c312e38312d342e382c312e34332d2e33362d2e30382d2e37312d2e31392d3160c08201526917181b1697199911179f60b11b60e082015260ea016000612e3e826100ed565b7f3c7061746820636c6173733d22636c732d342220643d224d37332e31352c313281527f342e3038632d31342e30312d312e36382d32382e32332c362e36382d33322e3360208201527f392c32302e31392d322e39342c392e35362c312e32392c32312e30322c31302e60408201527f38342c32352e36332c302c302d332e372c392e38352d392e34312c352e323222606082015261179f60f11b60808201527f3c7061746820636c6173733d22636c732d342220643d224d35302e33372c313760828201527f332e3239632d31312e37332d352e37322d31362e35362d31392e38352d31322e60a28201527f36352d33312e39362c332e37372d31312e37312c31362e30332d31392e37342c60c28201527f32382e30322d32302e31392c352e34312d2e322c31302e382c2e37392c31362e60e282015269181a161917189a91179f60b11b61010282015261010c019150612f998261025a565b9150612fa4826102bd565b9150612faf82610310565b9150612fba82610361565b7f3c7061746820636c6173733d22636c732d31302220643d224d32342e32352c3181527f34352e343563312e32372d362e31332c332e39352d31312e39372c382e31342d60208201527f31362e36362c342e35362d352e312c31302e30382d392e33322c31362e31362d6040820152671899171a1a91179f60c11b60608201527f3c7061746820636c6173733d22636c732d31302220643d224d32342e36332c3160688201527f35362e3935632d2e31312d322e32372d2e30312d342e35372c2e32312d362e3760888201527f372c2e30342d2e33392c2e30382d2e37372c2e31342d312e3136222f3e00000060a882015260c50191506130ba826103c1565b91506130c58261043a565b91506130d082610498565b91506130db826104f7565b91506130e682610552565b91506130f1826105ad565b91506130fc82610608565b7f3c7061746820636c6173733d22636c732d31302220643d224d35312e32342c3181527f34322e3338632d2e31342c322e35332c2e31382c352e36392c322e30362c372e60208201527f38312c2e35372c2e36342d2e322c322e38332d2e33322c332e35362d2e32372c60408201527f312e362d2e32342c352e35322c322e32352c352e33312c322e30362d2e31372c60608201527f312e38392d322e33392c312e39382d332e38372c2e31312d312e36382c312e3260808201527f342d322e39392c322e39362d332e31372c2e382d2e30382c312e36372c2e322c60a08201527f322e31372c2e38332c2e37342c2e39332c2e35342c322e32352c2e36332c332e60c08201527f33362c2e31312c312e34362c2e30342c322e39352d2e32352c342e33392d2e3560e08201527f392c322e38392d322e31392c352e35362d342e39372c362e37382d2e37372c2e6101008201527f33332d312e35392c2e35342d322e34332c2e3632682d2e3034632d2e31392c2e6101208201527f30322d2e33382c2e30322d2e35362c2e30322c302c302d332e39322c2e35342d6101408201527f382e35392d362e31322d352e32362d372e37392d312e37352d31392e35312c336101608201526b171a9c96991a171b9c91179f60a11b61018082015261018c0191506132ea82610657565b7f3c7061746820636c6173733d22636c732d32392220643d224d33332e36322c3181527f34392e3633632e33322c372e392c332c31362e30372c392e31382c32312e332c60208201527f322c312e37312c342e32362c332e31332c362e36382c342e30382c312e30392c60408201527f2e34342c2e34352c322e30392d2e36362c312e36372d31302e38362d342e343160608201527f2d31362e33352d31352e37372d31362e34352d32372e30322d2e30342d2e3833608082015277161897191a16971c1c961897191b1697181a34182d11179f60411b60a082015260b80191506133d4826106b8565b91506133df8261071d565b7f3c7061746820636c6173733d22636c732d31302220643d224d35372e31392c3181527f35352e3736632d2e30332d2e34342c2e30362d312e31382c2e31372d312e363160208201527f732e33332d2e38332c2e36342d312e3134632e33362d2e33352c2e38352d2e3560408201527f342c312e33342d2e36352c2e35392d2e31342c312e32312d2e32312c312e383260608201527f2d2e31372c2e32342c2e30312c2e34392c2e30352c2e37312c2e31342c2e363860808201527616171996171c1c16171b161897181c9619171b1b91179f60491b60a08201527f3c7061746820636c6173733d22636c732d31302220643d224d35372e30362c3160b78201527f36372e383573352e34332c312e38372c342e37322c362e3337632d2e37312c3460d78201527f2e35312d31302e36332c31362e34312d31392e35392c31312e3138222f3e000060f782015261011501915061353b826107d9565b915061354682610829565b915061355182610904565b915061355c82610962565b9150613567826109bd565b7f3c7061746820636c6173733d22636c732d31302220643d224d31352e38322c318152771a98971818b99697189a969897189a9697181c969991179f60411b60208201527f3c7061746820636c6173733d22636c732d31372220643d224d3131332e33372c60388201527f33322e373263372e38322d31332e31382c32312e38362d32332e33352c33372e60588201527f33352d32342e372c302c302c31342e30332d322e33332c31322e322c372e363960788201527f2c31362e312c2e36342c32322e37322c31312e30362c31372e35312c32302e3460988201527f392c352e33392c332e36312c382e36312c392e32322c352e30342c31362e333660b88201527f2d322e36332c352e32342d31312e38362c31332e322d31362e36362c352e313160d88201527f2d2e34342d2e37332d2e36372d312e362d2e36372d322e3435762d2e3034632e60f88201527f30322d2e31392c2e30322d2e33382c2e30322d2e35362c2e30372d2e37312c2e6101188201527f33312d312e33382c2e37332d312e39352c2e33382d2e35312c2e38382d2e38396101388201527f2c312e34332d312e31392c312e30322d2e35372c322e32352d2e38382c332e346101588201527f2d312e32332c322e31382d2e36372c342d312e35332c332e33352d342e36382d6101788201527f2e39362d342e36332d362e31352d382e36322d392e38382d31312e30352d322e6101988201527f35372d312e36362d352e34392d322e37392d382e34352d332e35362d362e39366101b88201527f2d312e38322d31342e35362d312e35332d32312e32332c312e32352d32312e326101d88201527f332c382e38362d32352e37312c33382e30342d31362e30392c35362e38382c356101f88201527f2e38372c31312e35322c31372e35342c31382e31372c33302e34382c31362e346102188201527f312c342e37342d2e36352c31322e37322d352e30342c31312e31372d31312e306102388201527f382d2e35332d322e30392d322e36342d332e38342d342e38332d342e312d2e336102588201527f342d2e30352d2e36372d2e30352d312e30322d2e30312d312e31372c2e31322d6102788201527f312e38322c312e30342d322e35312c312e39332d2e352c2e36342d312e30312c6102988201527f312e32372d312e37352c312e35352d2e39362c2e33372d322e30382c2e31352d6102b88201527f322e39362d2e33382d312e382d312e312d332e31312d332e33392d332e32312d6102d88201527f352e34392d2e30372d312e362c2e36342d332e31352c312e36362d342e342c336102f88201527f2e30382d332e37392c362e35392d352e39392c31312e33382d342e35312c332e6103188201527f38362c312e322c362e392c342e32352c382e342c372e39362c312e30322c322e6103388201527f352c312e33352c352e32332c312e31382c372e392d2e39312c31352e31312d326103588201527f302e34322c31372e31362d33312e38362c31342e31392d2e39382d2e32352d316103788201527f2e39332d2e35342d322e38362d2e38372d32382e33362d392e38372d33352e34610398820152761b169a98971b1a969918971999969b9a971a1bad11179f60491b6103b88201526103cf019150613a1882610a1a565b9150613a2382610a77565b9150613a2e82610ad7565b7f3c7061746820636c6173733d22636c732d31302220643d224d3135342e37312c81527f39322e3233632e31332c2e33342c2e32342c2e372c2e33322c312e30362c2e3360208201527f382c312e37322d2e30322c332e37342d312e34332c342e382d2e38332c2e363260408201527f2d312e38382c2e38342d322e39312c2e39352d362e352c2e36392d31332e303760608201527f2d322e35392d31372e31342d372e372d342e30372d352e31312d352e382d313160808201527f2e38332d352e36342d31382e33362c2e312d342e31342c312e33312d382e383160a08201527f2c342e39372d31302e37362c352e35372d322e39362c31312e382c322e31342c60c08201526a189b971a96971a1c11179f60a91b60e082015260eb019150613b5782610b27565b7f3c7061746820636c6173733d22636c732d31302220643d224d3137302e33322c81527f35312e3438632d342e36312d392e35342d31362e30372d31332e37382d32352e60208201527f36332d31302e38342d31332e35312c342e31362d32312e38372c31382e33382d60408201526d191817189c96199917199c91179f60911b60608201527f3c7061746820636c6173733d22636c732d31302220643d224d3137332e37312c606e8201527f35302e3235632d352e37322d31312e37332d31392e38352d31362e35362d3331608e8201527f2e39362d31322e36352d31312e37312c332e37372d31392e37342c31362e303360ae8201527f2d32302e31392c32382e30322d2e322c352e34312c2e37392c31302e382c322e60ce8201526a189a96189b17181a11179f60a91b60ee82015260f9019150613c9782610c90565b9150613ca282610cf0565b9150613cad82610d43565b9150613cb882610d93565b7f3c7061746820636c6173733d22636c732d31302220643d224d3134352e38372c81527f32342e3133632d362e31332c312e32372d31312e39372c332e39352d31362e3660208201527f362c382e31342d352e312c342e35362d392e33322c31302e30382d31322e343560408201526816189b17189b11179f60b91b60608201527f3c7061746820636c6173733d22636c732d31302220643d224d3135362e392c3260698201527f342e37632d322e32372d2e31312d342e35372d2e30312d362e37372c2e32312d60898201527a17199c9617181a16971b9b9617181c169897189b1617189a11179f60291b60a98201527f3c7061746820636c6173733d22636c732d31302220643d224d3137312e32342c60c48201527f32392e3434632d312e34352d312e39322d332e37312d332e30352d362e30342d60e48201527f332e38312d2e39362d2e33312d312e39332d2e35362d322e38362d2e3738222f610104820152601f60f91b610124820152610125019150613e3682610def565b9150613e4182610e4d565b9150613e4c82610ea9565b9150613e5782610f05565b9150613e6282610f61565b9150613e6d82610fbd565b600080516020614e7283398151915281527f35312e313463322e35332d2e31342c352e36392c2e31382c372e38312c322e3060208201527f362c2e36342c2e35372c322e38332d2e322c332e35362d2e33322c312e362d2e60408201527f32372c352e35322d2e32342c352e33312c322e32352d2e31372c322e30362d3260608201527f2e33392c312e38392d332e38372c312e39382d312e36382c2e31312d322e393960808201527f2c312e32342d332e31372c322e39362d2e30382c2e382c2e322c312e36372c2e60a08201527f38332c322e31372c2e39332c2e37342c322e32352c2e35342c332e33362c2e3660c08201527f332c312e34362c2e31312c322e39352c2e30342c342e33392d2e32352c322e3860e08201527f392d2e35392c352e35362d322e31392c362e37382d342e39372c2e33332d2e376101008201527f372c2e35342d312e35392c2e36322d322e3433762d2e3034632e30322d2e31396101208201527f2c2e30322d2e33382c2e30322d2e35362c302c302c2e35342d332e39322d362e6101408201527f31322d382e35392d372e37392d352e32362d31392e35312d312e37352d32342e610160820152691b9c9619971a9c91179f60b11b61018082015261018a01915061404782611009565b7f3c7061746820636c6173733d22636c732d32392220643d224d3135302e30392c81527f33322e31376331312e32382c2e30392c32322e36372c352e35392c32372e312c60208201527f31362e34372c2e34382c312e32332d312e33352c312e39382d312e38362c2e3760408201527f342d332e39362d31302e32382d31342e37322d31352e35342d32352e32392d3160608201527f352e38322d2e39332d2e30332d2e392d312e34332c2e30352d312e3468305a22608082015261179f60f11b60a08201527f3c7061746820636c6173733d22636c732d31302220643d224d3137362e38362c60a28201527f34382e3235632e38342d332e38392d322e38342d31302e37332d31352e31372d60c282015267189b17199c11179f60c11b60e282015260ea01915061417882611066565b7f3c7061746820636c6173733d22636c732d31302220643d224d3135362e31382c81527f35372e3037632d2e34342d2e30332d312e31382c2e30362d312e36312c2e313760208201527f732d2e38332c2e33332d312e31342c2e3634632d2e33352c2e33362d2e35342c60408201527f2e38352d2e36352c312e33342d2e31342c2e35392d2e32312c312e32312d2e3160608201527f372c312e38322c2e30312c2e32342c2e30352c2e34392c2e31342c2e37312c2e6080820152781996171b1c16171b16171c1c1619171b1b961897181c91179f60391b60a08201527f3c7061746820636c6173733d22636c732d31302220643d224d3136382e32382c60b98201527f35362e393473312e38372c352e34332c362e33372c342e37322c31362e34312d60d9820152731898171b1996189897189c16989c971a9c91179f60611b60f982015261010d0191506142cd8261111f565b91506142d88261116c565b91506142e382611244565b91506142ee82611296565b91506142f9826112f4565b915061430482611350565b915061430f826113ac565b7f3c7061746820636c6173733d22636c732d31302220643d224d3136382c35322e81527f3836632e33382d2e35312c2e38382d2e38392c312e34332d312e31392c312e3060208201527f322d2e35372c322e32352d2e38382c332e342d312e32332c322e31382d2e3637604082015276161a97199a9699171b1c9619171c19169c17189c91179f60491b606082015260770191506143ac826113f9565b91506143b78261146f565b91506143c2826114cd565b91506143cd8261152f565b91506143d88261158d565b91506143e3826115eb565b91506143ee8261164a565b91506143f9826116a7565b915061440482611704565b915061440f82611760565b915061441a826117bc565b91506144258261180f565b91506144308261185f565b915061443b826118bb565b915061444682611917565b915061445182611961565b915061445c826119b0565b9150614467826119fe565b915061447282611a4e565b915061447d82611a9e565b915061448882611aee565b915061449382611b3b565b915061449e82611b9a565b600080516020614e5283398151915281527f3131372e3936632d312e33362d2e35362d322e372d312e32312d332e39392d3160208201527f2e39332d312e32372d2e36392d322e34382d312e34342d332e36382d322e323560408201527f2d312e31362d2e37392d322e32392d312e36342d332e342d322e35342d312e3060608201527f382d2e38382d322e31332d312e38312d332e31332d322e37392d312e30312d2e60808201527f39362d312e39382d312e39362d322e39312d332e30322d2e39332d312e30352d60a08201527f312e38332d322e31332d322e36372d332e32352d2e38382d312e31322d312e3660c08201527f392d322e32382d322e34372d332e34372d2e37382d312e32312d312e35332d3260e08201527f2e34342d322e32322d332e36392d2e33322d2e35382d2e36342d312e31362d2e6101008201527f39332d312e37342d2e33372d2e37322d2e37332d312e34362d312e30362d322e6101208201527f31392d2e36352d312e33382d312e32332d322e37372d312e37362d342e31362d6101408201527f2e35372d312e34372d312e30362d322e39332d312e35312d342e34322d2e34376101608201527f2d312e35352d2e38382d332e31322d312e32332d342e372d2e33392d312e37396101808201527f2d2e37322d332e35382d2e39372d352e33392d2e332d322e30392d2e34392d346101a08201527f2e32312d2e35392d362e33322d2e31322d322e32382d2e31332d342e35372d2e6101c08201527f30352d362e38362c2e30382d322e352c2e32382d342e39392c2e35382d372e346101e08201527f396830632e33342d322e37382c2e382d352e35352c312e33372d382e332c2e336102008201527f342d312e36372c2e37322d332e33322c312e31352d342e39382c2e342d312e356102208201527f362c2e38332d332e31312c312e332d342e36362c2e31322d2e34332c2e32352d6102408201527f2e38362c2e33382d312e3239682d362e3533732d372e34352c302d372e34352c6102608201527f30682d352e37317331392e34312d2e30362c31392e34312d2e3036682d362e316102808201527f39732d372e34352c302d372e34352c30682d352e3731732d362e32352c302d366102a08201527f2e32352c30682d352e3338732d342e37342c302d342e37342c30682d342e37336102c08201527f732d342e37342c302d342e37342c30682d342e3733732d342e37332c302d342e6102e08201527f37332c30682d342e3734732d352e352c302d352e352c30762e3036682d2e30396103008201527f73302c352e35352c302c352e353576342e373373302c342e37332c302c342e376103208201527f3376342e373373302c342e37332c302c342e373376342e373673302c342e37336103408201527f2c302c342e373376352e333873302c362e32362c302c362e323676352e37733061036082015273161b971a1a1618161b971a1a3b1b171a9a11179f60611b6103808201527f3c7061746820636c6173733d22636c732d31302220643d224d33312e39352c376103948201527f382e303276352e3773302c372e34342c302c372e343476362e3538632e34312d6103b48201527f2e31332c2e38332d2e32352c312e32342d2e33372c312e35362d2e34372c332e6103d48201527f31322d2e39312c342e37312d312e33312c312e36342d2e34312c332e32392d2e6103f48201527f382c342e39342d312e31342c322e37362d2e35382c352e35312d312e30342c386104148201527f2e32382d312e33372c322e352d2e33312c352d2e35312c372e352d2e35392c326104348201527f2e32392d2e30392c342e35382d2e30382c362e38362c2e30352c322e31322c2e6104548201527f30392c342e32312c2e332c362e33322c2e3539682e303163312e38312c2e32346104748201527f2c332e36312c2e35372c352e33392c2e39372c312e35392c2e33342c332e31356104948201527f2c2e37352c342e37312c312e32322c312e34392c2e34342c322e39352c2e39356104b48201527f2c342e34312c312e3531682e303163312e342c2e35322c322e37392c312e31316104d48201527f2c342e31382c312e37352c2e37332c2e33342c312e34372c2e372c322e322c316104f48201527f2e30382c2e35382c2e332c312e31362c2e362c312e37332c2e39322c312e32356105148201527f2c2e372c322e34382c312e34342c332e36392c322e32342c312e31382c2e37376105348201527f2c322e33342c312e362c332e34372c322e34362c312e31322c2e38352c322e326105548201527f2c312e37342c332e32342c322e36392c312e30352c2e39322c322e30362c312e6105748201527f38392c332e30332c322e392c2e39372c312e30322c312e392c322e30362c322e6105948201527f37382c332e31352c2e39312c312e312c312e37362c322e32342c322e35342c336105b48201527f2e342c2e38322c312e31382c312e35372c322e34312c322e32362c332e36372c6105d48201527f2e37312c312e32392c312e33362c322e36332c312e39332c332e3939222f3e006105f4820152610613019150614bfe82611bf4565b9150614c0982611c51565b9150614c1482611cb0565b711e339031b630b9b99e9131b63996999c111f60711b8152621e339f60e91b60128201526015019150614c4682611d0f565b9150614c5182611d69565b9150614c5c82611dc3565b9150614c6782611e13565b9150614c7282611e66565b9150614c7d82611eb6565b9150614c8882611f06565b9150614c9382611f60565b9150614c9e82611fbb565b9150614ca982612016565b9150614cb482612070565b9150614cbf826120cb565b9150614cca82612126565b9150614cd582612180565b9150614ce0826121db565b9150614ceb82612236565b9150614cf682612290565b9150614d01826122ed565b9150614d0c82612349565b9150614d17826123a5565b9150614d2282612402565b9150614d2d8261245e565b9150614d38826124ba565b9150614d4382612517565b9150614d4e82612573565b9150614d59826125cf565b9150614d648261262c565b9150614d6f82612688565b9150614d7a826126e4565b9150614d8582612741565b9150614d908261279d565b9150614d9b826127f9565b9150614da682612856565b9150614db1826128b2565b9150614dbc8261290e565b9150614dc78261296b565b9150614dd2826129c7565b9150614ddd82612a23565b9150614de882612a80565b9150614df382612adc565b9150614dfe82612b38565b9150614e0982612b95565b9150614e1482612bf1565b9150614e1f82612c4d565b9150614e2a82612caa565b9150614e3582612d06565b9150614e4082612d06565b9150614e4b82612d06565b9291505056fe3c7061746820636c6173733d22636c732d31302220643d224d3132342e39352c3c7061746820636c6173733d22636c732d31302220643d224d3134322e35322ca26469706673582212200efe996c8731ce5c557a0ce02ac35291d1ad316454e7c8067a7a5d770c08f94964736f6c63430008090033",
  "linkReferences": {},
  "deployedLinkReferences": {}
}