{
  "_format": "hh-sol-artifact-1",
  "contractName": "GuruNFT",
  "sourceName": "contracts/dao/GuruNFT.sol",
  "abi": [
    {
      "inputs": [
        {
          "internalType": "bytes32",
          "name": "_merkleRoot",
          "type": "bytes32"
        }
      ],
      "stateMutability": "nonpayable",
      "type": "constructor"
    },
    {
      "inputs": [],
      "name": "SoulBound",
      "type": "error"
    },
    {
      "anonymous": false,
      "inputs": [
        {
          "indexed": true,
          "internalType": "address",
          "name": "owner",
          "type": "address"
        },
        {
          "indexed": true,
          "internalType": "address",
          "name": "approved",
          "type": "address"
        },
        {
          "indexed": true,
          "internalType": "uint256",
          "name": "tokenId",
          "type": "uint256"
        }
      ],
      "name": "Approval",
      "type": "event"
    },
    {
      "anonymous": false,
      "inputs": [
        {
          "indexed": true,
          "internalType": "address",
          "name": "owner",
          "type": "address"
        },
        {
          "indexed": true,
          "internalType": "address",
          "name": "operator",
          "type": "address"
        },
        {
          "indexed": false,
          "internalType": "bool",
          "name": "approved",
          "type": "bool"
        }
      ],
      "name": "ApprovalForAll",
      "type": "event"
    },
    {
      "anonymous": false,
      "inputs": [
        {
          "indexed": true,
          "internalType": "address",
          "name": "from",
          "type": "address"
        },
        {
          "indexed": true,
          "internalType": "address",
          "name": "to",
          "type": "address"
        },
        {
          "indexed": true,
          "internalType": "uint256",
          "name": "tokenId",
          "type": "uint256"
        }
      ],
      "name": "Transfer",
      "type": "event"
    },
    {
      "inputs": [
        {
          "internalType": "address",
          "name": "",
          "type": "address"
        }
      ],
      "name": "WhitelistClaimed",
      "outputs": [
        {
          "internalType": "bool",
          "name": "",
          "type": "bool"
        }
      ],
      "stateMutability": "view",
      "type": "function"
    },
    {
      "inputs": [
        {
          "internalType": "bytes32[]",
          "name": "_merkleProof",
          "type": "bytes32[]"
        },
        {
          "internalType": "address",
          "name": "claiming",
          "type": "address"
        }
      ],
      "name": "airdrop",
      "outputs": [],
      "stateMutability": "nonpayable",
      "type": "function"
    },
    {
      "inputs": [
        {
          "internalType": "address",
          "name": "",
          "type": "address"
        },
        {
          "internalType": "uint256",
          "name": "",
          "type": "uint256"
        }
      ],
      "name": "approve",
      "outputs": [],
      "stateMutability": "pure",
      "type": "function"
    },
    {
      "inputs": [
        {
          "internalType": "address",
          "name": "owner",
          "type": "address"
        }
      ],
      "name": "balanceOf",
      "outputs": [
        {
          "internalType": "uint256",
          "name": "",
          "type": "uint256"
        }
      ],
      "stateMutability": "view",
      "type": "function"
    },
    {
      "inputs": [
        {
          "internalType": "uint256",
          "name": "",
          "type": "uint256"
        }
      ],
      "name": "getApproved",
      "outputs": [
        {
          "internalType": "address",
          "name": "",
          "type": "address"
        }
      ],
      "stateMutability": "pure",
      "type": "function"
    },
    {
      "inputs": [
        {
          "internalType": "address",
          "name": "owner",
          "type": "address"
        }
      ],
      "name": "getTokenId",
      "outputs": [
        {
          "internalType": "uint256",
          "name": "",
          "type": "uint256"
        }
      ],
      "stateMutability": "view",
      "type": "function"
    },
    {
      "inputs": [
        {
          "internalType": "address",
          "name": "addr",
          "type": "address"
        }
      ],
      "name": "hasRole",
      "outputs": [
        {
          "internalType": "bool",
          "name": "",
          "type": "bool"
        }
      ],
      "stateMutability": "view",
      "type": "function"
    },
    {
      "inputs": [
        {
          "internalType": "address",
          "name": "",
          "type": "address"
        },
        {
          "internalType": "address",
          "name": "",
          "type": "address"
        }
      ],
      "name": "isApprovedForAll",
      "outputs": [
        {
          "internalType": "bool",
          "name": "",
          "type": "bool"
        }
      ],
      "stateMutability": "pure",
      "type": "function"
    },
    {
      "inputs": [],
      "name": "merkleRoot",
      "outputs": [
        {
          "internalType": "bytes32",
          "name": "",
          "type": "bytes32"
        }
      ],
      "stateMutability": "view",
      "type": "function"
    },
    {
      "inputs": [],
      "name": "name",
      "outputs": [
        {
          "internalType": "string",
          "name": "",
          "type": "string"
        }
      ],
      "stateMutability": "view",
      "type": "function"
    },
    {
      "inputs": [
        {
          "internalType": "uint256",
          "name": "tokenId",
          "type": "uint256"
        }
      ],
      "name": "ownerOf",
      "outputs": [
        {
          "internalType": "address",
          "name": "",
          "type": "address"
        }
      ],
      "stateMutability": "view",
      "type": "function"
    },
    {
      "inputs": [
        {
          "internalType": "address",
          "name": "",
          "type": "address"
        },
        {
          "internalType": "address",
          "name": "",
          "type": "address"
        },
        {
          "internalType": "uint256",
          "name": "",
          "type": "uint256"
        }
      ],
      "name": "safeTransferFrom",
      "outputs": [],
      "stateMutability": "pure",
      "type": "function"
    },
    {
      "inputs": [
        {
          "internalType": "address",
          "name": "",
          "type": "address"
        },
        {
          "internalType": "address",
          "name": "",
          "type": "address"
        },
        {
          "internalType": "uint256",
          "name": "",
          "type": "uint256"
        },
        {
          "internalType": "bytes",
          "name": "",
          "type": "bytes"
        }
      ],
      "name": "safeTransferFrom",
      "outputs": [],
      "stateMutability": "pure",
      "type": "function"
    },
    {
      "inputs": [
        {
          "internalType": "address",
          "name": "",
          "type": "address"
        },
        {
          "internalType": "bool",
          "name": "",
          "type": "bool"
        }
      ],
      "name": "setApprovalForAll",
      "outputs": [],
      "stateMutability": "pure",
      "type": "function"
    },
    {
      "inputs": [
        {
          "internalType": "bytes4",
          "name": "interfaceId",
          "type": "bytes4"
        }
      ],
      "name": "supportsInterface",
      "outputs": [
        {
          "internalType": "bool",
          "name": "",
          "type": "bool"
        }
      ],
      "stateMutability": "view",
      "type": "function"
    },
    {
      "inputs": [],
      "name": "symbol",
      "outputs": [
        {
          "internalType": "string",
          "name": "",
          "type": "string"
        }
      ],
      "stateMutability": "view",
      "type": "function"
    },
    {
      "inputs": [
        {
          "internalType": "uint256",
          "name": "index",
          "type": "uint256"
        }
      ],
      "name": "tokenByIndex",
      "outputs": [
        {
          "internalType": "uint256",
          "name": "",
          "type": "uint256"
        }
      ],
      "stateMutability": "view",
      "type": "function"
    },
    {
      "inputs": [
        {
          "internalType": "address",
          "name": "owner",
          "type": "address"
        },
        {
          "internalType": "uint256",
          "name": "index",
          "type": "uint256"
        }
      ],
      "name": "tokenOfOwnerByIndex",
      "outputs": [
        {
          "internalType": "uint256",
          "name": "",
          "type": "uint256"
        }
      ],
      "stateMutability": "view",
      "type": "function"
    },
    {
      "inputs": [
        {
          "internalType": "uint256",
          "name": "tokenId",
          "type": "uint256"
        }
      ],
      "name": "tokenURI",
      "outputs": [
        {
          "internalType": "string",
          "name": "",
          "type": "string"
        }
      ],
      "stateMutability": "view",
      "type": "function"
    },
    {
      "inputs": [],
      "name": "totalSupply",
      "outputs": [
        {
          "internalType": "uint256",
          "name": "",
          "type": "uint256"
        }
      ],
      "stateMutability": "view",
      "type": "function"
    },
    {
      "inputs": [
        {
          "internalType": "address",
          "name": "",
          "type": "address"
        },
        {
          "internalType": "address",
          "name": "",
          "type": "address"
        },
        {
          "internalType": "uint256",
          "name": "",
          "type": "uint256"
        }
      ],
      "name": "transferFrom",
      "outputs": [],
      "stateMutability": "pure",
      "type": "function"
    }
  ],
  "bytecode": "0x60806040523480156200001157600080fd5b50604051620018c0380380620018c083398101604081905262000034916200014b565b604080518082018252600b81526a5175696e6f612d4775727560a81b6020808301918252835180850190945260048452634755525560e01b9084015281519192916200008391600091620000a5565b50805162000099906001906020840190620000a5565b505050600c55620001b0565b828054620000b3906200017f565b90600052602060002090601f016020900481019282620000d7576000855562000122565b82601f10620000f257805160ff191683800117855562000122565b8280016001018555821562000122579182015b828111156200012257825182559160200191906001019062000105565b506200013092915062000134565b5090565b5b8082111562000130576000815560010162000135565b600060208284031215620001625762000162600080fd5b5051919050565b634e487b7160e01b600052602260045260246000fd5b6002810460018216806200019457607f821691505b60208210811415620001aa57620001aa62000169565b50919050565b61170080620001c06000396000f3fe608060405234801561001057600080fd5b50600436106101075760003560e01c806301ffc9a71461010c57806306fdde0314610135578063081812fc1461014a578063095ea7b31461016a57806318160ddd1461017f57806323b872dd146101905780632eb4a7ab1461019e5780632f745c59146101a757806342842e0e146101905780634f6ccce7146101ba5780636352211e146101cd57806370a08231146101e05780637ef09bca146101f357806395d89b4114610206578063a22cb4651461020e578063ab1686ab1461021c578063b88d4fde1461023f578063c373a98c1461024d578063c87b56dd14610260578063e985e9c514610273578063f153768614610281575b600080fd5b61011f61011a366004610d91565b610294565b60405161012c9190610dbc565b60405180910390f35b61013d6102bf565b60405161012c9190610e34565b61015d610158366004610e56565b610351565b60405161012c9190610e91565b61017d610178366004610eb3565b61036c565b005b6008545b60405161012c9190610ef6565b61017d610178366004610f04565b610183600c5481565b6101836101b5366004610eb3565b610385565b6101836101c8366004610e56565b6103e0565b61015d6101db366004610e56565b61042e565b6101836101ee366004610f54565b610463565b61011f610201366004610f54565b6104a7565b61013d610526565b61017d610178366004610f88565b61011f61022a366004610f54565b600b6020526000908152604090205460ff1681565b61017d6101783660046110ae565b61017d61025b36600461117d565b610535565b61013d61026e366004610e56565b610616565b61011f6101583660046111cd565b61018361028f366004610f54565b61068a565b60006001600160e01b0319821663780e9d6360e01b14806102b957506102b982610697565b92915050565b6060600080546102ce90611216565b80601f01602080910402602001604051908101604052809291908181526020018280546102fa90611216565b80156103475780601f1061031c57610100808354040283529160200191610347565b820191906000526020600020905b81548152906001019060200180831161032a57829003601f168201915b5050505050905090565b6000604051631267838f60e11b815260040160405180910390fd5b604051631267838f60e11b815260040160405180910390fd5b600061039083610463565b82106103b75760405162461bcd60e51b81526004016103ae9061128e565b60405180910390fd5b506001600160a01b03919091166000908152600660209081526040808320938352929052205490565b60006103eb60085490565b82106104095760405162461bcd60e51b81526004016103ae906112e7565b6008828154811061041c5761041c6112f7565b90600052602060002001549050919050565b6000818152600260205260408120546001600160a01b0316806102b95760405162461bcd60e51b81526004016103ae9061133f565b60006001600160a01b03821661048b5760405162461bcd60e51b81526004016103ae90611395565b506001600160a01b031660009081526003602052604090205490565b6040516370a0823160e01b8152600090819030906370a08231906104cf908690600401610e91565b60206040518083038186803b1580156104e757600080fd5b505afa1580156104fb573d6000803e3d6000fd5b505050506040513d601f19601f8201168201806040525081019061051f91906113b0565b1192915050565b6060600180546102ce90611216565b336000908152600b602052604090205460ff16156105655760405162461bcd60e51b81526004016103ae906113ff565b6000816040516020016105789190611437565b6040516020818303038152906040528051906020012090506105d184848080602002602001604051908101604052809392919081815260200183836020028082843760009201919091525050600c5491508490506106e7565b6105ed5760405162461bcd60e51b81526004016103ae90611478565b336000908152600b60205260409020805460ff19166001179055610610826106fd565b50505050565b606061062182610726565b600061063860408051602081019091526000815290565b905060008151116106585760405180602001604052806000815250610683565b806106628461074e565b6040516020016106739291906114aa565b6040516020818303038152906040525b9392505050565b60006102b9826000610385565b60006001600160e01b031982166380ac58cd60e01b14806106c857506001600160e01b03198216635b5e139f60e01b145b806102b957506301ffc9a760e01b6001600160e01b03198316146102b9565b6000826106f48584610853565b14949350505050565b6000610708600a5490565b9050610718600a80546001019055565b61072282826108a0565b5050565b61072f816108ba565b61074b5760405162461bcd60e51b81526004016103ae9061133f565b50565b6060816107725750506040805180820190915260018152600360fc1b602082015290565b8160005b811561079c5780610786816114d8565b91506107959050600a83611509565b9150610776565b6000816001600160401b038111156107b6576107b6610fbb565b6040519080825280601f01601f1916602001820160405280156107e0576020820181803683370190505b5090505b841561084b576107f560018361151d565b9150610802600a86611534565b61080d906030611548565b60f81b818381518110610822576108226112f7565b60200101906001600160f81b031916908160001a905350610844600a86611509565b94506107e4565b949350505050565b600081815b84518110156108985761088482868381518110610877576108776112f7565b60200260200101516108d7565b915080610890816114d8565b915050610858565b509392505050565b610722828260405180602001604052806000815250610903565b6000908152600260205260409020546001600160a01b0316151590565b60008183106108f3576000828152602084905260409020610683565b5060009182526020526040902090565b61090d838361093b565b61091a6000848484610a1a565b6109365760405162461bcd60e51b81526004016103ae906115af565b505050565b6001600160a01b0382166109615760405162461bcd60e51b81526004016103ae906115f1565b61096a816108ba565b156109875760405162461bcd60e51b81526004016103ae90611634565b61099360008383610b27565b6001600160a01b03821660009081526003602052604081208054600192906109bc908490611548565b909155505060008181526002602052604080822080546001600160a01b0319166001600160a01b03861690811790915590518392907fddf252ad1be2c89b69c2b068fc378daa952ba7f163c4a11628f55a4df523b3ef908290a45050565b60006001600160a01b0384163b15610b1c57604051630a85bd0160e11b81526001600160a01b0385169063150b7a0290610a5e903390899088908890600401611644565b602060405180830381600087803b158015610a7857600080fd5b505af1925050508015610aa8575060408051601f3d908101601f19168201909252610aa591810190611693565b60015b610b02573d808015610ad6576040519150601f19603f3d011682016040523d82523d6000602084013e610adb565b606091505b508051610afa5760405162461bcd60e51b81526004016103ae906115af565b805181602001fd5b6001600160e01b031916630a85bd0160e11b14905061084b565b506001949350505050565b6001600160a01b038316610b8257610b7d81600880546000838152600960205260408120829055600182018355919091527ff3f7a9fe364faab93b216da50a3214154f22a0a2b415b23a84c8169e8b636ee30155565b610ba5565b816001600160a01b0316836001600160a01b031614610ba557610ba58382610bdf565b6001600160a01b038216610bbc5761093681610c7c565b826001600160a01b0316826001600160a01b031614610936576109368282610d2b565b60006001610bec84610463565b610bf6919061151d565b600083815260076020526040902054909150808214610c49576001600160a01b03841660009081526006602090815260408083208584528252808320548484528184208190558352600790915290208190555b5060009182526007602090815260408084208490556001600160a01b039094168352600681528383209183525290812055565b600854600090610c8e9060019061151d565b60008381526009602052604081205460088054939450909284908110610cb657610cb66112f7565b906000526020600020015490508060088381548110610cd757610cd76112f7565b6000918252602080832090910192909255828152600990915260408082208490558582528120556008805480610d0f57610d0f6116b4565b6001900381819060005260206000200160009055905550505050565b6000610d3683610463565b6001600160a01b039093166000908152600660209081526040808320868452825280832085905593825260079052919091209190915550565b6001600160e01b031981165b811461074b57600080fd5b80356102b981610d6f565b600060208284031215610da657610da6600080fd5b600061084b8484610d86565b8015155b82525050565b602081016102b98284610db2565b60005b83811015610de5578181015183820152602001610dcd565b838111156106105750506000910152565b601f01601f191690565b6000610e0a825190565b808452602084019350610e21818560208601610dca565b610e2a81610df6565b9093019392505050565b602080825281016106838184610e00565b80610d7b565b80356102b981610e45565b600060208284031215610e6b57610e6b600080fd5b600061084b8484610e4b565b60006001600160a01b0382166102b9565b610db681610e77565b602081016102b98284610e88565b610d7b81610e77565b80356102b981610e9f565b60008060408385031215610ec957610ec9600080fd5b6000610ed58585610ea8565b9250506020610ee685828601610e4b565b9150509250929050565b80610db6565b602081016102b98284610ef0565b600080600060608486031215610f1c57610f1c600080fd5b6000610f288686610ea8565b9350506020610f3986828701610ea8565b9250506040610f4a86828701610e4b565b9150509250925092565b600060208284031215610f6957610f69600080fd5b600061084b8484610ea8565b801515610d7b565b80356102b981610f75565b60008060408385031215610f9e57610f9e600080fd5b6000610faa8585610ea8565b9250506020610ee685828601610f7d565b634e487b7160e01b600052604160045260246000fd5b610fda82610df6565b81018181106001600160401b0382111715610ff757610ff7610fbb565b6040525050565b600061100960405190565b90506110158282610fd1565b919050565b60006001600160401b0382111561103357611033610fbb565b61103c82610df6565b60200192915050565b82818337506000910152565b600061106461105f8461101a565b610ffe565b90508281526020810184848401111561107f5761107f600080fd5b610898848285611045565b600082601f83011261109e5761109e600080fd5b813561084b848260208601611051565b600080600080608085870312156110c7576110c7600080fd5b60006110d38787610ea8565b94505060206110e487828801610ea8565b93505060406110f587828801610e4b565b92505060608501356001600160401b0381111561111457611114600080fd5b6111208782880161108a565b91505092959194509250565b60008083601f84011261114157611141600080fd5b5081356001600160401b0381111561115b5761115b600080fd5b60208301915083602082028301111561117657611176600080fd5b9250929050565b60008060006040848603121561119557611195600080fd5b83356001600160401b038111156111ae576111ae600080fd5b6111ba8682870161112c565b93509350506020610f4a86828701610ea8565b600080604083850312156111e3576111e3600080fd5b60006111ef8585610ea8565b9250506020610ee685828601610ea8565b634e487b7160e01b600052602260045260246000fd5b60028104600182168061122a57607f821691505b6020821081141561123d5761123d611200565b50919050565b602b81526000602082017f455243373231456e756d657261626c653a206f776e657220696e646578206f7581526a74206f6620626f756e647360a81b602082015291505b5060400190565b602080825281016102b981611243565b602c81526000602082017f455243373231456e756d657261626c653a20676c6f62616c20696e646578206f81526b7574206f6620626f756e647360a01b60208201529150611287565b602080825281016102b98161129e565b634e487b7160e01b600052603260045260246000fd5b6018815260006020820177115490cdcc8c4e881a5b9d985b1a59081d1bdad95b88125160421b815291505b5060200190565b602080825281016102b98161130d565b602981526000602082017f4552433732313a2061646472657373207a65726f206973206e6f7420612076618152683634b21037bbb732b960b91b60208201529150611287565b602080825281016102b98161134f565b80516102b981610e45565b6000602082840312156113c5576113c5600080fd5b600061084b84846113a5565b60178152600060208201761059191c995cdcc8185b1c9958591e4818db185a5b5959604a1b81529150611338565b602080825281016102b9816113d1565b60006102b98260601b90565b60006102b98261140f565b610db661143282610e77565b61141b565b60006114438284611426565b50601401919050565b6015815260006020820174496e76616c6964204d65726b6c652050726f6f662160581b81529150611338565b602080825281016102b98161144c565b6000611492825190565b6114a0818560208601610dca565b9290920192915050565b60006114b68285611488565b915061084b8284611488565b634e487b7160e01b600052601160045260246000fd5b60006000198214156114ec576114ec6114c2565b5060010190565b634e487b7160e01b600052601260045260246000fd5b600082611518576115186114f3565b500490565b60008282101561152f5761152f6114c2565b500390565b600082611543576115436114f3565b500690565b6000821982111561155b5761155b6114c2565b500190565b603281526000602082017f4552433732313a207472616e7366657220746f206e6f6e20455243373231526581527131b2b4bb32b91034b6b83632b6b2b73a32b960711b60208201529150611287565b602080825281016102b981611560565b60208082527f4552433732313a206d696e7420746f20746865207a65726f206164647265737391019081526000611338565b602080825281016102b9816115bf565b601c81526000602082017b115490cdcc8c4e881d1bdad95b88185b1c9958591e481b5a5b9d195960221b81529150611338565b602080825281016102b981611601565b608081016116528287610e88565b61165f6020830186610e88565b61166c6040830185610ef0565b818103606083015261167e8184610e00565b9695505050505050565b80516102b981610d6f565b6000602082840312156116a8576116a8600080fd5b600061084b8484611688565b634e487b7160e01b600052603160045260246000fdfea26469706673582212201fd72ea08071b1b3d032aff17ac814304947c3af62acc638314aa94cf912b74b64736f6c63430008090033",
  "linkReferences": {},
  "deployedLinkReferences": {}
}