{
  "_format": "hh-sol-artifact-1",
  "contractName": "SVG3",
  "sourceName": "contracts/svg/SVG3.sol",
  "abi": [
    {
      "inputs": [],
      "name": "getSvgPart3",
      "outputs": [
        {
          "internalType": "string",
          "name": "",
          "type": "string"
        }
      ],
      "stateMutability": "pure",
      "type": "function"
    }
  ],
  "bytecode": "0x608060405234801561001057600080fd5b506133c4806100206000396000f3fe608060405234801561001057600080fd5b506004361061002b5760003560e01c80633ec205a314610030575b600080fd5b61003861004e565b60405161004591906100d5565b60405180910390f35b606060405160200161005f90610b75565b604051602081830303815290604052905090565b60005b8381101561008e578181015183820152602001610076565b8381111561009d576000848401525b50505050565b60006100ad825190565b8084526020840193506100c4818560208601610073565b601f01601f19169290920192915050565b602080825281016100e681846100a3565b9392505050565b7f3c6c696e6520636c6173733d22636c732d38222078313d2236352e342220793181527f3d22313439362e3436222078323d223135372e34222079323d22313439362e346020820152631b11179f60e11b604082015260005b5060440190565b7f3c6c696e6520636c6173733d22636c732d36222078313d22313339362e36392281527f2079313d223137332e3837222078323d22313339362e3639222079323d2231346020820152671b1c171c1991179f60c11b604082015260005b5060480190565b7f3c6c696e6520636c6173733d22636c732d39222078313d22313337342e39392281527f2079313d223132312e3133222078323d22313337342e3939222079323d2231346020820152671b1c171c1991179f60c11b604082015260006101aa565b7f3c7265637420636c6173733d22636c732d32392220783d2231352e323922207981527f3d223134362e3232222077696474683d2231342e323722206865696768743d226020820152691899989897199911179f60b11b604082015260005b50604a0190565b7f3c7265637420636c6173733d22636c732d32392220783d223130392e3739222081527f793d2236392e3236222077696474683d22313231382e303322206865696768746020820152691e91189c971a9a91179f60b11b60408201526000610271565b621e339f60e91b815260030190565b60008051602061330f83398151915281527f79313d2232312e3935222078323d22313237372e3139222079323d2232312e396020820152631a91179f60e11b60408201526000610146565b7f3c6c696e6520636c6173733d22636c732d33222078313d22313234372e31382281527f2079313d2232322e3634222078323d22313236362e3934222079323d2232322e6020820152641b1a11179f60d91b604082015260005b5060450190565b7f3c6c696e6520636c6173733d22636c732d33222078313d22313234342e32322281527f2079313d2232382e3332222078323d22313236332e3938222079323d2232382e602082015264199911179f60d91b6040820152600061038f565b7f3c6c696e6520636c6173733d22636c732d33222078313d22313234352e33332281527f2079313d2233332e3837222078323d22313236352e3038222079323d2233332e6020820152641c1b91179f60d91b6040820152600061038f565b7f3c6c696e6520636c6173733d22636c732d3132222078313d22313234372e303681527f222079313d2233392e3632222078323d22313236362e3832222079323d223339602082015265171b1911179f60d11b604082015260005b5060460190565b7f3c6c696e6520636c6173733d22636c732d37222078313d22313234332e33392281527f2079313d2234352e3036222078323d22313236332e3135222079323d2234352e602082015264181b11179f60d91b6040820152600061038f565b7f3c6c696e6520636c6173733d22636c732d3131222078313d22313234312e363181527f222079313d2235302e3634222078323d22313236312e3337222079323d223530602082015265171b1a11179f60d11b604082015260006104ad565b7f3c6c696e6520636c6173733d22636c732d3131222078313d22313234332e392281527f2079313d2235372e3038222078323d22313236332e3636222079323d2235372e602082015264181c11179f60d91b6040820152600061038f565b60008051602061330f83398151915281527f79313d2232372e36222078323d22313237372e3139222079323d2232372e3622602082015261179f60f11b604082015260005b5060420190565b7f3c6c696e6520636c6173733d22636c732d3133222078313d223839362e35352281527f2079313d2233332e3235222078323d22313237372e3139222079323d2233332e602082015264191a91179f60d91b6040820152600061038f565b7f3c6c696e6520636c6173733d22636c732d3134222078313d223839362e35352281527f2079313d2233382e3839222078323d22313237372e3139222079323d2233382e6020820152641c1c91179f60d91b6040820152600061038f565b7f3c6c696e6520636c6173733d22636c732d3132222078313d223839362e35352281527f2079313d2234342e3534222078323d22313237372e3139222079323d2234342e6020820152641a9a11179f60d91b6040820152600061038f565b7f3c6c696e6520636c6173733d22636c732d3135222078313d223839362e35352281527f2079313d2235302e3139222078323d22313237372e3139222079323d2235302e602082015264189c91179f60d91b6040820152600061038f565b631e17b39f60e11b815260040190565b60008051602061336f83398151915281527f79313d22313530302e3232222078323d22313335372e3236222079323d223135602082015267181817191911179f60c11b604082015260006101aa565b7f3c6c696e6520636c6173733d22636c732d36222078313d2234302e363922207981527f313d223137332e3837222078323d2234302e3639222079323d22313436382e386020820152631991179f60e11b60408201526000610146565b7f3c6c696e6520636c6173733d22636c732d33222078313d2237392e313922207981527f313d22313530342e37222078323d22313335372e3236222079323d2231353034602082015264171b91179f60d91b6040820152600061038f565b7f3c6c696e6520636c6173733d22636c732d3133222078313d2237392e3139222081527f79313d22313530392e3137222078323d22313335372e3236222079323d223135602082015267181c97189b91179f60c11b604082015260006101aa565b7f3c6c696e6520636c6173733d22636c732d3134222078313d2237392e3139222081527f79313d22313531332e3635222078323d22313335372e3236222079323d2231356020820152671899971b1a91179f60c11b604082015260006101aa565b7f3c6c696e6520636c6173733d22636c732d3132222078313d2237392e3139222081527f79313d22313531382e3132222078323d22313335372e3236222079323d223135602082015267189c17189911179f60c11b604082015260006101aa565b60008051602061336f83398151915281527f79313d22313532322e36222078323d22313335372e3236222079323d2231353260208201526519171b11179f60d11b604082015260006104ad565b60008051602061332f83398151915281527f34312e3432632d322e372c302d342e392d322e322d342e392d342e3973322e3260208201527f2d342e392c342e392d342e392c342e392c322e322c342e392c342e392d322e3260408201526f161a171c969a171c961a171cad11179f60811b606082015260005b5060700190565b60008051602061334f83398151915281527f33372e3137632d2e33362c302d2e36352d2e32392d2e36352d2e3636732e323960208201527f2d2e36352c2e36352d2e36352c2e36352c2e32392c2e36352c2e36352d2e323960408201526f16171b1b16971b1a96171b1b2d11179f60811b60608201526000610a96565b7f3c6c696e6520636c6173733d22636c732d32222078313d223830382e3038222081527f79313d2233362e3531222078323d223835382e39222079323d2233362e353122602082015261179f60f11b60408201526000610614565b6000610b80826100ed565b9150610b8b8261014d565b9150610b96826101b1565b7f3c7061746820636c6173733d22636c732d352220643d224d313236392e30312c81527f38362e3438732d352e33382c31312e39332c352e32362c31392e3137632e303960208201527f2c2e30362c2e31382c2e31332c2e32352c2e32312c312e32332c312e32342c3160408201527f322e30372c31322e31352c31332e35382c31332e36372c2e31322c2e31332c2e60608201527f32362c2e32332c2e34322c2e33312c312e35322c2e38332c31302e31372c342e60808201527f392c32342e33352d312e34342c2e37322d2e33322c312e35372d2e31392c322e60a08201527f31342c2e33366c332e34352c332e3332632e38312c2e37382c312e30372c312e60c08201527f39362c2e36352c332d312e38372c342e36382d342e38312c31392e35372c312c60e08201527f32372e31392c2e30372c2e30392c2e31352c2e31382c2e32332c2e32362c362e6101008201527f31352c352e39372c362e392c362e32312c372e35392c362e372c2e31362c2e316101208201527f312c2e332c2e32342c2e34312c2e342c322e382c332e37322c362e36312c362e6101408201527f39342c31312e30362c382e34352c372e392c322e36392c32302e34382d322e376101608201527f372c31392e32322d31322e352d2e34382d332e37332d342e34392d362e36322d6101808201527f362e392d392e31332d312e382d312e38372d342e37352d2e38382d362e38312c6101a08201527f2e37732d322e36332c342e39382d2e38332c362e3834632d312e37362c2e30386101c08201527f2d332e34342d312e30332d342e33372d322e3533732d312e31392d332e33342d6101e08201527f312e30382d352e31632e34322d362e34382c352e35392d31312e38332c31312e6102008201527f34372d31342e35362c352e30382d322e33362c31302e38362d332e31392c31366102208201527f2e33392d322e33352c322e33362c2e33362c342e382c312e30382c362e34342c6102408201527f322e38312c312e33362c312e34332c322e30322c332e33392c322e33352c352e6102608201527f33332c2e33362c322e30372c2e33392c342e322c2e312c362e32382d2e32392c6102808201527f322e30382d2e392c342e32362d2e31352c362e32322c2e31322c2e33312c2e326102a08201527f372c2e36322c2e32392c2e39352c2e30322c2e34352d2e322c2e38372d2e33396102c08201527f2c312e32372d322e35312c352e32332d2e36332c31322e31372c342e31372c316102e08201527f352e34332d312e36382c312e30382d332e33322c322e34392d332e38312c342e6103008201527f34322d2e33362c312e34362c302c332e30312c2e35342c342e34312c312e39386103208201527f2c352e31342c362e35362c392e332c31312e39362c31302e33382c352e342c316103408201527f2e30382c31312e34322d312e31342c31342e35322d352e36392c312e34332c316103608201527917189a961997199b1618971b1a961a97189b161897199a11179f60311b6103808201527f3c7061746820636c6173733d22636c732d352220643d224d3136392e36322c3861039a8201527f362e383773352e33382c31312e39332d352e32362c31392e3137632d2e30392c6103ba8201527f2e30362d2e31382c2e31332d2e32352c2e32312d312e32332c312e32342d31326103da8201527f2e30372c31322e31352d31332e35382c31332e36372d2e31322c2e31332d2e326103fa8201527f362c2e32332d2e34322c2e33312d312e35322c2e38332d31302e31372c342e3961041a8201527f2d32342e33352d312e34342d2e37322d2e33322d312e35372d2e31392d322e3161043a8201527f342c2e33366c2d332e34352c332e3332632d2e38312c2e37382d312e30372c3161045a8201527f2e39362d2e36352c332c312e38372c342e36382c342e38312c31392e35372d3161047a8201527f2c32372e31392d2e30372c2e30392d2e31352c2e31382d2e32332c2e32362d3661049a8201527f2e31352c352e39372d362e392c362e32312d372e35392c362e372d2e31362c2e6104ba8201527f31312d2e332c2e32342d2e34312c2e342d322e382c332e37322d362e36312c366104da8201527f2e39342d31312e30362c382e34352d372e392c322e36392d32302e34382d322e6104fa8201527f37372d31392e32322d31322e352c2e34382d332e37332c342e34392d362e363261051a8201527f2c362e392d392e31332c312e382d312e38372c342e37352d2e38382c362e383161053a8201527f2c2e3773322e36332c342e39382c2e38332c362e383463312e37362c2e30382c61055a8201527f332e34342d312e30332c342e33372d322e353373312e31392d332e33342c312e61057a8201527f30382d352e31632d2e34322d362e34382d352e35392d31312e38332d31312e3461059a8201527f372d31342e35362d352e30382d322e33362d31302e39382d342e39312d31362e6105ba8201527f35322d342e30372d322e33362c2e33362d352e32352c312e33352d362e392c336105da8201527f2e30382d312e33362c312e34332d322e36382c332e39372d332e30312c352e396105fa8201527f312d2e33362c322e30372c2e38352c352e30372c312e31342c372e31352c2e3261061a8201527f392c322e30382c2e392c342e32362c2e31352c362e32322d2e31322c2e33312d61063a8201527f2e32372c2e36322d2e32392c2e39352d2e30322c2e34352c2e322c2e38372c2e61065a8201527f33392c312e32372c322e35312c352e32332c2e36332c31322e31372d342e313761067a8201527f2c31352e34332c312e36382c312e30382c332e33322c322e34392c332e38312c61069a8201527f342e34322c2e33362c312e34362c302c332e30312d2e35342c342e34312d312e6106ba8201527f39382c352e31342d362e35362c392e332d31312e39362c31302e3338732d31316106da8201527f2e34322d312e31342d31342e35322d352e3639632d312e34332c312e31352d336106fa8201527f2e33362c312e36352d352e31362c312e33342c302c302d322e32352c2e37332d61071a82015267199697199891179f60c11b61073a82015261074201915061147f82610212565b7f3c7265637420636c6173733d22636c732d32392220783d22313430372e32372281527f20793d223134362e3232222077696474683d2231342e3237222068656967687460208201526b1e911899989897199911179f60a11b6040820152604c0191506114eb82610278565b91506114f6826102db565b7f3c7061746820636c6173733d22636c732d32392220643d224d313330332e373381527f2c31372e375635352e3333682d3430362e33395631372e37683430362e33396d60208201527f322d32682d3431302e33395635372e3333683431302e33395631352e3768305a60408201526211179f60e91b60608201527f3c7061746820636c6173733d22636c732d32392220643d224d313331312e303260638201527f2c31322e31355636302e3838682d3431392e34315631322e3135683431392e3460838201527f316d332d33682d3432352e34315636332e3838683432352e343156392e31356860a382015264182d11179f60d91b60c382015260c80191506115ff826102ea565b915061160a82610335565b915061161582610396565b9150611620826103f4565b915061162b82610452565b9150611636826104b4565b915061164182610512565b915061164c82610571565b9150611657826105cf565b91506116628261061b565b915061166d82610679565b9150611678826106d7565b915061168382610735565b915061168e82610793565b9150611699826107a3565b91506116a4826107f2565b91506116af8261084f565b91506116ba826108ad565b91506116c58261090e565b91506116d08261096f565b91506116db826109d0565b7f3c7061746820636c6173733d22636c732d352220643d224d313432382e362c3181527f34392e393956313530322e353463302c31332e37372d31312e31362c32342e3960208201527f342d32342e39342c32342e39344833332e35632d31332e37372c302d32342e3960408201527f342d31312e31362d32342e39342d32342e3934563135302e3239222f3e0000006060820152607d01915061177e826102db565b7f3c7265637420636c6173733d22636c732d32392220783d223535362e3834222081527f793d2231302e3635222077696474683d223332332e343922206865696768743d602082015268111a98971b9991179f60b91b60408201527f3c7061746820636c6173733d22636c732d32392220643d224d3837382e38332c60498201527f31322e31355636302e3838682d3332302e34395631322e3135683332302e343960698201527f6d332d33682d3332362e34395636332e3838683332362e343956392e313568306089820152632d11179f60e11b60a982015260ad01915061186682610793565b9150611871826102db565b7f3c7061746820636c6173733d22636c732d32302220643d224d3635392e32322c81527f34392e3736632d2e30322c2e31312d2e30332c2e32332d2e30322c2e33352c2e60208201527f30362c2e34382c2e34352c2e38362c2e38382c312e31312c312e38372c312e3060408201527f382c332e39322c312e35392c362e30352c312e38342c352e39352c2e372c313160608201527f2e39342c312e33372c31372e39352c312e327331312e37372d312e36372c313760808201527f2e36352d322e3733632e36372d2e31322c312e34382d2e31382c312e39312c2e60a08201527f33352c2e31382c2e32332c2e32352c2e35332c2e32392c2e38322c2e33332c3260c08201527f2e36312d312e35332c352e312d332e38352c362e33332d332e30392c312e363460e08201527f2d362e39362c312e37342d31302e33392c312e36372d342e30332d2e30382d386101008201527f2e30342d2e36312d31322e30352d312e30362d342e32382d2e34382d382e35356101208201527f2d2e35372d31322e37342d312e37342d322e37382d2e37372d352e34372d312e6101408201527f38352d382e30312d332e32332d322e35362d312e33382d342e36342d332e34336101608201527f2d372e32332d342e37322d322e38322d312e342d352e37312d312e39332d382e6101808201527f322d342e30342d332e342d322e38392d352e35342d372d362e31312d31312e346101a08201527f312d2e37382d352e39362c2e32372d31312e35352c342e32382d31362e32352c6101c08201527f332e36382d342e33312c382e35362d352e39392c31342e312d352e39312c392e6101e08201527f30312c2e31322c31362e33372c362e34382c31372e39322c31352e34362c2e376102008201527f382c342e35312c2e31352c392e34312d322e30312c31332e34372d312e30372c6102208201527f322e30312d322e35352c332e38322d342e34312c352e31352d2e39352c2e36386102408201527f2d322c312e32332d332e312c312e36332d2e39372c2e33352d322e36342c2e346102608201527f392d322e39312c312e37335a6d2d31332e38372d32372e34632e31322c312e366102808201527f342c2e31332c322e37372c2e332c332e38372c2e36332c342e32332c312e382c6102a08201527f382e332c332e36372c31322e31372c312e30382c322e32332c322e33322c342e6102c08201527f33362c342e31382c362e30362c2e38372c2e37392c312e38332c312e34312c336102e08201527f2e30342c312e34362c322e34352c2e30392c332e39392d312e34322c342e332d6103008201527f342e30382c2e33322d322e36392d2e31312d352e33312d2e37322d372e39312d6103208201527f312e312d342e36392d322e37312d392e31382d352e33362d31332e32342d2e396103408201527f312d312e342d312e39342d322e372d332e34332d332e35332d322e30372d312e6103608201527f31352d342e35362d2e332d352e33332c312e39332d2e34312c312e31392d2e3561038082015271189619171a96971b1a961997191bad11179f60711b6103a08201527f3c7061746820636c6173733d22636c732d32302220643d224d3637362e36362c6103b28201527f32372e3739632e37382c342e35312c2e31352c392e34312d322e30312c31332e6103d28201527f34372d2e352c2e39342d312e30392c312e38332d312e37362c322e36352c2e396103f28201527f372c322e39382c332c352e30352c362e322c352e39322c332e36382c312c372e6104128201527f31382c2e372c31302e31372d322e32382c2e33362c312e35322c312e34322c326104328201527f2e32392c322e37382c322e33362c322e30362c2e31322c342e31342c2e30312c6104528201527f362e32312d2e30382c2e35332d2e30322c312e30392d2e32372c312e35362d2e6104728201527f35352c2e37392d2e34382c2e38362d312e382c2e30382d322e322d312e33382d6104928201527f2e36392d312e35362d312e38362d312e35362d332e31372c302d352e38372c306104b28201527f2d31312e37342c302d31372e36312c302d312e34392d2e34342d312e39392d316104d28201527f2e392d312e38332d332e31352c2e33352d362e32392c2e37392d392e34342c316104f28201527f2e32322d2e37352c2e312d312e32382c2e362d312e31322c312e33392c2e31326105128201527f2c2e362c2e34332c312e31392c2e37382c312e372c2e36362c2e39332c312e326105328201527f372c312e38332c312e32362c332e30342d2e30332c332e37312c302c372e34316105528201527f2d2e30362c31312e31322d2e30312c2e37322d2e32392c312e34382d2e362c326105728201527f2e31352d2e35312c312e31322d312e33312c312e352d322e34352c312e33352d6105928201527f312e30392d2e31342d312e36332d2e392d312e37392d312e38362d2e31392d316105b28201527f2e312d2e32392d322e32332d2e32382d332e33342c2e30342d352e30352c2e316105d28201527f332d31302e31312c2e322d31352e31362c2e30312d312e30382d2e33342d312e6105f28201527f35332d312e34312d312e35372d2e39352d2e30332d312e392c2e30372d322e386106128201527f352c2e31392d2e392c2e31312d312e37392c2e32332d322e36392c2e33352c2e6106328201527b191c96171c1c16171a991618971b9c96171b1c1619171b99ad11179f60211b61065282015261066e019150612055826102db565b7f3c7061746820636c6173733d22636c732d32302220643d224d3730392e33312c81527f32312e3834632d312e33322c2e36332d322e36342c2e39322d332e39362c2e3760208201527f312d322e38352d2e34352d332e38342d332e32352d312e39312d352e35352c3160408201527f2e34392d312e37382c332e352d322e37322c352e38322d322e382c312e38372d60608201527f2e30362c332e31392c2e38392c332e36312c322e34352c2e33362c312e33342d60808201527f2e35312c332e31352d322e30382c342e32382d2e34362c2e33332d2e39382c2e60a08201526c1b1698971a1b96171cad11179f60991b60c08201527f3c7061746820636c6173733d22636c732d32302220643d224d3731352e30322c60cd8201527f34372e3534632d2e31392d2e33342d2e34342d2e36362d2e372d2e39342d312e60ed8201527f30332d312e312d312e34382d322e33372d312e34332d332e392c2e30382d322e61010d8201527f36342c2e30322d352e32382c2e30322d372e39312c302d322e39372c302d352e61012d8201527f39352c302d382e39322c302d312e32352d2e38392d312e38392d322e30372d3161014d8201527f2e35322d2e33322c2e312d2e36322c2e32342d2e39332c2e33392d322e32322c61016d8201527f312e30392d342e34312c322e32312d362e36342c332e32372c302c352e332c3061018d8201527f2c31302e362c302c31352e392c302c312e33312c2e31372c322e34382c312e356101ad8201527f362c332e31372c2e37392c2e33392c312e30372c312e37322c2e32382c322e326101cd8201527f2d2e37322c2e34322c2e30392c2e35312c2e30392c2e35312c312e332c302c316101ed8201527f2e36362c302c322e39362c302c2e32382c302c2e35372c302c2e38352c302c3161020d8201527f2e35372c302c332e31352c2e30312c342e37322c302c312e34372d2e30312c3261022d8201527317181996971c9b96189719969917191aad11179f60611b61024d82015261026101915061234b82610793565b7f3c7061746820636c6173733d22636c732d32302220643d224d3732372e34342c81527f34392e3831632e39312c302c312e34312d2e35342c312e31352d312e34322d2e60208201527f322d2e36392d2e36352d312e33352d312e31312d312e39332d2e37322d2e393160408201527f2d312e32342d312e38362d312e32332d332e30352c302d332e37312d2e30342d60608201527f372e34312c2e30332d31312e31322c2e30322d312e30342c2e32382d322e313160808201527f2c2e36332d332e312c2e332d2e38372c312e31312d312e31392c322e30352d3160a08201527f2e31362c2e38392c2e30332c312e35352c2e34312c312e38332c312e32332c2e60c08201527f332c2e38362c2e35392c312e37372c2e36362c322e36372c2e32382c332e363160e08201527f2c2e34322c372e32332c2e37322c31302e38332c2e31332c312e35352d2e32316101008201527f2c322e38362d312e31322c342e312d2e33342c2e34362d2e35372c312e30332d6101208201527f2e36382c312e35392d2e31362c2e382c2e332c312e33342c312e312c312e33346101408201527f2c332e39362c2e30322c372e39332c2e30312c31312e38392c302c2e37352c306101608201527f2c312e322d2e34362c312e30382d312e31392d2e31312d2e36372d2e34332d316101808201527f2e33312d2e36372d312e39352d2e33372d2e39362d2e39372d312e38382d312e6101a08201527f31312d322e38372d2e33312d322e32322d2e33332d342e34382d2e35372d362e6101c08201527f37312d2e32322d322d2e33372d342e30332d2e392d352e39352d2e39392d332e6101e08201527f36352d332e33372d362e30382d372e31392d362e37332d332e35382d2e362d366102008201527f2e38332c302d392e32372c332e32392d2e30342d2e38382c302d312e36322d2e6102208201527f31332d322e33322d2e31382d312e30382d2e39322d312e34342d312e39322d316102408201527f2e30322d2e34362c2e322d2e39312c2e34342d312e33362c2e36362d312e34316102608201527f2c2e37312d322e38332c312e342d342e32342c322e31312c302c322e35352c306102808201527f2c352e312c302c372e36352c302c322e36342c2e30362c352e32382d2e30322c6102a08201527f372e39312d2e30352c312e35332c2e342c322e382c312e34332c332e392c2e326102c08201527f372c2e32382c2e35312c2e362c2e372c2e39342c2e34382c2e38352c2e342c316102e08201527f2e35362d2e31342c312e39342d2e30372c2e30352d2e31342c2e30382d2e32316103008201527f2c2e31322d2e30362c2e30332d2e31362c2e30352d2e322c2e31312d2e30322c61032082015273171819169718191617181b16181617181c11179f60611b6103408201527f3c7061746820636c6173733d22636c732d32302220643d224d3736372e39342c6103548201527f32372e3932632d342e352d332e38342d31312e30382d342e37342d31362e35316103748201527f2d322e34352d312e34392c2e36332d322e39322c312e35332d342e31382c322e6103948201527f35342d2e38312c2e36352d312e35332c312e352d312e37342c322e35322d2e316103b48201527f372c2e38322c2e30332c312e362c2e32322c322e33392c2e31362c2e372c2e326103d48201527f2c312e34322c2e33322c322e31332c2e32312c312e332c2e33342c322e36332c6103f48201527f2e34322c332e39352c2e31362c322e35322c2e31322c352e31392c312e34332c6104148201527f372e34342c312e342c322e34322c342e36372c332e33312c372e32352c332e366104348201527f382c322e35352c2e33372c352e31362c2e30382c372e36312d2e36372c352e386104548201527f382d312e382c392e34322d362e35322c392e34322d31322e32312c302d332e366104748201527f382d312e35322d372e30322d342e32342d392e33345a6d2d382e33342c31392e6104948201527f3437632d2e39312c2e32332d312e37312d2e30342d322e33352d2e37362d312e6104b48201527f31312d312e32352d312e36382d322e37382d322e31322d342e33342d312e30356104d48201527f2d332e36382d312e36372d372e34332d312e35322d31312e32372c2e30332d2e6104f48201527f37382c2e31342d312e35372c2e33342d322e33312c2e34392d312e38322c322e6105148201527f32382d322e332c332e35332d2e38382c2e37352c2e38362c312e33352c312e396105348201527f332c312e37362c332e30312c312e32382c332e33382c322e30372c372e30312c6105548201527f322e31312c31302e36342c302c2e33342c2e30332c2e37372c2e30342c312e326105748201527f342c2e30342c312e38312d2e30352c342e32332d312e37382c342e36375a222f610594820152601f60f91b6105b48201527f3c7061746820636c6173733d22636c732d32302220643d224d3830302e38392c6105b58201527f34362e3638632d2e39392d312e32312d312e33382d322e35382d312e33342d346105d58201527f2e31342c2e30362d322e34342c2e30382d342e38392c302d372e33332d2e30396105f58201527f2d322e36322c2e30372d352e30372c322e31312d372e30382c2e38352d2e38346106158201527f2c2e32362d322e31382d2e39322d322e34362d2e35322d2e31322d312e30352d6106358201527f2e31392d312e35372d2e32352d322e30362d2e32362d342e31322d2e35342d366106558201527f2e31392d2e37362d312e30352d2e31312d312e39352c2e31382d322e32392c316106758201527f2e32342d2e39312d2e34322d312e37362d2e39352d322e36392d312e32312d346106958201527f2e342d312e322d382e33322d2e31362d31312e35382c322e39342d2e34342c2e6106b58201527f34312d312e372c312e34352d312e37352c322e30392d2e30312c2e31332c2e306106d58201527f332c2e32362c2e30372c2e33392c2e34312c312e30382c312e312c322e30332c6106f58201527f312e352c332e31332c2e34372c312e32382c2e37362c322e36332c2e37362c346107158201527f2c302c312e33392d2e32392c322e37372d2e37362c342e30382d2e32342c2e366107358201527f352d2e35322c312e32382d2e38332c312e392d2e32392c2e35372d312e312c316107558201527f2e332d2e37362c312e39392c2e312c2e322c2e32352c2e33362c2e34312c2e356107758201527f312c342e30372c342e31322c31302e33392c352e39342c31352e362c322e37386107958201527f2c2e31322c2e38332c312e30372c312e32382c312e39322c312e33312c312e316107b58201527f392c2e30342c322e342d2e30332c332e35392d2e30332c312e34322c302c322e6107d58201527f38352c302c342e32372d2e30322c312e30342d2e30312c312e35342d2e37322c6107f58201527f312e32342d312e37322d2e31352d2e34392d2e34342d2e39382d2e37372d312e6108158201527f33385a6d2d31312e33362d322e3331632d2e30342c312e32352d2e36392c332e6108358201527f33322d322e32392c332e31382d2e35372d2e30352d312e312d2e33382d312e346108558201527f392d2e38312d312e36322d312e37362d322e31312d342e34382d322e35362d366108758201527f2e37332d2e372d332e34372d312e32322d372e332d2e31372d31302e37362c2e6108958201527f36332d322e30372c322e37382d332e30312c342e35332d312e35312c312e34346108b58201527f2c312e32342c312e39312c322e39352c312e39382c342e37362c2e30382c312e6108d58201527f39392c2e30322c332e39392c2e30322c352e39382c302c312e39372c2e30352c6108f58201526f19971c9996971818961a971cad11179f60811b610915820152610925019150612e8a82610793565b9150612e95826102db565b7f3c636972636c6520636c6173733d22636c732d3230222063783d223537302e31815275111031bc9e91199b171a989110391e911a171c91179f60511b60208201527f3c7061746820636c6173733d22636c732d32302220643d224d3537302e312c3360368201527f322e313163322e34332c302c342e342c312e39372c342e342c342e34732d312e60568201527f39372c342e342d342e342c342e342d342e342d312e39372d342e342d342e342c60768201527f312e39372d342e342c342e342d342e346d302d31632d322e39382c302d352e3460968201527f2c322e34322d352e342c352e3473322e34322c352e342c352e342c352e342c3560b68201527f2e342d322e34322c352e342d352e342d322e34322d352e342d352e342d352e3460d68201526534182d11179f60d11b60f682015260fc019150612fd882610793565b9150612fe3826102db565b7f3c7061746820636c6173733d22636c732d32392220643d224d3537302e312c338082527f372e3137632d2e33362c302d2e36352d2e32392d2e36352d2e3636732e32392d60208301527f2e36352c2e36352d2e36352c2e36352c2e32392c2e36352c2e36352d2e32392c60408301526e171b1b16971b1a96171b1b2d11179f60891b6060830152606f8201527f342e3336632d312e31392c302d322e31352c2e39362d322e31352c322e313573608f8201527f2e39362c322e31352c322e31352c322e31352c322e31352d2e39362c322e313560af8201527f2d322e31352d2e39362d322e31352d322e31352d322e313568305a222f3e000060cf82015260ed0191506130f082610793565b91506130fb826102db565b915061310682610a1d565b60008051602061332f83398151915281527f33322e313163322e34332c302c342e342c312e39372c342e342c342e34732d3160208201527f2e39372c342e342d342e342c342e342d342e342d312e39372d342e342d342e3460408201527f2c312e39372d342e342c342e342d342e346d302d31632d322e39382c302d352e60608201527f342c322e34322d352e342c352e3473322e34322c352e342c352e342c352e342c60808201527f352e342d322e34322c352e342d352e342d322e34322d352e342d352e342d352e60a0820152661a34182d11179f60c91b60c082015260c70191506131f382610793565b91506131fe826102db565b915061320982610a9d565b60008051602061334f83398151915281527f33342e3336632d312e31392c302d322e31352c2e39362d322e31352c322e313560208201527f732e39362c322e31352c322e31352c322e31352c322e31352d2e39362c322e3160408201527f352d322e31352d2e39362d322e31352d322e31352d322e313568305a222f3e006060820152607f01915061329a82610793565b7f3c6c696e6520636c6173733d22636c732d32222078313d223537392e3934222081527f79313d2233362e3531222078323d223633302e3736222079323d2233362e353160208201526211179f60e91b604082015260430191506132fd82610b1a565b9150613308826102db565b9291505056fe3c6c696e6520636c6173733d22636c732d33222078313d223839362e353522203c7061746820636c6173733d22636c732d32302220643d224d3836382e33312c3c7061746820636c6173733d22636c732d32392220643d224d3836382e33312c3c6c696e6520636c6173733d22636c732d3135222078313d2237392e31392220a2646970667358221220cb581a50b80802fb84a2deb2099e26f10c215e5a9ceaded286f48b509c8d33c064736f6c63430008090033",
  "linkReferences": {},
  "deployedLinkReferences": {}
}