{
  "_format": "hh-sol-artifact-1",
  "contractName": "Vault",
  "sourceName": "contracts/core/Vault.sol",
  "abi": [
    {
      "inputs": [
        {
          "internalType": "string[]",
          "name": "params",
          "type": "string[]"
        },
        {
          "internalType": "contract IERC20Metadata",
          "name": "asset_",
          "type": "address"
        },
        {
          "internalType": "address",
          "name": "caller_",
          "type": "address"
        },
        {
          "internalType": "address",
          "name": "router_",
          "type": "address"
        },
        {
          "internalType": "address",
          "name": "protocolTreasury_",
          "type": "address"
        },
        {
          "internalType": "address",
          "name": "svgManager_",
          "type": "address"
        }
      ],
      "stateMutability": "nonpayable",
      "type": "constructor"
    },
    {
      "anonymous": false,
      "inputs": [
        {
          "indexed": true,
          "internalType": "address",
          "name": "owner",
          "type": "address"
        },
        {
          "indexed": true,
          "internalType": "address",
          "name": "spender",
          "type": "address"
        },
        {
          "indexed": false,
          "internalType": "uint256",
          "name": "value",
          "type": "uint256"
        }
      ],
      "name": "Approval",
      "type": "event"
    },
    {
      "anonymous": false,
      "inputs": [
        {
          "indexed": true,
          "internalType": "address",
          "name": "caller",
          "type": "address"
        },
        {
          "indexed": true,
          "internalType": "address",
          "name": "owner",
          "type": "address"
        },
        {
          "indexed": false,
          "internalType": "uint256",
          "name": "assets",
          "type": "uint256"
        },
        {
          "indexed": false,
          "internalType": "uint256",
          "name": "shares",
          "type": "uint256"
        }
      ],
      "name": "Deposit",
      "type": "event"
    },
    {
      "anonymous": false,
      "inputs": [
        {
          "indexed": false,
          "internalType": "address",
          "name": "user",
          "type": "address"
        },
        {
          "indexed": false,
          "internalType": "bool",
          "name": "isEmergency",
          "type": "bool"
        }
      ],
      "name": "EmergencyUpdated",
      "type": "event"
    },
    {
      "anonymous": false,
      "inputs": [
        {
          "indexed": true,
          "internalType": "address",
          "name": "user",
          "type": "address"
        },
        {
          "indexed": false,
          "internalType": "uint256",
          "name": "rvTokenAmount",
          "type": "uint256"
        }
      ],
      "name": "FeesClaimed",
      "type": "event"
    },
    {
      "anonymous": false,
      "inputs": [
        {
          "indexed": true,
          "internalType": "address",
          "name": "user",
          "type": "address"
        },
        {
          "indexed": false,
          "internalType": "contract Strategy",
          "name": "strategy",
          "type": "address"
        }
      ],
      "name": "Harvest",
      "type": "event"
    },
    {
      "anonymous": false,
      "inputs": [
        {
          "indexed": true,
          "internalType": "address",
          "name": "user",
          "type": "address"
        },
        {
          "indexed": false,
          "internalType": "uint256",
          "name": "newHarvestDelay",
          "type": "uint256"
        }
      ],
      "name": "HarvestDelayUpdated",
      "type": "event"
    },
    {
      "anonymous": false,
      "inputs": [
        {
          "indexed": true,
          "internalType": "address",
          "name": "user",
          "type": "address"
        },
        {
          "indexed": false,
          "internalType": "uint256",
          "name": "newNextHarvestDelay",
          "type": "uint256"
        }
      ],
      "name": "NextHarvestDelayUpdated",
      "type": "event"
    },
    {
      "anonymous": false,
      "inputs": [
        {
          "indexed": true,
          "internalType": "address",
          "name": "user",
          "type": "address"
        },
        {
          "indexed": false,
          "internalType": "uint256",
          "name": "newPerformanceFeePercent",
          "type": "uint256"
        }
      ],
      "name": "PerformanceFeePercentUpdated",
      "type": "event"
    },
    {
      "anonymous": false,
      "inputs": [
        {
          "indexed": true,
          "internalType": "bytes32",
          "name": "role",
          "type": "bytes32"
        },
        {
          "indexed": true,
          "internalType": "bytes32",
          "name": "previousAdminRole",
          "type": "bytes32"
        },
        {
          "indexed": true,
          "internalType": "bytes32",
          "name": "newAdminRole",
          "type": "bytes32"
        }
      ],
      "name": "RoleAdminChanged",
      "type": "event"
    },
    {
      "anonymous": false,
      "inputs": [
        {
          "indexed": true,
          "internalType": "bytes32",
          "name": "role",
          "type": "bytes32"
        },
        {
          "indexed": true,
          "internalType": "address",
          "name": "account",
          "type": "address"
        },
        {
          "indexed": true,
          "internalType": "address",
          "name": "sender",
          "type": "address"
        }
      ],
      "name": "RoleGranted",
      "type": "event"
    },
    {
      "anonymous": false,
      "inputs": [
        {
          "indexed": true,
          "internalType": "bytes32",
          "name": "role",
          "type": "bytes32"
        },
        {
          "indexed": true,
          "internalType": "address",
          "name": "account",
          "type": "address"
        },
        {
          "indexed": true,
          "internalType": "address",
          "name": "sender",
          "type": "address"
        }
      ],
      "name": "RoleRevoked",
      "type": "event"
    },
    {
      "anonymous": false,
      "inputs": [
        {
          "indexed": true,
          "internalType": "address",
          "name": "user",
          "type": "address"
        },
        {
          "indexed": true,
          "internalType": "contract Strategy",
          "name": "strategy",
          "type": "address"
        },
        {
          "indexed": false,
          "internalType": "uint256",
          "name": "assetAmount",
          "type": "uint256"
        }
      ],
      "name": "StrategyDeposit",
      "type": "event"
    },
    {
      "anonymous": false,
      "inputs": [
        {
          "indexed": true,
          "internalType": "address",
          "name": "user",
          "type": "address"
        },
        {
          "indexed": false,
          "internalType": "contract Strategy",
          "name": "newStrategy",
          "type": "address"
        }
      ],
      "name": "StrategyUpdated",
      "type": "event"
    },
    {
      "anonymous": false,
      "inputs": [
        {
          "indexed": true,
          "internalType": "address",
          "name": "user",
          "type": "address"
        },
        {
          "indexed": true,
          "internalType": "contract Strategy",
          "name": "strategy",
          "type": "address"
        },
        {
          "indexed": false,
          "internalType": "uint256",
          "name": "assetAmount",
          "type": "uint256"
        }
      ],
      "name": "StrategyWithdrawal",
      "type": "event"
    },
    {
      "anonymous": false,
      "inputs": [
        {
          "indexed": true,
          "internalType": "address",
          "name": "from",
          "type": "address"
        },
        {
          "indexed": true,
          "internalType": "address",
          "name": "to",
          "type": "address"
        },
        {
          "indexed": false,
          "internalType": "uint256",
          "name": "value",
          "type": "uint256"
        }
      ],
      "name": "Transfer",
      "type": "event"
    },
    {
      "anonymous": false,
      "inputs": [
        {
          "indexed": true,
          "internalType": "address",
          "name": "caller",
          "type": "address"
        },
        {
          "indexed": false,
          "internalType": "address",
          "name": "receiver",
          "type": "address"
        },
        {
          "indexed": false,
          "internalType": "address",
          "name": "owner",
          "type": "address"
        },
        {
          "indexed": false,
          "internalType": "uint256",
          "name": "assets",
          "type": "uint256"
        },
        {
          "indexed": false,
          "internalType": "uint256",
          "name": "shares",
          "type": "uint256"
        }
      ],
      "name": "Withdraw",
      "type": "event"
    },
    {
      "anonymous": false,
      "inputs": [
        {
          "indexed": true,
          "internalType": "address",
          "name": "user",
          "type": "address"
        },
        {
          "indexed": false,
          "internalType": "uint256",
          "name": "newTargetFloatPercent",
          "type": "uint256"
        }
      ],
      "name": "targetFloatPercentUpdated",
      "type": "event"
    },
    {
      "inputs": [],
      "name": "DAC_ROLE",
      "outputs": [
        {
          "internalType": "bytes32",
          "name": "",
          "type": "bytes32"
        }
      ],
      "stateMutability": "view",
      "type": "function"
    },
    {
      "inputs": [],
      "name": "DEFAULT_ADMIN_ROLE",
      "outputs": [
        {
          "internalType": "bytes32",
          "name": "",
          "type": "bytes32"
        }
      ],
      "stateMutability": "view",
      "type": "function"
    },
    {
      "inputs": [],
      "name": "ROUTER_ROLE",
      "outputs": [
        {
          "internalType": "bytes32",
          "name": "",
          "type": "bytes32"
        }
      ],
      "stateMutability": "view",
      "type": "function"
    },
    {
      "inputs": [],
      "name": "_dacName",
      "outputs": [
        {
          "internalType": "string",
          "name": "",
          "type": "string"
        }
      ],
      "stateMutability": "view",
      "type": "function"
    },
    {
      "inputs": [],
      "name": "_sinceDate",
      "outputs": [
        {
          "internalType": "uint256",
          "name": "",
          "type": "uint256"
        }
      ],
      "stateMutability": "view",
      "type": "function"
    },
    {
      "inputs": [
        {
          "internalType": "address",
          "name": "owner",
          "type": "address"
        },
        {
          "internalType": "address",
          "name": "spender",
          "type": "address"
        }
      ],
      "name": "allowance",
      "outputs": [
        {
          "internalType": "uint256",
          "name": "",
          "type": "uint256"
        }
      ],
      "stateMutability": "view",
      "type": "function"
    },
    {
      "inputs": [
        {
          "internalType": "address",
          "name": "spender",
          "type": "address"
        },
        {
          "internalType": "uint256",
          "name": "amount",
          "type": "uint256"
        }
      ],
      "name": "approve",
      "outputs": [
        {
          "internalType": "bool",
          "name": "",
          "type": "bool"
        }
      ],
      "stateMutability": "nonpayable",
      "type": "function"
    },
    {
      "inputs": [],
      "name": "asset",
      "outputs": [
        {
          "internalType": "address",
          "name": "",
          "type": "address"
        }
      ],
      "stateMutability": "view",
      "type": "function"
    },
    {
      "inputs": [
        {
          "internalType": "address",
          "name": "account",
          "type": "address"
        }
      ],
      "name": "balanceOf",
      "outputs": [
        {
          "internalType": "uint256",
          "name": "",
          "type": "uint256"
        }
      ],
      "stateMutability": "view",
      "type": "function"
    },
    {
      "inputs": [],
      "name": "calculateLockedProfit",
      "outputs": [
        {
          "internalType": "uint256",
          "name": "",
          "type": "uint256"
        }
      ],
      "stateMutability": "view",
      "type": "function"
    },
    {
      "inputs": [
        {
          "internalType": "uint256",
          "name": "qvTokenAmount",
          "type": "uint256"
        }
      ],
      "name": "claimFees",
      "outputs": [],
      "stateMutability": "nonpayable",
      "type": "function"
    },
    {
      "inputs": [
        {
          "internalType": "uint256",
          "name": "shares",
          "type": "uint256"
        }
      ],
      "name": "convertToAssets",
      "outputs": [
        {
          "internalType": "uint256",
          "name": "assets",
          "type": "uint256"
        }
      ],
      "stateMutability": "view",
      "type": "function"
    },
    {
      "inputs": [
        {
          "internalType": "uint256",
          "name": "assets",
          "type": "uint256"
        }
      ],
      "name": "convertToShares",
      "outputs": [
        {
          "internalType": "uint256",
          "name": "shares",
          "type": "uint256"
        }
      ],
      "stateMutability": "view",
      "type": "function"
    },
    {
      "inputs": [],
      "name": "decimals",
      "outputs": [
        {
          "internalType": "uint8",
          "name": "",
          "type": "uint8"
        }
      ],
      "stateMutability": "view",
      "type": "function"
    },
    {
      "inputs": [
        {
          "internalType": "address",
          "name": "spender",
          "type": "address"
        },
        {
          "internalType": "uint256",
          "name": "subtractedValue",
          "type": "uint256"
        }
      ],
      "name": "decreaseAllowance",
      "outputs": [
        {
          "internalType": "bool",
          "name": "",
          "type": "bool"
        }
      ],
      "stateMutability": "nonpayable",
      "type": "function"
    },
    {
      "inputs": [
        {
          "internalType": "uint256",
          "name": "assets",
          "type": "uint256"
        },
        {
          "internalType": "address",
          "name": "receiver",
          "type": "address"
        }
      ],
      "name": "deposit",
      "outputs": [
        {
          "internalType": "uint256",
          "name": "",
          "type": "uint256"
        }
      ],
      "stateMutability": "nonpayable",
      "type": "function"
    },
    {
      "inputs": [
        {
          "internalType": "uint256",
          "name": "assetAmount",
          "type": "uint256"
        }
      ],
      "name": "depositIntoStrategy",
      "outputs": [],
      "stateMutability": "nonpayable",
      "type": "function"
    },
    {
      "inputs": [],
      "name": "getCurrentPrice",
      "outputs": [
        {
          "internalType": "uint256",
          "name": "",
          "type": "uint256"
        }
      ],
      "stateMutability": "view",
      "type": "function"
    },
    {
      "inputs": [
        {
          "internalType": "bytes32",
          "name": "role",
          "type": "bytes32"
        }
      ],
      "name": "getRoleAdmin",
      "outputs": [
        {
          "internalType": "bytes32",
          "name": "",
          "type": "bytes32"
        }
      ],
      "stateMutability": "view",
      "type": "function"
    },
    {
      "inputs": [
        {
          "internalType": "bytes32",
          "name": "role",
          "type": "bytes32"
        },
        {
          "internalType": "address",
          "name": "account",
          "type": "address"
        }
      ],
      "name": "grantRole",
      "outputs": [],
      "stateMutability": "nonpayable",
      "type": "function"
    },
    {
      "inputs": [],
      "name": "harvest",
      "outputs": [],
      "stateMutability": "nonpayable",
      "type": "function"
    },
    {
      "inputs": [],
      "name": "harvestDelay",
      "outputs": [
        {
          "internalType": "uint256",
          "name": "",
          "type": "uint256"
        }
      ],
      "stateMutability": "view",
      "type": "function"
    },
    {
      "inputs": [
        {
          "internalType": "bytes32",
          "name": "role",
          "type": "bytes32"
        },
        {
          "internalType": "address",
          "name": "account",
          "type": "address"
        }
      ],
      "name": "hasRole",
      "outputs": [
        {
          "internalType": "bool",
          "name": "",
          "type": "bool"
        }
      ],
      "stateMutability": "view",
      "type": "function"
    },
    {
      "inputs": [
        {
          "internalType": "address",
          "name": "spender",
          "type": "address"
        },
        {
          "internalType": "uint256",
          "name": "addedValue",
          "type": "uint256"
        }
      ],
      "name": "increaseAllowance",
      "outputs": [
        {
          "internalType": "bool",
          "name": "",
          "type": "bool"
        }
      ],
      "stateMutability": "nonpayable",
      "type": "function"
    },
    {
      "inputs": [
        {
          "internalType": "address",
          "name": "user",
          "type": "address"
        }
      ],
      "name": "isAdmin",
      "outputs": [
        {
          "internalType": "bool",
          "name": "",
          "type": "bool"
        }
      ],
      "stateMutability": "view",
      "type": "function"
    },
    {
      "inputs": [
        {
          "internalType": "address",
          "name": "user",
          "type": "address"
        }
      ],
      "name": "isDAC",
      "outputs": [
        {
          "internalType": "bool",
          "name": "",
          "type": "bool"
        }
      ],
      "stateMutability": "view",
      "type": "function"
    },
    {
      "inputs": [],
      "name": "lastHarvest",
      "outputs": [
        {
          "internalType": "uint64",
          "name": "",
          "type": "uint64"
        }
      ],
      "stateMutability": "view",
      "type": "function"
    },
    {
      "inputs": [
        {
          "internalType": "address",
          "name": "",
          "type": "address"
        }
      ],
      "name": "maxDeposit",
      "outputs": [
        {
          "internalType": "uint256",
          "name": "",
          "type": "uint256"
        }
      ],
      "stateMutability": "pure",
      "type": "function"
    },
    {
      "inputs": [],
      "name": "maxLockedProfit",
      "outputs": [
        {
          "internalType": "uint256",
          "name": "",
          "type": "uint256"
        }
      ],
      "stateMutability": "view",
      "type": "function"
    },
    {
      "inputs": [
        {
          "internalType": "address",
          "name": "",
          "type": "address"
        }
      ],
      "name": "maxMint",
      "outputs": [
        {
          "internalType": "uint256",
          "name": "",
          "type": "uint256"
        }
      ],
      "stateMutability": "pure",
      "type": "function"
    },
    {
      "inputs": [
        {
          "internalType": "address",
          "name": "owner",
          "type": "address"
        }
      ],
      "name": "maxRedeem",
      "outputs": [
        {
          "internalType": "uint256",
          "name": "",
          "type": "uint256"
        }
      ],
      "stateMutability": "view",
      "type": "function"
    },
    {
      "inputs": [
        {
          "internalType": "address",
          "name": "owner",
          "type": "address"
        }
      ],
      "name": "maxWithdraw",
      "outputs": [
        {
          "internalType": "uint256",
          "name": "",
          "type": "uint256"
        }
      ],
      "stateMutability": "view",
      "type": "function"
    },
    {
      "inputs": [
        {
          "internalType": "uint256",
          "name": "shares",
          "type": "uint256"
        },
        {
          "internalType": "address",
          "name": "receiver",
          "type": "address"
        }
      ],
      "name": "mint",
      "outputs": [
        {
          "internalType": "uint256",
          "name": "",
          "type": "uint256"
        }
      ],
      "stateMutability": "nonpayable",
      "type": "function"
    },
    {
      "inputs": [],
      "name": "name",
      "outputs": [
        {
          "internalType": "string",
          "name": "",
          "type": "string"
        }
      ],
      "stateMutability": "view",
      "type": "function"
    },
    {
      "inputs": [],
      "name": "nextHarvestDelay",
      "outputs": [
        {
          "internalType": "uint256",
          "name": "",
          "type": "uint256"
        }
      ],
      "stateMutability": "view",
      "type": "function"
    },
    {
      "inputs": [],
      "name": "performanceFeePercent",
      "outputs": [
        {
          "internalType": "uint256",
          "name": "",
          "type": "uint256"
        }
      ],
      "stateMutability": "view",
      "type": "function"
    },
    {
      "inputs": [
        {
          "internalType": "uint256",
          "name": "assets",
          "type": "uint256"
        }
      ],
      "name": "previewDeposit",
      "outputs": [
        {
          "internalType": "uint256",
          "name": "",
          "type": "uint256"
        }
      ],
      "stateMutability": "view",
      "type": "function"
    },
    {
      "inputs": [
        {
          "internalType": "uint256",
          "name": "shares",
          "type": "uint256"
        }
      ],
      "name": "previewMint",
      "outputs": [
        {
          "internalType": "uint256",
          "name": "",
          "type": "uint256"
        }
      ],
      "stateMutability": "view",
      "type": "function"
    },
    {
      "inputs": [
        {
          "internalType": "uint256",
          "name": "shares",
          "type": "uint256"
        }
      ],
      "name": "previewRedeem",
      "outputs": [
        {
          "internalType": "uint256",
          "name": "",
          "type": "uint256"
        }
      ],
      "stateMutability": "view",
      "type": "function"
    },
    {
      "inputs": [
        {
          "internalType": "uint256",
          "name": "assets",
          "type": "uint256"
        }
      ],
      "name": "previewWithdraw",
      "outputs": [
        {
          "internalType": "uint256",
          "name": "",
          "type": "uint256"
        }
      ],
      "stateMutability": "view",
      "type": "function"
    },
    {
      "inputs": [
        {
          "internalType": "uint256",
          "name": "shares",
          "type": "uint256"
        },
        {
          "internalType": "address",
          "name": "receiver",
          "type": "address"
        },
        {
          "internalType": "address",
          "name": "owner",
          "type": "address"
        }
      ],
      "name": "redeem",
      "outputs": [
        {
          "internalType": "uint256",
          "name": "",
          "type": "uint256"
        }
      ],
      "stateMutability": "nonpayable",
      "type": "function"
    },
    {
      "inputs": [
        {
          "internalType": "bytes32",
          "name": "role",
          "type": "bytes32"
        },
        {
          "internalType": "address",
          "name": "account",
          "type": "address"
        }
      ],
      "name": "renounceRole",
      "outputs": [],
      "stateMutability": "nonpayable",
      "type": "function"
    },
    {
      "inputs": [
        {
          "internalType": "bytes32",
          "name": "role",
          "type": "bytes32"
        },
        {
          "internalType": "address",
          "name": "account",
          "type": "address"
        }
      ],
      "name": "revokeRole",
      "outputs": [],
      "stateMutability": "nonpayable",
      "type": "function"
    },
    {
      "inputs": [
        {
          "internalType": "uint256",
          "name": "newCurrentPrice",
          "type": "uint256"
        }
      ],
      "name": "setCurrentPrice",
      "outputs": [],
      "stateMutability": "nonpayable",
      "type": "function"
    },
    {
      "inputs": [
        {
          "internalType": "bool",
          "name": "isEmergency",
          "type": "bool"
        }
      ],
      "name": "setEmergencyExit",
      "outputs": [],
      "stateMutability": "nonpayable",
      "type": "function"
    },
    {
      "inputs": [
        {
          "internalType": "uint256",
          "name": "newHarvestDelay",
          "type": "uint256"
        }
      ],
      "name": "setHarvestDelay",
      "outputs": [],
      "stateMutability": "nonpayable",
      "type": "function"
    },
    {
      "inputs": [
        {
          "internalType": "uint256",
          "name": "newPerformanceFeePercent",
          "type": "uint256"
        }
      ],
      "name": "setPerformanceFeePercent",
      "outputs": [],
      "stateMutability": "nonpayable",
      "type": "function"
    },
    {
      "inputs": [
        {
          "internalType": "contract Strategy",
          "name": "newStrategy",
          "type": "address"
        }
      ],
      "name": "setStrategy",
      "outputs": [],
      "stateMutability": "nonpayable",
      "type": "function"
    },
    {
      "inputs": [
        {
          "internalType": "uint256",
          "name": "newTargetFloatPercent",
          "type": "uint256"
        }
      ],
      "name": "setTargetFloatPercent",
      "outputs": [],
      "stateMutability": "nonpayable",
      "type": "function"
    },
    {
      "inputs": [],
      "name": "strategy",
      "outputs": [
        {
          "internalType": "contract Strategy",
          "name": "",
          "type": "address"
        }
      ],
      "stateMutability": "view",
      "type": "function"
    },
    {
      "inputs": [],
      "name": "strategyDebt",
      "outputs": [
        {
          "internalType": "uint256",
          "name": "",
          "type": "uint256"
        }
      ],
      "stateMutability": "view",
      "type": "function"
    },
    {
      "inputs": [
        {
          "internalType": "bytes4",
          "name": "interfaceId",
          "type": "bytes4"
        }
      ],
      "name": "supportsInterface",
      "outputs": [
        {
          "internalType": "bool",
          "name": "",
          "type": "bool"
        }
      ],
      "stateMutability": "view",
      "type": "function"
    },
    {
      "inputs": [],
      "name": "symbol",
      "outputs": [
        {
          "internalType": "string",
          "name": "",
          "type": "string"
        }
      ],
      "stateMutability": "view",
      "type": "function"
    },
    {
      "inputs": [],
      "name": "targetFloatPercent",
      "outputs": [
        {
          "internalType": "uint256",
          "name": "",
          "type": "uint256"
        }
      ],
      "stateMutability": "view",
      "type": "function"
    },
    {
      "inputs": [],
      "name": "totalAssets",
      "outputs": [
        {
          "internalType": "uint256",
          "name": "",
          "type": "uint256"
        }
      ],
      "stateMutability": "view",
      "type": "function"
    },
    {
      "inputs": [],
      "name": "totalFloat",
      "outputs": [
        {
          "internalType": "uint256",
          "name": "",
          "type": "uint256"
        }
      ],
      "stateMutability": "view",
      "type": "function"
    },
    {
      "inputs": [],
      "name": "totalFreeFund",
      "outputs": [
        {
          "internalType": "uint256",
          "name": "",
          "type": "uint256"
        }
      ],
      "stateMutability": "view",
      "type": "function"
    },
    {
      "inputs": [],
      "name": "totalSupply",
      "outputs": [
        {
          "internalType": "uint256",
          "name": "",
          "type": "uint256"
        }
      ],
      "stateMutability": "view",
      "type": "function"
    },
    {
      "inputs": [
        {
          "internalType": "address",
          "name": "to",
          "type": "address"
        },
        {
          "internalType": "uint256",
          "name": "amount",
          "type": "uint256"
        }
      ],
      "name": "transfer",
      "outputs": [
        {
          "internalType": "bool",
          "name": "",
          "type": "bool"
        }
      ],
      "stateMutability": "nonpayable",
      "type": "function"
    },
    {
      "inputs": [
        {
          "internalType": "address",
          "name": "from",
          "type": "address"
        },
        {
          "internalType": "address",
          "name": "to",
          "type": "address"
        },
        {
          "internalType": "uint256",
          "name": "amount",
          "type": "uint256"
        }
      ],
      "name": "transferFrom",
      "outputs": [
        {
          "internalType": "bool",
          "name": "",
          "type": "bool"
        }
      ],
      "stateMutability": "nonpayable",
      "type": "function"
    },
    {
      "inputs": [],
      "name": "vaultInfo",
      "outputs": [
        {
          "internalType": "string[8]",
          "name": "",
          "type": "string[8]"
        }
      ],
      "stateMutability": "view",
      "type": "function"
    },
    {
      "inputs": [],
      "name": "vaultInfoSvg",
      "outputs": [
        {
          "internalType": "string",
          "name": "",
          "type": "string"
        }
      ],
      "stateMutability": "view",
      "type": "function"
    },
    {
      "inputs": [],
      "name": "vaultSvgUri",
      "outputs": [
        {
          "internalType": "string",
          "name": "",
          "type": "string"
        }
      ],
      "stateMutability": "view",
      "type": "function"
    },
    {
      "inputs": [
        {
          "internalType": "uint256",
          "name": "assets",
          "type": "uint256"
        },
        {
          "internalType": "address",
          "name": "receiver",
          "type": "address"
        },
        {
          "internalType": "address",
          "name": "owner",
          "type": "address"
        }
      ],
      "name": "withdraw",
      "outputs": [
        {
          "internalType": "uint256",
          "name": "",
          "type": "uint256"
        }
      ],
      "stateMutability": "nonpayable",
      "type": "function"
    },
    {
      "inputs": [
        {
          "internalType": "uint256",
          "name": "assetAmount",
          "type": "uint256"
        }
      ],
      "name": "withdrawFromStrategy",
      "outputs": [],
      "stateMutability": "nonpayable",
      "type": "function"
    }
  ],
  "bytecode": "0x60e0604052600c805460ff191690553480156200001b57600080fd5b506040516200502c3803806200502c8339810160408190526200003e916200065a565b856000815181106200005457620000546200070d565b6020026020010151866001815181106200007257620000726200070d565b602002602001015181600390805190602001906200009292919062000349565b508051620000a890600490602084019062000349565b50505085600281518110620000c157620000c16200070d565b6020026020010151600a9080519060200190620000e092919062000349565b5085600381518110620000f757620000f76200070d565b6020026020010151600990805190602001906200011692919062000349565b50856004815181106200012d576200012d6200070d565b6020026020010151600790805190602001906200014c92919062000349565b5042600b556001600160a01b03851660c08190526040805163313ce56760e01b8152905163313ce56791600480820192602092909190829003018186803b1580156200019757600080fd5b505afa158015620001ac573d6000803e3d6000fd5b505050506040513d601f19601f82011682018060405250810190620001d291906200073a565b6006805460ff191660ff9290921691821790556001600160a01b03838116608052821660a052670214e8348c4f0000600d556200021190600a620008a6565b6008556200022160008562000285565b6200024d7feededeb59e5fbbc0692124cc306ce20d0ef1b025f06013c271b680eb29f6c2b68562000310565b620002797f7a05a596cb0ce7fdea8a1e1ec73be300bdb35097c944ce1897202f7a13122eb28462000310565b50505050505062000904565b6200029182826200031c565b6200030c5760008281526005602090815260408083206001600160a01b03851684529091529020805460ff19166001179055620002cb3390565b6001600160a01b0316816001600160a01b0316837f2f8788117e7eff1d82e926ec794901d17c78024a50270940304540a733656f0d60405160405180910390a45b5050565b6200030c828262000285565b60008281526005602090815260408083206001600160a01b038516845290915290205460ff165b92915050565b8280546200035790620008d3565b90600052602060002090601f0160209004810192826200037b5760008555620003c6565b82601f106200039657805160ff1916838001178555620003c6565b82800160010185558215620003c6579182015b82811115620003c6578251825591602001919060010190620003a9565b50620003d4929150620003d8565b5090565b5b80821115620003d45760008155600101620003d9565b634e487b7160e01b600052604160045260246000fd5b601f19601f83011681018181106001600160401b03821117156200042d576200042d620003ef565b6040525050565b60006200044060405190565b90506200044e828262000405565b919050565b60006001600160401b038211156200046f576200046f620003ef565b5060209081020190565b60006001600160401b03821115620004955762000495620003ef565b601f19601f83011660200192915050565b60005b83811015620004c3578181015183820152602001620004a9565b83811115620004d3576000848401525b50505050565b6000620004f0620004ea8462000479565b62000434565b9050828152602081018484840111156200050d576200050d600080fd5b6200051a848285620004a6565b509392505050565b600082601f830112620005385762000538600080fd5b81516200054a848260208601620004d9565b949350505050565b600062000563620004ea8462000453565b83815290506020808201908402830185811115620005845762000584600080fd5b835b81811015620005ca5780516001600160401b03811115620005aa57620005aa600080fd5b808601620005b9898262000522565b855250506020928301920162000586565b5050509392505050565b600082601f830112620005ea57620005ea600080fd5b81516200054a84826020860162000552565b60006001600160a01b03821662000343565b60006200034382620005fc565b62000626816200060e565b81146200063257600080fd5b50565b805162000343816200061b565b6200062681620005fc565b8051620003438162000642565b60008060008060008060c08789031215620006785762000678600080fd5b86516001600160401b03811115620006935762000693600080fd5b620006a189828a01620005d4565b9650506020620006b489828a0162000635565b9550506040620006c789828a016200064d565b9450506060620006da89828a016200064d565b9350506080620006ed89828a016200064d565b92505060a06200070089828a016200064d565b9150509295509295509295565b634e487b7160e01b600052603260045260246000fd5b60ff811662000626565b8051620003438162000723565b600060208284031215620007515762000751600080fd5b60006200054a84846200072d565b634e487b7160e01b600052601160045260246000fd5b80825b6001851115620007bb578086048111156200079757620007976200075f565b6001851615620007a657908102905b8002620007b38560011c90565b945062000778565b94509492505050565b600082620007d5575060016200089f565b81620007e4575060006200089f565b8160018114620007fd576002811462000808576200083c565b60019150506200089f565b60ff8411156200081c576200081c6200075f565b8360020a9150848211156200083557620008356200075f565b506200089f565b5060208310610133831016604e8410600b841016171562000874575081810a838111156200086e576200086e6200075f565b6200089f565b62000883848484600162000775565b925090508184048111156200089c576200089c6200075f565b81025b9392505050565b600060ff831692506200089f6000198484620007c4565b634e487b7160e01b600052602260045260246000fd5b600281046001821680620008e857607f821691505b60208210811415620008fe57620008fe620008bd565b50919050565b60805160a05160c0516146b9620009736000396000818161046601528181610740015281816112a1015281816116170152818161193401528181611f16015281816120c40152818161287f015281816129700152612c3501526000610b2e015260006112c201526146b96000f3fe608060405234801561001057600080fd5b50600436106102fb5760003560e01c80635db2dc1f1161019a5780635db2dc1f1461051f5780636e553f65146105345780636f81a6b0146105475780636ff79c561461055a57806370a0823114610562578063797ba46314610575578063841219e51461057e57806391d148541461058657806394bf804d1461059957806395d89b41146105ac578063a217fddf146105b4578063a457c2d7146105bc578063a49ddb75146105cf578063a8c62e76146105e2578063a9059cbb14610602578063ac68a74814610615578063b3d7f6b914610628578063b460af941461063b578063ba0876521461064e578063bd662f8814610661578063c63d75b6146104ae578063c6e6f59214610674578063ce96cb7714610687578063d00364be1461069a578063d547741f146106a3578063d6cc2e5c146106b6578063d905777e146106be578063d9581c5d146106d1578063dd62ed3e146106e4578063df652d41146106f7578063eb91d37e1461070a578063ef8b30f714610674578063f1a392da1461071257600080fd5b806301e1d1141461030057806301ffc9a71461031e57806306fdde031461033e57806307a2d13a14610353578063095ea7b3146103665780630a28a4771461037957806313d3480a1461038c57806318160ddd1461039457806318b200711461039c5780631c693478146103b157806323b872dd146103ba578063248a9ca3146103cd57806324d7806c146103e05780632f2ff15d146103f3578063308ee6801461040657806330d643b51461040e578063313ce5671461042357806333a100ca1461043657806336568abe14610449578063375bc0b81461045c57806338d52e0f1461046457806339509351146104925780633e9dc762146104a5578063402d267d146104ae578063448f56b9146104c157806345ee0755146104ca5780634641257d146104dd57806347b2fc86146104e557806348b19335146104ee57806348f5b980146105015780634cdad50614610353578063501ec7381461050a575b600080fd5b610308610739565b6040516103159190613103565b60405180910390f35b61033161032c366004613133565b6107e9565b604051610315919061315c565b610346610820565b60405161031591906131d4565b6103086103613660046131f6565b6108b2565b610331610374366004613242565b6108bf565b6103086103873660046131f6565b6108d7565b6103086108e4565b600254610308565b6103af6103aa3660046131f6565b610900565b005b61030860105481565b6103316103c836600461327f565b610921565b6103086103db3660046131f6565b610947565b6103316103ee3660046132cf565b61095c565b6103af6104013660046132f0565b610968565b610346610989565b61030860008051602061466483398151915281565b60065460ff16604051610315919061332c565b6103af610444366004613359565b610df7565b6103af6104573660046132f0565b610ea1565b610346610ed7565b7f00000000000000000000000000000000000000000000000000000000000000006040516103159190613383565b6103316104a0366004613242565b610f65565b61030860115481565b6103086104bc3660046132cf565b610f87565b610308600e5481565b6103af6104d83660046133a4565b610f8e565b6103af6110b4565b610308600b5481565b6103af6104fc3660046131f6565b6113c1565b610308600d5481565b6105126113e2565b604051610315919061341d565b6103086000805160206145c483398151915281565b6103086105423660046132f0565b6117eb565b6103af6105553660046131f6565b6118a2565b6103466118c3565b6103086105703660046132cf565b6118ff565b610308600f5481565b61030861191a565b6103316105943660046132f0565b6119b9565b6103086105a73660046132f0565b6119e4565b610346611a6b565b610308600081565b6103316105ca366004613242565b611a7a565b6103af6105dd3660046131f6565b611ac2565b6012546105f5906001600160a01b031681565b6040516103159190613466565b610331610610366004613242565b611b5f565b6103af6106233660046131f6565b611b6d565b6103086106363660046131f6565b611bd1565b610308610649366004613474565b611bde565b61030861065c366004613474565b611c6e565b6103af61066f3660046131f6565b611cf3565b6103086106823660046131f6565b611d71565b6103086106953660046132cf565b611d7e565b61030860135481565b6103af6106b13660046132f0565b611d93565b610308611daf565b6103086106cc3660046132cf565b611e16565b6103316106df3660046132cf565b611e21565b6103086106f23660046134ba565b611e3b565b6103af6107053660046131f6565b611e66565b600854610308565b60125461072c90600160a01b90046001600160401b031681565b60405161031591906134eb565b60006011547f00000000000000000000000000000000000000000000000000000000000000006001600160a01b03166370a08231306040518263ffffffff1660e01b815260040161078a9190613383565b60206040518083038186803b1580156107a257600080fd5b505afa1580156107b6573d6000803e3d6000fd5b505050506040513d601f19601f820116820180604052508101906107da9190613504565b6107e4919061353b565b905090565b60006001600160e01b03198216637965db0b60e01b148061081a57506301ffc9a760e01b6001600160e01b03198316145b92915050565b60606003805461082f90613569565b80601f016020809104026020016040519081016040528092919081815260200182805461085b90613569565b80156108a85780601f1061087d576101008083540402835291602001916108a8565b820191906000526020600020905b81548152906001019060200180831161088b57829003601f168201915b5050505050905090565b600061081a826000611ee4565b6000336108cd818585611fcb565b5060019392505050565b600061081a82600161207f565b60006108ee611daf565b6108f6610739565b6107e49190613596565b60065460ff1661091190600a6136bb565b61091b90826136d0565b60085550565b60003361092f858285612153565b61093a85858561219d565b60019150505b9392505050565b60009081526005602052604090206001015490565b600061081a81836119b9565b61097182610947565b61097a8161229e565b61098483836122ab565b505050565b606060006109b5610998610739565b60065460ff166109a990600a6136bb565b60085491906000612331565b9050600073__$b4ae538d42a0e0bb8330684d08e51a40b4$__632a50f068836040518263ffffffff1660e01b81526004016109f09190613103565b60006040518083038186803b158015610a0857600080fd5b505af4158015610a1c573d6000803e3d6000fd5b505050506040513d6000823e601f3d908101601f19168201604052610a4491908101906137d6565b9050600080600073__$b4ae538d42a0e0bb8330684d08e51a40b4$__63de5101af600b546040518263ffffffff1660e01b8152600401610a849190613103565b60606040518083038186803b158015610a9c57600080fd5b505af4158015610ab0573d6000803e3d6000fd5b505050506040513d601f19601f82011682018060405250810190610ad49190613810565b9250925092506000610ae58461238e565b610aee8461238e565b610af78461238e565b604051602001610b0993929190613889565b60408051601f1981840301815291905290506000610b2830601461248b565b905060007f00000000000000000000000000000000000000000000000000000000000000006001600160a01b031663cd24cc4f60405180610120016040528060098054610b7490613569565b80601f0160208091040260200160405190810160405280929190818152602001828054610ba090613569565b8015610bed5780601f10610bc257610100808354040283529160200191610bed565b820191906000526020600020905b815481529060010190602001808311610bd057829003601f168201915b50505050508152602001610bff610820565b815260200185815260200186815260200160078054610c1d90613569565b80601f0160208091040260200160405190810160405280929190818152602001828054610c4990613569565b8015610c965780601f10610c6b57610100808354040283529160200191610c96565b820191906000526020600020905b815481529060010190602001808311610c7957829003601f168201915b505050505081526020018a8152602001600a8054610cb390613569565b80601f0160208091040260200160405190810160405280929190818152602001828054610cdf90613569565b8015610d2c5780601f10610d0157610100808354040283529160200191610d2c565b820191906000526020600020905b815481529060010190602001808311610d0f57829003601f168201915b50505050508152602001604051806040016040528060058152602001642020202d2d60d81b8152508152602001604051806040016040528060058152602001642020202d2d60d81b8152508152506040518263ffffffff1660e01b8152600401610d9691906139ae565b60006040518083038186803b158015610dae57600080fd5b505afa158015610dc2573d6000803e3d6000fd5b505050506040513d6000823e601f3d908101601f19168201604052610dea91908101906137d6565b9998505050505050505050565b6000805160206145c4833981519152610e0f8161229e565b6012546001600160a01b031615610e415760405162461bcd60e51b8152600401610e38906139f4565b60405180910390fd5b601280546001600160a01b0319166001600160a01b038416179055336001600160a01b03167fe4cec16b1a7e6b7979e923da619a8b1e5fd0f0fb6e5c1cf647f350430ee61ca983604051610e959190613466565b60405180910390a25050565b6001600160a01b0381163314610ec95760405162461bcd60e51b8152600401610e3890613a53565b610ed382826125f6565b5050565b600a8054610ee490613569565b80601f0160208091040260200160405190810160405280929190818152602001828054610f1090613569565b8015610f5d5780601f10610f3257610100808354040283529160200191610f5d565b820191906000526020600020905b815481529060010190602001808311610f4057829003601f168201915b505050505081565b6000336108cd818585610f788383611e3b565b610f82919061353b565b611fcb565b5060001990565b6000805160206145c4833981519152610fa68161229e565b600c5460ff1615158215151415610fcf5760405162461bcd60e51b8152600401610e3890613aa5565b600c805460ff1916831515179055601254604051630280eaab60e11b81526001600160a01b0390911690630501d5569061100d90859060040161315c565b602060405180830381600087803b15801561102757600080fd5b505af115801561103b573d6000803e3d6000fd5b505050506040513d601f19601f8201168201806040525081019061105f9190613ac0565b50811561107757601280546001600160a01b03191690555b7f9e69ba306a7a824a14cfeec93fa5b4af9ae92fcdc2b68f9867a9868c12e04cc933836040516110a8929190613ae1565b60405180910390a15050565b6000805160206145c48339815191526110cc8161229e565b600c5460ff16156110ef5760405162461bcd60e51b8152600401610e3890613b2e565b600e5460125461110f9190600160a01b90046001600160401b031661353b565b421061113e5760128054600160a01b600160e01b031916600160a01b426001600160401b03160217905561117d565b600e5460125461115e9190600160a01b90046001600160401b031661353b565b42111561117d5760405162461bcd60e51b8152600401610e3890613b6c565b601154601254604051633af9e66960e01b81526001600160a01b0390911690633af9e669906111b0903090600401613383565b602060405180830381600087803b1580156111ca57600080fd5b505af11580156111de573d6000803e3d6000fd5b505050506040513d601f19601f820116820180604052508101906112029190613504565b6011819055600090611215908390613596565b600d54909150600090611233908390670de0b6b3a764000084612331565b90506000611245826001600284612331565b905060006112538284613596565b905061129c3061129761126860065460ff1690565b61127390600a6136bb565b61128d61128260065460ff1690565b61036190600a6136bb565b8691906000612331565b61265d565b6112e77f00000000000000000000000000000000000000000000000000000000000000007f0000000000000000000000000000000000000000000000000000000000000000836126ff565b82846112f1611daf565b6112fb919061353b565b6113059190613596565b60135560128054600160a01b600160e01b031916600160a01b426001600160401b031602179055336012546040516001600160a01b03928316927ffdfdf879d9abdea70f1d228c39cf14f5e7179a54f36b378f29bccfe7648f333e9261136d92911690613466565b60405180910390a2600f5480156113b857600e8190556000600f55336001600160a01b0316600080516020614644833981519152826040516113af9190613103565b60405180910390a25b50505050505050565b6000805160206145c48339815191526113d98161229e565b610ed382612755565b6113ea6130d3565b60006113f7610998610739565b9050600073__$b4ae538d42a0e0bb8330684d08e51a40b4$__632a50f068836040518263ffffffff1660e01b81526004016114329190613103565b60006040518083038186803b15801561144a57600080fd5b505af415801561145e573d6000803e3d6000fd5b505050506040513d6000823e601f3d908101601f1916820160405261148691908101906137d6565b9050600080600073__$b4ae538d42a0e0bb8330684d08e51a40b4$__63de5101af600b546040518263ffffffff1660e01b81526004016114c69190613103565b60606040518083038186803b1580156114de57600080fd5b505af41580156114f2573d6000803e3d6000fd5b505050506040513d601f19601f820116820180604052508101906115169190613810565b92509250925060006115278461238e565b6115308461238e565b6115398461238e565b60405160200161154b93929190613889565b60408051601f198184030181529190529050600061156a30601461248b565b90506040518061010001604052806009805461158590613569565b80601f01602080910402602001604051908101604052809291908181526020018280546115b190613569565b80156115fe5780601f106115d3576101008083540402835291602001916115fe565b820191906000526020600020905b8154815290600101906020018083116115e157829003601f168201915b50505050508152602001611610610820565b81526020017f00000000000000000000000000000000000000000000000000000000000000006001600160a01b03166395d89b416040518163ffffffff1660e01b815260040160006040518083038186803b15801561166e57600080fd5b505afa158015611682573d6000803e3d6000fd5b505050506040513d6000823e601f3d908101601f191682016040526116aa91908101906137d6565b8152602001828152602001838152602001600780546116c890613569565b80601f01602080910402602001604051908101604052809291908181526020018280546116f490613569565b80156117415780601f1061171657610100808354040283529160200191611741565b820191906000526020600020905b81548152906001019060200180831161172457829003601f168201915b50505050508152602001878152602001600a805461175e90613569565b80601f016020809104026020016040519081016040528092919081815260200182805461178a90613569565b80156117d75780601f106117ac576101008083540402835291602001916117d7565b820191906000526020600020905b8154815290600101906020018083116117ba57829003601f168201915b505050505081525097505050505050505090565b60006000805160206146648339815191526118058161229e565b600c5460ff16156118285760405162461bcd60e51b8152600401610e3890613b2e565b61183183610f87565b611839610739565b611843908661353b565b11156118615760405162461bcd60e51b8152600401610e3890613baf565b600061186c85611d71565b90506000811161188e5760405162461bcd60e51b8152600401610e3890613bf1565b61189a3385878461287a565b949350505050565b6000805160206145c48339815191526118ba8161229e565b610ed382612903565b606060006118d76118d2610989565b612a3e565b9050806040516020016118ea9190613c01565b60405160208183030381529060405291505090565b6001600160a01b031660009081526020819052604090205490565b6040516370a0823160e01b81526000906001600160a01b037f000000000000000000000000000000000000000000000000000000000000000016906370a0823190611969903090600401613383565b60206040518083038186803b15801561198157600080fd5b505afa158015611995573d6000803e3d6000fd5b505050506040513d601f19601f820116820180604052508101906107e49190613504565b60009182526005602090815260408084206001600160a01b0393909316845291905290205460ff1690565b60006000805160206146648339815191526119fe8161229e565b611a0783610f87565b600254611a14908661353b565b1115611a325760405162461bcd60e51b8152600401610e3890613c60565b6000611a3d85611bd1565b905060008111611a5f5760405162461bcd60e51b8152600401610e3890613ca4565b61189a3385838861287a565b60606004805461082f90613569565b60003381611a888286611e3b565b905083811015611aaa5760405162461bcd60e51b8152600401610e3890613cf6565b611ab78286868403611fcb565b506001949350505050565b6000805160206145c4833981519152611ada8161229e565b615460821015611afc5760405162461bcd60e51b8152600401610e3890613d33565b6301e13380821115611b205760405162461bcd60e51b8152600401610e3890613d6f565b600e54611b5457600e829055335b6001600160a01b031660008051602061464483398151915283604051610e959190613103565b600f82905533611b2e565b6000336108cd81858561219d565b600080516020614664833981519152611b858161229e565b336001600160a01b03167f9493e5bbe4e8e0ac67284469a2d677403d0378a85a59e341d3abc433d0d9a20983604051611bbe9190613103565b60405180910390a2610ed33033846126ff565b600061081a826001611ee4565b6000600080516020614664833981519152611bf88161229e565b611c0183611d7e565b851115611c205760405162461bcd60e51b8152600401610e3890613db3565b6000611c2b866108d7565b905060008111611c4d5760405162461bcd60e51b8152600401610e3890613e01565b611c5686612ba5565b611c633386868985612c02565b91505b509392505050565b6000600080516020614664833981519152611c888161229e565b611c9183611e16565b851115611cb05760405162461bcd60e51b8152600401610e3890613e43565b6000611cbb866108b2565b905060008111611cdd5760405162461bcd60e51b8152600401610e3890613e87565b611ce681612ba5565b611c63338686848a612c02565b6000805160206145c4833981519152611d0b8161229e565b670de0b6b3a7640000821115611d335760405162461bcd60e51b8152600401610e3890613ed8565b6010829055336001600160a01b03167f5e03ddc544db71ae63edc30c5e770e9dad9807b789185f3355577d64fff9920083604051610e959190613103565b600061081a82600061207f565b600061081a611d8c836118ff565b6000611ee4565b611d9c82610947565b611da58161229e565b61098483836125f6565b601254600e54600091600160a01b90046001600160401b031690611dd3818361353b565b4210611de25760009250505090565b60135481611df08442613596565b611dfa90836136d0565b611e049190613efe565b611e0e9082613596565b935050505090565b600061081a826118ff565b600061081a6000805160206145c4833981519152836119b9565b6001600160a01b03918216600090815260016020908152604080832093909416825291909152205490565b6000805160206145c4833981519152611e7e8161229e565b670de0b6b3a7640000821115611ea65760405162461bcd60e51b8152600401610e3890613f3c565b600d829055336001600160a01b03167fe282a5d2583214049e4efccb83e9fa25ddabf37f5ab579c4a4eb0baf0a9975cf83604051610e959190613103565b600080611ef060025490565b90508015611f1157611f0c611f036108e4565b85908386612331565b61189a565b61189a7f00000000000000000000000000000000000000000000000000000000000000006001600160a01b031663313ce5676040518163ffffffff1660e01b815260040160206040518083038186803b158015611f6d57600080fd5b505afa158015611f81573d6000803e3d6000fd5b505050506040513d601f19601f82011682018060405250810190611fa59190613f60565b611fb090600a6136bb565b60065460ff165b611fc290600a6136bb565b86919086612331565b6001600160a01b038316611ff15760405162461bcd60e51b8152600401610e3890613fc2565b6001600160a01b0382166120175760405162461bcd60e51b8152600401610e3890614011565b6001600160a01b0380841660008181526001602090815260408083209487168084529490915290819020849055517f8c5be1e5ebec7d5bd14f71427d1e84f3dd0314c0f7b2291e5b200ac8c7c3b92590612072908590613103565b60405180910390a3505050565b60008061208b60025490565b9050831580612098575080155b6120a857611f0c81611fc26108e4565b61189a6120b760065460ff1690565b6120c290600a6136bb565b7f00000000000000000000000000000000000000000000000000000000000000006001600160a01b031663313ce5676040518163ffffffff1660e01b815260040160206040518083038186803b15801561211b57600080fd5b505afa15801561212f573d6000803e3d6000fd5b505050506040513d601f19601f82011682018060405250810190611fb79190613f60565b600061215f8484611e3b565b90506000198114612197578181101561218a5760405162461bcd60e51b8152600401610e3890614055565b6121978484848403611fcb565b50505050565b6001600160a01b0383166121c35760405162461bcd60e51b8152600401610e38906140a7565b6001600160a01b0382166121e95760405162461bcd60e51b8152600401610e38906140f7565b6001600160a01b038316600090815260208190526040902054818110156122225760405162461bcd60e51b8152600401610e389061414a565b6001600160a01b0380851660009081526020819052604080822085850390559185168152908120805484929061225990849061353b565b92505081905550826001600160a01b0316846001600160a01b0316600080516020614624833981519152846040516122919190613103565b60405180910390a3612197565b6122a88133612ca9565b50565b6122b582826119b9565b610ed35760008281526005602090815260408083206001600160a01b03851684529091529020805460ff191660011790556122ed3390565b6001600160a01b0316816001600160a01b0316837f2f8788117e7eff1d82e926ec794901d17c78024a50270940304540a733656f0d60405160405180910390a45050565b60008061233f868686612d0d565b905060018360028111156123555761235561415a565b14801561237257506000848061236d5761236d613ee8565b868809115b156123855761238260018261353b565b90505b95945050505050565b6060816123b25750506040805180820190915260018152600360fc1b602082015290565b8160005b81156123dc57806123c681614170565b91506123d59050600a83613efe565b91506123b6565b6000816001600160401b038111156123f6576123f66136ef565b6040519080825280601f01601f191660200182016040528015612420576020820181803683370190505b5090505b841561189a57612435600183613596565b9150612442600a86614184565b61244d90603061353b565b60f81b81838151811061246257612462614198565b60200101906001600160f81b031916908160001a905350612484600a86613efe565b9450612424565b6060600061249a8360026136d0565b6124a590600261353b565b6001600160401b038111156124bc576124bc6136ef565b6040519080825280601f01601f1916602001820160405280156124e6576020820181803683370190505b509050600360fc1b8160008151811061250157612501614198565b60200101906001600160f81b031916908160001a905350600f60fb1b8160018151811061253057612530614198565b60200101906001600160f81b031916908160001a90535060006125548460026136d0565b61255f90600161353b565b90505b60018111156125d7576f181899199a1a9b1b9c1cb0b131b232b360811b85600f166010811061259357612593614198565b1a60f81b8282815181106125a9576125a9614198565b60200101906001600160f81b031916908160001a90535060049490941c936125d0816141ae565b9050612562565b5083156109405760405162461bcd60e51b8152600401610e38906141f7565b61260082826119b9565b15610ed35760008281526005602090815260408083206001600160a01b0385168085529252808320805460ff1916905551339285917ff6391f5c32d9c69d2a47ea670b442974b53935d1edc7fd64eb21e047a839171b9190a45050565b6001600160a01b0382166126835760405162461bcd60e51b8152600401610e389061423b565b8060026000828254612695919061353b565b90915550506001600160a01b038216600090815260208190526040812080548392906126c290849061353b565b90915550506040516001600160a01b03831690600090600080516020614624833981519152906126f3908590613103565b60405180910390a35050565b6109848363a9059cbb60e01b848460405160240161271e92919061424b565b60408051601f198184030181529190526020810180516001600160e01b03166001600160e01b031990931692909217909152612dbd565b6011548111156127775760405162461bcd60e51b8152600401610e3890614293565b80601160008282546127899190613596565b90915550506012546001600160a01b0316336001600160a01b03167f8d851b682e239b1de720e92e5c5cffdb72d353104cc63dc6ed144d7080217fbe836040516127d39190613103565b60405180910390a360125460405163852a12e360e01b81526001600160a01b039091169063852a12e39061280b908490600401613103565b602060405180830381600087803b15801561282557600080fd5b505af1158015612839573d6000803e3d6000fd5b505050506040513d601f19601f8201168201806040525081019061285d9190613504565b156122a85760405162461bcd60e51b8152600401610e38906142e4565b6128a67f0000000000000000000000000000000000000000000000000000000000000000853085612e4c565b6128b0838261265d565b826001600160a01b0316846001600160a01b03167fdcbc1c05240f31ff3ad067ef1ee35ce4997762752e3a095284754544f4c709d784846040516128f59291906142f4565b60405180910390a350505050565b8060116000828254612915919061353b565b90915550506012546001600160a01b0316336001600160a01b03167f49e9138fe0dacf001ea634236e38aa8bd229efd55ec4d7975228d679db6ce8f98360405161295f9190613103565b60405180910390a360125461299f907f0000000000000000000000000000000000000000000000000000000000000000906001600160a01b031683612e6d565b60125460405163140e25ad60e31b81526001600160a01b039091169063a0712d68906129cf908490600401613103565b602060405180830381600087803b1580156129e957600080fd5b505af11580156129fd573d6000803e3d6000fd5b505050506040513d601f19601f82011682018060405250810190612a219190613504565b156122a85760405162461bcd60e51b8152600401610e3890614342565b6060815160001415612a5e57505060408051602081019091526000815290565b60006040518060600160405280604081526020016145e46040913990506000600384516002612a8d919061353b565b612a979190613efe565b612aa29060046136d0565b90506000612ab182602061353b565b6001600160401b03811115612ac857612ac86136ef565b6040519080825280601f01601f191660200182016040528015612af2576020820181803683370190505b509050818152600183018586518101602084015b81831015612b605760039283018051603f601282901c811687015160f890811b8552600c83901c8216880151811b6001860152600683901c8216880151811b60028601529116860151901b93820193909352600401612b06565b600389510660018114612b7a5760028114612b8b57612b97565b613d3d60f01b600119830152612b97565b603d60f81b6000198301525b509398975050505050505050565b6000612baf61191a565b905080821115610ed3576000612be06010546001600086612bce6108e4565b612bd89190613596565b929190612331565b90506000612bee8385613596565b9050612197612bfd828461353b565b612755565b826001600160a01b0316856001600160a01b031614612c2657612c26838683612153565b612c308382612f30565b612c5b7f000000000000000000000000000000000000000000000000000000000000000085846126ff565b846001600160a01b03167ffbde797d201c681b91056529119e0b02407c7bb96a4a2c75c01fc9667232c8db85858585604051612c9a9493929190614352565b60405180910390a25050505050565b612cb382826119b9565b610ed357612ccb816001600160a01b0316601461248b565b612cd683602061248b565b604051602001612ce7929190614387565b60408051601f198184030181529082905262461bcd60e51b8252610e38916004016131d4565b600080806000198587098587029250828110838203039150508060001415612d4857838281612d3e57612d3e613ee8565b0492505050610940565b808411612d5457600080fd5b60008486880960026001871981018816978890046003810283188082028403028082028403028082028403028082028403028082028403029081029092039091026000889003889004909101858311909403939093029303949094049190911702949350505050565b6000612e12826040518060400160405280602081526020017f5361666545524332303a206c6f772d6c6576656c2063616c6c206661696c6564815250856001600160a01b0316612fef9092919063ffffffff16565b8051909150156109845780806020019051810190612e309190613ac0565b6109845760405162461bcd60e51b8152600401610e3890614420565b612197846323b872dd60e01b85858560405160240161271e93929190614430565b801580612ef55750604051636eb1769f60e11b81526001600160a01b0384169063dd62ed3e90612ea39030908690600401614458565b60206040518083038186803b158015612ebb57600080fd5b505afa158015612ecf573d6000803e3d6000fd5b505050506040513d601f19601f82011682018060405250810190612ef39190613504565b155b612f115760405162461bcd60e51b8152600401610e38906144c6565b6109848363095ea7b360e01b848460405160240161271e92919061424b565b6001600160a01b038216612f565760405162461bcd60e51b8152600401610e3890614514565b6001600160a01b03821660009081526020819052604090205481811015612f8f5760405162461bcd60e51b8152600401610e3890614563565b6001600160a01b0383166000908152602081905260408120838303905560028054849290612fbe908490613596565b90915550506040516000906001600160a01b0385169060008051602061462483398151915290612072908690613103565b606061189a8484600085856001600160a01b0385163b6130215760405162461bcd60e51b8152600401610e38906145a7565b600080866001600160a01b0316858760405161303d91906145b7565b60006040518083038185875af1925050503d806000811461307a576040519150601f19603f3d011682016040523d82523d6000602084013e61307f565b606091505b509150915061308f82828661309a565b979650505050505050565b606083156130a9575081610940565b8251156130b95782518084602001fd5b8160405162461bcd60e51b8152600401610e3891906131d4565b6040518061010001604052806008905b60608152602001906001900390816130e35790505090565b805b82525050565b6020810161081a82846130fb565b6001600160e01b031981165b81146122a857600080fd5b803561081a81613111565b60006020828403121561314857613148600080fd5b600061189a8484613128565b8015156130fd565b6020810161081a8284613154565b60005b8381101561318557818101518382015260200161316d565b838111156121975750506000910152565b601f01601f191690565b60006131aa825190565b8084526020840193506131c181856020860161316a565b6131ca81613196565b9093019392505050565b6020808252810161094081846131a0565b8061311d565b803561081a816131e5565b60006020828403121561320b5761320b600080fd5b600061189a84846131eb565b6001600160a01b031690565b600061081a82613217565b61311d81613223565b803561081a8161322e565b6000806040838503121561325857613258600080fd5b60006132648585613237565b9250506020613275858286016131eb565b9150509250929050565b60008060006060848603121561329757613297600080fd5b60006132a38686613237565b93505060206132b486828701613237565b92505060406132c5868287016131eb565b9150509250925092565b6000602082840312156132e4576132e4600080fd5b600061189a8484613237565b6000806040838503121561330657613306600080fd5b600061331285856131eb565b925050602061327585828601613237565b60ff81166130fd565b6020810161081a8284613323565b600061081a82613223565b61311d8161333a565b803561081a81613345565b60006020828403121561336e5761336e600080fd5b600061189a848461334e565b6130fd81613223565b6020810161081a828461337a565b80151561311d565b803561081a81613391565b6000602082840312156133b9576133b9600080fd5b600061189a8484613399565b600061094083836131a0565b600060088361010081018480855b8581101561341057848403895281516133f885826133c5565b94506020830160209a909a01999250506001016133df565b5091979650505050505050565b6020808252810161094081846133d1565b600061081a61344261343f84613217565b90565b613217565b600061081a8261342e565b600061081a82613447565b6130fd81613452565b6020810161081a828461345d565b60008060006060848603121561348c5761348c600080fd5b600061349886866131eb565b93505060206134a986828701613237565b92505060406132c586828701613237565b600080604083850312156134d0576134d0600080fd5b60006133128585613237565b6001600160401b0381166130fd565b6020810161081a82846134dc565b805161081a816131e5565b60006020828403121561351957613519600080fd5b600061189a84846134f9565b634e487b7160e01b600052601160045260246000fd5b6000821982111561354e5761354e613525565b500190565b634e487b7160e01b600052602260045260246000fd5b60028104600182168061357d57607f821691505b6020821081141561359057613590613553565b50919050565b6000828210156135a8576135a8613525565b500390565b80825b60018511156135ec578086048111156135cb576135cb613525565b60018516156135d957908102905b80026135e58560011c90565b94506135b0565b94509492505050565b60008261360457506001610940565b8161361157506000610940565b816001811461362757600281146136315761365e565b6001915050610940565b60ff84111561364257613642613525565b8360020a91508482111561365857613658613525565b50610940565b5060208310610133831016604e8410600b8410161715613691575081810a8381111561368c5761368c613525565b610940565b61369e84848460016135ad565b925090508184048111156136b4576136b4613525565b0292915050565b600060ff8316925061094060001984846135f5565b60008160001904831182151516156136ea576136ea613525565b500290565b634e487b7160e01b600052604160045260246000fd5b61370e82613196565b81018181106001600160401b038211171561372b5761372b6136ef565b6040525050565b600061373d60405190565b90506137498282613705565b919050565b60006001600160401b03821115613767576137676136ef565b61377082613196565b60200192915050565b600061378c6137878461374e565b613732565b9050828152602081018484840111156137a7576137a7600080fd5b611c6684828561316a565b600082601f8301126137c6576137c6600080fd5b815161189a848260208601613779565b6000602082840312156137eb576137eb600080fd5b81516001600160401b0381111561380457613804600080fd5b61189a848285016137b2565b60008060006060848603121561382857613828600080fd5b600061383486866134f9565b9350506020613845868287016134f9565b92505060406132c5868287016134f9565b6000613860825190565b61386e81856020860161316a565b9290920192915050565b601760f91b815260005b5060010190565b60006138958286613856565b91506138a082613878565b91506138ac8285613856565b91506138b782613878565b91506123858284613856565b8051610120808452600091908401906138dc82826131a0565b915050602083015184820360208601526138f682826131a0565b9150506040830151848203604086015261391082826131a0565b9150506060830151848203606086015261392a82826131a0565b9150506080830151848203608086015261394482826131a0565b91505060a083015184820360a086015261395e82826131a0565b91505060c083015184820360c086015261397882826131a0565b91505060e083015184820360e086015261399282826131a0565b91505061010083015184820361010086015261238582826131a0565b6020808252810161094081846138c3565b601b81526000602082017a5661756c743a20416c72656164792073657420737472617465677960281b815291505b5060200190565b6020808252810161081a816139bf565b602f81526000602082017f416363657373436f6e74726f6c3a2063616e206f6e6c792072656e6f756e636581526e103937b632b9903337b91039b2b63360891b602082015291505b5060400190565b6020808252810161081a81613a04565b602581526000602082017f5661756c743a20416c72656164792053657420456d657267656e6379205368758152643a3237bbb760d91b60208201529150613a4c565b6020808252810161081a81613a63565b805161081a81613391565b600060208284031215613ad557613ad5600080fd5b600061189a8484613ab5565b60408101613aef828561337a565b6109406020830184613154565b60208082527f5661756c743a20497420697320456d657267656e637920536974756174696f6e910190815260006139ed565b6020808252810161081a81613afc565b60178152600060208201765661756c743a2042616420686172766573742074696d6560481b815291506139ed565b6020808252810161081a81613b3e565b601c81526000602082017b0acc2ead8e87440c8cae0dee6d2e840dadee4ca40e8d0c2dc40dac2f60231b815291506139ed565b6020808252810161081a81613b7c565b60208082527f5661756c743a206465706f736974206c657373207468616e206d696e696d756d910190815260006139ed565b6020808252810161081a81613bbf565b7919185d184e9a5b5859d94bdcdd99cade1b5b0ed8985cd94d8d0b60321b8152601a0160006109408284613856565b60198152600060208201780acc2ead8e87440dad2dce840dadee4ca40e8d0c2dc40dac2f603b1b815291506139ed565b6020808252810161081a81613c30565b601d81526000602082017f5661756c743a206d696e74206c657373207468616e206d696e696d756d000000815291506139ed565b6020808252810161081a81613c70565b602581526000602082017f45524332303a2064656372656173656420616c6c6f77616e63652062656c6f77815264207a65726f60d81b60208201529150613a4c565b6020808252810161081a81613cb4565b601681526000602082017515985d5b1d0e8811195b185e481d1bdbc81cda1bdc9d60521b815291506139ed565b6020808252810161081a81613d06565b60158152600060208201745661756c743a2044656c617920746f6f206c6f6e6760581b815291506139ed565b6020808252810161081a81613d43565b601d81526000602082017f5661756c743a207769746864726177206d6f7265207468616e206d6178000000815291506139ed565b6020808252810161081a81613d7f565b602181526000602082017f5661756c743a207769746864726177206c657373207468616e206d696e696d758152606d60f81b60208201529150613a4c565b6020808252810161081a81613dc3565b601b81526000602082017a0acc2ead8e87440e4cac8cacada40dadee4ca40e8d0c2dc40dac2f602b1b815291506139ed565b6020808252810161081a81613e11565b601f81526000602082017f5661756c743a2072656465656d206c657373207468616e206d696e696d756d00815291506139ed565b6020808252810161081a81613e53565b602481526000602082017f5661756c743a2054617267657420666c6f61742070657263656e7420746f6f208152630d0d2ced60e31b60208201529150613a4c565b6020808252810161081a81613e97565b634e487b7160e01b600052601260045260246000fd5b600082613f0d57613f0d613ee8565b500490565b60138152600060208201720acc2ead8e874408ccaca40e8dede40d0d2ced606b1b815291506139ed565b6020808252810161081a81613f12565b60ff811661311d565b805161081a81613f4c565b600060208284031215613f7557613f75600080fd5b600061189a8484613f55565b602481526000602082017f45524332303a20617070726f76652066726f6d20746865207a65726f206164648152637265737360e01b60208201529150613a4c565b6020808252810161081a81613f81565b602281526000602082017f45524332303a20617070726f766520746f20746865207a65726f206164647265815261737360f01b60208201529150613a4c565b6020808252810161081a81613fd2565b601d81526000602082017f45524332303a20696e73756666696369656e7420616c6c6f77616e6365000000815291506139ed565b6020808252810161081a81614021565b602581526000602082017f45524332303a207472616e736665722066726f6d20746865207a65726f206164815264647265737360d81b60208201529150613a4c565b6020808252810161081a81614065565b602381526000602082017f45524332303a207472616e7366657220746f20746865207a65726f206164647281526265737360e81b60208201529150613a4c565b6020808252810161081a816140b7565b602681526000602082017f45524332303a207472616e7366657220616d6f756e7420657863656564732062815265616c616e636560d01b60208201529150613a4c565b6020808252810161081a81614107565b634e487b7160e01b600052602160045260246000fd5b600060001982141561388257613882613525565b60008261419357614193613ee8565b500690565b634e487b7160e01b600052603260045260246000fd5b6000816141bd576141bd613525565b506000190190565b60208082527f537472696e67733a20686578206c656e67746820696e73756666696369656e74910190815260006139ed565b6020808252810161081a816141c5565b601f81526000602082017f45524332303a206d696e7420746f20746865207a65726f206164647265737300815291506139ed565b6020808252810161081a81614207565b60408101614259828561337a565b61094060208301846130fb565b601681526000602082017515985d5b1d0e88151bdbc81b5d58da08185b5bdd5b9d60521b815291506139ed565b6020808252810161081a81614266565b602481526000602082017f5661756c743a20576974686472617720696e746f2073747261746567792066618152631a5b195960e21b60208201529150613a4c565b6020808252810161081a816142a3565b6040810161425982856130fb565b602381526000602082017f5661756c743a204465706f73697420696e746f207374726174656779206661698152621b195960ea1b60208201529150613a4c565b6020808252810161081a81614302565b60808101614360828761337a565b61436d602083018661337a565b61437a60408301856130fb565b61238560608301846130fb565b76020b1b1b2b9b9a1b7b73a3937b61d1030b1b1b7bab73a1604d1b815260170160006143b38285613856565b7001034b99036b4b9b9b4b733903937b6329607d1b8152601101915061189a8284613856565b602a81526000602082017f5361666545524332303a204552433230206f7065726174696f6e20646964206e8152691bdd081cdd58d8d9595960b21b60208201529150613a4c565b6020808252810161081a816143d9565b6060810161443e828661337a565b61444b602083018561337a565b61189a60408301846130fb565b60408101614466828561337a565b610940602083018461337a565b603681526000602082017f5361666545524332303a20617070726f76652066726f6d206e6f6e2d7a65726f81527520746f206e6f6e2d7a65726f20616c6c6f77616e636560501b60208201529150613a4c565b6020808252810161081a81614473565b602181526000602082017f45524332303a206275726e2066726f6d20746865207a65726f206164647265738152607360f81b60208201529150613a4c565b6020808252810161081a816144d6565b602281526000602082017f45524332303a206275726e20616d6f756e7420657863656564732062616c616e815261636560f01b60208201529150613a4c565b6020808252810161081a81614524565b601d81526000602082017f416464726573733a2063616c6c20746f206e6f6e2d636f6e7472616374000000815291506139ed565b6020808252810161081a81614573565b6000610940828461385656feeededeb59e5fbbc0692124cc306ce20d0ef1b025f06013c271b680eb29f6c2b64142434445464748494a4b4c4d4e4f505152535455565758595a6162636465666768696a6b6c6d6e6f707172737475767778797a303132333435363738392b2fddf252ad1be2c89b69c2b068fc378daa952ba7f163c4a11628f55a4df523b3ef4bb70d6e6a6727da1f292254a72bee47301d4a4390bebfe5a5c43fec3d7a18e17a05a596cb0ce7fdea8a1e1ec73be300bdb35097c944ce1897202f7a13122eb2a2646970667358221220667a7d3785e80c5dde8874bdbea6b0e686c70f893a116910f2fb5db9f5ff034a64736f6c63430008090033",
  "linkReferences": {
    "contracts/libraries/Utils.sol": {
      "Utils": [
        {
          "length": 20,
          "start": 4910
        },
        {
          "length": 20,
          "start": 5056
        },
        {
          "length": 20,
          "start": 7536
        },
        {
          "length": 20,
          "start": 7682
        }
      ]
    }
  },
  "deployedLinkReferences": {
    "contracts/libraries/Utils.sol": {
      "Utils": [
        {
          "length": 20,
          "start": 2491
        },
        {
          "length": 20,
          "start": 2637
        },
        {
          "length": 20,
          "start": 5117
        },
        {
          "length": 20,
          "start": 5263
        }
      ]
    }
  }
}