{
  "_format": "hh-sol-artifact-1",
  "contractName": "ERC4907",
  "sourceName": "contracts/core/ERC4907.sol",
  "abi": [
    {
      "inputs": [
        {
          "internalType": "string",
          "name": "name_",
          "type": "string"
        },
        {
          "internalType": "string",
          "name": "symbol_",
          "type": "string"
        }
      ],
      "stateMutability": "nonpayable",
      "type": "constructor"
    },
    {
      "anonymous": false,
      "inputs": [
        {
          "indexed": true,
          "internalType": "address",
          "name": "owner",
          "type": "address"
        },
        {
          "indexed": true,
          "internalType": "address",
          "name": "approved",
          "type": "address"
        },
        {
          "indexed": true,
          "internalType": "uint256",
          "name": "tokenId",
          "type": "uint256"
        }
      ],
      "name": "Approval",
      "type": "event"
    },
    {
      "anonymous": false,
      "inputs": [
        {
          "indexed": true,
          "internalType": "address",
          "name": "owner",
          "type": "address"
        },
        {
          "indexed": true,
          "internalType": "address",
          "name": "operator",
          "type": "address"
        },
        {
          "indexed": false,
          "internalType": "bool",
          "name": "approved",
          "type": "bool"
        }
      ],
      "name": "ApprovalForAll",
      "type": "event"
    },
    {
      "anonymous": false,
      "inputs": [
        {
          "indexed": true,
          "internalType": "address",
          "name": "from",
          "type": "address"
        },
        {
          "indexed": true,
          "internalType": "address",
          "name": "to",
          "type": "address"
        },
        {
          "indexed": true,
          "internalType": "uint256",
          "name": "tokenId",
          "type": "uint256"
        }
      ],
      "name": "Transfer",
      "type": "event"
    },
    {
      "anonymous": false,
      "inputs": [
        {
          "indexed": true,
          "internalType": "uint256",
          "name": "tokenId",
          "type": "uint256"
        },
        {
          "indexed": true,
          "internalType": "address",
          "name": "user",
          "type": "address"
        },
        {
          "indexed": false,
          "internalType": "uint64",
          "name": "expires",
          "type": "uint64"
        }
      ],
      "name": "UpdateUser",
      "type": "event"
    },
    {
      "inputs": [
        {
          "internalType": "address",
          "name": "to",
          "type": "address"
        },
        {
          "internalType": "uint256",
          "name": "tokenId",
          "type": "uint256"
        }
      ],
      "name": "approve",
      "outputs": [],
      "stateMutability": "nonpayable",
      "type": "function"
    },
    {
      "inputs": [
        {
          "internalType": "address",
          "name": "owner",
          "type": "address"
        }
      ],
      "name": "balanceOf",
      "outputs": [
        {
          "internalType": "uint256",
          "name": "",
          "type": "uint256"
        }
      ],
      "stateMutability": "view",
      "type": "function"
    },
    {
      "inputs": [
        {
          "internalType": "uint256",
          "name": "tokenId",
          "type": "uint256"
        }
      ],
      "name": "getApproved",
      "outputs": [
        {
          "internalType": "address",
          "name": "",
          "type": "address"
        }
      ],
      "stateMutability": "view",
      "type": "function"
    },
    {
      "inputs": [
        {
          "internalType": "address",
          "name": "owner",
          "type": "address"
        },
        {
          "internalType": "address",
          "name": "operator",
          "type": "address"
        }
      ],
      "name": "isApprovedForAll",
      "outputs": [
        {
          "internalType": "bool",
          "name": "",
          "type": "bool"
        }
      ],
      "stateMutability": "view",
      "type": "function"
    },
    {
      "inputs": [],
      "name": "name",
      "outputs": [
        {
          "internalType": "string",
          "name": "",
          "type": "string"
        }
      ],
      "stateMutability": "view",
      "type": "function"
    },
    {
      "inputs": [
        {
          "internalType": "uint256",
          "name": "tokenId",
          "type": "uint256"
        }
      ],
      "name": "ownerOf",
      "outputs": [
        {
          "internalType": "address",
          "name": "",
          "type": "address"
        }
      ],
      "stateMutability": "view",
      "type": "function"
    },
    {
      "inputs": [
        {
          "internalType": "address",
          "name": "from",
          "type": "address"
        },
        {
          "internalType": "address",
          "name": "to",
          "type": "address"
        },
        {
          "internalType": "uint256",
          "name": "tokenId",
          "type": "uint256"
        }
      ],
      "name": "safeTransferFrom",
      "outputs": [],
      "stateMutability": "nonpayable",
      "type": "function"
    },
    {
      "inputs": [
        {
          "internalType": "address",
          "name": "from",
          "type": "address"
        },
        {
          "internalType": "address",
          "name": "to",
          "type": "address"
        },
        {
          "internalType": "uint256",
          "name": "tokenId",
          "type": "uint256"
        },
        {
          "internalType": "bytes",
          "name": "data",
          "type": "bytes"
        }
      ],
      "name": "safeTransferFrom",
      "outputs": [],
      "stateMutability": "nonpayable",
      "type": "function"
    },
    {
      "inputs": [
        {
          "internalType": "address",
          "name": "operator",
          "type": "address"
        },
        {
          "internalType": "bool",
          "name": "approved",
          "type": "bool"
        }
      ],
      "name": "setApprovalForAll",
      "outputs": [],
      "stateMutability": "nonpayable",
      "type": "function"
    },
    {
      "inputs": [
        {
          "internalType": "uint256",
          "name": "tokenId",
          "type": "uint256"
        },
        {
          "internalType": "address",
          "name": "user",
          "type": "address"
        },
        {
          "internalType": "uint64",
          "name": "expires",
          "type": "uint64"
        }
      ],
      "name": "setUser",
      "outputs": [],
      "stateMutability": "nonpayable",
      "type": "function"
    },
    {
      "inputs": [
        {
          "internalType": "bytes4",
          "name": "interfaceId",
          "type": "bytes4"
        }
      ],
      "name": "supportsInterface",
      "outputs": [
        {
          "internalType": "bool",
          "name": "",
          "type": "bool"
        }
      ],
      "stateMutability": "view",
      "type": "function"
    },
    {
      "inputs": [],
      "name": "symbol",
      "outputs": [
        {
          "internalType": "string",
          "name": "",
          "type": "string"
        }
      ],
      "stateMutability": "view",
      "type": "function"
    },
    {
      "inputs": [
        {
          "internalType": "uint256",
          "name": "tokenId",
          "type": "uint256"
        }
      ],
      "name": "tokenURI",
      "outputs": [
        {
          "internalType": "string",
          "name": "",
          "type": "string"
        }
      ],
      "stateMutability": "view",
      "type": "function"
    },
    {
      "inputs": [
        {
          "internalType": "address",
          "name": "from",
          "type": "address"
        },
        {
          "internalType": "address",
          "name": "to",
          "type": "address"
        },
        {
          "internalType": "uint256",
          "name": "tokenId",
          "type": "uint256"
        }
      ],
      "name": "transferFrom",
      "outputs": [],
      "stateMutability": "nonpayable",
      "type": "function"
    },
    {
      "inputs": [
        {
          "internalType": "uint256",
          "name": "tokenId",
          "type": "uint256"
        }
      ],
      "name": "userExpires",
      "outputs": [
        {
          "internalType": "uint256",
          "name": "",
          "type": "uint256"
        }
      ],
      "stateMutability": "view",
      "type": "function"
    },
    {
      "inputs": [
        {
          "internalType": "uint256",
          "name": "tokenId",
          "type": "uint256"
        }
      ],
      "name": "userOf",
      "outputs": [
        {
          "internalType": "address",
          "name": "",
          "type": "address"
        }
      ],
      "stateMutability": "view",
      "type": "function"
    }
  ],
  "bytecode": "0x60806040523480156200001157600080fd5b506040516200193638038062001936833981016040819052620000349162000251565b8151829082906200004d9060009060208501906200006e565b508051620000639060019060208401906200006e565b505050505062000312565b8280546200007c90620002e1565b90600052602060002090601f016020900481019282620000a05760008555620000eb565b82601f10620000bb57805160ff1916838001178555620000eb565b82800160010185558215620000eb579182015b82811115620000eb578251825591602001919060010190620000ce565b50620000f9929150620000fd565b5090565b5b80821115620000f95760008155600101620000fe565b634e487b7160e01b600052604160045260246000fd5b601f19601f83011681018181106001600160401b038211171562000152576200015262000114565b6040525050565b60006200016560405190565b90506200017382826200012a565b919050565b60006001600160401b0382111562000194576200019462000114565b601f19601f83011660200192915050565b60005b83811015620001c2578181015183820152602001620001a8565b83811115620001d2576000848401525b50505050565b6000620001ef620001e98462000178565b62000159565b9050828152602081018484840111156200020c576200020c600080fd5b62000219848285620001a5565b509392505050565b600082601f830112620002375762000237600080fd5b815162000249848260208601620001d8565b949350505050565b60008060408385031215620002695762000269600080fd5b82516001600160401b03811115620002845762000284600080fd5b620002928582860162000221565b92505060208301516001600160401b03811115620002b357620002b3600080fd5b620002c18582860162000221565b9150509250929050565b634e487b7160e01b600052602260045260246000fd5b600281046001821680620002f657607f821691505b602082108114156200030c576200030c620002cb565b50919050565b61161480620003226000396000f3fe608060405234801561001057600080fd5b50600436106100d05760003560e01c806301ffc9a7146100d557806306fdde03146100fe578063081812fc14610113578063095ea7b31461013357806323b872dd1461014857806342842e0e1461015b5780636352211e1461016e57806370a08231146101815780638fc88c48146101a157806395d89b41146101d1578063a22cb465146101d9578063b88d4fde146101ec578063c2f1f14a146101ff578063c87b56dd14610212578063e030565e14610225578063e985e9c514610238575b600080fd5b6100e86100e3366004610c53565b61024b565b6040516100f59190610c7e565b60405180910390f35b610106610276565b6040516100f59190610cf6565b610126610121366004610d18565b610308565b6040516100f59190610d53565b610146610141366004610d75565b61032f565b005b610146610156366004610db2565b6103be565b610146610169366004610db2565b6103ef565b61012661017c366004610d18565b61040a565b61019461018f366004610e02565b61043f565b6040516100f59190610e29565b6101946101af366004610d18565b600090815260066020526040902054600160a01b90046001600160401b031690565b610106610483565b6101466101e7366004610e4a565b610492565b6101466101fa366004610f78565b6104a1565b61012661020d366004610d18565b6104d9565b610106610220366004610d18565b610523565b610146610233366004611010565b610597565b6100e8610246366004611056565b61062a565b60006001600160e01b03198216632b424ad760e21b1480610270575061027082610658565b92915050565b6060600080546102859061109f565b80601f01602080910402602001604051908101604052809291908181526020018280546102b19061109f565b80156102fe5780601f106102d3576101008083540402835291602001916102fe565b820191906000526020600020905b8154815290600101906020018083116102e157829003601f168201915b5050505050905090565b6000610313826106a8565b506000908152600460205260409020546001600160a01b031690565b600061033a8261040a565b9050806001600160a01b0316836001600160a01b031614156103775760405162461bcd60e51b815260040161036e9061110d565b60405180910390fd5b336001600160a01b03821614806103935750610393813361062a565b6103af5760405162461bcd60e51b815260040161036e90611177565b6103b983836106df565b505050565b6103c8338261074d565b6103e45760405162461bcd60e51b815260040161036e906111d2565b6103b98383836107ac565b6103b9838383604051806020016040528060008152506104a1565b6000818152600260205260408120546001600160a01b0316806102705760405162461bcd60e51b815260040161036e90611214565b60006001600160a01b0382166104675760405162461bcd60e51b815260040161036e9061126a565b506001600160a01b031660009081526003602052604090205490565b6060600180546102859061109f565b61049d3383836108d9565b5050565b6104ab338361074d565b6104c75760405162461bcd60e51b815260040161036e906111d2565b6104d38484848461097c565b50505050565b60008181526006602052604081205442600160a01b9091046001600160401b03161061051b57506000908152600660205260409020546001600160a01b031690565b506000919050565b606061052e826106a8565b600061054560408051602081019091526000815290565b905060008151116105655760405180602001604052806000815250610590565b8061056f846109af565b60405160200161058092919061129c565b6040516020818303038152906040525b9392505050565b6105a1338461074d565b6105bd5760405162461bcd60e51b815260040161036e90611303565b6000838152600660205260409081902080546001600160a01b0385166001600160e01b03199091168117600160a01b6001600160401b03861602178255915190919085906000805160206115bf8339815191529061061c908690611322565b60405180910390a350505050565b6001600160a01b03918216600090815260056020908152604080832093909416825291909152205460ff1690565b60006001600160e01b031982166380ac58cd60e01b148061068957506001600160e01b03198216635b5e139f60e01b145b8061027057506301ffc9a760e01b6001600160e01b0319831614610270565b6000818152600260205260409020546001600160a01b03166106dc5760405162461bcd60e51b815260040161036e90611214565b50565b600081815260046020526040902080546001600160a01b0319166001600160a01b03841690811790915581906107148261040a565b6001600160a01b03167f8c5be1e5ebec7d5bd14f71427d1e84f3dd0314c0f7b2291e5b200ac8c7c3b92560405160405180910390a45050565b6000806107598361040a565b9050806001600160a01b0316846001600160a01b031614806107805750610780818561062a565b806107a45750836001600160a01b031661079984610308565b6001600160a01b0316145b949350505050565b826001600160a01b03166107bf8261040a565b6001600160a01b0316146107e55760405162461bcd60e51b815260040161036e90611372565b6001600160a01b03821661080b5760405162461bcd60e51b815260040161036e906113c3565b610816838383610aac565b6108216000826106df565b6001600160a01b038316600090815260036020526040812080546001929061084a9084906113e9565b90915550506001600160a01b0382166000908152600360205260408120805460019290610878908490611400565b909155505060008181526002602052604080822080546001600160a01b0319166001600160a01b0386811691821790925591518493918716917fddf252ad1be2c89b69c2b068fc378daa952ba7f163c4a11628f55a4df523b3ef91a4505050565b816001600160a01b0316836001600160a01b0316141561090b5760405162461bcd60e51b815260040161036e90611448565b6001600160a01b0383811660008181526005602090815260408083209487168084529490915290819020805460ff1916851515179055517f17307eab39ab6107e8899845ad3d59bd9653f200f220920489ca2b5937696c319061096f908590610c7e565b60405180910390a3505050565b6109878484846107ac565b61099384848484610b24565b6104d35760405162461bcd60e51b815260040161036e906114a7565b6060816109d35750506040805180820190915260018152600360fc1b602082015290565b8160005b81156109fd57806109e7816114b7565b91506109f69050600a836114e8565b91506109d7565b6000816001600160401b03811115610a1757610a17610e7d565b6040519080825280601f01601f191660200182016040528015610a41576020820181803683370190505b5090505b84156107a457610a566001836113e9565b9150610a63600a866114fc565b610a6e906030611400565b60f81b818381518110610a8357610a83611510565b60200101906001600160f81b031916908160001a905350610aa5600a866114e8565b9450610a45565b816001600160a01b0316836001600160a01b031614158015610ae457506000818152600660205260409020546001600160a01b031615155b156103b95760008181526006602052604080822080546001600160e01b03191690555182906000805160206115bf8339815191529061096f908490611540565b60006001600160a01b0384163b15610c2657604051630a85bd0160e11b81526001600160a01b0385169063150b7a0290610b6890339089908890889060040161154e565b602060405180830381600087803b158015610b8257600080fd5b505af1925050508015610bb2575060408051601f3d908101601f19168201909252610baf9181019061159d565b60015b610c0c573d808015610be0576040519150601f19603f3d011682016040523d82523d6000602084013e610be5565b606091505b508051610c045760405162461bcd60e51b815260040161036e906114a7565b805181602001fd5b6001600160e01b031916630a85bd0160e11b1490506107a4565b506001949350505050565b6001600160e01b031981165b81146106dc57600080fd5b803561027081610c31565b600060208284031215610c6857610c68600080fd5b60006107a48484610c48565b8015155b82525050565b602081016102708284610c74565b60005b83811015610ca7578181015183820152602001610c8f565b838111156104d35750506000910152565b601f01601f191690565b6000610ccc825190565b808452602084019350610ce3818560208601610c8c565b610cec81610cb8565b9093019392505050565b602080825281016105908184610cc2565b80610c3d565b803561027081610d07565b600060208284031215610d2d57610d2d600080fd5b60006107a48484610d0d565b60006001600160a01b038216610270565b610c7881610d39565b602081016102708284610d4a565b610c3d81610d39565b803561027081610d61565b60008060408385031215610d8b57610d8b600080fd5b6000610d978585610d6a565b9250506020610da885828601610d0d565b9150509250929050565b600080600060608486031215610dca57610dca600080fd5b6000610dd68686610d6a565b9350506020610de786828701610d6a565b9250506040610df886828701610d0d565b9150509250925092565b600060208284031215610e1757610e17600080fd5b60006107a48484610d6a565b80610c78565b602081016102708284610e23565b801515610c3d565b803561027081610e37565b60008060408385031215610e6057610e60600080fd5b6000610e6c8585610d6a565b9250506020610da885828601610e3f565b634e487b7160e01b600052604160045260246000fd5b610e9c82610cb8565b81018181106001600160401b0382111715610eb957610eb9610e7d565b6040525050565b6000610ecb60405190565b9050610ed78282610e93565b919050565b60006001600160401b03821115610ef557610ef5610e7d565b610efe82610cb8565b60200192915050565b82818337506000910152565b6000610f26610f2184610edc565b610ec0565b905082815260208101848484011115610f4157610f41600080fd5b610f4c848285610f07565b509392505050565b600082601f830112610f6857610f68600080fd5b81356107a4848260208601610f13565b60008060008060808587031215610f9157610f91600080fd5b6000610f9d8787610d6a565b9450506020610fae87828801610d6a565b9350506040610fbf87828801610d0d565b92505060608501356001600160401b03811115610fde57610fde600080fd5b610fea87828801610f54565b91505092959194509250565b6001600160401b038116610c3d565b803561027081610ff6565b60008060006060848603121561102857611028600080fd5b60006110348686610d0d565b935050602061104586828701610d6a565b9250506040610df886828701611005565b6000806040838503121561106c5761106c600080fd5b60006110788585610d6a565b9250506020610da885828601610d6a565b634e487b7160e01b600052602260045260246000fd5b6002810460018216806110b357607f821691505b602082108114156110c6576110c6611089565b50919050565b602181526000602082017f4552433732313a20617070726f76616c20746f2063757272656e74206f776e658152603960f91b602082015291505b5060400190565b60208082528101610270816110cc565b603e81526000602082017f4552433732313a20617070726f76652063616c6c6572206973206e6f7420746f81527f6b656e206f776e6572206e6f7220617070726f76656420666f7220616c6c000060208201529150611106565b602080825281016102708161111d565b602e81526000602082017f4552433732313a2063616c6c6572206973206e6f7420746f6b656e206f776e6581526d1c881b9bdc88185c1c1c9bdd995960921b60208201529150611106565b6020808252810161027081611187565b6018815260006020820177115490cdcc8c4e881a5b9d985b1a59081d1bdad95b88125160421b815291505b5060200190565b60208082528101610270816111e2565b602981526000602082017f4552433732313a2061646472657373207a65726f206973206e6f7420612076618152683634b21037bbb732b960b91b60208201529150611106565b6020808252810161027081611224565b6000611284825190565b611292818560208601610c8c565b9290920192915050565b60006112a8828561127a565b91506107a4828461127a565b603281526000602082017f455243343930373a207472616e736665722063616c6c6572206973206e6f74208152711bdddb995c881b9bdc88185c1c1c9bdd995960721b60208201529150611106565b60208082528101610270816112b4565b6001600160401b038116610c78565b602081016102708284611313565b602581526000602082017f4552433732313a207472616e736665722066726f6d20696e636f72726563742081526437bbb732b960d91b60208201529150611106565b6020808252810161027081611330565b602481526000602082017f4552433732313a207472616e7366657220746f20746865207a65726f206164648152637265737360e01b60208201529150611106565b6020808252810161027081611382565b634e487b7160e01b600052601160045260246000fd5b6000828210156113fb576113fb6113d3565b500390565b60008219821115611413576114136113d3565b500190565b601981526000602082017822a9219b99189d1030b8383937bb32903a379031b0b63632b960391b8152915061120d565b6020808252810161027081611418565b603281526000602082017f4552433732313a207472616e7366657220746f206e6f6e20455243373231526581527131b2b4bb32b91034b6b83632b6b2b73a32b960711b60208201529150611106565b6020808252810161027081611458565b60006000198214156114cb576114cb6113d3565b5060010190565b634e487b7160e01b600052601260045260246000fd5b6000826114f7576114f76114d2565b500490565b60008261150b5761150b6114d2565b500690565b634e487b7160e01b600052603260045260246000fd5b60006001600160401b038216610270565b610c7881611526565b602081016102708284611537565b6080810161155c8287610d4a565b6115696020830186610d4a565b6115766040830185610e23565b81810360608301526115888184610cc2565b9695505050505050565b805161027081610c31565b6000602082840312156115b2576115b2600080fd5b60006107a4848461159256fe4e06b4e7000e659094299b3533b47b6aa8ad048e95e872d23d1f4ee55af89cfea2646970667358221220d47d7ccdbabd9480600ed1d851bfb7338424e585727b4ddb91cb62ee1cec04cb64736f6c63430008090033",
  "linkReferences": {},
  "deployedLinkReferences": {}
}