{
  "_format": "hh-sol-artifact-1",
  "contractName": "Qui",
  "sourceName": "contracts/token/Qui.sol",
  "abi": [
    {
      "inputs": [
        {
          "internalType": "uint256",
          "name": "_taxPercent_",
          "type": "uint256"
        },
        {
          "internalType": "bytes32",
          "name": "_merkleRoot_",
          "type": "bytes32"
        }
      ],
      "stateMutability": "nonpayable",
      "type": "constructor"
    },
    {
      "anonymous": false,
      "inputs": [
        {
          "indexed": true,
          "internalType": "address",
          "name": "owner",
          "type": "address"
        },
        {
          "indexed": true,
          "internalType": "address",
          "name": "spender",
          "type": "address"
        },
        {
          "indexed": false,
          "internalType": "uint256",
          "name": "value",
          "type": "uint256"
        }
      ],
      "name": "Approval",
      "type": "event"
    },
    {
      "anonymous": false,
      "inputs": [
        {
          "indexed": false,
          "internalType": "bytes32",
          "name": "merkleRoot",
          "type": "bytes32"
        }
      ],
      "name": "MerkleRootUpdated",
      "type": "event"
    },
    {
      "anonymous": false,
      "inputs": [
        {
          "indexed": false,
          "internalType": "uint256",
          "name": "phase",
          "type": "uint256"
        },
        {
          "indexed": false,
          "internalType": "uint256",
          "name": "mintedAmount",
          "type": "uint256"
        }
      ],
      "name": "MintPhaseUpdated",
      "type": "event"
    },
    {
      "anonymous": false,
      "inputs": [
        {
          "indexed": true,
          "internalType": "address",
          "name": "previousOwner",
          "type": "address"
        },
        {
          "indexed": true,
          "internalType": "address",
          "name": "newOwner",
          "type": "address"
        }
      ],
      "name": "OwnershipTransferred",
      "type": "event"
    },
    {
      "anonymous": false,
      "inputs": [
        {
          "indexed": false,
          "internalType": "uint256",
          "name": "taxAmount",
          "type": "uint256"
        }
      ],
      "name": "TaxUpdated",
      "type": "event"
    },
    {
      "anonymous": false,
      "inputs": [
        {
          "indexed": true,
          "internalType": "address",
          "name": "from",
          "type": "address"
        },
        {
          "indexed": true,
          "internalType": "address",
          "name": "to",
          "type": "address"
        },
        {
          "indexed": false,
          "internalType": "uint256",
          "name": "value",
          "type": "uint256"
        }
      ],
      "name": "Transfer",
      "type": "event"
    },
    {
      "anonymous": false,
      "inputs": [
        {
          "indexed": false,
          "internalType": "address",
          "name": "newTreasury",
          "type": "address"
        }
      ],
      "name": "TreasuryAddressUpdated",
      "type": "event"
    },
    {
      "inputs": [
        {
          "internalType": "bytes32[]",
          "name": "_merkleProof",
          "type": "bytes32[]"
        },
        {
          "internalType": "address",
          "name": "claimer",
          "type": "address"
        },
        {
          "internalType": "uint256",
          "name": "amount",
          "type": "uint256"
        }
      ],
      "name": "airDrop",
      "outputs": [],
      "stateMutability": "nonpayable",
      "type": "function"
    },
    {
      "inputs": [
        {
          "internalType": "address",
          "name": "owner",
          "type": "address"
        },
        {
          "internalType": "address",
          "name": "spender",
          "type": "address"
        }
      ],
      "name": "allowance",
      "outputs": [
        {
          "internalType": "uint256",
          "name": "",
          "type": "uint256"
        }
      ],
      "stateMutability": "view",
      "type": "function"
    },
    {
      "inputs": [
        {
          "internalType": "address",
          "name": "spender",
          "type": "address"
        },
        {
          "internalType": "uint256",
          "name": "amount",
          "type": "uint256"
        }
      ],
      "name": "approve",
      "outputs": [
        {
          "internalType": "bool",
          "name": "",
          "type": "bool"
        }
      ],
      "stateMutability": "nonpayable",
      "type": "function"
    },
    {
      "inputs": [
        {
          "internalType": "address",
          "name": "account",
          "type": "address"
        }
      ],
      "name": "balanceOf",
      "outputs": [
        {
          "internalType": "uint256",
          "name": "",
          "type": "uint256"
        }
      ],
      "stateMutability": "view",
      "type": "function"
    },
    {
      "inputs": [
        {
          "internalType": "uint256",
          "name": "amount",
          "type": "uint256"
        }
      ],
      "name": "burn",
      "outputs": [],
      "stateMutability": "nonpayable",
      "type": "function"
    },
    {
      "inputs": [
        {
          "internalType": "address",
          "name": "account",
          "type": "address"
        },
        {
          "internalType": "uint256",
          "name": "amount",
          "type": "uint256"
        }
      ],
      "name": "burnFrom",
      "outputs": [],
      "stateMutability": "nonpayable",
      "type": "function"
    },
    {
      "inputs": [
        {
          "internalType": "address",
          "name": "owner",
          "type": "address"
        },
        {
          "internalType": "address",
          "name": "spender",
          "type": "address"
        },
        {
          "internalType": "uint256",
          "name": "amount",
          "type": "uint256"
        }
      ],
      "name": "burnQui",
      "outputs": [],
      "stateMutability": "nonpayable",
      "type": "function"
    },
    {
      "inputs": [
        {
          "internalType": "address",
          "name": "newOwner",
          "type": "address"
        }
      ],
      "name": "changeOwner",
      "outputs": [],
      "stateMutability": "nonpayable",
      "type": "function"
    },
    {
      "inputs": [],
      "name": "decimals",
      "outputs": [
        {
          "internalType": "uint8",
          "name": "",
          "type": "uint8"
        }
      ],
      "stateMutability": "view",
      "type": "function"
    },
    {
      "inputs": [
        {
          "internalType": "address",
          "name": "spender",
          "type": "address"
        },
        {
          "internalType": "uint256",
          "name": "subtractedValue",
          "type": "uint256"
        }
      ],
      "name": "decreaseAllowance",
      "outputs": [
        {
          "internalType": "bool",
          "name": "",
          "type": "bool"
        }
      ],
      "stateMutability": "nonpayable",
      "type": "function"
    },
    {
      "inputs": [],
      "name": "getAirdropPhase",
      "outputs": [
        {
          "internalType": "uint256",
          "name": "",
          "type": "uint256"
        }
      ],
      "stateMutability": "view",
      "type": "function"
    },
    {
      "inputs": [
        {
          "internalType": "address",
          "name": "addr",
          "type": "address"
        }
      ],
      "name": "getBalance",
      "outputs": [
        {
          "internalType": "uint256",
          "name": "",
          "type": "uint256"
        }
      ],
      "stateMutability": "view",
      "type": "function"
    },
    {
      "inputs": [],
      "name": "getTaxPercent",
      "outputs": [
        {
          "internalType": "uint256",
          "name": "",
          "type": "uint256"
        }
      ],
      "stateMutability": "view",
      "type": "function"
    },
    {
      "inputs": [
        {
          "internalType": "address",
          "name": "spender",
          "type": "address"
        },
        {
          "internalType": "uint256",
          "name": "addedValue",
          "type": "uint256"
        }
      ],
      "name": "increaseAllowance",
      "outputs": [
        {
          "internalType": "bool",
          "name": "",
          "type": "bool"
        }
      ],
      "stateMutability": "nonpayable",
      "type": "function"
    },
    {
      "inputs": [
        {
          "internalType": "address",
          "name": "to",
          "type": "address"
        },
        {
          "internalType": "uint256",
          "name": "amount",
          "type": "uint256"
        }
      ],
      "name": "mint",
      "outputs": [],
      "stateMutability": "nonpayable",
      "type": "function"
    },
    {
      "inputs": [],
      "name": "name",
      "outputs": [
        {
          "internalType": "string",
          "name": "",
          "type": "string"
        }
      ],
      "stateMutability": "view",
      "type": "function"
    },
    {
      "inputs": [],
      "name": "owner",
      "outputs": [
        {
          "internalType": "address",
          "name": "",
          "type": "address"
        }
      ],
      "stateMutability": "view",
      "type": "function"
    },
    {
      "inputs": [],
      "name": "renounceOwnership",
      "outputs": [],
      "stateMutability": "nonpayable",
      "type": "function"
    },
    {
      "inputs": [
        {
          "internalType": "uint256",
          "name": "newTaxPercent",
          "type": "uint256"
        }
      ],
      "name": "setTax",
      "outputs": [],
      "stateMutability": "nonpayable",
      "type": "function"
    },
    {
      "inputs": [
        {
          "internalType": "address",
          "name": "_treasury",
          "type": "address"
        }
      ],
      "name": "setTreasuryAddress",
      "outputs": [],
      "stateMutability": "nonpayable",
      "type": "function"
    },
    {
      "inputs": [],
      "name": "symbol",
      "outputs": [
        {
          "internalType": "string",
          "name": "",
          "type": "string"
        }
      ],
      "stateMutability": "view",
      "type": "function"
    },
    {
      "inputs": [],
      "name": "totalSupply",
      "outputs": [
        {
          "internalType": "uint256",
          "name": "",
          "type": "uint256"
        }
      ],
      "stateMutability": "view",
      "type": "function"
    },
    {
      "inputs": [
        {
          "internalType": "address",
          "name": "to",
          "type": "address"
        },
        {
          "internalType": "uint256",
          "name": "amount",
          "type": "uint256"
        }
      ],
      "name": "transfer",
      "outputs": [
        {
          "internalType": "bool",
          "name": "",
          "type": "bool"
        }
      ],
      "stateMutability": "nonpayable",
      "type": "function"
    },
    {
      "inputs": [
        {
          "internalType": "address",
          "name": "sender",
          "type": "address"
        },
        {
          "internalType": "address",
          "name": "recipient",
          "type": "address"
        },
        {
          "internalType": "uint256",
          "name": "amount",
          "type": "uint256"
        }
      ],
      "name": "transfer",
      "outputs": [],
      "stateMutability": "nonpayable",
      "type": "function"
    },
    {
      "inputs": [
        {
          "internalType": "address",
          "name": "from",
          "type": "address"
        },
        {
          "internalType": "address",
          "name": "to",
          "type": "address"
        },
        {
          "internalType": "uint256",
          "name": "amount",
          "type": "uint256"
        }
      ],
      "name": "transferFrom",
      "outputs": [
        {
          "internalType": "bool",
          "name": "",
          "type": "bool"
        }
      ],
      "stateMutability": "nonpayable",
      "type": "function"
    },
    {
      "inputs": [
        {
          "internalType": "address",
          "name": "newOwner",
          "type": "address"
        }
      ],
      "name": "transferOwnership",
      "outputs": [],
      "stateMutability": "nonpayable",
      "type": "function"
    },
    {
      "inputs": [],
      "name": "treasury",
      "outputs": [
        {
          "internalType": "address",
          "name": "",
          "type": "address"
        }
      ],
      "stateMutability": "view",
      "type": "function"
    },
    {
      "inputs": [
        {
          "internalType": "uint256",
          "name": "amount",
          "type": "uint256"
        }
      ],
      "name": "updateMintPhase",
      "outputs": [],
      "stateMutability": "nonpayable",
      "type": "function"
    }
  ],
  "bytecode": "0x60806040523480156200001157600080fd5b50604051620019a7380380620019a78339810160408190526200003491620001d5565b6040518060400160405280600c81526020016b28bab4b737b0902a37b5b2b760a11b8152506040518060400160405280600381526020016251554960e81b81525081600390805190602001906200008d9291906200012f565b508051620000a39060049060208401906200012f565b505050620000c0620000ba620000d960201b60201c565b620000dd565b60016009556000600a5560089190915560075562000245565b3390565b600580546001600160a01b038381166001600160a01b0319831681179093556040519116919082907f8be0079c531659141344cd1fd0a4f28419497f9722a3daafe3b4186f6b6457e090600090a35050565b8280546200013d9062000214565b90600052602060002090601f016020900481019282620001615760008555620001ac565b82601f106200017c57805160ff1916838001178555620001ac565b82800160010185558215620001ac579182015b82811115620001ac5782518255916020019190600101906200018f565b50620001ba929150620001be565b5090565b5b80821115620001ba5760008155600101620001bf565b60008060408385031215620001ed57620001ed600080fd5b505080516020909101519092909150565b634e487b7160e01b600052602260045260246000fd5b6002810460018216806200022957607f821691505b602082108114156200023f576200023f620001fe565b50919050565b61175280620002556000396000f3fe608060405234801561001057600080fd5b50600436106101545760003560e01c806306fdde0314610159578063095ea7b31461017757806318160ddd1461019757806323b872dd146101a85780632569495a146101bb5780632e5bb6ff146101d0578063313ce567146101e357806335eda932146101f2578063395093511461020557806340c10f191461021857806342966c681461022b57806361d027b31461023e5780636605bfda1461025e57806370a0823114610271578063715018a61461029a57806379cc6790146102a25780638da5cb5b146102b557806395d89b41146102bd578063964886d7146102c557806398a9cfac146102cd578063a457c2d7146102d5578063a6f9dae1146102e8578063a9059cbb146102fb578063beabacc81461030e578063dd62ed3e14610321578063f2fde38b14610334578063f8b2cb4f14610347578063fda64b2a1461035a575b600080fd5b61016161036d565b60405161016e9190610e78565b60405180910390f35b61018a610185366004610eca565b6103ff565b60405161016e9190610f11565b6002545b60405161016e9190610f25565b61018a6101b6366004610f33565b610419565b6101ce6101c9366004610fd4565b61043f565b005b6101ce6101de366004611042565b610547565b601260405161016e9190611074565b6101ce610200366004611042565b61058f565b61018a610213366004610eca565b610671565b6101ce610226366004610eca565b61068e565b6101ce610239366004611042565b6106a4565b600654610251906001600160a01b031681565b60405161016e919061108b565b6101ce61026c366004611099565b6106b1565b61019b61027f366004611099565b6001600160a01b031660009081526020819052604090205490565b6101ce61072a565b6101ce6102b0366004610eca565b61073e565b610251610753565b610161610762565b60095461019b565b60085461019b565b61018a6102e3366004610eca565b610771565b6101ce6102f6366004611099565b6107b9565b61018a610309366004610eca565b610808565b6101ce61031c366004610f33565b610816565b61019b61032f3660046110ba565b610826565b6101ce610342366004611099565b610851565b61019b610355366004611099565b610888565b6101ce610368366004610f33565b6108fe565b60606003805461037c90611103565b80601f01602080910402602001604051908101604052809291908181526020018280546103a890611103565b80156103f55780601f106103ca576101008083540402835291602001916103f5565b820191906000526020600020905b8154815290600101906020018083116103d857829003601f168201915b5050505050905090565b60003361040d818585610913565b60019150505b92915050565b6000336104278582856109c7565b610432858585610a11565b60019150505b9392505050565b60008282604051602001610454929190611158565b6040516020818303038152906040528051906020012090506104ad858580806020026020016040519081016040528093929190818152602001838360200280828437600092019190915250506007549150849050610aa8565b6104d25760405162461bcd60e51b81526004016104c9906111b2565b60405180910390fd5b6009546000908152600b6020908152604080832033845290915290205460ff161561050f5760405162461bcd60e51b81526004016104c9906111f1565b6009546000908152600b602090815260408083203384529091529020805460ff191660011790556105408383610abe565b5050505050565b61054f610b60565b60088190556040517f35ad15e7f5e4a16b548e8916bd02c51847dde8d106f334b4edaaacf140e43c9190610584908390610f25565b60405180910390a150565b610597610b60565b6001600a60008282546105aa9190611217565b909155506105ba90503082610abe565b61063e306105c6610753565b6040516370a0823160e01b815230906370a08231906105e990839060040161108b565b60206040518083038186803b15801561060157600080fd5b505afa158015610615573d6000803e3d6000fd5b505050506040513d601f19601f82011682018060405250810190610639919061123a565b610913565b7f85573f98ecc267d3ef917d948a157a77675ea0f27225da032f4c95f0efcf5a56600a548260405161058492919061125b565b60003361040d8185856106848383610826565b6106399190611217565b610696610b60565b6106a08282610abe565b5050565b6106ae3382610b8f565b50565b6106b9610b60565b6001600160a01b0381166106df5760405162461bcd60e51b81526004016104c9906112ba565b600680546001600160a01b0319166001600160a01b0383161790556040517fb6a5e89655cf506139085f051af608195ed056f8dc550b180a1c38d401e2b6c49061058490839061108b565b610732610b60565b61073c6000610c4e565b565b6107498233836109c7565b6106a08282610b8f565b6005546001600160a01b031690565b60606004805461037c90611103565b6000338161077f8286610826565b9050838110156107a15760405162461bcd60e51b81526004016104c99061130c565b6107ae8286868403610913565b506001949350505050565b6107c1610b60565b6107d4306107cd610753565b6000610913565b6107dd81610c4e565b6040516370a0823160e01b81526106ae903090839082906370a08231906105e990839060040161108b565b60003361040d818585610a11565b610821838383610a11565b505050565b6001600160a01b03918216600090815260016020908152604080832093909416825291909152205490565b610859610b60565b6001600160a01b03811661087f5760405162461bcd60e51b81526004016104c99061135f565b6106ae81610c4e565b6040516370a0823160e01b815260009030906370a08231906108ae90859060040161108b565b60206040518083038186803b1580156108c657600080fd5b505afa1580156108da573d6000803e3d6000fd5b505050506040513d601f19601f82011682018060405250810190610413919061123a565b6109098383836109c7565b6108218382610b8f565b6001600160a01b0383166109395760405162461bcd60e51b81526004016104c9906113b0565b6001600160a01b03821661095f5760405162461bcd60e51b81526004016104c9906113ff565b6001600160a01b0380841660008181526001602090815260408083209487168084529490915290819020849055517f8c5be1e5ebec7d5bd14f71427d1e84f3dd0314c0f7b2291e5b200ac8c7c3b925906109ba908590610f25565b60405180910390a3505050565b60006109d38484610826565b90506000198114610a0b57818110156109fe5760405162461bcd60e51b81526004016104c990611443565b610a0b8484848403610913565b50505050565b6006546001600160a01b0384811691161480610a3a57506006546001600160a01b038381169116145b80610a4d57506001600160a01b03831630145b15610a5d57610821838383610ca0565b6000606460085483610a6f9190611453565b610a799190611488565b600654909150610a949085906001600160a01b031683610ca0565b610a0b8484610aa3848661149c565b610ca0565b600082610ab58584610da1565b14949350505050565b6001600160a01b038216610ae45760405162461bcd60e51b81526004016104c9906114e7565b8060026000828254610af69190611217565b90915550506001600160a01b03821660009081526020819052604081208054839290610b23908490611217565b90915550506040516001600160a01b038316906000906000805160206116fd83398151915290610b54908590610f25565b60405180910390a35050565b33610b69610753565b6001600160a01b03161461073c5760405162461bcd60e51b81526004016104c990611529565b6001600160a01b038216610bb55760405162461bcd60e51b81526004016104c990611577565b6001600160a01b03821660009081526020819052604090205481811015610bee5760405162461bcd60e51b81526004016104c9906115c6565b6001600160a01b0383166000908152602081905260408120838303905560028054849290610c1d90849061149c565b90915550506040516000906001600160a01b038516906000805160206116fd833981519152906109ba908690610f25565b600580546001600160a01b038381166001600160a01b0319831681179093556040519116919082907f8be0079c531659141344cd1fd0a4f28419497f9722a3daafe3b4186f6b6457e090600090a35050565b6001600160a01b038316610cc65760405162461bcd60e51b81526004016104c990611618565b6001600160a01b038216610cec5760405162461bcd60e51b81526004016104c990611668565b6001600160a01b03831660009081526020819052604090205481811015610d255760405162461bcd60e51b81526004016104c9906116bb565b6001600160a01b03808516600090815260208190526040808220858503905591851681529081208054849290610d5c908490611217565b92505081905550826001600160a01b0316846001600160a01b03166000805160206116fd83398151915284604051610d949190610f25565b60405180910390a3610a0b565b600081815b8451811015610de657610dd282868381518110610dc557610dc56116cb565b6020026020010151610dee565b915080610dde816116e1565b915050610da6565b509392505050565b6000818310610e0a576000828152602084905260409020610438565b5060009182526020526040902090565b60005b83811015610e35578181015183820152602001610e1d565b83811115610a0b5750506000910152565b6000610e50825190565b808452602084019350610e67818560208601610e1a565b601f01601f19169290920192915050565b602080825281016104388184610e46565b60006001600160a01b038216610413565b610ea381610e89565b81146106ae57600080fd5b803561041381610e9a565b80610ea3565b803561041381610eb9565b60008060408385031215610ee057610ee0600080fd5b6000610eec8585610eae565b9250506020610efd85828601610ebf565b9150509250929050565b8015155b82525050565b602081016104138284610f07565b80610f0b565b602081016104138284610f1f565b600080600060608486031215610f4b57610f4b600080fd5b6000610f578686610eae565b9350506020610f6886828701610eae565b9250506040610f7986828701610ebf565b9150509250925092565b60008083601f840112610f9857610f98600080fd5b5081356001600160401b03811115610fb257610fb2600080fd5b602083019150836020820283011115610fcd57610fcd600080fd5b9250929050565b60008060008060608587031215610fed57610fed600080fd5b84356001600160401b0381111561100657611006600080fd5b61101287828801610f83565b9450945050602061102587828801610eae565b925050604061103687828801610ebf565b91505092959194509250565b60006020828403121561105757611057600080fd5b60006110638484610ebf565b949350505050565b60ff8116610f0b565b60208101610413828461106b565b610f0b81610e89565b602081016104138284611082565b6000602082840312156110ae576110ae600080fd5b60006110638484610eae565b600080604083850312156110d0576110d0600080fd5b60006110dc8585610eae565b9250506020610efd85828601610eae565b634e487b7160e01b600052602260045260246000fd5b60028104600182168061111757607f821691505b6020821081141561112a5761112a6110ed565b50919050565b60006104138260601b90565b600061041382611130565b610f0b61115382610e89565b61113c565b60006111648285611147565b6014820191506111748284610f1f565b5060200192915050565b601a8152600060208201795175693a20496e76616c6964204d65726b6c652050726f6f662160301b815291505b5060200190565b602080825281016104138161117e565b60188152600060208201774164647265737320616c726561647920636c61696d65642160401b815291506111ab565b60208082528101610413816111c2565b634e487b7160e01b600052601160045260246000fd5b6000821982111561122a5761122a611201565b500190565b805161041381610eb9565b60006020828403121561124f5761124f600080fd5b6000611063848461122f565b604081016112698285610f1f565b6104386020830184610f1f565b602481526000602082017f5175693a20547265617375727941646472657373206973205a65726f206164648152637265737360e01b602082015291505b5060400190565b6020808252810161041381611276565b602581526000602082017f45524332303a2064656372656173656420616c6c6f77616e63652062656c6f77815264207a65726f60d81b602082015291506112b3565b60208082528101610413816112ca565b602681526000602082017f4f776e61626c653a206e6577206f776e657220697320746865207a65726f206181526564647265737360d01b602082015291506112b3565b602080825281016104138161131c565b602481526000602082017f45524332303a20617070726f76652066726f6d20746865207a65726f206164648152637265737360e01b602082015291506112b3565b602080825281016104138161136f565b602281526000602082017f45524332303a20617070726f766520746f20746865207a65726f206164647265815261737360f01b602082015291506112b3565b60208082528101610413816113c0565b601d81526000602082017f45524332303a20696e73756666696369656e7420616c6c6f77616e6365000000815291506111ab565b602080825281016104138161140f565b600081600019048311821515161561146d5761146d611201565b500290565b634e487b7160e01b600052601260045260246000fd5b60008261149757611497611472565b500490565b6000828210156114ae576114ae611201565b500390565b601f81526000602082017f45524332303a206d696e7420746f20746865207a65726f206164647265737300815291506111ab565b60208082528101610413816114b3565b60208082527f4f776e61626c653a2063616c6c6572206973206e6f7420746865206f776e6572910190815260006111ab565b60208082528101610413816114f7565b602181526000602082017f45524332303a206275726e2066726f6d20746865207a65726f206164647265738152607360f81b602082015291506112b3565b6020808252810161041381611539565b602281526000602082017f45524332303a206275726e20616d6f756e7420657863656564732062616c616e815261636560f01b602082015291506112b3565b6020808252810161041381611587565b602581526000602082017f45524332303a207472616e736665722066726f6d20746865207a65726f206164815264647265737360d81b602082015291506112b3565b60208082528101610413816115d6565b602381526000602082017f45524332303a207472616e7366657220746f20746865207a65726f206164647281526265737360e81b602082015291506112b3565b6020808252810161041381611628565b602681526000602082017f45524332303a207472616e7366657220616d6f756e7420657863656564732062815265616c616e636560d01b602082015291506112b3565b6020808252810161041381611678565b634e487b7160e01b600052603260045260246000fd5b60006000198214156116f5576116f5611201565b506001019056feddf252ad1be2c89b69c2b068fc378daa952ba7f163c4a11628f55a4df523b3efa2646970667358221220781280017e93ceaff3d29e1f2ad91adbedd7a8870773ecc75a80ebe576ead05464736f6c63430008090033",
  "linkReferences": {},
  "deployedLinkReferences": {}
}