{
  "_format": "hh-sol-artifact-1",
  "contractName": "Utils",
  "sourceName": "contracts/libraries/Utils.sol",
  "abi": [
    {
      "inputs": [
        {
          "internalType": "uint256",
          "name": "timestamp",
          "type": "uint256"
        }
      ],
      "name": "timestampToDate",
      "outputs": [
        {
          "internalType": "uint256",
          "name": "year",
          "type": "uint256"
        },
        {
          "internalType": "uint256",
          "name": "month",
          "type": "uint256"
        },
        {
          "internalType": "uint256",
          "name": "day",
          "type": "uint256"
        }
      ],
      "stateMutability": "pure",
      "type": "function"
    },
    {
      "inputs": [
        {
          "internalType": "uint256",
          "name": "totalVolume",
          "type": "uint256"
        }
      ],
      "name": "volumeToString",
      "outputs": [
        {
          "internalType": "string",
          "name": "",
          "type": "string"
        }
      ],
      "stateMutability": "pure",
      "type": "function"
    }
  ],
  "bytecode": "0x610a8d61003a600b82828239805160001a60731461002d57634e487b7160e01b600052600060045260246000fd5b30600052607381538281f3fe73000000000000000000000000000000000000000030146080604052600436106100405760003560e01c80632a50f06814610045578063de5101af1461006e575b600080fd5b6100586100533660046106a7565b610090565b6040516100659190610727565b60405180910390f35b61008161007c3660046106a7565b6102f7565b60405161006593929190610738565b60606100a7826001662386f26fc10000600061031f565b9150816100ce5750506040805180820190915260048152630302e30360e41b602082015290565b8160001080156100de5750600a82105b15610135576040805180820190915260038152620302e360ec1b602082015260006101088461037e565b9050818160405160200161011d929190610779565b60405160208183030381529060405292505050919050565b81600a111580156101465750606482105b1561016f57604080518082019091526002815261181760f11b602082015260006101088461037e565b816064111580156101825750620186a082105b156101f357600061019783600160648461031f565b905060006101a48261037e565b905060006101c56101b68460646107a7565b6101c090876107c6565b61037e565b905081816040516020016101da9291906107ee565b6040516020818303038152906040529350505050919050565b81620186a01115801561020957506305f5e10082105b156102645761021e8260016103e8600061031f565b9150600061023083600160648461031f565b9050600061023d8261037e565b9050600061024f6101b68460646107a7565b905081816040516020016101da929190610813565b816305f5e1001115801561027c575064174876e80082105b156102d857610292826001620f4240600061031f565b915060006102a483600160648461031f565b905060006102b18261037e565b905060006102c36101b68460646107a7565b905081816040516020016101da92919061084f565b505060408051808201909152600381526209a82b60eb1b602082015290565b600080806201518061031161030c8287610893565b61047b565b919790965090945092505050565b60008061032d8686866105f1565b90506001836002811115610343576103436108a7565b14801561036057506000848061035b5761035b61087d565b868809115b15610373576103706001826108bd565b90505b90505b949350505050565b6060816103a25750506040805180820190915260018152600360fc1b602082015290565b8160005b81156103cc57806103b6816108d5565b91506103c59050600a83610893565b91506103a6565b6000816001600160401b038111156103e6576103e66108e9565b6040519080825280601f01601f191660200182016040528015610410576020820181803683370190505b5090505b8415610376576104256001836107c6565b9150610432600a866108ff565b61043d9060306108bd565b60f81b81838151811061045257610452610913565b60200101906001600160f81b031916908160001a905350610474600a86610893565b9450610414565b600080808362253d8c82816104938462010bd9610929565b61049d9190610929565b9050600062023ab16104b0836004610965565b6104ba91906109ed565b905060046104cb8262023ab1610965565b6104d6906003610929565b6104e091906109ed565b6104ea9083610a1b565b9150600062164b096104fd846001610929565b61050990610fa0610965565b61051391906109ed565b90506004610523826105b5610965565b61052d91906109ed565b6105379084610a1b565b61054290601f610929565b9250600061098f610554856050610965565b61055e91906109ed565b9050600060506105708361098f610965565b61057a91906109ed565b6105849086610a1b565b9050610591600b836109ed565b945061059e85600c610965565b6105a9836002610929565b6105b39190610a1b565b915084836105c2603187610a1b565b6105cd906064610965565b6105d79190610929565b6105e19190610929565b9b919a5098509650505050505050565b60008080600019858709858702925082811083820303915050806000141561062c578382816106225761062261087d565b04925050506106a0565b80841161063857600080fd5b600084868809851960019081018716968790049682860381900495909211909303600082900391909104909201919091029190911760038402600290811880860282030280860282030280860282030280860282030280860282030280860290910302029150505b9392505050565b6000602082840312156106bc576106bc600080fd5b60008235610376565b60005b838110156106e05781810151838201526020016106c8565b838111156106ef576000848401525b50505050565b60006106ff825190565b8084526020840193506107168185602086016106c5565b601f01601f19169290920192915050565b602080825281016106a081846106f5565b8381526060810161074b60208301859052565b61037660408301849052565b6000610761825190565b61076f8185602086016106c5565b9290920192915050565b60006107858285610757565b91506103768284610757565b634e487b7160e01b600052601160045260246000fd5b60008160001904831182151516156107c1576107c1610791565b500290565b6000828210156107d8576107d8610791565b500390565b601760f91b815260005b5060010190565b60006107fa8285610757565b9150610785826107dd565b604b60f81b815260006107e7565b600061081f8285610757565b915061082a826107dd565b91506108368284610757565b915061037682610805565b604d60f81b815260006107e7565b600061085b8285610757565b9150610866826107dd565b91506108728284610757565b915061037682610841565b634e487b7160e01b600052601260045260246000fd5b6000826108a2576108a261087d565b500490565b634e487b7160e01b600052602160045260246000fd5b600082198211156108d0576108d0610791565b500190565b60006000198214156107e7576107e7610791565b634e487b7160e01b600052604160045260246000fd5b60008261090e5761090e61087d565b500690565b634e487b7160e01b600052603260045260246000fd5b6000816001600160ff1b030383136000831215161561094a5761094a610791565b81600160ff1b0383126000831216156108d0576108d0610791565b6000826001600160ff1b03048211600084136000841316161561098a5761098a610791565b81600160ff1b05831260008412600084131616156109aa576109aa610791565b82600160ff1b05821260008413600084121616156109ca576109ca610791565b826001600160ff1b0305821260008412600084121616156107c1576107c1610791565b6000826109fc576109fc61087d565b600160ff1b821460001984141615610a1657610a16610791565b500590565b600082600160ff1b01821260008412151615610a3957610a39610791565b826001600160ff1b030182136000841216156107d8576107d861079156fea264697066735822122067ecbd5d8de32af6b23e32ed546caa38d750fffa1931e7299b87c9c6747a9a0964736f6c63430008090033",
  "linkReferences": {},
  "deployedLinkReferences": {}
}