{
  "_format": "hh-sol-artifact-1",
  "contractName": "Router",
  "sourceName": "contracts/core/Router.sol",
  "abi": [
    {
      "inputs": [
        {
          "internalType": "address",
          "name": "_protocolTreasury",
          "type": "address"
        },
        {
          "internalType": "address",
          "name": "_generalNFT",
          "type": "address"
        },
        {
          "internalType": "address",
          "name": "_guruNFT",
          "type": "address"
        }
      ],
      "stateMutability": "nonpayable",
      "type": "constructor"
    },
    {
      "anonymous": false,
      "inputs": [
        {
          "indexed": true,
          "internalType": "address",
          "name": "previousOwner",
          "type": "address"
        },
        {
          "indexed": true,
          "internalType": "address",
          "name": "newOwner",
          "type": "address"
        }
      ],
      "name": "OwnershipTransferred",
      "type": "event"
    },
    {
      "inputs": [],
      "name": "NFTWrappingManager",
      "outputs": [
        {
          "internalType": "contract INFTWrappingManager",
          "name": "",
          "type": "address"
        }
      ],
      "stateMutability": "view",
      "type": "function"
    },
    {
      "inputs": [
        {
          "internalType": "address",
          "name": "_vault",
          "type": "address"
        },
        {
          "internalType": "uint256",
          "name": "_amount",
          "type": "uint256"
        }
      ],
      "name": "buy",
      "outputs": [],
      "stateMutability": "nonpayable",
      "type": "function"
    },
    {
      "inputs": [
        {
          "internalType": "uint256",
          "name": "amount",
          "type": "uint256"
        },
        {
          "internalType": "uint256",
          "name": "tokenId",
          "type": "uint256"
        }
      ],
      "name": "buy",
      "outputs": [],
      "stateMutability": "nonpayable",
      "type": "function"
    },
    {
      "inputs": [
        {
          "internalType": "uint256",
          "name": "tokenId",
          "type": "uint256"
        },
        {
          "internalType": "uint256",
          "name": "amount",
          "type": "uint256"
        }
      ],
      "name": "claimFees",
      "outputs": [],
      "stateMutability": "nonpayable",
      "type": "function"
    },
    {
      "inputs": [],
      "name": "generalNFT",
      "outputs": [
        {
          "internalType": "contract IERC721",
          "name": "",
          "type": "address"
        }
      ],
      "stateMutability": "view",
      "type": "function"
    },
    {
      "inputs": [
        {
          "internalType": "address",
          "name": "_vault",
          "type": "address"
        }
      ],
      "name": "getHoldingAssetAmount",
      "outputs": [
        {
          "internalType": "address",
          "name": "asset",
          "type": "address"
        },
        {
          "internalType": "uint256",
          "name": "amount",
          "type": "uint256"
        }
      ],
      "stateMutability": "view",
      "type": "function"
    },
    {
      "inputs": [
        {
          "internalType": "address",
          "name": "_vault",
          "type": "address"
        }
      ],
      "name": "getNfts",
      "outputs": [
        {
          "internalType": "uint256[]",
          "name": "tokenIds",
          "type": "uint256[]"
        }
      ],
      "stateMutability": "view",
      "type": "function"
    },
    {
      "inputs": [],
      "name": "guruNFT",
      "outputs": [
        {
          "internalType": "contract IERC721",
          "name": "",
          "type": "address"
        }
      ],
      "stateMutability": "view",
      "type": "function"
    },
    {
      "inputs": [],
      "name": "owner",
      "outputs": [
        {
          "internalType": "address",
          "name": "",
          "type": "address"
        }
      ],
      "stateMutability": "view",
      "type": "function"
    },
    {
      "inputs": [],
      "name": "protocolFeePercent",
      "outputs": [
        {
          "internalType": "uint256",
          "name": "",
          "type": "uint256"
        }
      ],
      "stateMutability": "view",
      "type": "function"
    },
    {
      "inputs": [],
      "name": "protocolTreasury",
      "outputs": [
        {
          "internalType": "address",
          "name": "",
          "type": "address"
        }
      ],
      "stateMutability": "view",
      "type": "function"
    },
    {
      "inputs": [],
      "name": "renounceOwnership",
      "outputs": [],
      "stateMutability": "nonpayable",
      "type": "function"
    },
    {
      "inputs": [
        {
          "internalType": "uint256",
          "name": "tokenId",
          "type": "uint256"
        },
        {
          "internalType": "uint256",
          "name": "amount",
          "type": "uint256"
        }
      ],
      "name": "sell",
      "outputs": [],
      "stateMutability": "nonpayable",
      "type": "function"
    },
    {
      "inputs": [
        {
          "internalType": "address",
          "name": "_NFTWrappingManager",
          "type": "address"
        }
      ],
      "name": "setNFTWrappingManager",
      "outputs": [],
      "stateMutability": "nonpayable",
      "type": "function"
    },
    {
      "inputs": [
        {
          "internalType": "address",
          "name": "newOwner",
          "type": "address"
        }
      ],
      "name": "transferOwnership",
      "outputs": [],
      "stateMutability": "nonpayable",
      "type": "function"
    },
    {
      "inputs": [
        {
          "internalType": "uint256",
          "name": "newProtocolFee",
          "type": "uint256"
        }
      ],
      "name": "updateProtocolFeePercent",
      "outputs": [],
      "stateMutability": "nonpayable",
      "type": "function"
    },
    {
      "inputs": [
        {
          "internalType": "address",
          "name": "newProtocolTreasury",
          "type": "address"
        }
      ],
      "name": "updateProtocolTreasury",
      "outputs": [],
      "stateMutability": "nonpayable",
      "type": "function"
    }
  ],
  "bytecode": "0x608060405266470de4df8200006002553480156200001c57600080fd5b5060405162002889380380620028898339810160408190526200003f91620001b0565b6200004a3362000126565b6001600160a01b0382166200007c5760405162461bcd60e51b815260040162000073906200025a565b60405180910390fd5b600480546001600160a01b0319166001600160a01b03848116919091179091558116620000bd5760405162461bcd60e51b81526004016200007390620002b9565b600580546001600160a01b0319166001600160a01b03838116919091179091558316620000fe5760405162461bcd60e51b8152600401620000739062000319565b5050600380546001600160a01b0319166001600160a01b03929092169190911790556200032b565b600080546001600160a01b038381166001600160a01b0319831681178455604051919092169283917f8be0079c531659141344cd1fd0a4f28419497f9722a3daafe3b4186f6b6457e09190a35050565b60006001600160a01b0382165b92915050565b620001948162000176565b8114620001a057600080fd5b50565b8051620001838162000189565b600080600060608486031215620001ca57620001ca600080fd5b6000620001d88686620001a3565b9350506020620001eb86828701620001a3565b9250506040620001fe86828701620001a3565b9150509250925092565b603281526000602082017f526f757465723a2047656e6572616c204e465420616464726573732063616e6e8152716f74206265207a65726f206164647265737360701b602082015291505b5060400190565b60208082528101620001838162000208565b602f81526000602082017f526f757465723a2047757275204e465420616464726573732063616e6e6f742081526e6265207a65726f206164647265737360881b6020820152915062000253565b6020808252810162000183816200026c565b603081526000602082017f526f757465723a2050726f746f636f6c2054726561737572792063616e6e6f7481526f206265207a65726f206164647265737360801b6020820152915062000253565b602080825281016200018381620002cb565b61254e806200033b6000396000f3fe608060405234801561001057600080fd5b50600436106100db5760003560e01c806304bca0e0146100e05780631990eaeb1461010957806328d07b691461011c57806338552e641461013157806344cc2afe14610144578063500b8a7914610164578063715018a614610185578063803db96d1461018d5780638da5cb5b146101ad578063926f86ce146101b5578063cce6b917146101c8578063cce7ec13146101db578063cdd1c61e146101ee578063d6e6eb9f14610201578063d6febde814610217578063d79875eb1461022a578063f2fde38b1461023d575b600080fd5b6004546100f3906001600160a01b031681565b6040516101009190611cba565b60405180910390f35b6005546100f3906001600160a01b031681565b61012f61012a366004611ce0565b610250565b005b6001546100f3906001600160a01b031681565b610157610152366004611d20565b61028e565b6040516101009190611da4565b610177610172366004611d20565b61031b565b604051610100929190611dbe565b61012f6104a1565b6003546101a0906001600160a01b031681565b6040516101009190611dd9565b6101a06104b5565b61012f6101c3366004611d20565b6104c4565b61012f6101d6366004611d20565b610514565b61012f6101e9366004611de7565b61053e565b61012f6101fc366004611e24565b610b24565b61020a60025481565b6040516101009190611e46565b61012f610225366004611e24565b611001565b61012f610238366004611e24565b611512565b61012f61024b366004611d20565b611aa2565b610258611adc565b670de0b6b3a76400008111156102895760405162461bcd60e51b815260040161028090611e98565b60405180910390fd5b600255565b60015460405163d190c1d960e01b81526060916001600160a01b03169063d190c1d9906102c19033908690600401611ea8565b60006040518083038186803b1580156102d957600080fd5b505afa1580156102ed573d6000803e3d6000fd5b505050506040513d6000823e601f3d908101601f191682016040526103159190810190611fd3565b92915050565b600154604051630835acf360e31b8152600091829182916001600160a01b0316906341ad6798906103529033908890600401611ea8565b60206040518083038186803b15801561036a57600080fd5b505afa15801561037e573d6000803e3d6000fd5b505050506040513d601f19601f820116820180604052508101906103a2919061200d565b90506000849050806001600160a01b03166338d52e0f6040518163ffffffff1660e01b815260040160206040518083038186803b1580156103e257600080fd5b505afa1580156103f6573d6000803e3d6000fd5b505050506040513d601f19601f8201168201806040525081019061041a9190612039565b6040516303d1689d60e11b81526001600160a01b038316906307a2d13a90610446908690600401611e46565b60206040518083038186803b15801561045e57600080fd5b505afa158015610472573d6000803e3d6000fd5b505050506040513d601f19601f82011682018060405250810190610496919061200d565b935093505050915091565b6104a9611adc565b6104b36000611b0b565b565b6000546001600160a01b031690565b6104cc611adc565b6001600160a01b0381166104f25760405162461bcd60e51b8152600401610280906120a7565b600380546001600160a01b0319166001600160a01b0392909216919091179055565b61051c611adc565b600180546001600160a01b0319166001600160a01b0392909216919091179055565b600082905060008190506000826001600160a01b03166338d52e0f6040518163ffffffff1660e01b815260040160206040518083038186803b15801561058357600080fd5b505afa158015610597573d6000803e3d6000fd5b505050506040513d601f19601f820116820180604052508101906105bb9190612039565b6040516323b872dd60e01b81529091506001600160a01b038216906323b872dd906105ee903390309089906004016120b7565b602060405180830381600087803b15801561060857600080fd5b505af115801561061c573d6000803e3d6000fd5b505050506040513d601f19601f8201168201806040525081019061064091906120f2565b506005546040516370a0823160e01b815285916001600160a01b0316906370a0823190610671903390600401611dd9565b60206040518083038186803b15801561068957600080fd5b505afa15801561069d573d6000803e3d6000fd5b505050506040513d601f19601f820116820180604052508101906106c1919061200d565b15801561074a5750600480546040516370a0823160e01b81526001600160a01b03909116916370a08231916106f891339101611dd9565b60206040518083038186803b15801561071057600080fd5b505afa158015610724573d6000803e3d6000fd5b505050506040513d601f19601f82011682018060405250810190610748919061200d565b155b156108005760025460009061076a908790670de0b6b3a764000084611b5b565b90506107768183612129565b60035460405163a9059cbb60e01b81529193506001600160a01b038086169263a9059cbb926107ab9216908590600401611dbe565b602060405180830381600087803b1580156107c557600080fd5b505af11580156107d9573d6000803e3d6000fd5b505050506040513d601f19601f820116820180604052508101906107fd91906120f2565b50505b6040516370a0823160e01b81526000906001600160a01b038516906370a082319061082f903090600401611dd9565b60206040518083038186803b15801561084757600080fd5b505afa15801561085b573d6000803e3d6000fd5b505050506040513d601f19601f8201168201806040525081019061087f919061200d565b60405163095ea7b360e01b81529091506001600160a01b0384169063095ea7b3906108b09088908690600401611dbe565b602060405180830381600087803b1580156108ca57600080fd5b505af11580156108de573d6000803e3d6000fd5b505050506040513d601f19601f8201168201806040525081019061090291906120f2565b50604051636e553f6560e01b81526000906001600160a01b03871690636e553f65906109349086903090600401612140565b602060405180830381600087803b15801561094e57600080fd5b505af1158015610962573d6000803e3d6000fd5b505050506040513d601f19601f82011682018060405250810190610986919061200d565b90508082866001600160a01b03166370a08231306040518263ffffffff1660e01b81526004016109b69190611dd9565b60206040518083038186803b1580156109ce57600080fd5b505afa1580156109e2573d6000803e3d6000fd5b505050506040513d601f19601f82011682018060405250810190610a06919061200d565b610a109190612129565b14610a2d5760405162461bcd60e51b8152600401610280906121a2565b60015460405163a9059cbb60e01b81526001600160a01b038781169263a9059cbb92610a6192909116908590600401611dbe565b602060405180830381600087803b158015610a7b57600080fd5b505af1158015610a8f573d6000803e3d6000fd5b505050506040513d601f19601f82011682018060405250810190610ab391906120f2565b50600154604051638340f54960e01b81526001600160a01b0390911690638340f54990610ae89033908a9086906004016120b7565b600060405180830381600087803b158015610b0257600080fd5b505af1158015610b16573d6000803e3d6000fd5b505050505050505050505050565b60015460405163317d7a2b60e01b81526000916001600160a01b03169063317d7a2b90610b55908690600401611e46565b60606040518083038186803b158015610b6d57600080fd5b505afa158015610b81573d6000803e3d6000fd5b505050506040513d601f19601f82011682018060405250810190610ba591906121b2565b50506001546040516331a9108f60e11b81529192508291829133916001600160a01b0390911690636352211e90610be0908990600401611e46565b60206040518083038186803b158015610bf857600080fd5b505afa158015610c0c573d6000803e3d6000fd5b505050506040513d601f19601f82011682018060405250810190610c309190612039565b6001600160a01b031614610c565760405162461bcd60e51b815260040161028090612251565b604051630935e01b60e21b81526001600160a01b038316906324d7806c90610c82903390600401611dd9565b60206040518083038186803b158015610c9a57600080fd5b505afa158015610cae573d6000803e3d6000fd5b505050506040513d601f19601f82011682018060405250810190610cd291906120f2565b610cee5760405162461bcd60e51b8152600401610280906122a5565b6040516370a0823160e01b81526001600160a01b038316906370a0823190610d1a908690600401611dd9565b60206040518083038186803b158015610d3257600080fd5b505afa158015610d46573d6000803e3d6000fd5b505050506040513d601f19601f82011682018060405250810190610d6a919061200d565b841015610d895760405162461bcd60e51b8152600401610280906122ea565b6040516370a0823160e01b81526000906001600160a01b038316906370a0823190610db8903090600401611dd9565b60206040518083038186803b158015610dd057600080fd5b505afa158015610de4573d6000803e3d6000fd5b505050506040513d601f19601f82011682018060405250810190610e08919061200d565b60405163158d14e960e31b81529091506001600160a01b0384169063ac68a74890610e37908890600401611e46565b600060405180830381600087803b158015610e5157600080fd5b505af1158015610e65573d6000803e3d6000fd5b505050508481836001600160a01b03166370a08231306040518263ffffffff1660e01b8152600401610e979190611dd9565b60206040518083038186803b158015610eaf57600080fd5b505afa158015610ec3573d6000803e3d6000fd5b505050506040513d601f19601f82011682018060405250810190610ee7919061200d565b610ef19190612129565b14610f0e5760405162461bcd60e51b8152600401610280906121a2565b60015460405163a9059cbb60e01b81526001600160a01b038481169263a9059cbb92610f4292909116908990600401611dbe565b602060405180830381600087803b158015610f5c57600080fd5b505af1158015610f70573d6000803e3d6000fd5b505050506040513d601f19601f82011682018060405250810190610f9491906120f2565b50600154604051631c57762b60e31b81526001600160a01b039091169063e2bbb15890610fc79088908a906004016122fa565b600060405180830381600087803b158015610fe157600080fd5b505af1158015610ff5573d6000803e3d6000fd5b50505050505050505050565b6001546040516331a9108f60e11b815233916001600160a01b031690636352211e90611031908590600401611e46565b60206040518083038186803b15801561104957600080fd5b505afa15801561105d573d6000803e3d6000fd5b505050506040513d601f19601f820116820180604052508101906110819190612039565b6001600160a01b0316146110a75760405162461bcd60e51b81526004016102809061234f565b60015460405163317d7a2b60e01b81526000916001600160a01b03169063317d7a2b906110d8908590600401611e46565b60606040518083038186803b1580156110f057600080fd5b505afa158015611104573d6000803e3d6000fd5b505050506040513d601f19601f8201168201806040525081019061112891906121b2565b5050905060008190506000816001600160a01b03166338d52e0f6040518163ffffffff1660e01b815260040160206040518083038186803b15801561116c57600080fd5b505afa158015611180573d6000803e3d6000fd5b505050506040513d601f19601f820116820180604052508101906111a49190612039565b6040516323b872dd60e01b815290915083906001600160a01b038316906323b872dd906111d990339030908b906004016120b7565b602060405180830381600087803b1580156111f357600080fd5b505af1158015611207573d6000803e3d6000fd5b505050506040513d601f19601f8201168201806040525081019061122b91906120f2565b506040516370a0823160e01b81526000906001600160a01b038316906370a082319061125b903090600401611dd9565b60206040518083038186803b15801561127357600080fd5b505afa158015611287573d6000803e3d6000fd5b505050506040513d601f19601f820116820180604052508101906112ab919061200d565b60405163095ea7b360e01b81529091506001600160a01b0384169063095ea7b3906112dc9087908b90600401611dbe565b602060405180830381600087803b1580156112f657600080fd5b505af115801561130a573d6000803e3d6000fd5b505050506040513d601f19601f8201168201806040525081019061132e91906120f2565b50604051636e553f6560e01b81526000906001600160a01b03861690636e553f6590611360908b903090600401612140565b602060405180830381600087803b15801561137a57600080fd5b505af115801561138e573d6000803e3d6000fd5b505050506040513d601f19601f820116820180604052508101906113b2919061200d565b90508082846001600160a01b03166370a08231306040518263ffffffff1660e01b81526004016113e29190611dd9565b60206040518083038186803b1580156113fa57600080fd5b505afa15801561140e573d6000803e3d6000fd5b505050506040513d601f19601f82011682018060405250810190611432919061200d565b61143c9190612129565b146114595760405162461bcd60e51b8152600401610280906121a2565b60015460405163a9059cbb60e01b81526001600160a01b038581169263a9059cbb9261148d92909116908590600401611dbe565b602060405180830381600087803b1580156114a757600080fd5b505af11580156114bb573d6000803e3d6000fd5b505050506040513d601f19601f820116820180604052508101906114df91906120f2565b50600154604051631c57762b60e31b81526001600160a01b039091169063e2bbb15890610ae89084908b906004016122fa565b6001546040516331a9108f60e11b815233916001600160a01b031690636352211e90611542908690600401611e46565b60206040518083038186803b15801561155a57600080fd5b505afa15801561156e573d6000803e3d6000fd5b505050506040513d601f19601f820116820180604052508101906115929190612039565b6001600160a01b0316146115b85760405162461bcd60e51b81526004016102809061234f565b60015460405163317d7a2b60e01b8152600091829182916001600160a01b03169063317d7a2b906115ed908890600401611e46565b60606040518083038186803b15801561160557600080fd5b505afa158015611619573d6000803e3d6000fd5b505050506040513d601f19601f8201168201806040525081019061163d91906121b2565b925092509250801580156116515750818411155b61166d5760405162461bcd60e51b815260040161028090612392565b600083905060008490506000826001600160a01b03166338d52e0f6040518163ffffffff1660e01b815260040160206040518083038186803b1580156116b257600080fd5b505afa1580156116c6573d6000803e3d6000fd5b505050506040513d601f19601f820116820180604052508101906116ea9190612039565b90506000826001600160a01b03166370a08231306040518263ffffffff1660e01b815260040161171a9190611dd9565b60206040518083038186803b15801561173257600080fd5b505afa158015611746573d6000803e3d6000fd5b505050506040513d601f19601f8201168201806040525081019061176a919061200d565b600154604051631cc6d2f960e31b81529192506001600160a01b03169063e63697c89061179f908c9088908d906004016123a2565b600060405180830381600087803b1580156117b957600080fd5b505af11580156117cd573d6000803e3d6000fd5b505050508781846001600160a01b03166370a08231306040518263ffffffff1660e01b81526004016117ff9190611dd9565b60206040518083038186803b15801561181757600080fd5b505afa15801561182b573d6000803e3d6000fd5b505050506040513d601f19601f8201168201806040525081019061184f919061200d565b6118599190612129565b146118765760405162461bcd60e51b8152600401610280906121a2565b6040516370a0823160e01b81526000906001600160a01b038416906370a08231906118a5903090600401611dd9565b60206040518083038186803b1580156118bd57600080fd5b505afa1580156118d1573d6000803e3d6000fd5b505050506040513d601f19601f820116820180604052508101906118f5919061200d565b90506000856001600160a01b031663ba0876528b30306040518463ffffffff1660e01b8152600401611929939291906123b0565b602060405180830381600087803b15801561194357600080fd5b505af1158015611957573d6000803e3d6000fd5b505050506040513d601f19601f8201168201806040525081019061197b919061200d565b90508082856001600160a01b03166370a08231306040518263ffffffff1660e01b81526004016119ab9190611dd9565b60206040518083038186803b1580156119c357600080fd5b505afa1580156119d7573d6000803e3d6000fd5b505050506040513d601f19601f820116820180604052508101906119fb919061200d565b611a059190612129565b14611a225760405162461bcd60e51b81526004016102809061242f565b60405163a9059cbb60e01b81526001600160a01b0385169063a9059cbb90611a509033908590600401611dbe565b602060405180830381600087803b158015611a6a57600080fd5b505af1158015611a7e573d6000803e3d6000fd5b505050506040513d601f19601f82011682018060405250810190610b1691906120f2565b611aaa611adc565b6001600160a01b038116611ad05760405162461bcd60e51b815260040161028090612482565b611ad981611b0b565b50565b33611ae56104b5565b6001600160a01b0316146104b35760405162461bcd60e51b8152600401610280906124c4565b600080546001600160a01b038381166001600160a01b0319831681178455604051919092169283917f8be0079c531659141344cd1fd0a4f28419497f9722a3daafe3b4186f6b6457e09190a35050565b600080611b69868686611bba565b90506001836002811115611b7f57611b7f6124d4565b148015611b9c575060008480611b9757611b976124ea565b868809115b15611baf57611bac600182612500565b90505b90505b949350505050565b600080806000198587098587029250828110838203039150508060001415611bf557838281611beb57611beb6124ea565b0492505050611c69565b808411611c0157600080fd5b600084868809851960019081018716968790049682860381900495909211909303600082900391909104909201919091029190911760038402600290811880860282030280860282030280860282030280860282030280860282030280860290910302029150505b9392505050565b6001600160a01b031690565b6000610315611c90611c8d84611c70565b90565b611c70565b600061031582611c7c565b600061031582611c95565b611cb481611ca0565b82525050565b602081016103158284611cab565b805b8114611ad957600080fd5b803561031581611cc8565b600060208284031215611cf557611cf5600080fd5b6000611bb28484611cd5565b600061031582611c70565b611cca81611d01565b803561031581611d0c565b600060208284031215611d3557611d35600080fd5b6000611bb28484611d15565b80611cb4565b6000611d538383611d41565b505060200190565b6000611d65825190565b80845260209384019383018060005b83811015611d99578151611d888882611d47565b975060208301925050600101611d74565b509495945050505050565b60208082528101611c698184611d5b565b611cb481611d01565b60408101611dcc8285611db5565b611c696020830184611d41565b602081016103158284611db5565b60008060408385031215611dfd57611dfd600080fd5b6000611e098585611d15565b9250506020611e1a85828601611cd5565b9150509250929050565b60008060408385031215611e3a57611e3a600080fd5b6000611e098585611cd5565b602081016103158284611d41565b602481526000602082017f526f757465723a20496e76616c69642050726f746f636f6c204665652050657281526318d95b9d60e21b602082015291505b5060400190565b6020808252810161031581611e54565b60408101611eb68285611db5565b611c696020830184611db5565b634e487b7160e01b600052604160045260246000fd5b601f19601f83011681018181106001600160401b0382111715611efe57611efe611ec3565b6040525050565b6000611f1060405190565b9050611f1c8282611ed9565b919050565b60006001600160401b03821115611f3a57611f3a611ec3565b5060209081020190565b805161031581611cc8565b6000611f62611f5d84611f21565b611f05565b83815290506020808201908402830185811115611f8157611f81600080fd5b835b81811015611fa55780611f968882611f44565b84525060209283019201611f83565b5050509392505050565b600082601f830112611fc357611fc3600080fd5b8151611bb2848260208601611f4f565b600060208284031215611fe857611fe8600080fd5b81516001600160401b0381111561200157612001600080fd5b611bb284828501611faf565b60006020828403121561202257612022600080fd5b6000611bb28484611f44565b805161031581611d0c565b60006020828403121561204e5761204e600080fd5b6000611bb2848461202e565b603081526000602082017f526f757465723a2050726f746f636f6c2054726561737572792063616e6e6f7481526f206265207a65726f206164647265737360801b60208201529150611e91565b602080825281016103158161205a565b606081016120c58286611db5565b6120d26020830185611db5565b611bb26040830184611d41565b801515611cca565b8051610315816120df565b60006020828403121561210757612107600080fd5b6000611bb284846120e7565b634e487b7160e01b600052601160045260246000fd5b60008282101561213b5761213b612113565b500390565b60408101611eb68285611d41565b603781526000602082017f526f757465723a20416d6f756e74206f66207176546f6b656e20746f2072656c81527661792068617320756e65787065637465642076616c756560481b60208201529150611e91565b602080825281016103158161214e565b6000806000606084860312156121ca576121ca600080fd5b60006121d6868661202e565b93505060206121e786828701611f44565b92505060406121f8868287016120e7565b9150509250925092565b603281526000602082017f526f757465723a206f6e6c79206f776e6572206f6620746f6b656e2063616e208152716368616e676520746f6b656e20737461746560701b60208201529150611e91565b6020808252810161031581612202565b602781526000602082017f526f757465723a2073656e64657220646f6573206e6f7420686176652041444d815266494e20726f6c6560c81b60208201529150611e91565b6020808252810161031581612261565b601b81526000602082017a526f757465723a20636c61696d20746f6f206d756368206665657360281b815291505b5060200190565b60208082528101610315816122b5565b60408101611dcc8285611d41565b602a81526000602082017f6f6e6c79206f776e6572206f6620746f6b656e2063616e206368616e676520748152696f6b656e20737461746560b01b60208201529150611e91565b6020808252810161031581612308565b601c81526000602082017b6e6f7420656e6f75676820746f6b656e20746f20776974686472617760201b815291506122e3565b602080825281016103158161235f565b606081016120c58286611d41565b606081016123be8286611d41565b6123cb6020830185611db5565b611bb26040830184611db5565b603a81526000602082017f526f757465723a20416d6f756e74206f66206173736574546f6b656e20746f2081527972656c61792068617320756e65787065637465642076616c756560301b60208201529150611e91565b60208082528101610315816123d8565b602681526000602082017f4f776e61626c653a206e6577206f776e657220697320746865207a65726f206181526564647265737360d01b60208201529150611e91565b602080825281016103158161243f565b60208082527f4f776e61626c653a2063616c6c6572206973206e6f7420746865206f776e6572910190815260006122e3565b6020808252810161031581612492565b634e487b7160e01b600052602160045260246000fd5b634e487b7160e01b600052601260045260246000fd5b6000821982111561251357612513612113565b50019056fea264697066735822122047ff0302551475a94af3c62cd918c1ef402d603eac3826b2754943eb5d42f9f364736f6c63430008090033",
  "linkReferences": {},
  "deployedLinkReferences": {}
}