{
  "_format": "hh-sol-artifact-1",
  "contractName": "StrategyQuickSwapMaticMaticX",
  "sourceName": "contracts/core/TestStrategy.sol",
  "abi": [
    {
      "inputs": [
        {
          "internalType": "address",
          "name": "_UNDERLYING_ADDRESS",
          "type": "address"
        },
        {
          "internalType": "address",
          "name": "_vaultAddress",
          "type": "address"
        }
      ],
      "stateMutability": "nonpayable",
      "type": "constructor"
    },
    {
      "anonymous": false,
      "inputs": [
        {
          "indexed": true,
          "internalType": "address",
          "name": "owner",
          "type": "address"
        },
        {
          "indexed": true,
          "internalType": "address",
          "name": "spender",
          "type": "address"
        },
        {
          "indexed": false,
          "internalType": "uint256",
          "name": "value",
          "type": "uint256"
        }
      ],
      "name": "Approval",
      "type": "event"
    },
    {
      "anonymous": false,
      "inputs": [
        {
          "indexed": true,
          "internalType": "address",
          "name": "from",
          "type": "address"
        },
        {
          "indexed": true,
          "internalType": "address",
          "name": "to",
          "type": "address"
        },
        {
          "indexed": false,
          "internalType": "uint256",
          "name": "value",
          "type": "uint256"
        }
      ],
      "name": "Transfer",
      "type": "event"
    },
    {
      "inputs": [
        {
          "internalType": "address",
          "name": "owner",
          "type": "address"
        },
        {
          "internalType": "address",
          "name": "spender",
          "type": "address"
        }
      ],
      "name": "allowance",
      "outputs": [
        {
          "internalType": "uint256",
          "name": "",
          "type": "uint256"
        }
      ],
      "stateMutability": "view",
      "type": "function"
    },
    {
      "inputs": [
        {
          "internalType": "address",
          "name": "spender",
          "type": "address"
        },
        {
          "internalType": "uint256",
          "name": "amount",
          "type": "uint256"
        }
      ],
      "name": "approve",
      "outputs": [
        {
          "internalType": "bool",
          "name": "",
          "type": "bool"
        }
      ],
      "stateMutability": "nonpayable",
      "type": "function"
    },
    {
      "inputs": [
        {
          "internalType": "address",
          "name": "account",
          "type": "address"
        }
      ],
      "name": "balanceOf",
      "outputs": [
        {
          "internalType": "uint256",
          "name": "",
          "type": "uint256"
        }
      ],
      "stateMutability": "view",
      "type": "function"
    },
    {
      "inputs": [
        {
          "internalType": "address",
          "name": "",
          "type": "address"
        }
      ],
      "name": "balanceOfUnderlying",
      "outputs": [
        {
          "internalType": "uint256",
          "name": "",
          "type": "uint256"
        }
      ],
      "stateMutability": "view",
      "type": "function"
    },
    {
      "inputs": [],
      "name": "beefyQuickMaticMaticXPoolVault",
      "outputs": [
        {
          "internalType": "address",
          "name": "",
          "type": "address"
        }
      ],
      "stateMutability": "view",
      "type": "function"
    },
    {
      "inputs": [],
      "name": "decimals",
      "outputs": [
        {
          "internalType": "uint8",
          "name": "",
          "type": "uint8"
        }
      ],
      "stateMutability": "view",
      "type": "function"
    },
    {
      "inputs": [
        {
          "internalType": "address",
          "name": "spender",
          "type": "address"
        },
        {
          "internalType": "uint256",
          "name": "subtractedValue",
          "type": "uint256"
        }
      ],
      "name": "decreaseAllowance",
      "outputs": [
        {
          "internalType": "bool",
          "name": "",
          "type": "bool"
        }
      ],
      "stateMutability": "nonpayable",
      "type": "function"
    },
    {
      "inputs": [
        {
          "internalType": "address",
          "name": "spender",
          "type": "address"
        },
        {
          "internalType": "uint256",
          "name": "addedValue",
          "type": "uint256"
        }
      ],
      "name": "increaseAllowance",
      "outputs": [
        {
          "internalType": "bool",
          "name": "",
          "type": "bool"
        }
      ],
      "stateMutability": "nonpayable",
      "type": "function"
    },
    {
      "inputs": [],
      "name": "isCEther",
      "outputs": [
        {
          "internalType": "bool",
          "name": "",
          "type": "bool"
        }
      ],
      "stateMutability": "pure",
      "type": "function"
    },
    {
      "inputs": [
        {
          "internalType": "uint256",
          "name": "amount",
          "type": "uint256"
        }
      ],
      "name": "mint",
      "outputs": [
        {
          "internalType": "uint256",
          "name": "",
          "type": "uint256"
        }
      ],
      "stateMutability": "nonpayable",
      "type": "function"
    },
    {
      "inputs": [],
      "name": "name",
      "outputs": [
        {
          "internalType": "string",
          "name": "",
          "type": "string"
        }
      ],
      "stateMutability": "view",
      "type": "function"
    },
    {
      "inputs": [
        {
          "internalType": "uint256",
          "name": "amount",
          "type": "uint256"
        }
      ],
      "name": "redeemUnderlying",
      "outputs": [
        {
          "internalType": "uint256",
          "name": "",
          "type": "uint256"
        }
      ],
      "stateMutability": "nonpayable",
      "type": "function"
    },
    {
      "inputs": [
        {
          "internalType": "bool",
          "name": "isEmergency",
          "type": "bool"
        }
      ],
      "name": "setEmergency",
      "outputs": [
        {
          "internalType": "bool",
          "name": "",
          "type": "bool"
        }
      ],
      "stateMutability": "nonpayable",
      "type": "function"
    },
    {
      "inputs": [],
      "name": "symbol",
      "outputs": [
        {
          "internalType": "string",
          "name": "",
          "type": "string"
        }
      ],
      "stateMutability": "view",
      "type": "function"
    },
    {
      "inputs": [],
      "name": "totalSupply",
      "outputs": [
        {
          "internalType": "uint256",
          "name": "",
          "type": "uint256"
        }
      ],
      "stateMutability": "view",
      "type": "function"
    },
    {
      "inputs": [
        {
          "internalType": "address",
          "name": "to",
          "type": "address"
        },
        {
          "internalType": "uint256",
          "name": "amount",
          "type": "uint256"
        }
      ],
      "name": "transfer",
      "outputs": [
        {
          "internalType": "bool",
          "name": "",
          "type": "bool"
        }
      ],
      "stateMutability": "nonpayable",
      "type": "function"
    },
    {
      "inputs": [
        {
          "internalType": "address",
          "name": "from",
          "type": "address"
        },
        {
          "internalType": "address",
          "name": "to",
          "type": "address"
        },
        {
          "internalType": "uint256",
          "name": "amount",
          "type": "uint256"
        }
      ],
      "name": "transferFrom",
      "outputs": [
        {
          "internalType": "bool",
          "name": "",
          "type": "bool"
        }
      ],
      "stateMutability": "nonpayable",
      "type": "function"
    },
    {
      "inputs": [],
      "name": "underlying",
      "outputs": [
        {
          "internalType": "contract ERC20",
          "name": "",
          "type": "address"
        }
      ],
      "stateMutability": "view",
      "type": "function"
    },
    {
      "inputs": [],
      "name": "vaultAddress",
      "outputs": [
        {
          "internalType": "address",
          "name": "",
          "type": "address"
        }
      ],
      "stateMutability": "view",
      "type": "function"
    },
    {
      "inputs": [],
      "name": "wmatic",
      "outputs": [
        {
          "internalType": "address",
          "name": "",
          "type": "address"
        }
      ],
      "stateMutability": "view",
      "type": "function"
    }
  ],
  "bytecode": "0x60806040526006805460ff60a01b19169055600780546001600160a01b0319908116730d500b1d8e8ef31e21c99d1db9a6444d3adf12701790915560088054821673540a9f99bb730631bf243a34b19fd00ba8cf315c9081179091556009805483169091179055600a805490911673a448e9833095ad50693b025c275f48b271ade8821790553480156200009257600080fd5b506040516200168838038062001688833981016040819052620000b59162000245565b604080518082018252601c81527f5374726174656779517569636b537761704d617469634d6174696358000000006020808301918252835180850190945260058452640a2a69a9ab60db1b908401528151919291620001179160039162000165565b5080516200012d90600490602084019062000165565b5050600580546001600160a01b039384166001600160a01b0319918216179091556006805494909316931692909217905550620002cf565b82805462000173906200029e565b90600052602060002090601f016020900481019282620001975760008555620001e2565b82601f10620001b257805160ff1916838001178555620001e2565b82800160010185558215620001e2579182015b82811115620001e2578251825591602001919060010190620001c5565b50620001f0929150620001f4565b5090565b5b80821115620001f05760008155600101620001f5565b60006001600160a01b0382165b92915050565b62000229816200020b565b81146200023557600080fd5b50565b805162000218816200021e565b600080604083850312156200025d576200025d600080fd5b60006200026b858562000238565b92505060206200027e8582860162000238565b9150509250929050565b634e487b7160e01b600052602260045260246000fd5b600281046001821680620002b357607f821691505b60208210811415620002c957620002c962000288565b50919050565b6113a980620002df6000396000f3fe608060405234801561001057600080fd5b50600436106100fc5760003560e01c80630501d5561461010157806306fdde031461012a578063095ea7b31461013f57806318160ddd1461015257806323b872dd14610163578063313ce5671461017657806339509351146101855780633af9e66914610198578063430bf08a146101ab5780636f307dc3146101cb57806370a08231146101e4578063852a12e31461020d57806395d89b4114610220578063a0712d6814610228578063a457c2d71461023b578063a9059cbb1461024e578063ac784ddc14610261578063dd62ed3e14610268578063e1b762cb1461027b578063fb41be161461028e575b600080fd5b61011461010f366004610c44565b6102a1565b6040516101219190610c6f565b60405180910390f35b610132610369565b6040516101219190610cdb565b61011461014d366004610d28565b6103fb565b6002545b6040516101219190610d6b565b610114610171366004610d79565b610415565b60126040516101219190610dd2565b610114610193366004610d28565b61043b565b6101566101a6366004610de0565b61045d565b6005546101be906001600160a01b031681565b6040516101219190610e0a565b6006546001600160a01b03166040516101219190610e50565b6101566101f2366004610de0565b6001600160a01b031660009081526020819052604090205490565b61015661021b366004610e5e565b6104de565b610132610501565b610156610236366004610e5e565b610510565b610114610249366004610d28565b610643565b61011461025c366004610d28565b610694565b6000610114565b610156610276366004610e7f565b6106a2565b600a546101be906001600160a01b031681565b6007546101be906001600160a01b031681565b6006805460ff60a01b1916600160a01b8315158102919091179182905560009160ff9190041615610361576006546040516370a0823160e01b815261035f916001600160a01b0316906370a08231906102fe903090600401610e0a565b60206040518083038186803b15801561031657600080fd5b505afa15801561032a573d6000803e3d6000fd5b505050506040513d601f19601f8201168201806040525081019061034e9190610ebd565b6005546001600160a01b03166106cd565b505b506001919050565b60606003805461037890610ef4565b80601f01602080910402602001604051908101604052809291908181526020018280546103a490610ef4565b80156103f15780601f106103c6576101008083540402835291602001916103f1565b820191906000526020600020905b8154815290600101906020018083116103d457829003601f168201915b5050505050905090565b6000336104098185856107f9565b60019150505b92915050565b6000336104238582856108ad565b61042e8585856108f7565b60019150505b9392505050565b60003361040981858561044e83836106a2565b6104589190610f37565b6107f9565b6006546040516370a0823160e01b81526000916001600160a01b0316906370a082319061048e903090600401610e0a565b60206040518083038186803b1580156104a657600080fd5b505afa1580156104ba573d6000803e3d6000fd5b505050506040513d601f19601f8201168201806040525081019061040f9190610ebd565b6005546000906104f89083906001600160a01b03166106cd565b50600092915050565b60606004805461037890610ef4565b60065460009061052b906001600160a01b0316333085610a0a565b60065460085460405163095ea7b360e01b81526001600160a01b039283169263095ea7b392610561929116908690600401610f4f565b602060405180830381600087803b15801561057b57600080fd5b505af115801561058f573d6000803e3d6000fd5b505050506040513d601f19601f820116820180604052508101906105b39190610f75565b50600954600a546001600160a01b039182169163f5d07b6091166105d8600286610fac565b6007546040516001600160e01b031960e086901b1681526106099392916001600160a01b0316908890600401610fc0565b600060405180830381600087803b15801561062357600080fd5b505af1158015610637573d6000803e3d6000fd5b50600095945050505050565b6000338161065182866106a2565b90508381101561067c5760405162461bcd60e51b815260040161067390611043565b60405180910390fd5b61068982868684036107f9565b506001949350505050565b6000336104098185856108f7565b6001600160a01b03918216600090815260016020908152604080832093909416825291909152205490565b6006546040516370a0823160e01b81526000916001600160a01b0316906370a08231906106fe903090600401610e0a565b60206040518083038186803b15801561071657600080fd5b505afa15801561072a573d6000803e3d6000fd5b505050506040513d601f19601f8201168201806040525081019061074e9190610ebd565b83111561075a57600080fd5b600954600a546001600160a01b03918216916351c9cf91911661077e600287610fac565b6007546040516001600160e01b031960e086901b1681526107af9392916001600160a01b0316908990600401610fc0565b600060405180830381600087803b1580156107c957600080fd5b505af11580156107dd573d6000803e3d6000fd5b50506006546104f892506001600160a01b031690508385610a62565b6001600160a01b03831661081f5760405162461bcd60e51b815260040161067390611094565b6001600160a01b0382166108455760405162461bcd60e51b8152600401610673906110e3565b6001600160a01b0380841660008181526001602090815260408083209487168084529490915290819020849055517f8c5be1e5ebec7d5bd14f71427d1e84f3dd0314c0f7b2291e5b200ac8c7c3b925906108a0908590610d6b565b60405180910390a3505050565b60006108b984846106a2565b905060001981146108f157818110156108e45760405162461bcd60e51b81526004016106739061112a565b6108f184848484036107f9565b50505050565b6001600160a01b03831661091d5760405162461bcd60e51b81526004016106739061117c565b6001600160a01b0382166109435760405162461bcd60e51b8152600401610673906111cc565b6001600160a01b0383166000908152602081905260409020548181101561097c5760405162461bcd60e51b81526004016106739061121f565b6001600160a01b038085166000908152602081905260408082208585039055918516815290812080548492906109b3908490610f37565b92505081905550826001600160a01b0316846001600160a01b03167fddf252ad1be2c89b69c2b068fc378daa952ba7f163c4a11628f55a4df523b3ef846040516109fd9190610d6b565b60405180910390a36108f1565b6108f1846323b872dd60e01b858585604051602401610a2b9392919061122f565b60408051601f198184030181529190526020810180516001600160e01b03166001600160e01b031990931692909217909152610a86565b610a818363a9059cbb60e01b8484604051602401610a2b929190610f4f565b505050565b6000610adb826040518060400160405280602081526020017f5361666545524332303a206c6f772d6c6576656c2063616c6c206661696c6564815250856001600160a01b0316610b159092919063ffffffff16565b805190915015610a815780806020019051810190610af99190610f75565b610a815760405162461bcd60e51b81526004016106739061129e565b6060610b248484600085610b2c565b949350505050565b606082471015610b4e5760405162461bcd60e51b8152600401610673906112f1565b6001600160a01b0385163b610b755760405162461bcd60e51b815260040161067390611335565b600080866001600160a01b03168587604051610b919190611367565b60006040518083038185875af1925050503d8060008114610bce576040519150601f19603f3d011682016040523d82523d6000602084013e610bd3565b606091505b5091509150610be3828286610bee565b979650505050505050565b60608315610bfd575081610434565b825115610c0d5782518084602001fd5b8160405162461bcd60e51b81526004016106739190610cdb565b8015155b8114610c3657600080fd5b50565b803561040f81610c27565b600060208284031215610c5957610c59600080fd5b6000610b248484610c39565b8015155b82525050565b6020810161040f8284610c65565b60005b83811015610c98578181015183820152602001610c80565b838111156108f15750506000910152565b6000610cb3825190565b808452602084019350610cca818560208601610c7d565b601f01601f19169290920192915050565b602080825281016104348184610ca9565b6001600160a01b031690565b600061040f82610cec565b610c2b81610cf8565b803561040f81610d03565b80610c2b565b803561040f81610d17565b60008060408385031215610d3e57610d3e600080fd5b6000610d4a8585610d0c565b9250506020610d5b85828601610d1d565b9150509250929050565b80610c69565b6020810161040f8284610d65565b600080600060608486031215610d9157610d91600080fd5b6000610d9d8686610d0c565b9350506020610dae86828701610d0c565b9250506040610dbf86828701610d1d565b9150509250925092565b60ff8116610c69565b6020810161040f8284610dc9565b600060208284031215610df557610df5600080fd5b6000610b248484610d0c565b610c6981610cf8565b6020810161040f8284610e01565b600061040f610e2c610e2984610cec565b90565b610cec565b600061040f82610e18565b600061040f82610e31565b610c6981610e3c565b6020810161040f8284610e47565b600060208284031215610e7357610e73600080fd5b6000610b248484610d1d565b60008060408385031215610e9557610e95600080fd5b6000610ea18585610d0c565b9250506020610d5b85828601610d0c565b805161040f81610d17565b600060208284031215610ed257610ed2600080fd5b6000610b248484610eb2565b634e487b7160e01b600052602260045260246000fd5b600281046001821680610f0857607f821691505b60208210811415610f1b57610f1b610ede565b50919050565b634e487b7160e01b600052601160045260246000fd5b60008219821115610f4a57610f4a610f21565b500190565b60408101610f5d8285610e01565b6104346020830184610d65565b805161040f81610c27565b600060208284031215610f8a57610f8a600080fd5b6000610b248484610f6a565b634e487b7160e01b600052601260045260246000fd5b600082610fbb57610fbb610f96565b500490565b60808101610fce8287610e01565b610fdb6020830186610d65565b610fe86040830185610e01565b610ff56060830184610d65565b95945050505050565b602581526000602082017f45524332303a2064656372656173656420616c6c6f77616e63652062656c6f77815264207a65726f60d81b602082015291505b5060400190565b6020808252810161040f81610ffe565b602481526000602082017f45524332303a20617070726f76652066726f6d20746865207a65726f206164648152637265737360e01b6020820152915061103c565b6020808252810161040f81611053565b602281526000602082017f45524332303a20617070726f766520746f20746865207a65726f206164647265815261737360f01b6020820152915061103c565b6020808252810161040f816110a4565b601d81526000602082017f45524332303a20696e73756666696369656e7420616c6c6f77616e6365000000815291505b5060200190565b6020808252810161040f816110f3565b602581526000602082017f45524332303a207472616e736665722066726f6d20746865207a65726f206164815264647265737360d81b6020820152915061103c565b6020808252810161040f8161113a565b602381526000602082017f45524332303a207472616e7366657220746f20746865207a65726f206164647281526265737360e81b6020820152915061103c565b6020808252810161040f8161118c565b602681526000602082017f45524332303a207472616e7366657220616d6f756e7420657863656564732062815265616c616e636560d01b6020820152915061103c565b6020808252810161040f816111dc565b6060810161123d8286610e01565b61124a6020830185610e01565b610b246040830184610d65565b602a81526000602082017f5361666545524332303a204552433230206f7065726174696f6e20646964206e8152691bdd081cdd58d8d9595960b21b6020820152915061103c565b6020808252810161040f81611257565b602681526000602082017f416464726573733a20696e73756666696369656e742062616c616e636520666f8152651c8818d85b1b60d21b6020820152915061103c565b6020808252810161040f816112ae565b601d81526000602082017f416464726573733a2063616c6c20746f206e6f6e2d636f6e747261637400000081529150611123565b6020808252810161040f81611301565b600061134f825190565b61135d818560208601610c7d565b9290920192915050565b6000610434828461134556fea26469706673582212208253ecaebe5391ec35dc43ab21b534464b394d2dacf1e266b07c17d4edf540dc64736f6c63430008090033",
  "linkReferences": {},
  "deployedLinkReferences": {}
}