{
  "_format": "hh-sol-artifact-1",
  "contractName": "SVG10",
  "sourceName": "contracts/svg/SVG10.sol",
  "abi": [
    {
      "inputs": [
        {
          "components": [
            {
              "internalType": "string",
              "name": "color",
              "type": "string"
            },
            {
              "internalType": "string",
              "name": "vaultName",
              "type": "string"
            },
            {
              "internalType": "string",
              "name": "vaultAddr",
              "type": "string"
            },
            {
              "internalType": "string",
              "name": "vaultDate",
              "type": "string"
            },
            {
              "internalType": "string",
              "name": "vaultApy",
              "type": "string"
            },
            {
              "internalType": "string",
              "name": "vaultVolume",
              "type": "string"
            },
            {
              "internalType": "string",
              "name": "vaultDacName",
              "type": "string"
            },
            {
              "internalType": "string",
              "name": "nftEarnings",
              "type": "string"
            },
            {
              "internalType": "string",
              "name": "nftHoldings",
              "type": "string"
            }
          ],
          "internalType": "struct ISvgManager.SvgParams",
          "name": "params",
          "type": "tuple"
        }
      ],
      "name": "getSvgPart10",
      "outputs": [
        {
          "internalType": "string",
          "name": "",
          "type": "string"
        }
      ],
      "stateMutability": "pure",
      "type": "function"
    }
  ],
  "bytecode": "0x608060405234801561001057600080fd5b506112b5806100206000396000f3fe608060405234801561001057600080fd5b506004361061002b5760003560e01c806358fbc04914610030575b600080fd5b61004361003e366004610387565b610059565b6040516100509190610425565b60405180910390f35b606081602001518260400151836060015184608001518560a001518660c001518760c001518860e001518961010001516040516020016100a199989796959493929190610a04565b6040516020818303038152906040529050919050565b601f01601f191690565b634e487b7160e01b600052604160045260246000fd5b6100e0826100b7565b81018181106001600160401b03821117156100fd576100fd6100c1565b6040525050565b600061010f60405190565b905061011b82826100d7565b919050565b60006001600160401b03821115610139576101396100c1565b610142826100b7565b60200192915050565b82818337506000910152565b600061016a61016584610120565b610104565b90508281526020810184848401111561018557610185600080fd5b61019084828561014b565b509392505050565b600082601f8301126101ac576101ac600080fd5b81356101bc848260208601610157565b949350505050565b600061012082840312156101da576101da600080fd5b6101e5610120610104565b905081356001600160401b0381111561020057610200600080fd5b61020c84828501610198565b82525060208201356001600160401b0381111561022b5761022b600080fd5b61023784828501610198565b60208301525060408201356001600160401b0381111561025957610259600080fd5b61026584828501610198565b60408301525060608201356001600160401b0381111561028757610287600080fd5b61029384828501610198565b60608301525060808201356001600160401b038111156102b5576102b5600080fd5b6102c184828501610198565b60808301525060a08201356001600160401b038111156102e3576102e3600080fd5b6102ef84828501610198565b60a08301525060c08201356001600160401b0381111561031157610311600080fd5b61031d84828501610198565b60c08301525060e08201356001600160401b0381111561033f5761033f600080fd5b61034b84828501610198565b60e0830152506101008201356001600160401b0381111561036e5761036e600080fd5b61037a84828501610198565b6101008301525092915050565b60006020828403121561039c5761039c600080fd5b81356001600160401b038111156103b5576103b5600080fd5b6101bc848285016101c4565b60005b838110156103dc5781810151838201526020016103c4565b838111156103eb576000848401525b50505050565b60006103fb825190565b8084526020840193506104128185602086016103c1565b61041b816100b7565b9093019392505050565b6020808252810161043681846103f1565b9392505050565b7f3c747370616e20636c6173733d22636c732d35302220783d22302220793d2230815261111f60f11b602082015260005b5060220190565b600061047f825190565b61048d8185602086016103c1565b9290920192915050565b671e17ba39b830b71f60c11b815260080190565b661e17ba32bc3a1f60c91b815260070190565b6000805160206112408339815191528152783a3930b739b630ba3294189c1b971899901a1a98971c94911f60391b602082015260005b5060390190565b7f3c7465787420636c6173733d22636c732d323322207472616e73666f726d3d228152793a3930b739b630ba3294191c1b971b1c101a1a98971a9c94911f60311b602082015260005b50603a0190565b7f3c747370616e20636c6173733d22636c732d33372220783d22302220793d2230815261111f60f11b6020820152600061046e565b6000805160206112408339815191528152793a3930b739b630ba3294189819181719101a1a98971a9c94911f60311b60208201526000610544565b721e3a39b830b7103c1e911811103c9e9118111f60691b815260130190565b7f3c7465787420636c6173733d22636c732d323222207472616e73666f726d3d228152793a3930b739b630ba329418981c9c971b1b901a1a98971c94911f60311b60208201526000610544565b6000805160206112008339815191528152783a3930b739b630ba3294189c1a171c1c901b1a19171a94911f60391b602082015260006104f4565b6241505960e81b815260005b5060030190565b60008051602061126083398151915281527f793d223636352e3433222077696474683d2234373122206865696768743d22316020820152721110393c1e91171a9110393c9e91171a91179f60691b604082015260005b5060530190565b621e339f60e91b8152600061066d565b7f3c7465787420636c6173733d22636c732d333322207472616e73666f726d3d228152793a3930b739b630ba3294191b1b17199a901b9c1c17189894911f60311b60208201526000610544565b602560f81b815260005b5060010190565b631e17b39f60e11b815260040190565b6000805160206112008339815191528152783a3930b739b630ba32941b9b9c971b1c901b1a19171a94911f60391b602082015260006104f4565b7f3c7465787420636c6173733d22636c732d353722207472616e73666f726d3d228152783a3930b739b630ba32941b9b9a1719901b9c1c17189894911f60391b602082015260006104f4565b600960fa1b81526000610738565b7f3c7465787420636c6173733d22636c732d343322207472616e73666f726d3d228152793a3930b739b630ba3294189c1c1719989018999a18171994911f60311b60208201526000610544565b60008051602061126083398151915281526000805160206112208339815191526020820152721110393c1e91171a9110393c9e91171a91179f60691b604082015260006106ca565b6000805160206112008339815191528152793a3930b739b630ba3294189c19971998901c989c97181c94911f60311b60208201526000610544565b7f3c747370616e20783d22302220793d2230223e4561726e696e67733c2f74737081526230b71f60e91b602082015260005b5060230190565b7f3c7465787420636c6173733d22636c732d353822207472616e73666f726d3d228152793a3930b739b630ba32941b9b9a171b1b9018981b1a171b94911f60311b60208201526000610544565b7f3c7265637420636c6173733d22636c732d33312220783d223738312e3132222081526000805160206112208339815191526020820152721110393c1e91171a9110393c9e91171a91179f60691b604082015260006106ca565b6000805160206112008339815191528152793a3930b739b630ba32941b9b9c171a9c901c989c97181c94911f60311b60208201526000610544565b7f3c747370616e20783d22302220793d2230223e486f6c64696e67733c2f74737081526230b71f60e91b602082015260006108e5565b7f3c7465787420636c6173733d22636c732d34382220746578742d616e63686f7281527f3d226d6964646c652220616c69676e6d656e742d626173656c696e653d226d6960208201527f64646c6522207472616e73666f726d3d227472616e736c617465283731302c20604082015265199c1814911f60d11b60608201526066016000610a908261043d565b9150610a9c828c610475565b9150610aa782610497565b9150610ab2826104ab565b9150610abd826104be565b7f3c747370616e20636c6173733d22636c732d35352220783d22302220793d2230815270111f20b23932b9b99d1e17ba39b830b71f60791b60208201526031019150610b08826104ab565b9150610b13826104fb565b9150610b1e8261054b565b9150610b2a828b610475565b9150610b3582610497565b9150610b40826104ab565b9150610b4b82610580565b9150610b56826105bb565b6529b4b731b29d60d11b81526006019150610b7082610497565b9150610b7b826104ab565b9150610b86826105da565b9150610b91826105bb565b9150610b9d828a610475565b9150610ba882610497565b9150610bb3826104ab565b9150610bbe82610627565b9150610bc9826105bb565b9150610bd482610661565b9150610bdf82610497565b9150610bea826104ab565b9150610bf582610674565b9150610c00826106d1565b9150610c0b826106e1565b9150610c16826105bb565b9150610c228289610475565b9150610c2d8261072e565b9150610c3882610497565b9150610c43826104ab565b9150610c4e826106d1565b7f3c7061746820636c6173733d22636c732d33322220643d224d3234332e30362c81527f3732362e34336c2d35362e34342c35332e3735632d312c2e39342d322e35342d60208201527f2e352d312e35362d312e35362c302c302c35332e37352d35362e34342c35332e60408201527f37352d35362e34342c322e38362d322e38342c372e31312c312e33352c342e3260608201526b1a161a17191a34182d11179f60a11b60808201527f3c7061746820636c6173733d22636c732d33322220643d224d3230312e30392c608c8201527f3732322e39366c33392e38342d312e363663312e35392d2e30382c322e39342c60ac8201527f312e31352c332c322e37342c2e30322c2e32342d312e39352c33392e38342d3160cc8201527f2e39352c34302e312d2e30382c312e332d322e30322c312e33332d322e31312c60ec8201527f302c302c302d312e39352d33392e38342d312e39352d33392e38346c332c332d61010c8201527f33392e38342d312e3636632d312e36372d2e30382d312e372d322e35392c302d61012c8201526919171b1c34182d11179f60b11b61014c820152610156019150610e018261073f565b9150610e0c8261073f565b9150610e178261074f565b7f3c747370616e20636c6173733d22636c732d32362220783d22302220793d223081526a111f2a1e17ba39b830b71f60a91b60208201527f3c747370616e20783d2232332e35352220793d2230223e6f74616c203c2f7473602b820152633830b71f60e11b604b8201527f3c747370616e20636c6173733d22636c732d34362220783d223130372220793d604f820152711118111f2b37b63ab6b29e17ba39b830b71f60711b606f8201526081019150610ed0826104ab565b9150610edb82610789565b9150610ee6826105bb565b9150610ef1826107d5565b9150610efd8288610475565b9150610f0882610497565b9150610f13826104ab565b9150610f1e826107e3565b7f3c747370616e20783d22302220793d2230223e4279203c2f747370616e3e00008152601e019150610f4f826104ab565b7f3c7265637420636c6173733d22636c732d33312220783d223138372e3737222081527f793d22313336322e3233222077696474683d22313036312e3634222068656967602082015277343a1e91189110393c1e91171a9110393c9e91171a91179f60411b60408201527f3c7465787420636c6173733d22636c732d343722207472616e73666f726d3d2260588201527f7472616e736c617465283236302e393520313333352e32342920726f7461746560788201527b14169a971c9b14911f1e3a39b830b7103c1e911811103c9e9118111f60211b609882015260b40191506110398287610475565b6e1e17ba39b830b71f1e17ba32bc3a1f60891b81527f3c7465787420636c6173733d22636c732d353222207472616e73666f726d3d22600f8201527f7472616e736c617465283730392e353920313332312e3529223e3c747370616e602f8201526c103c1e911811103c9e9118111f60991b604f820152605c0191506110bf8286610475565b7f3c2f747370616e3e3c2f746578743e3c7465787420636c6173733d22636c732d81527f353822207472616e73666f726d3d227472616e736c617465283137392e33392060208201526818981b1a171b94911f60b91b60408201526049019150611128826105bb565b9150611133826107d5565b915061113f8285610475565b915061114a82610497565b9150611155826104ab565b915061116082610830565b915061116b82610878565b9150611176826108b3565b9150611181826104ab565b915061118c826108ec565b9150611197826105bb565b91506111a2826107d5565b91506111ae8284610475565b91506111b982610497565b91506111c4826104ab565b91506111cf82610939565b91506111da82610993565b91506111e5826109ce565b91506111f0826104ab565b9b9a505050505050505050505056fe3c7465787420636c6173733d22636c732d343522207472616e73666f726d3d22793d223934322e3032222077696474683d2234373122206865696768743d22313c7465787420636c6173733d22636c732d323422207472616e73666f726d3d223c7265637420636c6173733d22636c732d33312220783d223138352e38342220a26469706673582212200d346f15b00109ed8d05be75148b96469327a66814b7d9bb1a4711d994537ecc64736f6c63430008090033",
  "linkReferences": {},
  "deployedLinkReferences": {}
}