{
  "_format": "hh-sol-artifact-1",
  "contractName": "SVG1",
  "sourceName": "contracts/svg/SVG1.sol",
  "abi": [
    {
      "inputs": [
        {
          "internalType": "string",
          "name": "color",
          "type": "string"
        }
      ],
      "name": "getSvgPart1",
      "outputs": [
        {
          "internalType": "string",
          "name": "",
          "type": "string"
        }
      ],
      "stateMutability": "pure",
      "type": "function"
    }
  ],
  "bytecode": "0x608060405234801561001057600080fd5b506118e7806100206000396000f3fe608060405234801561001057600080fd5b506004361061002b5760003560e01c806325ce3ba914610030575b600080fd5b61004361003e366004610191565b610059565b604051610050919061022f565b60405180910390f35b6060818260405160200161006e929190610cd1565b6040516020818303038152906040529050919050565b601f01601f191690565b634e487b7160e01b600052604160045260246000fd5b6100ad82610084565b81018181106001600160401b03821117156100ca576100ca61008e565b6040525050565b60006100dc60405190565b90506100e882826100a4565b919050565b60006001600160401b038211156101065761010661008e565b61010f82610084565b60200192915050565b82818337506000910152565b6000610137610132846100ed565b6100d1565b90508281526020810184848401111561015257610152600080fd5b61015d848285610118565b509392505050565b600082601f83011261017957610179600080fd5b8135610189848260208601610124565b949350505050565b6000602082840312156101a6576101a6600080fd5b81356001600160401b038111156101bf576101bf600080fd5b61018984828501610165565b60005b838110156101e65781810151838201526020016101ce565b838111156101f5576000848401525b50505050565b6000610205825190565b80845260208401935061021c8185602086016101cb565b61022581610084565b9093019392505050565b6020808252810161024081846101fb565b9392505050565b6000610251825190565b61025f8185602086016101cb565b9290920192915050565b623b207d60e81b815260030190565b7f2e636c732d322c202e636c732d3231207b207374726f6b653a20236666663b208152607d60f81b602082015260005b5060210190565b7f2e636c732d34207b207374726f6b652d77696474683a20312e3470783b7d0000815260005b50601e0190565b7f2e636c732d352c202e636c732d3137207b7374726f6b652d77696474683a203381526370783b7d60e01b602082015260005b5060240190565b762e636c732d3232207b66696c6c3a20236566363034383b60481b815260005b5060170190565b607d60f81b815260010190565b7f2e636c732d32322c202e636c732d32332c202e636c732d3234207b20666f6e7481526d2d73697a653a20323470783b207d60901b602082015260005b50602e0190565b7f2e636c732d3235207b20636c69702d706174683a2075726c2823636c697070618152657468293b207d60d01b602082015260005b5060260190565b7f2e636c732d3236207b206c65747465722d73706163696e673a202d2e3038656d8152623b207d60e81b602082015260005b5060230190565b7f2e636c732d3237207b206c65747465722d73706163696e673a202d2e3031656d8152623b207d60e81b602082015260006103fc565b7f2e636c732d33322c202e636c732d3333207b66696c6c3a20233437643830623b8152607d60f81b602082015260006102a8565b7f2e636c732d37207b207374726f6b652d77696474683a20322e3370783b207d00815260005b50601f0190565b7f2e636c732d32312c202e636c732d31302c202e636c732d3132207b7374726f6b81526d652d77696474683a203270783b7d60901b60208201526000610387565b682e636c732d3330207b60b81b815260005b5060090190565b7f666f6e742d66616d696c793a204675747572612d4d656469756d2c204675747581526272613b60e81b602082015260006103fc565b6f666f6e742d73697a653a20313370783b60801b815260005b5060100190565b682e636c732d3334207b60b81b815260006104ed565b756c65747465722d73706163696e673a202e3032656d3b60501b815260005b5060160190565b682e636c732d3335207b60b81b815260006104ed565b756c65747465722d73706163696e673a202d2e31656d3b60501b8152600061057f565b672e636c732d39207b60c01b815260005b5060080190565b727374726f6b652d77696474683a20323570783b60681b815260005b5060130190565b682e636c732d3336207b60b81b815260006104ed565b6d66696c6c3a20233438643866663b60901b815260005b50600e0190565b72666f6e742d73697a653a2037322e363870783b60681b815260006105f3565b766c65747465722d73706163696e673a202d2e3034656d3b60481b81526000610336565b682e636c732d3337207b60b81b815260006104ed565b766c65747465722d73706163696e673a202d2e3033656d3b60481b81526000610336565b682e636c732d3338207b60b81b815260006104ed565b7b636c69702d706174683a2075726c2823636c6970706174682d31293b60201b815260005b50601c0190565b682e636c732d3339207b60b81b815260006104ed565b7b636c69702d706174683a2075726c2823636c6970706174682d33293b60201b815260006106e7565b682e636c732d3430207b60b81b815260006104ed565b7b636c69702d706174683a2075726c2823636c6970706174682d32293b60201b815260006106e7565b682e636c732d3431207b60b81b815260006104ed565b736c65747465722d73706163696e673a2030656d3b60601b815260005b5060140190565b682e636c732d3432207b60b81b815260006104ed565b682e636c732d3433207b60b81b815260006104ed565b6f666f6e742d73697a653a20333870783b60801b81526000610543565b682e636c732d3434207b60b81b815260006104ed565b766c65747465722d73706163696e673a202d2e3035656d3b60481b81526000610336565b682e636c732d3131207b60b81b815260006104ed565b737374726f6b652d77696474683a20322e3670783b60601b8152600061079f565b682e636c732d3435207b60b81b815260006104ed565b7f666f6e742d66616d696c793a20496e7465722d426f6c642c20496e7465723b0081526000610493565b6f666f6e742d73697a653a20343070783b60801b81526000610543565b682e636c732d3436207b60b81b815260006104ed565b682e636c732d3133207b60b81b815260006104ed565b737374726f6b652d77696474683a20312e3670783b60601b8152600061079f565b682e636c732d3437207b60b81b815260006104ed565b6d66696c6c3a20233730373037303b60901b81526000610627565b7f666f6e742d66616d696c793a20436f6479737461722d4c696768742c20436f6481526579737461723b60d01b602082015260006103c3565b6f666f6e742d73697a653a20393670783b60801b81526000610543565b682e636c732d3233207b60b81b815260006104ed565b7f666f6e742d66616d696c793a20496e7465722d4d656469756d2c20496e7465728152603b60f81b602082015260006102a8565b682e636c732d3438207b60b81b815260006104ed565b6d66696c6c3a20233030323634393b60901b81526000610627565b72666f6e742d66616d696c793a20496e7465723b60681b815260006105f3565b70666f6e742d7765696768743a203830303b60781b815260005b5060110190565b70666f6e742d73697a653a2031313470783b60781b81526000610a46565b682e636c732d3134207b60b81b815260006104ed565b737374726f6b652d77696474683a20312e3870783b60601b8152600061079f565b682e636c732d3439207b60b81b815260006104ed565b682e636c732d3530207b60b81b815260006104ed565b682e636c732d3531207b60b81b815260006104ed565b7f2e636c732d3135207b7374726f6b652d77696474683a20322e3270783b7d0000815260006102d5565b682e636c732d3532207b60b81b815260006104ed565b70666f6e742d73697a653a2031373270783b60781b81526000610a46565b7f2e636c732d3533207b6c65747465722d73706163696e673a202d2e3033656d3b8152607d60f81b602082015260006102a8565b7f2e636c732d3534207b6c65747465722d73706163696e673a202d2e3032656d3b8152607d60f81b602082015260006102a8565b7f2e636c732d3535207b6c65747465722d73706163696e673a2030656d3b7d0000815260006102d5565b7f2e636c732d3536207b6c65747465722d73706163696e673a202d2e3033656d3b8152607d60f81b602082015260006102a8565b7f2e636c732d35372c202e636c732d3333207b666f6e742d73697a653a2031313081526370783b7d60e01b6020820152600061030f565b7a2e636c732d35372c202e636c732d33332c202e636c732d3538207b60281b815260005b50601b0190565b7f2e636c732d35372c202e636c732d3538207b66696c6c3a20233131313b7d0000815260006102d5565b7a2e636c732d3538207b666f6e742d73697a653a2031303470783b7d60281b81526000610c63565b671e17b9ba3cb6329f60c11b815260006105d0565b651e3232b3399f60d11b8152661e39ba3cb6329f60c91b60068201527f40696d706f72742075726c282768747470733a2f2f666f6e74732e676f6f676c600d82018190527f65617069732e636f6d2f637373323f66616d696c793d416272696c2b46617466602d8301526561636527293b60d01b604d830152605382018190527f65617069732e636f6d2f637373323f66616d696c793d436f6479737461723a776073830152696768744033303027293b60b01b6093830152609d82018190527f65617069732e636f6d2f637373323f66616d696c793d496e7465723a7767687460bd83015272403430303b3530303b3730303b38303027293b60681b60dd83015260f082018190527f65617069732e636f6d2f637373323f66616d696c793d4d6569652b5363726970610110830152637427293b60e01b61013083015261013482018190527f65617069732e636f6d2f637373323f66616d696c793d4d72732b5361696e742b6101548301526b44656c616669656c6427293b60a01b6101748301526101808201527f65617069732e636f6d2f637373323f66616d696c793d527562696b2b446973746101a08201526872657373656427293b60b81b6101c08201527f2e636c732d312c202e636c732d322c202e636c732d332c202e636c732d342c206101c98201527f2e636c732d352c202e636c732d362c202e636c732d372c202e636c732d382c206101e98201527f2e636c732d392c202e636c732d31302c202e636c732d31312c202e636c732d316102098201527f322c202e636c732d31332c202e636c732d31342c202e636c732d31352c202e636102298201527f6c732d31362c202e636c732d3137207b2066696c6c3a206e6f6e653b207d00006102498201527f2e636c732d31382c202e636c732d332c202e636c732d342c202e636c732d352c6102678201527f202e636c732d362c202e636c732d372c202e636c732d382c202e636c732d392c6102878201527f202e636c732d31302c202e636c732d31312c202e636c732d31392c202e636c736102a78201527f2d31322c202e636c732d31332c202e636c732d31342c202e636c732d31352c206102c78201527901731b63996989b16101731b63996989b903db9ba3937b5b29d160351b6102e78201526103010160006110278285610247565b915061103282610269565b7801731b63996991c96101731b639969998103d903334b6361d1603d1b815260190191506110608284610247565b915061106b82610269565b7f2e636c732d31382c202e636c732d332c202e636c732d352c202e636c732d372c81527f202e636c732d382c202e636c732d31312c202e636c732d31392c202e636c732d60208201527f31322c202e636c732d31332c202e636c732d31342c202e636c732d3135207b206040820152777374726f6b652d6d697465726c696d69743a2031303b207d60401b60608201527f2e636c732d31382c202e636c732d362c202e636c732d38207b207374726f6b6560788201526f2d77696474683a20322e3570783b207d60801b60988201527f2e636c732d31382c202e636c732d32302c202e636c732d32312c202e636c732d60a8820152713139207b2066696c6c3a20236666663b207d60701b60c88201527f2e636c732d322c202e636c732d342c202e636c732d362c202e636c732d32312c60da8201527f202e636c732d392c202e636c732d31302c202e636c732d31362c202e636c732d60fa8201527f3137207b207374726f6b652d6c696e656361703a20726f756e643b207374726f61011a820152746b652d6c696e656a6f696e3a20726f756e643b207d60581b61013a82015261014f01915061121c82610278565b7f2e636c732d332c202e636c732d3136207b207374726f6b652d77696474683a20815267312e3570783b207d60c01b6020820152602801915061125e826102af565b9150611269826102dc565b915061127482610316565b7f666f6e742d66616d696c793a20527562696b446973747265737365642d526567815278756c61722c2027527562696b2044697374726573736564273b60381b602082015260390191506112c78261033d565b91506112d28261034a565b91506112dd8261038e565b91506112e8826103ca565b91506112f382610403565b7f2e636c732d3238207b206c65747465722d73706163696e673a2030656d3b207d8152792e636c732d3331207b2066696c6c3a20233865386538653b207d60301b6020820152603a01915061134782610439565b91506113528261046d565b915061135d8261049a565b9150611368826104db565b9150611373826104f4565b915061137e8261052a565b91506113898261033d565b91506113948261054a565b915061139f82610560565b91506113aa8261033d565b91506113b582610586565b91506113c08261059c565b91506113cb8261033d565b91506113d6826105bf565b91506113e1826105d7565b91506113ec8261033d565b91506113f7826105fa565b915061140282610610565b7f666f6e742d66616d696c793a204d6569655363726970742d526567756c61722c81526e20274d65696520536372697074273b60881b6020820152602f01915061144b8261062e565b91506114568261064e565b91506114618261033d565b915061146c82610672565b915061147782610688565b91506114828261033d565b915061148d826106ac565b9150611498826106c2565b91506114a38261033d565b91506114ae826106ee565b91506114b982610704565b91506114c48261033d565b91506114cf8261072d565b91506114da82610743565b91506114e58261033d565b91506114f08261076c565b91506114fb82610782565b91506115068261033d565b9150611511826107a6565b915061151c82610782565b91506115278261033d565b9150611532826107bc565b7f666f6e742d66616d696c793a20496e7465722d526567756c61722c20496e7465815261723b60f01b6020820152602201915061156e826107d2565b91506115798261033d565b9150611584826107ef565b915061158f82610805565b915061159a8261033d565b91506115a582610829565b91506115b08261083f565b91506115bb8261033d565b91506115c682610860565b91506115d182610876565b91506115dc826108a0565b91506115e78261033d565b91506115f2826108bd565b91506115fd82610782565b91506116088261033d565b9150611613826108d3565b915061161e826108e9565b91506116298261033d565b91506116348261090a565b915061163f82610920565b915061164a8261093b565b915061165582610974565b91506116608261033d565b915061166b82610991565b6a66696c6c3a20233434343b60a81b8152600b01915061168a8261033d565b712e636c732d32332c202e636c732d3234207b60701b815260120191506116b0826109a7565b91506116bb8261033d565b91506116c6826109db565b91506116d1826109f1565b91506116dc82610a0c565b91506116e782610a2c565b91506116f282610a4d565b91506116fd8261033d565b915061170882610a6b565b915061171382610a81565b915061171e8261033d565b915061172982610aa2565b915061173482610782565b915061173f8261033d565b915061174a82610ab8565b915061175582610805565b91506117608261033d565b915061176b82610ace565b746c65747465722d73706163696e673a2030656d3b7d60581b8152601501915061179482610ae4565b915061179f82610b0e565b7f666f6e742d66616d696c793a204d72735361696e7444656c616669656c642d5281527f6567756c61722c20274d7273205361696e742044656c616669656c64273b00006020820152603e0191506117f682610b24565b91506118018261033d565b915061180c82610b42565b915061181782610b76565b915061182282610baa565b915061182d82610bd4565b915061183882610c08565b915061184382610c3f565b7f666f6e742d66616d696c793a20416272696c466174666163652d526567756c61815272722c2027416272696c2046617466616365273b60681b602082015260330191506118908261033d565b915061189b82610c6a565b91506118a682610c94565b915061018982610cbc56fea2646970667358221220c424151c52285427a56f8bc1878ab46b9cd31d5397fb91024c64c3b5b2e879ba64736f6c63430008090033",
  "linkReferences": {},
  "deployedLinkReferences": {}
}