{
  "_format": "hh-sol-artifact-1",
  "contractName": "NftWrappingManager",
  "sourceName": "contracts/core/NftWrappingManager.sol",
  "abi": [
    {
      "inputs": [
        {
          "internalType": "address",
          "name": "router_",
          "type": "address"
        },
        {
          "internalType": "address",
          "name": "svgManager_",
          "type": "address"
        }
      ],
      "stateMutability": "nonpayable",
      "type": "constructor"
    },
    {
      "anonymous": false,
      "inputs": [
        {
          "indexed": true,
          "internalType": "address",
          "name": "owner",
          "type": "address"
        },
        {
          "indexed": true,
          "internalType": "address",
          "name": "approved",
          "type": "address"
        },
        {
          "indexed": true,
          "internalType": "uint256",
          "name": "tokenId",
          "type": "uint256"
        }
      ],
      "name": "Approval",
      "type": "event"
    },
    {
      "anonymous": false,
      "inputs": [
        {
          "indexed": true,
          "internalType": "address",
          "name": "owner",
          "type": "address"
        },
        {
          "indexed": true,
          "internalType": "address",
          "name": "operator",
          "type": "address"
        },
        {
          "indexed": false,
          "internalType": "bool",
          "name": "approved",
          "type": "bool"
        }
      ],
      "name": "ApprovalForAll",
      "type": "event"
    },
    {
      "anonymous": false,
      "inputs": [
        {
          "indexed": false,
          "internalType": "uint256",
          "name": "tokenId",
          "type": "uint256"
        }
      ],
      "name": "FullyRedeemed",
      "type": "event"
    },
    {
      "anonymous": false,
      "inputs": [
        {
          "indexed": false,
          "internalType": "uint256",
          "name": "tokenId",
          "type": "uint256"
        }
      ],
      "name": "NFTImageUpdated",
      "type": "event"
    },
    {
      "anonymous": false,
      "inputs": [
        {
          "indexed": false,
          "internalType": "address",
          "name": "recipient",
          "type": "address"
        },
        {
          "indexed": false,
          "internalType": "uint256",
          "name": "tokenId",
          "type": "uint256"
        }
      ],
      "name": "NewNFTMinted",
      "type": "event"
    },
    {
      "anonymous": false,
      "inputs": [
        {
          "indexed": true,
          "internalType": "address",
          "name": "from",
          "type": "address"
        },
        {
          "indexed": true,
          "internalType": "address",
          "name": "to",
          "type": "address"
        },
        {
          "indexed": true,
          "internalType": "uint256",
          "name": "tokenId",
          "type": "uint256"
        }
      ],
      "name": "Transfer",
      "type": "event"
    },
    {
      "anonymous": false,
      "inputs": [
        {
          "indexed": true,
          "internalType": "uint256",
          "name": "tokenId",
          "type": "uint256"
        },
        {
          "indexed": true,
          "internalType": "address",
          "name": "user",
          "type": "address"
        },
        {
          "indexed": false,
          "internalType": "uint64",
          "name": "expires",
          "type": "uint64"
        }
      ],
      "name": "UpdateUser",
      "type": "event"
    },
    {
      "inputs": [
        {
          "internalType": "address",
          "name": "to",
          "type": "address"
        },
        {
          "internalType": "uint256",
          "name": "tokenId",
          "type": "uint256"
        }
      ],
      "name": "approve",
      "outputs": [],
      "stateMutability": "nonpayable",
      "type": "function"
    },
    {
      "inputs": [
        {
          "internalType": "address",
          "name": "owner",
          "type": "address"
        }
      ],
      "name": "balanceOf",
      "outputs": [
        {
          "internalType": "uint256",
          "name": "",
          "type": "uint256"
        }
      ],
      "stateMutability": "view",
      "type": "function"
    },
    {
      "inputs": [
        {
          "internalType": "address",
          "name": "user",
          "type": "address"
        },
        {
          "internalType": "address",
          "name": "vault",
          "type": "address"
        },
        {
          "internalType": "uint256",
          "name": "qTokenAmount",
          "type": "uint256"
        }
      ],
      "name": "deposit",
      "outputs": [],
      "stateMutability": "nonpayable",
      "type": "function"
    },
    {
      "inputs": [
        {
          "internalType": "uint256",
          "name": "qTokenAmount",
          "type": "uint256"
        },
        {
          "internalType": "uint256",
          "name": "tokenId",
          "type": "uint256"
        }
      ],
      "name": "deposit",
      "outputs": [],
      "stateMutability": "nonpayable",
      "type": "function"
    },
    {
      "inputs": [
        {
          "internalType": "uint256",
          "name": "tokenId",
          "type": "uint256"
        }
      ],
      "name": "depositInfo",
      "outputs": [
        {
          "internalType": "address",
          "name": "vault",
          "type": "address"
        },
        {
          "internalType": "uint256",
          "name": "qTokenAmount",
          "type": "uint256"
        },
        {
          "internalType": "bool",
          "name": "isFullyRedeemed",
          "type": "bool"
        }
      ],
      "stateMutability": "view",
      "type": "function"
    },
    {
      "inputs": [
        {
          "internalType": "uint256",
          "name": "tokenId",
          "type": "uint256"
        }
      ],
      "name": "getApproved",
      "outputs": [
        {
          "internalType": "address",
          "name": "",
          "type": "address"
        }
      ],
      "stateMutability": "view",
      "type": "function"
    },
    {
      "inputs": [
        {
          "internalType": "uint256",
          "name": "tokenId",
          "type": "uint256"
        }
      ],
      "name": "getQtokenAmount",
      "outputs": [
        {
          "internalType": "uint256",
          "name": "",
          "type": "uint256"
        }
      ],
      "stateMutability": "view",
      "type": "function"
    },
    {
      "inputs": [
        {
          "internalType": "address",
          "name": "_user",
          "type": "address"
        },
        {
          "internalType": "address",
          "name": "_vault",
          "type": "address"
        }
      ],
      "name": "getQvtokenAmount",
      "outputs": [
        {
          "internalType": "uint256",
          "name": "",
          "type": "uint256"
        }
      ],
      "stateMutability": "view",
      "type": "function"
    },
    {
      "inputs": [
        {
          "internalType": "address",
          "name": "_user",
          "type": "address"
        },
        {
          "internalType": "address",
          "name": "_vault",
          "type": "address"
        }
      ],
      "name": "getTokenIds",
      "outputs": [
        {
          "internalType": "uint256[]",
          "name": "tokenIds",
          "type": "uint256[]"
        }
      ],
      "stateMutability": "view",
      "type": "function"
    },
    {
      "inputs": [
        {
          "internalType": "address",
          "name": "owner",
          "type": "address"
        },
        {
          "internalType": "address",
          "name": "operator",
          "type": "address"
        }
      ],
      "name": "isApprovedForAll",
      "outputs": [
        {
          "internalType": "bool",
          "name": "",
          "type": "bool"
        }
      ],
      "stateMutability": "view",
      "type": "function"
    },
    {
      "inputs": [],
      "name": "name",
      "outputs": [
        {
          "internalType": "string",
          "name": "",
          "type": "string"
        }
      ],
      "stateMutability": "view",
      "type": "function"
    },
    {
      "inputs": [
        {
          "internalType": "uint256",
          "name": "tokenId",
          "type": "uint256"
        }
      ],
      "name": "ownerOf",
      "outputs": [
        {
          "internalType": "address",
          "name": "",
          "type": "address"
        }
      ],
      "stateMutability": "view",
      "type": "function"
    },
    {
      "inputs": [],
      "name": "router",
      "outputs": [
        {
          "internalType": "address",
          "name": "",
          "type": "address"
        }
      ],
      "stateMutability": "view",
      "type": "function"
    },
    {
      "inputs": [
        {
          "internalType": "address",
          "name": "from",
          "type": "address"
        },
        {
          "internalType": "address",
          "name": "to",
          "type": "address"
        },
        {
          "internalType": "uint256",
          "name": "tokenId",
          "type": "uint256"
        }
      ],
      "name": "safeTransferFrom",
      "outputs": [],
      "stateMutability": "nonpayable",
      "type": "function"
    },
    {
      "inputs": [
        {
          "internalType": "address",
          "name": "from",
          "type": "address"
        },
        {
          "internalType": "address",
          "name": "to",
          "type": "address"
        },
        {
          "internalType": "uint256",
          "name": "tokenId",
          "type": "uint256"
        },
        {
          "internalType": "bytes",
          "name": "data",
          "type": "bytes"
        }
      ],
      "name": "safeTransferFrom",
      "outputs": [],
      "stateMutability": "nonpayable",
      "type": "function"
    },
    {
      "inputs": [
        {
          "internalType": "address",
          "name": "operator",
          "type": "address"
        },
        {
          "internalType": "bool",
          "name": "approved",
          "type": "bool"
        }
      ],
      "name": "setApprovalForAll",
      "outputs": [],
      "stateMutability": "nonpayable",
      "type": "function"
    },
    {
      "inputs": [
        {
          "internalType": "uint256",
          "name": "tokenId",
          "type": "uint256"
        },
        {
          "internalType": "address",
          "name": "user",
          "type": "address"
        },
        {
          "internalType": "uint64",
          "name": "expires",
          "type": "uint64"
        }
      ],
      "name": "setUser",
      "outputs": [],
      "stateMutability": "nonpayable",
      "type": "function"
    },
    {
      "inputs": [
        {
          "internalType": "bytes4",
          "name": "interfaceId",
          "type": "bytes4"
        }
      ],
      "name": "supportsInterface",
      "outputs": [
        {
          "internalType": "bool",
          "name": "",
          "type": "bool"
        }
      ],
      "stateMutability": "view",
      "type": "function"
    },
    {
      "inputs": [],
      "name": "svgManager",
      "outputs": [
        {
          "internalType": "address",
          "name": "",
          "type": "address"
        }
      ],
      "stateMutability": "view",
      "type": "function"
    },
    {
      "inputs": [],
      "name": "symbol",
      "outputs": [
        {
          "internalType": "string",
          "name": "",
          "type": "string"
        }
      ],
      "stateMutability": "view",
      "type": "function"
    },
    {
      "inputs": [
        {
          "internalType": "uint256",
          "name": "tokenId",
          "type": "uint256"
        }
      ],
      "name": "tokenInfoSvg",
      "outputs": [
        {
          "internalType": "string",
          "name": "",
          "type": "string"
        }
      ],
      "stateMutability": "view",
      "type": "function"
    },
    {
      "inputs": [
        {
          "internalType": "uint256",
          "name": "tokenId",
          "type": "uint256"
        }
      ],
      "name": "tokenSvgUri",
      "outputs": [
        {
          "internalType": "string",
          "name": "",
          "type": "string"
        }
      ],
      "stateMutability": "view",
      "type": "function"
    },
    {
      "inputs": [
        {
          "internalType": "uint256",
          "name": "tokenId",
          "type": "uint256"
        }
      ],
      "name": "tokenURI",
      "outputs": [
        {
          "internalType": "string",
          "name": "",
          "type": "string"
        }
      ],
      "stateMutability": "view",
      "type": "function"
    },
    {
      "inputs": [
        {
          "internalType": "address",
          "name": "from",
          "type": "address"
        },
        {
          "internalType": "address",
          "name": "to",
          "type": "address"
        },
        {
          "internalType": "uint256",
          "name": "tokenId",
          "type": "uint256"
        }
      ],
      "name": "transferFrom",
      "outputs": [],
      "stateMutability": "nonpayable",
      "type": "function"
    },
    {
      "inputs": [
        {
          "internalType": "uint256",
          "name": "tokenId",
          "type": "uint256"
        }
      ],
      "name": "userExpires",
      "outputs": [
        {
          "internalType": "uint256",
          "name": "",
          "type": "uint256"
        }
      ],
      "stateMutability": "view",
      "type": "function"
    },
    {
      "inputs": [
        {
          "internalType": "uint256",
          "name": "tokenId",
          "type": "uint256"
        }
      ],
      "name": "userOf",
      "outputs": [
        {
          "internalType": "address",
          "name": "",
          "type": "address"
        }
      ],
      "stateMutability": "view",
      "type": "function"
    },
    {
      "inputs": [
        {
          "internalType": "uint256",
          "name": "tokenId",
          "type": "uint256"
        },
        {
          "internalType": "address",
          "name": "vault",
          "type": "address"
        },
        {
          "internalType": "uint256",
          "name": "amount",
          "type": "uint256"
        }
      ],
      "name": "withdraw",
      "outputs": [],
      "stateMutability": "nonpayable",
      "type": "function"
    }
  ],
  "bytecode": "0x60806040523480156200001157600080fd5b506040516200344e3803806200344e8339810160408190526200003491620001d2565b604080518082018252601e81527f5175696e6f61204465706f736974204365727469666963617465204e4654000060208083019182528351808501909452600b84526a1455524b50d1548b53919560aa1b90840152815191929183918391620000a091600091620000f2565b508051620000b6906001906020840190620000f2565b5050600980546001600160a01b039687166001600160a01b031991821617909155600a805495909616941693909317909355506200025c915050565b82805462000100906200022b565b90600052602060002090601f0160209004810192826200012457600085556200016f565b82601f106200013f57805160ff19168380011785556200016f565b828001600101855582156200016f579182015b828111156200016f57825182559160200191906001019062000152565b506200017d92915062000181565b5090565b5b808211156200017d576000815560010162000182565b60006001600160a01b0382165b92915050565b620001b68162000198565b8114620001c257600080fd5b50565b8051620001a581620001ab565b60008060408385031215620001ea57620001ea600080fd5b6000620001f88585620001c5565b92505060206200020b85828601620001c5565b9150509250929050565b634e487b7160e01b600052602260045260246000fd5b6002810460018216806200024057607f821691505b6020821081141562000256576200025662000215565b50919050565b6131e2806200026c6000396000f3fe608060405234801561001057600080fd5b50600436106101495760003560e01c806301ffc9a71461014e57806306fdde0314610177578063081812fc1461018c578063095ea7b3146101ac57806323b872dd146101c1578063317d7a2b146101d457806341ad67981461023a57806342842e0e1461025a57806355c098521461026d57806357a6b9b8146102905780636352211e146102a357806370a08231146102b65780637a43a373146102c95780638340f549146102dc5780638fc88c48146102ef57806395d89b411461031f578063a22cb46514610327578063b88d4fde1461033a578063c2f1f14a1461034d578063c87b56dd14610360578063d190c1d914610373578063d1de36ca14610393578063e030565e146103a6578063e2bbb158146103b9578063e63697c8146103cc578063e985e9c5146103df578063f887ea40146103f2575b600080fd5b61016161015c366004611d08565b610405565b60405161016e9190611d33565b60405180910390f35b61017f610430565b60405161016e9190611dab565b61019f61019a366004611dcd565b6104c2565b60405161016e9190611e08565b6101bf6101ba366004611e2a565b6104e9565b005b6101bf6101cf366004611e67565b610578565b61022b6101e2366004611dcd565b600081815260086020908152604091829020825160608101845281546001600160a01b0316808252600183015493820184905260029092015460ff161515930183905293909250565b60405161016e93929190611ebd565b61024d610248366004611ee5565b6105aa565b60405161016e9190611f18565b6101bf610268366004611e67565b610683565b61024d61027b366004611dcd565b60009081526008602052604090206001015490565b600a5461019f906001600160a01b031681565b61019f6102b1366004611dcd565b61069e565b61024d6102c4366004611f26565b6106d3565b61017f6102d7366004611dcd565b610717565b6101bf6102ea366004611e67565b610756565b61024d6102fd366004611dcd565b600090815260066020526040902054600160a01b90046001600160401b031690565b61017f61084b565b6101bf610335366004611f5a565b61085a565b6101bf610348366004612088565b610869565b61019f61035b366004611dcd565b6108a1565b61017f61036e366004611dcd565b6108eb565b610386610381366004611ee5565b610a8f565b60405161016e9190612163565b61017f6103a1366004611dcd565b610b20565b6101bf6103b436600461218e565b610fd8565b6101bf6103c73660046121d4565b61106b565b6101bf6103da3660046121f6565b6110ac565b6101616103ed366004611ee5565b611286565b60095461019f906001600160a01b031681565b60006001600160e01b03198216632b424ad760e21b148061042a575061042a826112b4565b92915050565b60606000805461043f90612230565b80601f016020809104026020016040519081016040528092919081815260200182805461046b90612230565b80156104b85780601f1061048d576101008083540402835291602001916104b8565b820191906000526020600020905b81548152906001019060200180831161049b57829003601f168201915b5050505050905090565b60006104cd82611304565b506000908152600460205260409020546001600160a01b031690565b60006104f48261069e565b9050806001600160a01b0316836001600160a01b031614156105315760405162461bcd60e51b81526004016105289061229e565b60405180910390fd5b336001600160a01b038216148061054d575061054d8133611286565b6105695760405162461bcd60e51b815260040161052890612308565b610573838361132c565b505050565b610583335b8261139a565b61059f5760405162461bcd60e51b815260040161052890612363565b6105738383836113f9565b6001600160a01b038083166000908152600b602090815260408083209385168352928152828220805484518184028101840190955280855292938493909283018282801561061757602002820191906000526020600020905b815481526020019060010190808311610603575b505050505090506000805b825181101561067a576008600084838151811061064157610641612373565b602002602001015181526020019081526020016000206001015482610666919061239f565b915080610672816123b7565b915050610622565b50949350505050565b61057383838360405180602001604052806000815250610869565b6000818152600260205260408120546001600160a01b03168061042a5760405162461bcd60e51b815260040161052890612404565b60006001600160a01b0382166106fb5760405162461bcd60e51b81526004016105289061245a565b506001600160a01b031660009081526003602052604090205490565b6060600061072c61072784610b20565b611514565b90508060405160200161073f919061248c565b604051602081830303815290604052915050919050565b6009546001600160a01b0316331461076d57600080fd5b604080516060810182526001600160a01b03841681526020810183905260009181018290529061079c60075490565b600081815260086020908152604091829020855181546001600160a01b039091166001600160a01b0319909116178155908501516001820155908401516002909101805491151560ff1990921691909117905590506107ff600780546001019055565b610809858261167b565b6001600160a01b039485166000908152600b60209081526040808320969097168252948552948520805460018101825590865293909420909201929092555050565b60606001805461043f90612230565b610865338383611695565b5050565b610873338361139a565b61088f5760405162461bcd60e51b815260040161052890612363565b61089b84848484611738565b50505050565b60008181526006602052604081205442600160a01b9091046001600160401b0316106108e357506000908152600660205260409020546001600160a01b031690565b506000919050565b600081815260086020526040808220548151630a03d8e760e31b815291516060936001600160a01b0390921692839163501ec738916004808201928692909190829003018186803b15801561093f57600080fd5b505afa158015610953573d6000803e3d6000fd5b505050506040513d6000823e601f3d908101601f1916820160405261097b91908101906125c9565b9050600081600160200201516109908661176b565b6040516020016109a1929190612603565b60408051808303601f190181529082905260e084015160208086015160808701519395506000946109d49491920161265e565b60408051601f19818403018152828201909152601b82527a68747470733a2f2f7175696e6f612e696e766573746d656e74732f60281b602083015291506000610a638484610a218b610717565b6020808a01518a5160e08c015160c08d015160a08e0151604051610a4f999897968d96959493929101612773565b604051602081830303815290604052611514565b604051602001610a7391906129cd565b60408051601f1981840301815291905298975050505050505050565b6009546060906001600160a01b03163314610aa957600080fd5b6001600160a01b038084166000908152600b6020908152604080832093861683529281529082902080548351818402810184019094528084529091830182828015610b1357602002820191906000526020600020905b815481526020019060010190808311610aff575b5050505050905092915050565b600081815260086020526040808220548151630a03d8e760e31b815291516060936001600160a01b0390921692839163501ec738916004808201928692909190829003018186803b158015610b7457600080fd5b505afa158015610b88573d6000803e3d6000fd5b505050506040513d6000823e601f3d908101601f19168201604052610bb091908101906125c9565b90506000610cb76008600087815260200190815260200160002060010154846001600160a01b03166318160ddd6040518163ffffffff1660e01b815260040160206040518083038186803b158015610c0757600080fd5b505afa158015610c1b573d6000803e3d6000fd5b505050506040513d601f19601f82011682018060405250810190610c3f9190612a06565b856001600160a01b03166301e1d1146040518163ffffffff1660e01b815260040160206040518083038186803b158015610c7857600080fd5b505afa158015610c8c573d6000803e3d6000fd5b505050506040513d601f19601f82011682018060405250810190610cb09190612a06565b9190611868565b9050610db481846001600160a01b031663313ce5676040518163ffffffff1660e01b815260040160206040518083038186803b158015610cf657600080fd5b505afa158015610d0a573d6000803e3d6000fd5b505050506040513d601f19601f82011682018060405250810190610d2e9190612a3b565b610d3990600a612b6a565b6000866001600160a01b031663eb91d37e6040518163ffffffff1660e01b815260040160206040518083038186803b158015610d7457600080fd5b505afa158015610d88573d6000803e3d6000fd5b505050506040513d601f19601f82011682018060405250810190610dac9190612a06565b92919061191e565b9050600073__$b4ae538d42a0e0bb8330684d08e51a40b4$__632a50f068836040518263ffffffff1660e01b8152600401610def9190611f18565b60006040518083038186803b158015610e0757600080fd5b505af4158015610e1b573d6000803e3d6000fd5b505050506040513d6000823e601f3d908101601f19168201604052610e439190810190612b7f565b90506000610e55836001600a8461191e565b9050600073__$b4ae538d42a0e0bb8330684d08e51a40b4$__632a50f068836040518263ffffffff1660e01b8152600401610e909190611f18565b60006040518083038186803b158015610ea857600080fd5b505af4158015610ebc573d6000803e3d6000fd5b505050506040513d6000823e601f3d908101601f19168201604052610ee49190810190612b7f565b600a546040805161012081018252885181526020808a0151908201526060808a0151828401526080808b01519183019190915260a0808b01519183019190915260c0808b01519183019190915260e0808b01519183019190915281018490526101008101879052905163cd24cc4f60e01b81529293506001600160a01b039091169163cd24cc4f91610f7891600401612ca4565b60006040518083038186803b158015610f9057600080fd5b505afa158015610fa4573d6000803e3d6000fd5b505050506040513d6000823e601f3d908101601f19168201604052610fcc9190810190612b7f565b98975050505050505050565b610fe2338461139a565b610ffe5760405162461bcd60e51b815260040161052890612d04565b6000838152600660205260409081902080546001600160a01b0385166001600160e01b03199091168117600160a01b6001600160401b038616021782559151909190859060008051602061312d8339815191529061105d908690612d23565b60405180910390a350505050565b6009546001600160a01b0316331461108257600080fd5b600081815260086020526040812060010180548492906110a390849061239f565b90915550505050565b6009546001600160a01b031633146110c357600080fd5b6040516370a0823160e01b815281906001600160a01b038416906370a08231906110f1903090600401611e08565b60206040518083038186803b15801561110957600080fd5b505afa15801561111d573d6000803e3d6000fd5b505050506040513d601f19601f820116820180604052508101906111419190612a06565b1161115e5760405162461bcd60e51b815260040161052890612d85565b6000838152600860205260409020600101548114156111d9576111808361197b565b60008381526008602052604090819020600201805460ff19166001179055517f73950a595b40d5b640ab1da1553bce5fa8c1836cadee039a2680059bddac6f21906111cc908590611f18565b60405180910390a1611200565b600083815260086020526040812060010180548392906111fa908490612d95565b90915550505b60095460405163a9059cbb60e01b81526001600160a01b038481169263a9059cbb9261123492909116908590600401612dac565b602060405180830381600087803b15801561124e57600080fd5b505af1158015611262573d6000803e3d6000fd5b505050506040513d601f19601f8201168201806040525081019061089b9190612dd2565b6001600160a01b03918216600090815260056020908152604080832093909416825291909152205460ff1690565b60006001600160e01b031982166380ac58cd60e01b14806112e557506001600160e01b03198216635b5e139f60e01b145b8061042a57506301ffc9a760e01b6001600160e01b031983161461042a565b61130d816119a9565b6113295760405162461bcd60e51b815260040161052890612404565b50565b600081815260046020526040902080546001600160a01b0319166001600160a01b03841690811790915581906113618261069e565b6001600160a01b03167f8c5be1e5ebec7d5bd14f71427d1e84f3dd0314c0f7b2291e5b200ac8c7c3b92560405160405180910390a45050565b6000806113a68361069e565b9050806001600160a01b0316846001600160a01b031614806113cd57506113cd8185611286565b806113f15750836001600160a01b03166113e6846104c2565b6001600160a01b0316145b949350505050565b826001600160a01b031661140c8261069e565b6001600160a01b0316146114325760405162461bcd60e51b815260040161052890612e35565b6001600160a01b0382166114585760405162461bcd60e51b815260040161052890612e86565b6114638383836119c6565b61146e60008261132c565b6001600160a01b0383166000908152600360205260408120805460019290611497908490612d95565b90915550506001600160a01b03821660009081526003602052604081208054600192906114c590849061239f565b909155505060008181526002602052604080822080546001600160a01b0319166001600160a01b03868116918217909255915184939187169160008051602061318d83398151915291a4505050565b606081516000141561153457505060408051602081019091526000815290565b600060405180606001604052806040815260200161314d6040913990506000600384516002611563919061239f565b61156d9190612eac565b611578906004612ec0565b9050600061158782602061239f565b6001600160401b0381111561159e5761159e611f8d565b6040519080825280601f01601f1916602001820160405280156115c8576020820181803683370190505b509050818152600183018586518101602084015b818310156116365760039283018051603f601282901c811687015160f890811b8552600c83901c8216880151811b6001860152600683901c8216880151811b60028601529116860151901b938201939093526004016115dc565b60038951066001811461165057600281146116615761166d565b613d3d60f01b60011983015261166d565b603d60f81b6000198301525b509398975050505050505050565b610865828260405180602001604052806000815250611a3e565b816001600160a01b0316836001600160a01b031614156116c75760405162461bcd60e51b815260040161052890612f0f565b6001600160a01b0383811660008181526005602090815260408083209487168084529490915290819020805460ff1916851515179055517f17307eab39ab6107e8899845ad3d59bd9653f200f220920489ca2b5937696c319061172b908590611d33565b60405180910390a3505050565b6117438484846113f9565b61174f84848484611a71565b61089b5760405162461bcd60e51b815260040161052890612f6e565b60608161178f5750506040805180820190915260018152600360fc1b602082015290565b8160005b81156117b957806117a3816123b7565b91506117b29050600a83612eac565b9150611793565b6000816001600160401b038111156117d3576117d3611f8d565b6040519080825280601f01601f1916602001820160405280156117fd576020820181803683370190505b5090505b84156113f157611812600183612d95565b915061181f600a86612f7e565b61182a90603061239f565b60f81b81838151811061183f5761183f612373565b60200101906001600160f81b031916908160001a905350611861600a86612eac565b9450611801565b6000808060001985870985870292508281108382030391505080600014156118a35783828161189957611899612e96565b0492505050611917565b8084116118af57600080fd5b600084868809851960019081018716968790049682860381900495909211909303600082900391909104909201919091029190911760038402600290811880860282030280860282030280860282030280860282030280860282030280860290910302029150505b9392505050565b60008061192c868686611868565b9050600183600281111561194257611942612f92565b14801561195f57506000848061195a5761195a612e96565b868809115b156119725761196f60018261239f565b90505b95945050505050565b6119843361057d565b6119a05760405162461bcd60e51b815260040161052890612fff565b61132981611b7b565b6000908152600260205260409020546001600160a01b0316151590565b816001600160a01b0316836001600160a01b0316141580156119fe57506000818152600660205260409020546001600160a01b031615155b156105735760008181526006602052604080822080546001600160e01b031916905551829060008051602061312d8339815191529061172b908490613029565b611a488383611b84565b611a556000848484611a71565b6105735760405162461bcd60e51b815260040161052890612f6e565b60006001600160a01b0384163b15611b7357604051630a85bd0160e11b81526001600160a01b0385169063150b7a0290611ab5903390899088908890600401613037565b602060405180830381600087803b158015611acf57600080fd5b505af1925050508015611aff575060408051601f3d908101601f19168201909252611afc91810190613086565b60015b611b59573d808015611b2d576040519150601f19603f3d011682016040523d82523d6000602084013e611b32565b606091505b508051611b515760405162461bcd60e51b815260040161052890612f6e565b805181602001fd5b6001600160e01b031916630a85bd0160e11b1490506113f1565b5060016113f1565b61132981611c51565b6001600160a01b038216611baa5760405162461bcd60e51b8152600401610528906130d9565b611bb3816119a9565b15611bd05760405162461bcd60e51b81526004016105289061311c565b611bdc600083836119c6565b6001600160a01b0382166000908152600360205260408120805460019290611c0590849061239f565b909155505060008181526002602052604080822080546001600160a01b0319166001600160a01b038616908117909155905183929060008051602061318d833981519152908290a45050565b6000611c5c8261069e565b9050611c6a816000846119c6565b611c7560008361132c565b6001600160a01b0381166000908152600360205260408120805460019290611c9e908490612d95565b909155505060008281526002602052604080822080546001600160a01b0319169055518391906001600160a01b0384169060008051602061318d833981519152908390a45050565b6001600160e01b031981165b811461132957600080fd5b803561042a81611ce6565b600060208284031215611d1d57611d1d600080fd5b60006113f18484611cfd565b8015155b82525050565b6020810161042a8284611d29565b60005b83811015611d5c578181015183820152602001611d44565b8381111561089b5750506000910152565b601f01601f191690565b6000611d81825190565b808452602084019350611d98818560208601611d41565b611da181611d6d565b9093019392505050565b602080825281016119178184611d77565b80611cf2565b803561042a81611dbc565b600060208284031215611de257611de2600080fd5b60006113f18484611dc2565b60006001600160a01b03821661042a565b611d2d81611dee565b6020810161042a8284611dff565b611cf281611dee565b803561042a81611e16565b60008060408385031215611e4057611e40600080fd5b6000611e4c8585611e1f565b9250506020611e5d85828601611dc2565b9150509250929050565b600080600060608486031215611e7f57611e7f600080fd5b6000611e8b8686611e1f565b9350506020611e9c86828701611e1f565b9250506040611ead86828701611dc2565b9150509250925092565b80611d2d565b60608101611ecb8286611dff565b611ed86020830185611eb7565b6113f16040830184611d29565b60008060408385031215611efb57611efb600080fd5b6000611f078585611e1f565b9250506020611e5d85828601611e1f565b6020810161042a8284611eb7565b600060208284031215611f3b57611f3b600080fd5b60006113f18484611e1f565b801515611cf2565b803561042a81611f47565b60008060408385031215611f7057611f70600080fd5b6000611f7c8585611e1f565b9250506020611e5d85828601611f4f565b634e487b7160e01b600052604160045260246000fd5b611fac82611d6d565b81018181106001600160401b0382111715611fc957611fc9611f8d565b6040525050565b6000611fdb60405190565b9050611fe78282611fa3565b919050565b60006001600160401b0382111561200557612005611f8d565b61200e82611d6d565b60200192915050565b82818337506000910152565b600061203661203184611fec565b611fd0565b90508281526020810184848401111561205157612051600080fd5b61205c848285612017565b509392505050565b600082601f83011261207857612078600080fd5b81356113f1848260208601612023565b600080600080608085870312156120a1576120a1600080fd5b60006120ad8787611e1f565b94505060206120be87828801611e1f565b93505060406120cf87828801611dc2565b92505060608501356001600160401b038111156120ee576120ee600080fd5b6120fa87828801612064565b91505092959194509250565b60006121128383611eb7565b505060200190565b6000612124825190565b80845260209384019383018060005b838110156121585781516121478882612106565b975060208301925050600101612133565b509495945050505050565b60208082528101611917818461211a565b6001600160401b038116611cf2565b803561042a81612174565b6000806000606084860312156121a6576121a6600080fd5b60006121b28686611dc2565b93505060206121c386828701611e1f565b9250506040611ead86828701612183565b600080604083850312156121ea576121ea600080fd5b6000611e4c8585611dc2565b60008060006060848603121561220e5761220e600080fd5b6000611e8b8686611dc2565b634e487b7160e01b600052602260045260246000fd5b60028104600182168061224457607f821691505b602082108114156122575761225761221a565b50919050565b602181526000602082017f4552433732313a20617070726f76616c20746f2063757272656e74206f776e658152603960f91b602082015291505b5060400190565b6020808252810161042a8161225d565b603e81526000602082017f4552433732313a20617070726f76652063616c6c6572206973206e6f7420746f81527f6b656e206f776e6572206e6f7220617070726f76656420666f7220616c6c000060208201529150612297565b6020808252810161042a816122ae565b602e81526000602082017f4552433732313a2063616c6c6572206973206e6f7420746f6b656e206f776e6581526d1c881b9bdc88185c1c1c9bdd995960921b60208201529150612297565b6020808252810161042a81612318565b634e487b7160e01b600052603260045260246000fd5b634e487b7160e01b600052601160045260246000fd5b600082198211156123b2576123b2612389565b500190565b60006000198214156123cb576123cb612389565b5060010190565b6018815260006020820177115490cdcc8c4e881a5b9d985b1a59081d1bdad95b88125160421b815291505b5060200190565b6020808252810161042a816123d2565b602981526000602082017f4552433732313a2061646472657373207a65726f206973206e6f7420612076618152683634b21037bbb732b960b91b60208201529150612297565b6020808252810161042a81612414565b6000612474825190565b612482818560208601611d41565b9290920192915050565b7919185d184e9a5b5859d94bdcdd99cade1b5b0ed8985cd94d8d0b60321b81526000601a82015b9150611917828461246a565b60006001600160401b038211156124d8576124d8611f8d565b5060200290565b60006124ed61203184611fec565b90508281526020810184848401111561250857612508600080fd5b61205c848285611d41565b600082601f83011261252757612527600080fd5b81516113f18482602086016124df565b6000612545612031846124bf565b9050806020840283018581111561255e5761255e600080fd5b835b8181101561259e5780516001600160401b0381111561258157612581600080fd5b80860161258e8982612513565b8552505060209283019201612560565b5050509392505050565b600082601f8301126125bc576125bc600080fd5b60086113f1848285612537565b6000602082840312156125de576125de600080fd5b81516001600160401b038111156125f7576125f7600080fd5b6113f1848285016125a8565b600061260f828561246a565b65204e4654202360d01b815260060191506113f1828461246a565b601760f91b815260006123cb565b632e372e3760e11b815260005b5060040190565b612e3760f11b815260005b5060020190565b7f5175696e6f6120496e766573746d656e7473204e4654202d206d616e61676564815263010313c960e51b6020820152602401600061269d828661246a565b91506126a88261262a565b91506126b382612638565b7402e37233ab73210283937b23ab1ba103730b6b29d1605d1b815260150191506126dd828561246a565b91506126e88261264c565b6b02e3729b4b731b29020ba1d160a51b8152600c019150612709828461246a565b91506119728261264c565b6201116160ed1b815260005b5060030190565b630113e96160e51b81526000612645565b62089f4b60ea1b81526000612720565b61227d60f01b81526000612657565b605d60f81b815260006123cb565b607d60f81b815260006123cb565b683d913730b6b2911d1160b91b81526009016000612791828c61246a565b71111610113232b9b1b934b83a34b7b7111d1160711b815260120191506127b8828b61246a565b6c1116101134b6b0b3b2911d101160991b8152600d0191506127da828a61246a565b721116101132bc3a32b93730b62fbab936111d1160691b81526013019150612802828961246a565b915061280d82612714565b6f01130ba3a3934b13aba32b9911d102d960851b81527f7b2274726169745f74797065223a20225661756c74222c20202276616c7565226010820152621d101160e91b60308201526033019150612864828861246a565b915061286f82612727565b7f7b2274726169745f74797065223a20225369676e61747572652d436f6c6f722281526c161010113b30b63ab2911d101160991b6020820152602d0191506128b7828761246a565b91506128c282612738565b7f7b2274726169745f74797065223a2022444143222c20202276616c7565223a208152601160f91b602082015260210191506128fe828661246a565b915061290982612727565b7f7b2274726169745f74797065223a20225661756c742d566f6c756d65222c2020815269113b30b63ab2911d101160b11b6020820152602a01915061294e828561246a565b915061295982612727565b7f7b2274726169745f74797065223a202243757272656e742d415059222c2020228152683b30b63ab2911d101160b91b6020820152602901915061299d828461246a565b91506129a882612748565b91506129b382612757565b91506129be82612765565b9b9a5050505050505050505050565b7f646174613a6170706c69636174696f6e2f6a736f6e3b6261736536342c00000081526000601d82016124b3565b805161042a81611dbc565b600060208284031215612a1b57612a1b600080fd5b60006113f184846129fb565b60ff8116611cf2565b805161042a81612a27565b600060208284031215612a5057612a50600080fd5b60006113f18484612a30565b80825b6001851115612a9b57808604811115612a7a57612a7a612389565b6001851615612a8857908102905b8002612a948560011c90565b9450612a5f565b94509492505050565b600082612ab357506001611917565b81612ac057506000611917565b8160018114612ad65760028114612ae057612b0d565b6001915050611917565b60ff841115612af157612af1612389565b8360020a915084821115612b0757612b07612389565b50611917565b5060208310610133831016604e8410600b8410161715612b40575081810a83811115612b3b57612b3b612389565b611917565b612b4d8484846001612a5c565b92509050818404811115612b6357612b63612389565b0292915050565b600060ff831692506119176000198484612aa4565b600060208284031215612b9457612b94600080fd5b81516001600160401b03811115612bad57612bad600080fd5b6113f184828501612513565b805161012080845260009190840190612bd28282611d77565b91505060208301518482036020860152612bec8282611d77565b91505060408301518482036040860152612c068282611d77565b91505060608301518482036060860152612c208282611d77565b91505060808301518482036080860152612c3a8282611d77565b91505060a083015184820360a0860152612c548282611d77565b91505060c083015184820360c0860152612c6e8282611d77565b91505060e083015184820360e0860152612c888282611d77565b9150506101008301518482036101008601526119728282611d77565b602080825281016119178184612bb9565b603281526000602082017f455243343930373a207472616e736665722063616c6c6572206973206e6f74208152711bdddb995c881b9bdc88185c1c1c9bdd995960721b60208201529150612297565b6020808252810161042a81612cb5565b6001600160401b038116611d2d565b6020810161042a8284612d14565b603781526000602082017f4e66745772617070696e674d616e616765723a20446f6e2774206861766520658152766e6f7567682071546f6b656e20746f2072656465656d2160481b60208201529150612297565b6020808252810161042a81612d31565b600082821015612da757612da7612389565b500390565b60408101612dba8285611dff565b6119176020830184611eb7565b805161042a81611f47565b600060208284031215612de757612de7600080fd5b60006113f18484612dc7565b602581526000602082017f4552433732313a207472616e736665722066726f6d20696e636f72726563742081526437bbb732b960d91b60208201529150612297565b6020808252810161042a81612df3565b602481526000602082017f4552433732313a207472616e7366657220746f20746865207a65726f206164648152637265737360e01b60208201529150612297565b6020808252810161042a81612e45565b634e487b7160e01b600052601260045260246000fd5b600082612ebb57612ebb612e96565b500490565b6000816000190483118215151615612eda57612eda612389565b500290565b601981526000602082017822a9219b99189d1030b8383937bb32903a379031b0b63632b960391b815291506123fd565b6020808252810161042a81612edf565b603281526000602082017f4552433732313a207472616e7366657220746f206e6f6e20455243373231526581527131b2b4bb32b91034b6b83632b6b2b73a32b960711b60208201529150612297565b6020808252810161042a81612f1f565b600082612f8d57612f8d612e96565b500690565b634e487b7160e01b600052602160045260246000fd5b603a81526000602082017f4e66745772617070696e674d616e616765723a2063616c6c6572206973206e6f8152791d081d1bdad95b881bdddb995c881b9bdc88185c1c1c9bdd995960321b60208201529150612297565b6020808252810161042a81612fa8565b60006001600160401b03821661042a565b611d2d8161300f565b6020810161042a8284613020565b608081016130458287611dff565b6130526020830186611dff565b61305f6040830185611eb7565b81810360608301526130718184611d77565b9695505050505050565b805161042a81611ce6565b60006020828403121561309b5761309b600080fd5b60006113f1848461307b565b60208082527f4552433732313a206d696e7420746f20746865207a65726f2061646472657373910190815260006123fd565b6020808252810161042a816130a7565b601c81526000602082017b115490cdcc8c4e881d1bdad95b88185b1c9958591e481b5a5b9d195960221b815291506123fd565b6020808252810161042a816130e956fe4e06b4e7000e659094299b3533b47b6aa8ad048e95e872d23d1f4ee55af89cfe4142434445464748494a4b4c4d4e4f505152535455565758595a6162636465666768696a6b6c6d6e6f707172737475767778797a303132333435363738392b2fddf252ad1be2c89b69c2b068fc378daa952ba7f163c4a11628f55a4df523b3efa264697066735822122030b20b676317044ee6a09f720c5c6ef1c0bae15ab688dc4ff9fde53d6f41b3d764736f6c63430008090033",
  "linkReferences": {
    "contracts/libraries/Utils.sol": {
      "Utils": [
        {
          "length": 20,
          "start": 4134
        },
        {
          "length": 20,
          "start": 4295
        }
      ]
    }
  },
  "deployedLinkReferences": {
    "contracts/libraries/Utils.sol": {
      "Utils": [
        {
          "length": 20,
          "start": 3514
        },
        {
          "length": 20,
          "start": 3675
        }
      ]
    }
  }
}