{
  "_format": "hh-sol-artifact-1",
  "contractName": "SvgManager",
  "sourceName": "contracts/svg/SvgManager.sol",
  "abi": [
    {
      "inputs": [
        {
          "components": [
            {
              "internalType": "address",
              "name": "svg1",
              "type": "address"
            },
            {
              "internalType": "address",
              "name": "svg2",
              "type": "address"
            },
            {
              "internalType": "address",
              "name": "svg3",
              "type": "address"
            },
            {
              "internalType": "address",
              "name": "svg4",
              "type": "address"
            },
            {
              "internalType": "address",
              "name": "svg5",
              "type": "address"
            },
            {
              "internalType": "address",
              "name": "svg6",
              "type": "address"
            },
            {
              "internalType": "address",
              "name": "svg7",
              "type": "address"
            },
            {
              "internalType": "address",
              "name": "svg8",
              "type": "address"
            },
            {
              "internalType": "address",
              "name": "svg9",
              "type": "address"
            },
            {
              "internalType": "address",
              "name": "svg10",
              "type": "address"
            }
          ],
          "internalType": "struct ISvgManager.SvgAddrs",
          "name": "addrs",
          "type": "tuple"
        }
      ],
      "stateMutability": "nonpayable",
      "type": "constructor"
    },
    {
      "inputs": [
        {
          "components": [
            {
              "internalType": "string",
              "name": "color",
              "type": "string"
            },
            {
              "internalType": "string",
              "name": "vaultName",
              "type": "string"
            },
            {
              "internalType": "string",
              "name": "vaultAddr",
              "type": "string"
            },
            {
              "internalType": "string",
              "name": "vaultDate",
              "type": "string"
            },
            {
              "internalType": "string",
              "name": "vaultApy",
              "type": "string"
            },
            {
              "internalType": "string",
              "name": "vaultVolume",
              "type": "string"
            },
            {
              "internalType": "string",
              "name": "vaultDacName",
              "type": "string"
            },
            {
              "internalType": "string",
              "name": "nftEarnings",
              "type": "string"
            },
            {
              "internalType": "string",
              "name": "nftHoldings",
              "type": "string"
            }
          ],
          "internalType": "struct ISvgManager.SvgParams",
          "name": "params",
          "type": "tuple"
        }
      ],
      "name": "generateNftSvg",
      "outputs": [
        {
          "internalType": "string",
          "name": "",
          "type": "string"
        }
      ],
      "stateMutability": "view",
      "type": "function"
    }
  ],
  "bytecode": "0x60806040523480156200001157600080fd5b5060405162000f4c38038062000f4c8339810160408190526200003491620002b5565b8051600080546001600160a01b03199081166001600160a01b0393841617909155602083015160018054831691841691909117905560408301516002805483169184169190911790556060830151600380548316918416919091179055608083015160048054831691841691909117905560a083015160058054831691841691909117905560c083015160068054831691841691909117905560e083015160078054831691841691909117905561010083015160088054831691841691909117905561012090920151600980549093169116179055620002e3565b634e487b7160e01b600052604160045260246000fd5b601f19601f83011681018181106001600160401b03821117156200014d576200014d6200010f565b6040525050565b60006200016060405190565b90506200016e828262000125565b919050565b60006001600160a01b0382165b92915050565b620001918162000173565b81146200019d57600080fd5b50565b8051620001808162000186565b60006101408284031215620001c557620001c5600080fd5b620001d261014062000154565b90506000620001e28484620001a0565b8252506020620001f584848301620001a0565b60208301525060406200020b84828501620001a0565b60408301525060606200022184828501620001a0565b60608301525060806200023784828501620001a0565b60808301525060a06200024d84828501620001a0565b60a08301525060c06200026384828501620001a0565b60c08301525060e06200027984828501620001a0565b60e0830152506101006200029084828501620001a0565b61010083015250610120620002a884828501620001a0565b6101208301525092915050565b60006101408284031215620002cd57620002cd600080fd5b6000620002db8484620001ad565b949350505050565b610c5980620002f36000396000f3fe608060405234801561001057600080fd5b506004361061002b5760003560e01c8063cd24cc4f14610030575b600080fd5b61004361003e36600461086a565b610059565b6040516100509190610908565b60405180910390f35b6000805482516040516325ce3ba960e01b8152606093926001600160a01b0316916325ce3ba99161008d9190600401610908565b60006040518083038186803b1580156100a557600080fd5b505afa1580156100b9573d6000803e3d6000fd5b505050506040513d6000823e601f3d908101601f191682016040526100e19190810190610978565b60015460408051632351f38b60e01b815290516001600160a01b0390921691632351f38b91600480820192600092909190829003018186803b15801561012657600080fd5b505afa15801561013a573d6000803e3d6000fd5b505050506040513d6000823e601f3d908101601f191682016040526101629190810190610978565b60025460408051633ec205a360e01b815290516001600160a01b0390921691633ec205a391600480820192600092909190829003018186803b1580156101a757600080fd5b505afa1580156101bb573d6000803e3d6000fd5b505050506040513d6000823e601f3d908101601f191682016040526101e39190810190610978565b6003546040805163d02c065560e01b815290516001600160a01b039092169163d02c065591600480820192600092909190829003018186803b15801561022857600080fd5b505afa15801561023c573d6000803e3d6000fd5b505050506040513d6000823e601f3d908101601f191682016040526102649190810190610978565b600480546040805163165b60c160e21b815290516001600160a01b039092169263596d8304928282019260009290829003018186803b1580156102a657600080fd5b505afa1580156102ba573d6000803e3d6000fd5b505050506040513d6000823e601f3d908101601f191682016040526102e29190810190610978565b6005546040805163349b070560e21b815290516001600160a01b039092169163d26c1c1491600480820192600092909190829003018186803b15801561032757600080fd5b505afa15801561033b573d6000803e3d6000fd5b505050506040513d6000823e601f3d908101601f191682016040526103639190810190610978565b600654604080516389a75abb60e01b815290516001600160a01b03909216916389a75abb91600480820192600092909190829003018186803b1580156103a857600080fd5b505afa1580156103bc573d6000803e3d6000fd5b505050506040513d6000823e601f3d908101601f191682016040526103e49190810190610978565b6007546040805163096b03c960e01b815290516001600160a01b039092169163096b03c991600480820192600092909190829003018186803b15801561042957600080fd5b505afa15801561043d573d6000803e3d6000fd5b505050506040513d6000823e601f3d908101601f191682016040526104659190810190610978565b600854604080516318678ded60e31b815290516001600160a01b039092169163c33c6f6891600480820192600092909190829003018186803b1580156104aa57600080fd5b505afa1580156104be573d6000803e3d6000fd5b505050506040513d6000823e601f3d908101601f191682016040526104e69190810190610978565b6009546040516358fbc04960e01b81526001600160a01b03909116906358fbc04990610516908f90600401610aa6565b60006040518083038186803b15801561052e57600080fd5b505afa158015610542573d6000803e3d6000fd5b505050506040513d6000823e601f3d908101601f1916820160405261056a9190810190610978565b6040516020016105839a99989796959493929190610ad9565b60408051601f198184030181529190529392505050565b601f01601f191690565b634e487b7160e01b600052604160045260246000fd5b6105c38261059a565b81018181106001600160401b03821117156105e0576105e06105a4565b6040525050565b60006105f260405190565b90506105fe82826105ba565b919050565b60006001600160401b0382111561061c5761061c6105a4565b6106258261059a565b60200192915050565b82818337506000910152565b600061064d61064884610603565b6105e7565b90508281526020810184848401111561066857610668600080fd5b61067384828561062e565b509392505050565b600082601f83011261068f5761068f600080fd5b813561069f84826020860161063a565b949350505050565b600061012082840312156106bd576106bd600080fd5b6106c86101206105e7565b905081356001600160401b038111156106e3576106e3600080fd5b6106ef8482850161067b565b82525060208201356001600160401b0381111561070e5761070e600080fd5b61071a8482850161067b565b60208301525060408201356001600160401b0381111561073c5761073c600080fd5b6107488482850161067b565b60408301525060608201356001600160401b0381111561076a5761076a600080fd5b6107768482850161067b565b60608301525060808201356001600160401b0381111561079857610798600080fd5b6107a48482850161067b565b60808301525060a08201356001600160401b038111156107c6576107c6600080fd5b6107d28482850161067b565b60a08301525060c08201356001600160401b038111156107f4576107f4600080fd5b6108008482850161067b565b60c08301525060e08201356001600160401b0381111561082257610822600080fd5b61082e8482850161067b565b60e0830152506101008201356001600160401b0381111561085157610851600080fd5b61085d8482850161067b565b6101008301525092915050565b60006020828403121561087f5761087f600080fd5b81356001600160401b0381111561089857610898600080fd5b61069f848285016106a7565b60005b838110156108bf5781810151838201526020016108a7565b838111156108ce576000848401525b50505050565b60006108de825190565b8084526020840193506108f58185602086016108a4565b6108fe8161059a565b9093019392505050565b6020808252810161091981846108d4565b9392505050565b600061092e61064884610603565b90508281526020810184848401111561094957610949600080fd5b6106738482856108a4565b600082601f83011261096857610968600080fd5b815161069f848260208601610920565b60006020828403121561098d5761098d600080fd5b81516001600160401b038111156109a6576109a6600080fd5b61069f84828501610954565b8051610120808452600091908401906109cb82826108d4565b915050602083015184820360208601526109e582826108d4565b915050604083015184820360408601526109ff82826108d4565b91505060608301518482036060860152610a1982826108d4565b91505060808301518482036080860152610a3382826108d4565b91505060a083015184820360a0860152610a4d82826108d4565b91505060c083015184820360c0860152610a6782826108d4565b91505060e083015184820360e0860152610a8182826108d4565b915050610100830151848203610100860152610a9d82826108d4565b95945050505050565b6020808252810161091981846109b2565b6000610ac1825190565b610acf8185602086016108a4565b9290920192915050565b7f3c7376672069643d224c617965725f312220646174612d6e616d653d224c617981527f657220312220786d6c6e733d22687474703a2f2f7777772e77332e6f72672f3260208201527f3030302f7376672220786d6c6e733a786c696e6b3d22687474703a2f2f77777760408201527f2e77332e6f72672f313939392f786c696e6b222076696577426f783d2230203060608201527110189a199b97189b90189a999b17199c111f60711b60808201526092016000610b98828d610ab7565b9150610ba4828c610ab7565b9150610bb0828b610ab7565b9150610bbc828a610ab7565b9150610bc88289610ab7565b9150610bd48288610ab7565b9150610be08287610ab7565b9150610bec8286610ab7565b9150610bf88285610ab7565b9150610c048284610ab7565b651e17b9bb339f60d11b81526006019c9b50505050505050505050505056fea2646970667358221220f5599505c0e80892dc8391f09c0bfa4620bd5135e092dbe63507316a30224c8264736f6c63430008090033",
  "linkReferences": {},
  "deployedLinkReferences": {}
}