{
  "_format": "hh-sol-artifact-1",
  "contractName": "BeefyZapUniswapV2",
  "sourceName": "contracts/core/BeefyZapUniswapV2.sol",
  "abi": [
    {
      "inputs": [
        {
          "internalType": "address",
          "name": "_router",
          "type": "address"
        },
        {
          "internalType": "address",
          "name": "_WETH",
          "type": "address"
        }
      ],
      "stateMutability": "nonpayable",
      "type": "constructor"
    },
    {
      "inputs": [],
      "name": "WETH",
      "outputs": [
        {
          "internalType": "address",
          "name": "",
          "type": "address"
        }
      ],
      "stateMutability": "view",
      "type": "function"
    },
    {
      "inputs": [
        {
          "internalType": "address",
          "name": "beefyVault",
          "type": "address"
        },
        {
          "internalType": "uint256",
          "name": "tokenAmountOutMin",
          "type": "uint256"
        },
        {
          "internalType": "address",
          "name": "tokenIn",
          "type": "address"
        },
        {
          "internalType": "uint256",
          "name": "tokenInAmount",
          "type": "uint256"
        }
      ],
      "name": "beefIn",
      "outputs": [],
      "stateMutability": "nonpayable",
      "type": "function"
    },
    {
      "inputs": [
        {
          "internalType": "address",
          "name": "beefyVault",
          "type": "address"
        },
        {
          "internalType": "uint256",
          "name": "tokenAmountOutMin",
          "type": "uint256"
        }
      ],
      "name": "beefInETH",
      "outputs": [],
      "stateMutability": "payable",
      "type": "function"
    },
    {
      "inputs": [
        {
          "internalType": "address",
          "name": "beefyVault",
          "type": "address"
        },
        {
          "internalType": "uint256",
          "name": "withdrawAmount",
          "type": "uint256"
        }
      ],
      "name": "beefOut",
      "outputs": [],
      "stateMutability": "nonpayable",
      "type": "function"
    },
    {
      "inputs": [
        {
          "internalType": "address",
          "name": "beefyVault",
          "type": "address"
        },
        {
          "internalType": "uint256",
          "name": "withdrawAmount",
          "type": "uint256"
        },
        {
          "internalType": "address",
          "name": "desiredToken",
          "type": "address"
        },
        {
          "internalType": "uint256",
          "name": "desiredTokenOutMin",
          "type": "uint256"
        }
      ],
      "name": "beefOutAndSwap",
      "outputs": [],
      "stateMutability": "nonpayable",
      "type": "function"
    },
    {
      "inputs": [
        {
          "internalType": "address",
          "name": "beefyVault",
          "type": "address"
        },
        {
          "internalType": "address",
          "name": "tokenIn",
          "type": "address"
        },
        {
          "internalType": "uint256",
          "name": "fullInvestmentIn",
          "type": "uint256"
        }
      ],
      "name": "estimateSwap",
      "outputs": [
        {
          "internalType": "uint256",
          "name": "swapAmountIn",
          "type": "uint256"
        },
        {
          "internalType": "uint256",
          "name": "swapAmountOut",
          "type": "uint256"
        },
        {
          "internalType": "address",
          "name": "swapTokenOut",
          "type": "address"
        }
      ],
      "stateMutability": "view",
      "type": "function"
    },
    {
      "inputs": [],
      "name": "minimumAmount",
      "outputs": [
        {
          "internalType": "uint256",
          "name": "",
          "type": "uint256"
        }
      ],
      "stateMutability": "view",
      "type": "function"
    },
    {
      "inputs": [],
      "name": "router",
      "outputs": [
        {
          "internalType": "contract IUniswapV2Router02",
          "name": "",
          "type": "address"
        }
      ],
      "stateMutability": "view",
      "type": "function"
    },
    {
      "stateMutability": "payable",
      "type": "receive"
    }
  ],
  "bytecode": "0x60c06040523480156200001157600080fd5b5060405162002fd538038062002fd5833981016040819052620000349162000140565b806001600160a01b031663d0e30db060006040518263ffffffff1660e01b81526004016000604051808303818588803b1580156200007157600080fd5b505af115801562000086573d6000803e3d6000fd5b5050604051632e1a7d4d60e01b81526001600160a01b0385169350632e1a7d4d9250620000ba9150600090600401620001a5565b600060405180830381600087803b158015620000d557600080fd5b505af1158015620000ea573d6000803e3d6000fd5b5050506001600160a01b03928316608052501660a052620001b5565b60006001600160a01b0382165b92915050565b620001248162000106565b81146200013057600080fd5b50565b8051620001138162000119565b60008060408385031215620001585762000158600080fd5b600062000166858562000133565b9250506020620001798582860162000133565b9150509250929050565b600062000113620001918381565b90565b6200019f8162000183565b82525050565b6020810162000113828462000194565b60805160a051612d926200024360003960008181607f01528181610150015281816109b201528181610a2b01528181610ad901528181610b860152818161156301526115cb0152600081816101d4015281816104140152818161082f0152818161085501528181610f93015281816110db0152818161118701528181611b3f0152611bee0152612d926000f3fe60806040526004361061006f5760003560e01c80633f2f869a146100b357806351c9cf91146100eb57806370fae20d1461010b578063a28c361b1461011e578063ad5c46481461013e578063bb0c82981461017f578063f5d07b60146101a2578063f887ea40146101c257600080fd5b366100ae57336001600160a01b037f000000000000000000000000000000000000000000000000000000000000000016146100ac576100ac61215b565b005b600080fd5b3480156100bf57600080fd5b506100d36100ce3660046121bb565b610203565b6040516100e29392919061221c565b60405180910390f35b3480156100f757600080fd5b506100ac610106366004612244565b61059a565b6100ac6101193660046122a8565b61098e565b34801561012a57600080fd5b506100ac6101393660046122a8565b610a53565b34801561014a57600080fd5b506101727f000000000000000000000000000000000000000000000000000000000000000081565b6040516100e291906122e5565b34801561018b57600080fd5b506101956103e881565b6040516100e291906122f3565b3480156101ae57600080fd5b506100ac6101bd366004612244565b610dc3565b3480156101ce57600080fd5b506101f67f000000000000000000000000000000000000000000000000000000000000000081565b6040516100e29190612339565b60008060008061021287610ea3565b9150506000866001600160a01b0316826001600160a01b0316630dfe16816040518163ffffffff1660e01b815260040160206040518083038186803b15801561025a57600080fd5b505afa15801561026e573d6000803e3d6000fd5b505050506040513d601f19601f820116820180604052508101906102929190612352565b6001600160a01b0316149050808061032b5750866001600160a01b0316826001600160a01b031663d21220a76040518163ffffffff1660e01b815260040160206040518083038186803b1580156102e857600080fd5b505afa1580156102fc573d6000803e3d6000fd5b505050506040513d601f19601f820116820180604052508101906103209190612352565b6001600160a01b0316145b6103505760405162461bcd60e51b8152600401610347906123c3565b60405180910390fd5b600080836001600160a01b0316630902f1ac6040518163ffffffff1660e01b815260040160606040518083038186803b15801561038c57600080fd5b505afa1580156103a0573d6000803e3d6000fd5b505050506040513d601f19601f820116820180604052508101906103c49190612404565b506001600160701b031691506001600160701b03169150826103e75780826103ea565b81815b90925090506103fa8883836110c7565b604051630153543560e21b81529097506001600160a01b037f0000000000000000000000000000000000000000000000000000000000000000169063054d50d49061044d908a908690869060040161244a565b60206040518083038186803b15801561046557600080fd5b505afa158015610479573d6000803e3d6000fd5b505050506040513d601f19601f8201168201806040525081019061049d919061247d565b95508261051a57836001600160a01b0316630dfe16816040518163ffffffff1660e01b815260040160206040518083038186803b1580156104dd57600080fd5b505afa1580156104f1573d6000803e3d6000fd5b505050506040513d601f19601f820116820180604052508101906105159190612352565b61058b565b836001600160a01b031663d21220a76040518163ffffffff1660e01b815260040160206040518083038186803b15801561055357600080fd5b505afa158015610567573d6000803e3d6000fd5b505050506040513d601f19601f8201168201806040525081019061058b9190612352565b94505050505093509350939050565b6000806105a686610ea3565b915091506000816001600160a01b0316630dfe16816040518163ffffffff1660e01b815260040160206040518083038186803b1580156105e557600080fd5b505afa1580156105f9573d6000803e3d6000fd5b505050506040513d601f19601f8201168201806040525081019061061d9190612352565b90506000826001600160a01b031663d21220a76040518163ffffffff1660e01b815260040160206040518083038186803b15801561065a57600080fd5b505afa15801561066e573d6000803e3d6000fd5b505050506040513d601f19601f820116820180604052508101906106929190612352565b9050856001600160a01b0316826001600160a01b031614806106c55750856001600160a01b0316816001600160a01b0316145b6106e15760405162461bcd60e51b8152600401610347906124ed565b6106f66001600160a01b03851633308a61126e565b604051632e1a7d4d60e01b81526001600160a01b03851690632e1a7d4d90610722908a906004016122f3565b600060405180830381600087803b15801561073c57600080fd5b505af1158015610750573d6000803e3d6000fd5b5050505061075e83306112c6565b6000866001600160a01b0316826001600160a01b03161461077f5781610781565b825b604080516002808252606082018352929350600092909160208301908036833701905050905081816000815181106107bb576107bb612513565b60200260200101906001600160a01b031690816001600160a01b03168152505087816001815181106107ef576107ef612513565b60200260200101906001600160a01b031690816001600160a01b0316815250506108538160008151811061082557610825612513565b60200260200101517f000000000000000000000000000000000000000000000000000000000000000061141f565b7f00000000000000000000000000000000000000000000000000000000000000006001600160a01b03166338ed1739836001600160a01b03166370a08231306040518263ffffffff1660e01b81526004016108ae91906122e5565b60206040518083038186803b1580156108c657600080fd5b505afa1580156108da573d6000803e3d6000fd5b505050506040513d601f19601f820116820180604052508101906108fe919061247d565b898430426040518663ffffffff1660e01b8152600401610922959493929190612586565b600060405180830381600087803b15801561093c57600080fd5b505af1158015610950573d6000803e3d6000fd5b505050506040513d6000823e601f3d908101601f1916820160405261097891908101906126ce565b50610982816114b7565b50505050505050505050565b6103e83410156109b05760405162461bcd60e51b815260040161034790612746565b7f00000000000000000000000000000000000000000000000000000000000000006001600160a01b031663d0e30db0346040518263ffffffff1660e01b81526004016000604051808303818588803b158015610a0b57600080fd5b505af1158015610a1f573d6000803e3d6000fd5b5050505050610a4f82827f0000000000000000000000000000000000000000000000000000000000000000611709565b5050565b600080610a5f84610ea3565b9092509050610a796001600160a01b03851633308661126e565b604051632e1a7d4d60e01b81526001600160a01b03831690632e1a7d4d90610aa59086906004016122f3565b600060405180830381600087803b158015610abf57600080fd5b505af1158015610ad3573d6000803e3d6000fd5b505050507f00000000000000000000000000000000000000000000000000000000000000006001600160a01b0316816001600160a01b0316630dfe16816040518163ffffffff1660e01b815260040160206040518083038186803b158015610b3a57600080fd5b505afa158015610b4e573d6000803e3d6000fd5b505050506040513d601f19601f82011682018060405250810190610b729190612352565b6001600160a01b031614158015610c2b57507f00000000000000000000000000000000000000000000000000000000000000006001600160a01b0316816001600160a01b031663d21220a76040518163ffffffff1660e01b815260040160206040518083038186803b158015610be757600080fd5b505afa158015610bfb573d6000803e3d6000fd5b505050506040513d601f19601f82011682018060405250810190610c1f9190612352565b6001600160a01b031614155b15610c4057610c3a81336112c6565b50505050565b610c4a81306112c6565b604080516002808252606082018352600092602083019080368337019050509050816001600160a01b0316630dfe16816040518163ffffffff1660e01b815260040160206040518083038186803b158015610ca457600080fd5b505afa158015610cb8573d6000803e3d6000fd5b505050506040513d601f19601f82011682018060405250810190610cdc9190612352565b81600081518110610cef57610cef612513565b60200260200101906001600160a01b031690816001600160a01b031681525050816001600160a01b031663d21220a76040518163ffffffff1660e01b815260040160206040518083038186803b158015610d4857600080fd5b505afa158015610d5c573d6000803e3d6000fd5b505050506040513d601f19601f82011682018060405250810190610d809190612352565b81600181518110610d9357610d93612513565b60200260200101906001600160a01b031690816001600160a01b031681525050610dbc816114b7565b5050505050565b6103e8811015610de55760405162461bcd60e51b815260040161034790612746565b604051636eb1769f60e11b815281906001600160a01b0384169063dd62ed3e90610e159033903090600401612756565b60206040518083038186803b158015610e2d57600080fd5b505afa158015610e41573d6000803e3d6000fd5b505050506040513d601f19601f82011682018060405250810190610e65919061247d565b1015610e835760405162461bcd60e51b8152600401610347906127b0565b610e986001600160a01b03831633308461126e565b610c3a848484611709565b600080829150816001600160a01b0316631f1fcd516040518163ffffffff1660e01b815260040160206040518083038186803b158015610ee257600080fd5b505afa925050508015610f12575060408051601f3d908101601f19168201909252610f0f91810190612352565b60015b610f8e57816001600160a01b031663fc0c546a6040518163ffffffff1660e01b815260040160206040518083038186803b158015610f4f57600080fd5b505afa158015610f63573d6000803e3d6000fd5b505050506040513d601f19601f82011682018060405250810190610f879190612352565b9050610f91565b90505b7f00000000000000000000000000000000000000000000000000000000000000006001600160a01b031663c45a01556040518163ffffffff1660e01b815260040160206040518083038186803b158015610fea57600080fd5b505afa158015610ffe573d6000803e3d6000fd5b505050506040513d601f19601f820116820180604052508101906110229190612352565b6001600160a01b0316816001600160a01b031663c45a01556040518163ffffffff1660e01b815260040160206040518083038186803b15801561106457600080fd5b505afa158015611078573d6000803e3d6000fd5b505050506040513d601f19601f8201168201806040525081019061109c9190612352565b6001600160a01b0316146110c25760405162461bcd60e51b815260040161034790612807565b915091565b6000806110d5600286612843565b905060007f00000000000000000000000000000000000000000000000000000000000000006001600160a01b031663054d50d48387876040518463ffffffff1660e01b81526004016111299392919061244a565b60206040518083038186803b15801561114157600080fd5b505afa158015611155573d6000803e3d6000fd5b505050506040513d601f19601f82011682018060405250810190611179919061247d565b905060006001600160a01b037f00000000000000000000000000000000000000000000000000000000000000001663ad615dec846111b78982611e28565b6111c18987611e49565b6040518463ffffffff1660e01b81526004016111df9392919061244a565b60206040518083038186803b1580156111f757600080fd5b505afa15801561120b573d6000803e3d6000fd5b505050506040513d601f19601f8201168201806040525081019061122f919061247d565b905061126361125c82846112438780612857565b61124d9190612857565b6112579190612843565b611e64565b8890611e49565b979650505050505050565b610c3a846323b872dd60e01b85858560405160240161128f93929190612876565b60408051601f198184030181529190526020810180516001600160e01b03166001600160e01b031990931692909217909152611ed4565b61135782836001600160a01b03166370a08231306040518263ffffffff1660e01b81526004016112f691906122e5565b60206040518083038186803b15801561130e57600080fd5b505afa158015611322573d6000803e3d6000fd5b505050506040513d601f19601f82011682018060405250810190611346919061247d565b6001600160a01b0385169190611f63565b600080836001600160a01b03166389afcb44846040518263ffffffff1660e01b815260040161138691906122e5565b6040805180830381600087803b15801561139f57600080fd5b505af11580156113b3573d6000803e3d6000fd5b505050506040513d601f19601f820116820180604052508101906113d79190612891565b915091506103e88210156113fd5760405162461bcd60e51b815260040161034790612907565b6103e8811015610c3a5760405162461bcd60e51b81526004016103479061295a565b604051636eb1769f60e11b81526001600160a01b0383169063dd62ed3e9061144d9030908590600401612756565b60206040518083038186803b15801561146557600080fd5b505afa158015611479573d6000803e3d6000fd5b505050506040513d601f19601f8201168201806040525081019061149d919061247d565b610a4f57610a4f6001600160a01b03831682600019611f82565b6000805b8251811015611704578281815181106114d6576114d6612513565b60200260200101516001600160a01b03166370a08231306040518263ffffffff1660e01b815260040161150991906122e5565b60206040518083038186803b15801561152157600080fd5b505afa158015611535573d6000803e3d6000fd5b505050506040513d601f19601f82011682018060405250810190611559919061247d565b915081156116f2577f00000000000000000000000000000000000000000000000000000000000000006001600160a01b031683828151811061159d5761159d612513565b60200260200101516001600160a01b031614156116bb57604051632e1a7d4d60e01b81526001600160a01b037f00000000000000000000000000000000000000000000000000000000000000001690632e1a7d4d906116009085906004016122f3565b600060405180830381600087803b15801561161a57600080fd5b505af115801561162e573d6000803e3d6000fd5b505060408051600080825260208201928390529350339250859161165291906129b8565b60006040518083038185875af1925050503d806000811461168f576040519150601f19603f3d011682016040523d82523d6000602084013e611694565b606091505b50509050806116b55760405162461bcd60e51b8152600401610347906129f8565b506116f2565b6116f233838584815181106116d2576116d2612513565b60200260200101516001600160a01b0316611f639092919063ffffffff16565b806116fc81612a08565b9150506114bb565b505050565b60008061171585610ea3565b91509150600080826001600160a01b0316630902f1ac6040518163ffffffff1660e01b815260040160606040518083038186803b15801561175557600080fd5b505afa158015611769573d6000803e3d6000fd5b505050506040513d601f19601f8201168201806040525081019061178d9190612404565b506001600160701b031691506001600160701b031691506103e8821180156117b657506103e881115b6117d25760405162461bcd60e51b815260040161034790612a66565b6000856001600160a01b0316846001600160a01b0316630dfe16816040518163ffffffff1660e01b815260040160206040518083038186803b15801561181757600080fd5b505afa15801561182b573d6000803e3d6000fd5b505050506040513d601f19601f8201168201806040525081019061184f9190612352565b6001600160a01b031614905080806118e85750856001600160a01b0316846001600160a01b031663d21220a76040518163ffffffff1660e01b815260040160206040518083038186803b1580156118a557600080fd5b505afa1580156118b9573d6000803e3d6000fd5b505050506040513d601f19601f820116820180604052508101906118dd9190612352565b6001600160a01b0316145b6119045760405162461bcd60e51b8152600401610347906123c3565b604080516002808252606082018352600092602083019080368337019050509050868160008151811061193957611939612513565b60200260200101906001600160a01b031690816001600160a01b031681525050816119d457846001600160a01b0316630dfe16816040518163ffffffff1660e01b815260040160206040518083038186803b15801561199757600080fd5b505afa1580156119ab573d6000803e3d6000fd5b505050506040513d601f19601f820116820180604052508101906119cf9190612352565b611a45565b846001600160a01b031663d21220a76040518163ffffffff1660e01b815260040160206040518083038186803b158015611a0d57600080fd5b505afa158015611a21573d6000803e3d6000fd5b505050506040513d601f19601f82011682018060405250810190611a459190612352565b81600181518110611a5857611a58612513565b6001600160a01b0392831660209182029290920101526040516370a0823160e01b81526000918916906370a0823190611a959030906004016122e5565b60206040518083038186803b158015611aad57600080fd5b505afa158015611ac1573d6000803e3d6000fd5b505050506040513d601f19601f82011682018060405250810190611ae5919061247d565b905060008315611b0157611afa8287876110c7565b9050611b0f565b611b0c8286886110c7565b90505b611b258360008151811061082557610825612513565b6040516338ed173960e01b81526000906001600160a01b037f000000000000000000000000000000000000000000000000000000000000000016906338ed173990611b7c9085908f90899030904290600401612586565b600060405180830381600087803b158015611b9657600080fd5b505af1158015611baa573d6000803e3d6000fd5b505050506040513d6000823e601f3d908101601f19168201604052611bd291908101906126ce565b9050611bea8460018151811061082557610825612513565b60007f00000000000000000000000000000000000000000000000000000000000000006001600160a01b031663e8e3370086600081518110611c2e57611c2e612513565b602002602001015187600181518110611c4957611c49612513565b6020026020010151611c7e86600081518110611c6757611c67612513565b602002602001015189611e4990919063ffffffff16565b86600181518110611c9157611c91612513565b602002602001015160018030426040518963ffffffff1660e01b8152600401611cc1989796959493929190612a8b565b606060405180830381600087803b158015611cdb57600080fd5b505af1158015611cef573d6000803e3d6000fd5b505050506040513d601f19601f82011682018060405250810190611d139190612b02565b92505050611d21898b61141f565b60405163b6b55f2560e01b81526001600160a01b038b169063b6b55f2590611d4d9084906004016122f3565b600060405180830381600087803b158015611d6757600080fd5b505af1158015611d7b573d6000803e3d6000fd5b50505050611e10338b6001600160a01b03166370a08231306040518263ffffffff1660e01b8152600401611daf91906122e5565b60206040518083038186803b158015611dc757600080fd5b505afa158015611ddb573d6000803e3d6000fd5b505050506040513d601f19601f82011682018060405250810190611dff919061247d565b6001600160a01b038d169190611f63565b611e19856114b7565b50505050505050505050505050565b600082611e358382612b48565b9150811015611e4357600080fd5b92915050565b600082611e568382612b60565b9150811115611e4357600080fd5b60006003821115611ec55750806000611e7e600283612843565b611e89906001612b48565b90505b81811015611ebf57905080600281611ea48186612843565b611eae9190612b48565b611eb89190612843565b9050611e8c565b50919050565b8115611ecf575060015b919050565b6000611f29826040518060400160405280602081526020017f5361666545524332303a206c6f772d6c6576656c2063616c6c206661696c6564815250856001600160a01b03166120459092919063ffffffff16565b8051909150156117045780806020019051810190611f479190612b8a565b6117045760405162461bcd60e51b815260040161034790612bf2565b6117048363a9059cbb60e01b848460405160240161128f929190612c02565b80158061200a5750604051636eb1769f60e11b81526001600160a01b0384169063dd62ed3e90611fb89030908690600401612756565b60206040518083038186803b158015611fd057600080fd5b505afa158015611fe4573d6000803e3d6000fd5b505050506040513d601f19601f82011682018060405250810190612008919061247d565b155b6120265760405162461bcd60e51b815260040161034790612c70565b6117048363095ea7b360e01b848460405160240161128f929190612c02565b6060612054848460008561205e565b90505b9392505050565b6060824710156120805760405162461bcd60e51b815260040161034790612cc3565b6001600160a01b0385163b6120a75760405162461bcd60e51b815260040161034790612d07565b600080866001600160a01b031685876040516120c391906129b8565b60006040518083038185875af1925050503d8060008114612100576040519150601f19603f3d011682016040523d82523d6000602084013e612105565b606091505b5091509150612115828286612122565b925050505b949350505050565b60608315612131575081612057565b8251156121415782518084602001fd5b8160405162461bcd60e51b81526004016103479190612d4b565b634e487b7160e01b600052600160045260246000fd5b6001600160a01b031690565b6000611e4382612171565b6121918161217d565b811461219c57600080fd5b50565b8035611e4381612188565b80612191565b8035611e43816121aa565b6000806000606084860312156121d3576121d3600080fd5b60006121df868661219f565b93505060206121f08682870161219f565b9250506040612201868287016121b0565b9150509250925092565b805b82525050565b61220d8161217d565b6060810161222a828661220b565b612237602083018561220b565b61211a6040830184612213565b6000806000806080858703121561225d5761225d600080fd5b6000612269878761219f565b945050602061227a878288016121b0565b935050604061228b8782880161219f565b925050606061229c878288016121b0565b91505092959194509250565b600080604083850312156122be576122be600080fd5b60006122ca858561219f565b92505060206122db858286016121b0565b9150509250929050565b60208101611e438284612213565b60208101611e43828461220b565b6000611e4361231561231284612171565b90565b612171565b6000611e4382612301565b6000611e438261231a565b61220d81612325565b60208101611e438284612330565b8051611e4381612188565b60006020828403121561236757612367600080fd5b600061211a8484612347565b603081526000602082017f42656566793a20496e70757420746f6b656e206e6f742070726573656e74206981526f37103634b8bab4b234ba3c903830b4b960811b602082015291505b5060400190565b60208082528101611e4381612373565b6001600160701b038116612191565b8051611e43816123d3565b63ffffffff8116612191565b8051611e43816123ed565b60008060006060848603121561241c5761241c600080fd5b600061242886866123e2565b9350506020612439868287016123e2565b9250506040612201868287016123f9565b60608101612458828661220b565b612465602083018561220b565b61211a604083018461220b565b8051611e43816121aa565b60006020828403121561249257612492600080fd5b600061211a8484612472565b603281526000602082017f42656566793a206465736972656420746f6b656e206e6f742070726573656e748152711034b7103634b8bab4b234ba3c903830b4b960711b602082015291506123bc565b60208082528101611e438161249e565b634e487b7160e01b600052604160045260246000fd5b634e487b7160e01b600052603260045260246000fd5b60006125358383612213565b505060200190565b6000612547825190565b80845260209384019383018060005b8381101561257b57815161256a8882612529565b975060208301925050600101612556565b509495945050505050565b60a08101612594828861220b565b6125a1602083018761220b565b81810360408301526125b3818661253d565b90506125c26060830185612213565b6125cf608083018461220b565b9695505050505050565b601f01601f191690565b6125ec826125d9565b81018181106001600160401b0382111715612609576126096124fd565b6040525050565b600061261b60405190565b9050611ecf82826125e3565b60006001600160401b03821115612640576126406124fd565b5060209081020190565b600061265d61265884612627565b612610565b8381529050602080820190840283018581111561267c5761267c600080fd5b835b818110156126a057806126918882612472565b8452506020928301920161267e565b5050509392505050565b600082601f8301126126be576126be600080fd5b815161211a84826020860161264a565b6000602082840312156126e3576126e3600080fd5b81516001600160401b038111156126fc576126fc600080fd5b61211a848285016126aa565b602181526000602082017f42656566793a20496e7369676e69666963616e7420696e70757420616d6f756e8152601d60fa1b602082015291506123bc565b60208082528101611e4381612708565b604081016127648285612213565b6120576020830184612213565b602281526000602082017f42656566793a20496e70757420746f6b656e206973206e6f7420617070726f76815261195960f21b602082015291506123bc565b60208082528101611e4381612771565b602a81526000602082017f42656566793a20496e636f6d70617469626c65206c6971756964697479207061815269697220666163746f727960b01b602082015291506123bc565b60208082528101611e43816127c0565b634e487b7160e01b600052601260045260246000fd5b634e487b7160e01b600052601160045260246000fd5b60008261285257612852612817565b500490565b60008160001904831182151516156128715761287161282d565b500290565b606081016128848286612213565b6124656020830185612213565b600080604083850312156128a7576128a7600080fd5b60006128b38585612472565b92505060206122db85828601612472565b602681526000602082017f556e69737761705632526f757465723a20494e53554646494349454e545f415f815265105353d5539560d21b602082015291506123bc565b60208082528101611e43816128c4565b602681526000602082017f556e69737761705632526f757465723a20494e53554646494349454e545f425f815265105353d5539560d21b602082015291506123bc565b60208082528101611e4381612917565b60005b8381101561298557818101518382015260200161296d565b83811115610c3a5750506000910152565b60006129a0825190565b6129ae81856020860161296a565b9290920192915050565b60006120578284612996565b601a815260006020820179109959599e4e88115512081d1c985b9cd9995c8819985a5b195960321b815291505b5060200190565b60208082528101611e43816129c4565b6000600019821415612a1c57612a1c61282d565b5060010190565b602681526000602082017f42656566793a204c6971756964697479207061697220726573657276657320748152656f6f206c6f7760d01b602082015291506123bc565b60208082528101611e4381612a23565b6000611e436123128381565b61220d81612a76565b6101008101612a9a828b612213565b612aa7602083018a612213565b612ab4604083018961220b565b612ac1606083018861220b565b612ace6080830187612a82565b612adb60a0830186612a82565b612ae860c0830185612213565b612af560e083018461220b565b9998505050505050505050565b600080600060608486031215612b1a57612b1a600080fd5b6000612b268686612472565b9350506020612b3786828701612472565b925050604061220186828701612472565b60008219821115612b5b57612b5b61282d565b500190565b600082821015612b7257612b7261282d565b500390565b801515612191565b8051611e4381612b77565b600060208284031215612b9f57612b9f600080fd5b600061211a8484612b7f565b602a81526000602082017f5361666545524332303a204552433230206f7065726174696f6e20646964206e8152691bdd081cdd58d8d9595960b21b602082015291506123bc565b60208082528101611e4381612bab565b60408101612c108285612213565b612057602083018461220b565b603681526000602082017f5361666545524332303a20617070726f76652066726f6d206e6f6e2d7a65726f81527520746f206e6f6e2d7a65726f20616c6c6f77616e636560501b602082015291506123bc565b60208082528101611e4381612c1d565b602681526000602082017f416464726573733a20696e73756666696369656e742062616c616e636520666f8152651c8818d85b1b60d21b602082015291506123bc565b60208082528101611e4381612c80565b601d81526000602082017f416464726573733a2063616c6c20746f206e6f6e2d636f6e7472616374000000815291506129f1565b60208082528101611e4381612cd3565b6000612d21825190565b808452602084019350612d3881856020860161296a565b612d41816125d9565b9093019392505050565b602080825281016120578184612d1756fea2646970667358221220423a7407b91f52a4c3f7f7795f5d8f005090b2b06e002804b62dfbfb3291679664736f6c63430008090033",
  "linkReferences": {},
  "deployedLinkReferences": {}
}