{
  "_format": "hh-sol-artifact-1",
  "contractName": "SVG4",
  "sourceName": "contracts/svg/SVG4.sol",
  "abi": [
    {
      "inputs": [],
      "name": "getSvgPart4",
      "outputs": [
        {
          "internalType": "string",
          "name": "",
          "type": "string"
        }
      ],
      "stateMutability": "pure",
      "type": "function"
    }
  ],
  "bytecode": "0x608060405234801561001057600080fd5b50613162806100206000396000f3fe608060405234801561001057600080fd5b506004361061002b5760003560e01c8063d02c065514610030575b600080fd5b61003861004e565b60405161004591906100d5565b60405180910390f35b606060405160200161005f90611393565b604051602081830303815290604052905090565b60005b8381101561008e578181015183820152602001610076565b8381111561009d576000848401525b50505050565b60006100ad825190565b8084526020840193506100c4818560208601610073565b601f01601f19169290920192915050565b602080825281016100e681846100a3565b9392505050565b7f3c6c696e6520636c6173733d22636c732d3130222078313d22313238362e313581527f222079313d223131302e3039222078323d22313239342e3732222079323d2231602082015267191897181a91179f60c11b604082015260005b5060480190565b7f3c6c696e6520636c6173733d22636c732d3130222078313d22313239352e323381527f222079313d223130392e3931222078323d22313330332e3537222079323d22316020820152671918171b1891179f60c11b6040820152600061014a565b7f3c6c696e6520636c6173733d22636c732d3130222078313d22313330332e363181527f222079313d223130372e3834222078323d22313331322e3335222079323d2231602082015264189c11179f60d91b604082015260005b5060450190565b7f3c6c696e6520636c6173733d22636c732d3130222078313d22313331302e323781527f222079313d223130342e35222078323d22313331392e3434222079323d2231316020820152661a17191891179f60c91b604082015260005b5060470190565b7f3c6c696e6520636c6173733d22636c732d3130222078313d22313332312e373981527f222079313d2239332e3437222078323d22313333312e37222079323d22313032602082015265171c1a11179f60d11b604082015260005b5060460190565b7f3c6c696e6520636c6173733d22636c732d3130222078313d22313332352e343881527f222079313d2238372e3238222078323d22313333352e3736222079323d223936602082015265171c9c91179f60d11b604082015260006102d1565b7f3c6c696e6520636c6173733d22636c732d3130222078313d22313332382e333981527f222079313d2237382e3931222078323d22313333392e3631222079323d223839602082015265171a9891179f60d11b604082015260006102d1565b7f3c6c696e6520636c6173733d22636c732d3130222078313d22313333302e323981527f222079313d2237302e3537222078323d22313334322e3334222079323d223831602082015265171c9a91179f60d11b604082015260006102d1565b7f3c6c696e6520636c6173733d22636c732d3130222078313d22313333312e303581527f222079313d2236302e3939222078323d22313334342e3231222079323d223733602082015265171a9991179f60d11b604082015260006102d1565b7f3c6c696e6520636c6173733d22636c732d3130222078313d22313333302e363581527f222079313d2234392e3634222078323d22313334352e3035222079323d223633602082015265171c1c11179f60d11b604082015260006102d1565b7f3c6c696e6520636c6173733d22636c732d3130222078313d22313332362e303281527f222079313d2233362e3432222078323d22313334342e3736222079323d223534602082015265171c9b91179f60d11b604082015260006102d1565b7f3c6c696e6520636c6173733d22636c732d3130222078313d22313330392e333581527f222079313d22382e3033222078323d22313331392e34222079323d2231372e396020820152631c11179f60e11b604082015260005b5060440190565b7f3c6c696e6520636c6173733d22636c732d3130222078313d22313332372e313481527f222079313d2231382e3637222078323d22313334302e3934222079323d22333260208201526517199991179f60d11b604082015260006102d1565b7f3c6c696e6520636c6173733d22636c732d3130222078313d22313331372e303981527f222079313d22382e3434222078323d22313332332e3233222079323d2231342e6020820152641a9891179f60d91b6040820152600061020c565b7f3c6c696e6520636c6173733d22636c732d3130222078313d22313333342e323581527f222079313d2231362e3333222078323d22313334352e3439222079323d22323760208201526517199911179f60d11b604082015260006102d1565b7f3c6c696e6520636c6173733d22636c732d3130222078313d22313332352e383281527f222079313d22372e3737222078323d22313333312e3433222079323d2231332e602082015264191b11179f60d91b6040820152600061020c565b7f3c6c696e6520636c6173733d22636c732d3130222078313d22313333392e373481527f222079313d2231312e3935222078323d22313335392e3732222079323d223332602082015265171a1b11179f60d11b604082015260006102d1565b7f3c6c696e6520636c6173733d22636c732d3130222078313d22313334382e383881527f222079313d2231312e3935222078323d22313336382e3934222079323d223332602082015265171a1c91179f60d11b604082015260006102d1565b7f3c6c696e6520636c6173733d22636c732d3130222078313d22313335382e303281527f222079313d2231312e3935222078323d22313337382e3033222079323d223332602082015265171a1991179f60d11b604082015260006102d1565b7f3c6c696e6520636c6173733d22636c732d3130222078313d22313337362e393781527f222079313d2232302e3131222078323d22313338392e3037222079323d223332602082015265171a9891179f60d11b604082015260006102d1565b7f3c6c696e6520636c6173733d22636c732d3130222078313d22313338352e393681527f222079313d22372e3835222078323d22313430322e3731222079323d2232352e602082015264181a11179f60d91b6040820152600061020c565b7f3c6c696e6520636c6173733d22636c732d3130222078313d22313430312e303881527f222079313d2231322e3138222078323d22313430372e32222079323d2231382e6020820152641b9c11179f60d91b6040820152600061020c565b7f3c6c696e6520636c6173733d22636c732d3130222078313d22313339362e353781527f222079313d22382e3034222078323d22313339372e3537222079323d22392e316020820152631a91179f60e11b6040820152600061056b565b7f3c6c696e6520636c6173733d22636c732d3130222078313d22313431302e363281527f222079313d2232322e3933222078323d22313432392e3435222079323d22343260208201526517189b11179f60d11b604082015260006102d1565b7f3c6c696e6520636c6173733d22636c732d3130222078313d22313430382e393281527f222079313d2233322e3635222078323d22313432392e3033222079323d22353360208201526517189c11179f60d11b604082015260006102d1565b7f3c6c696e6520636c6173733d22636c732d3130222078313d22313430372e322281527f2079313d2234302e3735222078323d22313432382e3938222079323d2236322e6020820152641c9911179f60d91b6040820152600061020c565b7f3c6c696e6520636c6173733d22636c732d3130222078313d22313430362e333881527f222079313d2234392e3931222078323d22313432392e3435222079323d22373360208201526517199c91179f60d11b604082015260006102d1565b60008051602061310d83398151915281527f222079313d2235382e3339222078323d22313431332e3137222079323d22363660208201526517189c91179f60d11b604082015260006102d1565b7f3c6c696e6520636c6173733d22636c732d3130222078313d22313431352e353381527f222079313d2237302e3132222078323d22313432392e3334222079323d22383460208201526517189c11179f60d11b604082015260006102d1565b7f3c6c696e6520636c6173733d22636c732d3130222078313d22313338362e313181527f222079313d2231382e3637222078323d22313339392e3631222079323d223332602082015265171a9891179f60d11b604082015260006102d1565b7f3c6c696e6520636c6173733d22636c732d3130222078313d22313336392e363181527f222079313d2231312e3935222078323d22313337322e3834222079323d223135602082015265171b1b11179f60d11b604082015260006102d1565b7f3c6c696e6520636c6173733d22636c732d3130222078313d22313337362e313181527f222079313d22372e3739222078323d22313338332e3133222079323d2231352e602082015264189891179f60d91b6040820152600061020c565b60008051602061310d83398151915281527f222079313d2237302e3634222078323d22313432392e3131222079323d22393460208201526517191a11179f60d11b604082015260006102d1565b7f3c6c696e6520636c6173733d22636c732d3130222078313d22313430352e353881527f222079313d2238302e3036222078323d22313431352e3232222079323d223839602082015265171b1c91179f60d11b604082015260006102d1565b7f3c6c696e6520636c6173733d22636c732d3130222078313d22313432302e393281527f222079313d2239352e3339222078323d22313432392e3435222079323d22313060208201526619971c9911179f60c91b6040820152600061026f565b60008051602061310d83398151915281527f222079313d2238392e3435222078323d22313431342e3935222079323d223938602082015265171c1c91179f60d11b604082015260006102d1565b7f3c6c696e6520636c6173733d22636c732d3130222078313d22313431392e313881527f222079313d223130342e32222078323d22313432392e3435222079323d2231316020820152661a171a1b11179f60c91b6040820152600061026f565b7f3c6c696e6520636c6173733d22636c732d3130222078313d22313430382e363181527f222079313d223130312e3631222078323d22313431342e3034222079323d2231602082015267181b971c1a11179f60c11b6040820152600061014a565b7f3c6c696e6520636c6173733d22636c732d3130222078313d22313431382e323481527f222079313d223131322e3932222078323d22313432392e3436222079323d2231602082015267191b171b1b91179f60c11b6040820152600061014a565b7f3c7061746820636c6173733d22636c732d31302220643d224d313430342e353681527f2c3137312e3638632d2e37382c322e39332d322e30312c352e38362d332e3638602082015267161c17199991179f60c11b6040820152600061014a565b7f3c7061746820636c6173733d22636c732d31302220643d224d313338362e313181527f2c3134322e316830632d2e31332d322e33342d2e36332d342e31352d2e36332d6020820152661a17189a91179f60c91b6040820152600061026f565b7f3c7061746820636c6173733d22636c732d31302220643d224d313431372e333881527f2c3136352e3931632e34362d312e33322c2e38322d332e33312c2e35342d362e602082015264189a11179f60d91b6040820152600061020c565b7f3c7061746820636c6173733d22636c732d31302220643d224d313431362e333781527f2c3132372e3438632d2e39342d312e32342d312e39382d322e35312d332e31336020820152671699971b9c91179f60c11b6040820152600061014a565b7f3c7061746820636c6173733d22636c732d31302220643d224d313431392e343281527f2c3133312e3938632d2e33372d2e36312d2e37362d312e32342d312e31382d31602082015265171c1b91179f60d11b604082015260006102d1565b7f3c7061746820636c6173733d22636c732d31302220643d224d313432322e303881527f2c3133372e3138632d2e32382d2e36362d2e35382d312e33332d2e39322d322e602082015264181891179f60d91b6040820152600061020c565b7f3c7061746820636c6173733d22636c732d31302220643d224d313432332e393981527f2c3134332e3039632d2e31352d2e36362d2e33322d312e33342d2e35322d322e602082015264181a11179f60d91b6040820152600061020c565b7f3c7061746820636c6173733d22636c732d31302220643d224d313432342e363781527f2c3134392e3933632e30322d2e36362c2e30322d312e33392d2e30322d322e316020820152631c11179f60e11b6040820152600061056b565b7f3c7061746820636c6173733d22636c732d31302220643d224d313432332e393281527916189a9a171b1cb997191c16971b9b96171a969917189c11179f60311b602082015260005b50603a0190565b7f3c7061746820636c6173733d22636c732d31302220643d224d313337352e353281527f2c3134392e3939632e33332c2e37382c312e33312c312e38322c342e33322c3260208201526517181a91179f60d11b604082015260006102d1565b7f3c7061746820636c6173733d22636c732d31302220643d224d313338392c313781527f362e343463332e38392c2e38342c31302e37332d322e38342c31362e33382d316020820152661a97189b91179f60c91b6040820152600061026f565b7f3c7061746820636c6173733d22636c732d31302220643d224d313334332e312c815279189a9a171b99b999971c16971a1b96199718961a97181991179f60311b60208201526000611280565b7f3c7061746820636c6173733d22636c732d32312220643d224d313432382e342c81527f3135312e38682e30315633312e343363302d31322e39382d31302e35322d323360208201527f2e352d32332e352d32332e35682d3132302e3337732d342e35372d2e33332d3760408201527f2e37332c312e3937632d2e31392c2e31332d2e33382c2e32382d2e35352c2e3460608201527f342d2e30362c2e30362d2e31312c2e31322d2e31362c2e31362d2e31342c2e3160808201527f352d2e32382c2e32392d2e342c2e34362d2e37362c2e39322d312e33362c312e60a08201527f37382d312e352c332e33362d2e30312c2e35352c302c312e31392c2e30392c3160c08201527f2e36362d31352e37352c2e37362d32322e34332c31302e38382d31372e32382c60e08201527f32302e31382d322e35332c312e36382d342e35352c332e38322d352e36342c366101008201527f2e33342d312e38392c332e36392d2e39352c372e35322c312e31312c31302e376101208201527f372c312e30372c312e37372c322e37372c332e37342c342e37352c352e32332c6101408201527f322e30362c312e36372c342e31342c322e37352c352e35312c322e39372c342e6101608201527f34382c2e36392c362e33342d342e372c362e33342d342e376c2d2e31342d2e316101808201527f32632e31392d2e35312c2e32392d312e30352c2e32392d312e35392c2e30372c6101a08201527f2e38342c2e32382c312e36352c2e36312c322e34312c312e32312c322e37362c6101c08201527f332e38362c342e33362c362e37342c342e39342c312e34322c2e32392c322e396101e08201527f2c2e33352c342e33352c2e32352c2e32392d2e30312c2e36312d2e30322c2e396102008201527f322d2e30322c2e35322d2e30312c312e33362d2e36332c312e38342d2e37356c6102208201527f312e34332d312e372c312e34372c2e38392c31382e31342d312e31312c352e326102408201527f2c382e35382c2e31322c31312e32322d312e31312c332e33362d322e37342c356102608201527f2e36372d342e36332c352e37372d362e36372c342e30352d372e38322c2e38356102808201527f2d332e32382d312e342d322e32352d322e33362c2e31312d322e37392c352e306102a08201527f332c2e31312c322e33392d322e32332c2e39382d342e39392d312e38312d322e6102c08201527f36372d332e342d322e3535632d322d312e30372d342e32342d312e33382d362e6102e08201527f38382d2e35362d332e38332c312e31392d362e38352c342e32322d382e33352c6103008201527f372e39312d312e30312c322e34382d312e38312c332e38352d312e36352c362e6103208201527f35312c2e33312c352e30332c322e36392c382e362c362e31352c31312e30332c6103408201527f2e35332c2e35332c31332e31372c31332e31352c31332e31372c31332e31372c6103608201527f322e372c312e39322c382e33392c312e38382c31302e32342c312e39322c332e6103808201527f35372d2e30362c31352e34332d322e39312c31362e31332d332e32346c362e396103a08201527f382c372e3139632d2e39392c332e32392d332e34382c31312e34372d332e35346103c08201527f2c31352e30362c2e30352c312e38352c2e32382c372e31322c312e38382c31306103e08201527f2e30396c31322e36342c31332e33352d2e30382d2e3263322e342c332e30312c6104008201527f352e37382c352e30332c31302e33392c352e33312c322e36362c2e31362c352e6104208201527f33372d2e31362c372e38352d312e31382c332e36392d312e34392c362e37322d6104408201527f342e35312c372e39312d382e33352c2e38312d322e36332c2e35312d342e38386104608201527f2d2e35362d362e38386c2d322e36332d322e37392d332e36312d312e37352d336104808201527f2e322d2e33332d322e39382c312e36382d312e31362c322e34362c312e31392c6104a08201527f342e30352d342e36352d2e33342d322e33382d332e37372c2e34322d372e35356104c08201527f2c342e31332d372e352c372e35392d352e39382c342e39332d312e37392c352e6104e08201527f34362d312c342e39392d2e32352c362e37372c312e35392c342e38372c342e386105008201527f362d312e35312c31302e3935632d2e30322c2e31322d312e30372c372e32312c6105208201527f322e33342c362e33382c2e322d2e30352d322e36312c312e39382d322e36342c6105408201527f322e31392d2e30312c2e31342c312e33332c312e36332c2e31312c312e38396c6105608201527f2d2e342d2e373763302c2e33312c312e30382c2e36342d2e33322c312e30346c6105808201527f2e32322c2e393263302c2e30382c2e382c2e31322d2e32352c302c302c302c2e6105a08201527f39362c312e39332c2e32372c2e38372d2e30372c312e33352d2e31332c312e386105c08201527f312c2e31332c332e31322c2e35392c322e38372c322e36332c352e38352c352e6105e08201527f34312c372e30362c2e34352c2e322c312e39352c2e36352c322e34332c2e37356106008201527f2d2e32312c2e30342d322e31312c2e30352d322e33312c2e31326c2d2e34372c6106208201527f2e3338732d342e33362c312e38372d332e36362c362e3335632e32312c312e336106408201527f392c2e37332c322e34362c312e36372c342e32362c312e34392c312e39372c336106608201527f2e34362c332e36382c352e32332c342e37352c332e32342c322e30362c372e306106808201527f382c322e39392c31302e37372c312e312c322e35332d312e30392c342e36362d6106a08201527f332e31332c362e33342d352e36342c392e33372c352e31382c31392e37322d316106c08201527f2e342c32302e33362d31372e342c372e34312c312e33352c382e30332d362e306106e08201527f312c372e38352d392e38365a6d2d3135392e32312d39372e3332632d2e30342d6107008201527f2e33352d2e31322d2e372d2e32342d312e30326c2e32382c2e3138632d2e30386107208201527f2c2e35332d2e30352c2e38352d2e30352c2e38355a6d3131332e36372c3131326107408201527f2e3631732e30312d2e30312c2e30322d2e30316c2e30322c2e3032732d2e30346107608201526f169718189697181a96971818ad11179f60811b6107808201527f3c7061746820636c6173733d22636c732d31302220643d224d313237342e31316107908201527f2c3130352e39337331332e32372c31332e32372c31332e32372c31332e3238636107b08201527f322e37322c312e39332c382e34352c312e38392c31302e332c312e39332c332e6107d08201527b1b1697181b161b97181a96971b1996189817199b1698971b1891179f60211b6107f08201527f3c7061746820636c6173733d22636c732d31302220643d224d313331382e343261080c8201527f2c3132392e3838632d2e39392c332e33312d312e35362c362e37392d312e363261082c8201527f2c31302e342c2e30352c312e38362c302c372e35372c312e39342c31302e336c61084c8201526d189997191b96189997191b91179f60911b61086c8201527f3c7061746820636c6173733d22636c732d31302220643d224d313432392e343561087a8201527f2c3135322e35375633332e393163302d31342e34332d31312e372d32362e313261089a8201527f2d32362e31322d32362e3132682d3131382e3636732d31302d312e33362d31306108ba8201527f2e372c362e3433632d2e32322c362e39362c31302e30322c362e36362c31302e6108da820152691819161b171b1b11179f60b11b6108fa820152610904016000611ead826100ed565b9150611eb882610151565b9150611ec3826101b2565b9150611ece82610213565b7f3c6c696e6520636c6173733d22636c732d3130222078313d223133313622207981527f313d2239392e3937222078323d22313332352e38222079323d223130392e323360208201526211179f60e91b60408201526043019150611f3182610276565b9150611f3c826102d8565b9150611f4782610337565b9150611f5282610396565b9150611f5d826103f5565b9150611f6882610454565b9150611f73826104b3565b9150611f7e82610512565b9150611f8982610572565b9150611f94826105d1565b9150611f9f8261062f565b9150611faa8261068e565b9150611fb5826106ec565b9150611fc08261074b565b9150611fcb826107aa565b9150611fd682610809565b9150611fe182610868565b9150611fec826108c6565b9150611ff782610924565b915061200282610981565b915061200d826109e0565b915061201882610a3f565b915061202382610a9d565b915061202e82610afc565b915061203982610b49565b915061204482610ba8565b915061204f82610c07565b915061205a82610c66565b915061206582610cc4565b915061207082610d11565b915061207b82610d70565b915061208682610dd0565b915061209182610e1d565b915061209c82610e7d565b91506120a782610ede565b7f3c7061746820636c6173733d22636c732d31302220643d224d313430342e353381527f2c3131322e39346331332e31382c372e38322c32332e33352c32312e38362c3260208201527f342e372c33372e33352c302c302c322e33332c31342e30332d372e36392c313260408201527f2e322d2e36342c31362e312d31312e30362c32322e37322d32302e34392c313760608201527f2e35312d332e36312c352e33392d392e32322c382e36312d31362e33362c352e60808201527f30342d352e32342d322e36332d31332e322d31312e38362d352e31312d31362e60a08201527f36362c2e37332d2e34342c312e362d2e36372c322e34352d2e3637682e30346360c08201527f2e31392c2e30322c2e33382c2e30322c2e35362c2e30322c2e37312c2e30372c60e08201527f312e33382c2e33312c312e39352c2e37332c2e35312c2e33382c2e38392c2e386101008201527f382c312e31392c312e34332c2e35372c312e30322c2e38382c322e32352c312e6101208201527f32332c332e342c2e36372c322e31382c312e35332c342c342e36382c332e33356101408201527f2c342e36332d2e39362c382e36322d362e31352c31312e30352d392e38382c316101608201527f2e36362d322e35372c322e37392d352e34392c332e35362d382e34352c312e386101808201527f322d362e39362c312e35332d31342e35362d312e32352d32312e32332d382e386101a08201527f362d32312e32332d33382e30342d32352e37312d35362e38382d31362e30392d6101c08201527f31312e35322c352e38372d31382e31372c31372e35342d31362e34312c33302e6101e08201527f34382c2e36352c342e37342c352e30342c31322e37322c31312e30382c31312e6102008201527f31372c322e30392d2e35332c332e38342d322e36342c342e312d342e38332c2e6102208201527f30352d2e33342c2e30352d2e36372c2e30312d312e30322d2e31322d312e31376102408201527f2d312e30342d312e38322d312e39332d322e35312d2e36342d2e352d312e32376102608201527f2d312e30312d312e35352d312e37352d2e33372d2e39362d2e31352d322e30386102808201527f2c2e33382d322e39362c312e312d312e382c332e33392d332e31312c352e34396102a08201527f2d332e32312c312e362d2e30372c332e31352c2e36342c342e342c312e36362c6102c08201527f332e37392c332e30382c352e39392c362e35392c342e35312c31312e33382d316102e08201527f2e322c332e38362d342e32352c362e392d372e39362c382e342d322e352c312e6103008201527f30322d352e32332c312e33352d372e392c312e31382d31352e31312d2e39312d6103208201527f31372e31362d32302e34322d31342e31392d33312e38362c2e32352d2e39382c6103408201527f2e35342d312e39332c2e38372d322e38362c392e38372d32382e33362c35312e610360820152771b1a96999a971a1b161b9a971a1b969918971999ad11179f60411b61038082015261039801915061251182610f3f565b7f3c7061746820636c6173733d22636c732d31302220643d224d313432312e353581527f2c3136322e3333632d322e39362d2e36352d352e39372d332e38362d342e393960208201526816989997199b91179f60b91b6040820152604901915061257a82610fa0565b7f3c7061746820636c6173733d22636c732d31302220643d224d313334352e303281527f2c3135342e3239632d2e33342c2e31332d2e372c2e32342d312e30362c2e333260208201527f2d312e37322c2e33382d332e37342d2e30322d342e382d312e34332d2e36322d60408201527f2e38332d2e38342d312e38382d2e39352d322e39312d2e36392d362e352c322e60608201527f35392d31332e30372c372e372d31372e31347331312e38332d352e382c31382e60808201527f33362d352e363463342e31342c2e312c382e38312c312e33312c31302e37362c60a08201527f342e39372c322e39362c352e35372d322e31342c31312e382c2e34382c31372e60c0820152631a91179f60e11b60e08201527f3c7061746820636c6173733d22636c732d31302220643d224d313338342e303560e48201527f2c3134392e39632d2e38342c2e39352d322c312e36392d332e35382c322e30376101048201527f2d2e35342c2e31342d312e35362d2e30332d322e30392c2e31312c2e30372c306101248201527f2c2e35362c2e32322c2e36342c2e32392c302c302c2e33382c2e33372c2e33386101448201527f2c2e33382c2e34342c2e33372c2e362c312e31312c2e36382c312e34312c2e316101648201527f382c2e37352c2e30352c312e35332c2e30392c322e32382c2e30322c2e35362c6101848201527f2e31332c312e30392c2e35322c312e35362c2e35342c2e36372c312e35352c316101a48201527f2e30312c322e33322c2e36322c312e35372d2e38322c312e36312d332e36382c6101c48201527f312e33362d352e31362d2e31322d2e37332d2e38392d322e39322d2e33322d336101e482015266171a9b2d11179f60c91b6102048201527f3c7061746820636c6173733d22636c732d31362220643d224d313336342e323261020b8201527f2c3132342e30386331342e30312d312e36382c32382e32332c362e36382c333261022b8201527f2e33392c32302e31392c322e39342c392e35362d312e32392c32312e30322d3161024b8201527f302e38342c32352e36332c302c302c332e372c392e38352c392e34312c352e3261026b820152631911179f60e11b61028b8201527f3c7061746820636c6173733d22636c732d31362220643d224d313338372c313761028f8201527f332e32396331312e37332d352e37322c31362e35362d31392e38352c31322e366102af8201527f352d33312e39362d332e37372d31312e37312d31362e30332d31392e37342d326102cf8201527f382e30322d32302e31392d352e34312d2e322d31302e382c2e37392d31362e306102ef820152681a161917189a91179f60b91b61030f8201527f3c7061746820636c6173733d22636c732d31302220643d224d313334362e39346103188201527f2c3135372e3831632d352e36352c312e32322d31342e38312c2e38312d31302e61033882015269199b96989b171b91179f60b11b6103588201527f3c7061746820636c6173733d22636c732d31362220643d224d313335322e33336103628201527f2c3132342e3734732d372e37342c322e36372d31332e34372c31322e3039222f610382820152601f60f91b6103a28201527f3c7061746820636c6173733d22636c732d31302220643d224d313431352e37346103a38201527b16189b9a171b1cb999971c1b969a1619971c1a96989997181c11179f60211b6103c38201526103df019150612a6d82611000565b7f3c7061746820636c6173733d22636c732d31302220643d224d313431332e313281527f2c3134352e3435632d312e32372d362e31332d332e39352d31312e39372d382e60208201527f31342d31362e36362d342e35362d352e312d31302e30382d392e33322d31362e60408201526a189b169899171a1a91179f60a91b60608201527f3c7061746820636c6173733d22636c732d31302220643d224d313431332e3939606b8201527f2c3135362e3437632e31312d322e32372c2e30312d342e35372d2e32312d362e608b8201527f37372d2e30342d2e33392d2e30382d2e37372d2e31342d312e3136222f3e000060ab8201527f3c7061746820636c6173733d22636c732d31302220643d224d313430382e363360c98201527f2c3137312e3163312e39322d312e34352c332e30352d332e37312c332e38312d60e98201527f362e30342c2e33312d2e39362c2e35362d312e39332c2e37382d322e3836222f610109820152601f60f91b61012982015261012a019150612bef8261105e565b9150612bfa826110bf565b9150612c058261111e565b9150612c108261117c565b9150612c1b826111da565b9150612c2682611237565b7f3c7061746820636c6173733d22636c732d31302220643d224d313338362e313381527f2c3134322e3338632e31342c322e35332d2e31382c352e36392d322e30362c3760208201527f2e38312d2e35372c2e36342c2e322c322e38332c2e33322c332e35362c2e323760408201527f2c312e362c2e32342c352e35322d322e32352c352e33312d322e30362d2e313760608201527f2d312e38392d322e33392d312e39382d332e38372d2e31312d312e36382d312e60808201527f32342d322e39392d322e39362d332e31372d2e382d2e30382d312e36372c2e3260a08201527f2d322e31372c2e38332d2e37342c2e39332d2e35342c322e32352d2e36332c3360c08201527f2e33362d2e31312c312e34362d2e30342c322e39352c2e32352c342e33392c2e60e08201527f35392c322e38392c322e31392c352e35362c342e39372c362e37382c2e37372c6101008201527f2e33332c312e35392c2e35342c322e34332c2e3632682e3034632e31392c2e306101208201527f322c2e33382c2e30322c2e35362c2e30322c302c302c332e39322c2e35342c386101408201527f2e35392d362e31322c352e32362d372e37392c312e37352d31392e35312d332e6101608201526a1a9c96991a171b9c91179f60a91b61018082015261018b019150612e1382611287565b7f3c7061746820636c6173733d22636c732d32392220643d224d313430352e303881527f2c3134392e3637632d2e30392c31312e32382d352e35392c32322e36372d313660208201527f2e34372c32372e312d312e32332c2e34382d312e39382d312e33352d2e37342d60408201527f312e38362c31302e32382d332e39362c31352e35342d31342e37322c31352e3860608201527f322d32352e32392c2e30332d2e39332c312e34332d2e392c312e342c2e303568608082015264182d11179f60d91b60a082015260a5019150612eea826112e6565b7f3c7061746820636c6173733d22636c732d31302220643d224d313337342e373481527f2c3134362e3036632d2e31342c332e33372c312e33332c362e322c342e30322c60208201527f362e33382c312e342c2e312c322e39312c2e30352c342e31382d2e35392c312e60408201527f33392d2e36392c322e31362d312e37362c322e36322d332e32312c2e36362d3260608201527617189996171c169a17199a16171a9a169b171a9a91179f60491b60808201527f3c7061746820636c6173733d22636c732d31302220643d224d313338302e313860978201527f2c3135352e3736632e30332d2e34342d2e30362d312e31382d2e31372d312e3660b78201527f31732d2e33332d2e38332d2e36342d312e3134632d2e33362d2e33352d2e383560d78201527f2d2e35342d312e33342d2e36352d2e35392d2e31342d312e32312d2e32312d3160f78201527f2e38322d2e31372d2e32342c2e30312d2e34392c2e30352d2e37312c2e31342d61011782015279171b1c16171996971c1c16171b169897181c9619171b1b91179f60311b6101378201527f3c7061746820636c6173733d22636c732d31302220643d224d313338302e33316101518201527f2c3136372e3835732d352e34332c312e38372d342e37322c362e3337632e37316101718201527f2c342e35312c31302e36332c31362e34312c31392e35392c31312e3138222f3e6101918201526101b101915061310682611346565b9291505056fe3c6c696e6520636c6173733d22636c732d3130222078313d22313430352e3531a2646970667358221220c3d39abc8bdb8aee9c26dac48104f8671607fd5053e4b42140c450fd522a0a5264736f6c63430008090033",
  "linkReferences": {},
  "deployedLinkReferences": {}
}